{
	"data": {
		"bytecode": {
			"linkReferences": {},
			"object": "60a0604052306080523480156012575f5ffd5b5060805161416d6100395f395f81816131730152818161319c01526132db015261416d5ff3fe608060405260043610610369575f3560e01c80638456cb59116101c8578063be11b1d0116100fd578063e6801ac71161009d578063f43b05e91161006d578063f43b05e914610b55578063f4cdda3614610b80578063fa3d888e14610bae578063fdb20ccb14610bcd575f5ffd5b8063e6801ac714610ac4578063e74f3fbb14610b03578063f25f4b5614610b17578063f2fde38b14610b36575f5ffd5b8063d80317b6116100d8578063d80317b614610a50578063da507b9114610a65578063dc08b11814610a90578063ddbba77514610aaf575f5ffd5b8063be11b1d0146109c3578063c0c53b8b14610a1d578063c8bdbfb614610a3c575f5ffd5b8063a281c0ce11610168578063b451939811610143578063b451939814610943578063b50722d714610971578063b5545a3c14610990578063bbcd5bbe146109a4575f5ffd5b8063a281c0ce146108bc578063a7076038146108db578063ad3cb1cc14610906575f5ffd5b80638da5cb5b116101a35780638da5cb5b146107c657806390aa0b0f146108025780639764610314610892578063a001ecdd146108a7575f5ffd5b80638456cb5914610751578063892033e6146107655780638c3c4b3414610790575f5ffd5b80634f1ef2861161029e5780635d71c2151161023e578063681561911161021957806368156191146106ec5780636ff1c9bc1461070b578063715018a61461072a5780637b97008d1461073e575f5ffd5b80635d71c2151461069457806360c6d8ae146106c257806363b20117146106d7575f5ffd5b806358a687ec1161027957806358a687ec146105da57806359dcc36e146105ee5780635ad8b373146106535780635c975abb14610672575f5ffd5b80634f1ef2861461059457806352d1902d146105a757806355a373d6146105bb575f5ffd5b80632ad9274011610309578063398348e5116102e4578063398348e51461050b5780633f4ba83a1461052a5780634357c0131461053e5780634626402b1461055d575f5ffd5b80632ad92740146104a257806332ff93b7146104cd5780633335252b146104ec575f5ffd5b80630ccab2ee116103445780630ccab2ee14610417578063227a14c11461043657806325727f441461046f5780632a2461391461048e575f5ffd5b80630c38d0391461037d5780630ca15c3c1461039c5780630cb0d5f8146103bb575f5ffd5b366103795761037734610c5d565b005b5f5ffd5b348015610388575f5ffd5b506103776103973660046138bc565b610eee565b3480156103a7575f5ffd5b506103776103b636600461396e565b61136c565b3480156103c6575f5ffd5b50607a54607b54607c54607d54607e54607f546103e595949392919086565b604080519687526020870195909552938501929092526060840152608083015260a082015260c0015b60405180910390f35b348015610422575f5ffd5b506103776104313660046139a3565b611437565b348015610441575f5ffd5b506104616104503660046139f1565b60866020525f908152604090205481565b60405190815260200161040e565b34801561047a575f5ffd5b50610377610489366004613a0a565b6114ad565b348015610499575f5ffd5b50610461611541565b3480156104ad575f5ffd5b506104616104bc3660046139f1565b60836020525f908152604090205481565b3480156104d8575f5ffd5b506103776104e7366004613a41565b611648565b3480156104f7575f5ffd5b50610377610506366004613a91565b6116f6565b348015610516575f5ffd5b50610377610525366004613ad8565b611917565b348015610535575f5ffd5b50610377611b48565b348015610549575f5ffd5b50610377610558366004613b08565b611b5a565b348015610568575f5ffd5b5060655461057c906001600160a01b031681565b6040516001600160a01b03909116815260200161040e565b6103776105a2366004613b51565b611b8c565b3480156105b2575f5ffd5b50610461611bab565b3480156105c6575f5ffd5b5060645461057c906001600160a01b031681565b3480156105e5575f5ffd5b50610377611bc6565b3480156105f9575f5ffd5b50607354607454607554610621926001600160a01b0316919060ff8082169161010090041684565b604080516001600160a01b0390951685526020850193909352901515918301919091521515606082015260800161040e565b34801561065e575f5ffd5b5061037761066d366004613c12565b611d1f565b34801561067d575f5ffd5b505f5460ff165b604051901515815260200161040e565b34801561069f575f5ffd5b506106846106ae366004613c3b565b608a6020525f908152604090205460ff1681565b3480156106cd575f5ffd5b5061046160685481565b3480156106e2575f5ffd5b5061046160725481565b3480156106f7575f5ffd5b50610377610706366004613c52565b611d35565b348015610716575f5ffd5b506103776107253660046139f1565b611d9a565b348015610735575f5ffd5b50610377611e2a565b61037761074c366004613c3b565b610c5d565b34801561075c575f5ffd5b50610377611e3b565b348015610770575f5ffd5b5061046161077f3660046139f1565b60846020525f908152604090205481565b34801561079b575f5ffd5b506107a4611e4b565b604080519415158552921515602085015291830152606082015260800161040e565b3480156107d1575f5ffd5b507f9016d09d72d40fdae2fd8ceac6b6234c7706214fd39c1cd1e609a0528c199300546001600160a01b031661057c565b34801561080d575f5ffd5b50606954606a54606b54606c54606d54606e54606f5460705460715461084498979695949392919060ff808216916101009004168a565b604080519a8b5260208b0199909952978901969096526060880194909452608087019290925260a086015260c085015260e0840152151561010083015215156101208201526101400161040e565b34801561089d575f5ffd5b5061046160815481565b3480156108b2575f5ffd5b5061046160675481565b3480156108c7575f5ffd5b506103776108d6366004613ca4565b611ea9565b3480156108e6575f5ffd5b506104616108f53660046139f1565b60876020525f908152604090205481565b348015610911575f5ffd5b50610936604051806040016040528060058152602001640352e302e360dc1b81525081565b60405161040e9190613ce2565b34801561094e575f5ffd5b5061068461095d3660046139f1565b608b6020525f908152604090205460ff1681565b34801561097c575f5ffd5b5061037761098b366004613d17565b61203b565b34801561099b575f5ffd5b50610377612137565b3480156109af575f5ffd5b506103776109be3660046139f1565b6122da565b3480156109ce575f5ffd5b506076546077546078546079546109f19392919060ff8082169161010090041685565b60408051958652602086019490945292840191909152151560608301521515608082015260a00161040e565b348015610a28575f5ffd5b50610377610a37366004613e12565b612353565b348015610a47575f5ffd5b506103776124b6565b348015610a5b575f5ffd5b5061046160805481565b348015610a70575f5ffd5b50610461610a7f366004613c3b565b608c6020525f908152604090205481565b348015610a9b575f5ffd5b50610377610aaa366004613e52565b6126eb565b348015610aba575f5ffd5b5061046160825481565b348015610acf575f5ffd5b50610ae3610ade3660046139f1565b612787565b60408051948552602085019390935291830152606082015260800161040e565b348015610b0e575f5ffd5b506103776127de565b348015610b22575f5ffd5b5060665461057c906001600160a01b031681565b348015610b41575f5ffd5b50610377610b503660046139f1565b6129d2565b348015610b60575f5ffd5b50610461610b6f3660046139f1565b60856020525f908152604090205481565b348015610b8b575f5ffd5b50610684610b9a3660046139f1565b60886020525f908152604090205460ff1681565b348015610bb9575f5ffd5b50610461610bc83660046139f1565b612a0c565b348015610bd8575f5ffd5b50610c26610be73660046139f1565b60896020525f90815260409020805460018201546002830154600384015460048501546005860154600690960154949593949293919290919060ff1687565b604080519788526020880196909652948601939093526060850191909152608084015260a0830152151560c082015260e00161040e565b610c65612b59565b610c6d612b9e565b6069544210801590610c815750606a544211155b610cc45760405162461bcd60e51b815260206004820152600f60248201526e53616c65206e6f742061637469766560881b60448201526064015b60405180910390fd5b335f8181526084602052604090205460041615610cf35760405162461bcd60e51b8152600401610cbb90613ebc565b610cfc81612bf7565b610d185760405162461bcd60e51b8152600401610cbb90613ee6565b610d2181612c2a565b610d3d5760405162461bcd60e51b8152600401610cbb90613f14565b335f908152608760205260409020544311610da95760405162461bcd60e51b815260206004820152602660248201527f4f6e6c79206f6e65207472616e73616374696f6e2070657220626c6f636b20616044820152651b1b1bddd95960d21b6064820152608401610cbb565b335f908152608760209081526040808320439055607754608690925290912054610dd39190613f57565b421015610e1b5760405162461bcd60e51b8152602060048201526016602482015275436f6f6c646f776e20706572696f642061637469766560501b6044820152606401610cbb565b813414610e605760405162461bcd60e51b81526020600482015260136024820152720849c8440c2dadeeadce840dad2e6dac2e8c6d606b1b6044820152606401610cbb565b5f610e6a83612c5e565b9050610e763382612c9a565b610e81338285612e33565b610e8a83612ea8565b610e943382612f79565b335f8181526086602090815260409182902042905581518481529081018690527f8fafebcaf9d154343dad25669bfa277f4fbacd7ac6b0c4fed522580e040a0f33910160405180910390a25050610eeb6001603255565b50565b610ef6612f95565b5f5460ff1615610f185760405162461bcd60e51b8152600401610cbb90613f6a565b8483148015610f2657508281145b610f425760405162461bcd60e51b8152600401610cbb90613f96565b5f5b8581101561136357608a5f848484818110610f6157610f61613fc5565b602090810292909201358352508101919091526040015f205460ff1615610fc65760405162461bcd60e51b815260206004820152601960248201527814185e5b595b9d08185b1c9958591e481c1c9bd8d95cdcd959603a1b6044820152606401610cbb565b61100f878783818110610fdb57610fdb613fc5565b9050602002016020810190610ff091906139f1565b6001600160a01b03165f90815260846020526040902054600416151590565b1561102c5760405162461bcd60e51b8152600401610cbb90613ebc565b61105b87878381811061104157611041613fc5565b905060200201602081019061105691906139f1565b612bf7565b6110775760405162461bcd60e51b8152600401610cbb90613ee6565b6110a687878381811061108c5761108c613fc5565b90506020020160208101906110a191906139f1565b612c2a565b6110c25760405162461bcd60e51b8152600401610cbb90613f14565b606f548585838181106110d7576110d7613fc5565b905060200201356072546110eb9190613f57565b11156111095760405162461bcd60e51b8152600401610cbb90613fd9565b6001608a5f85858581811061112057611120613fc5565b9050602002013581526020019081526020015f205f6101000a81548160ff02191690831515021790555084848281811061115c5761115c613fc5565b9050602002013560835f89898581811061117857611178613fc5565b905060200201602081019061118d91906139f1565b6001600160a01b03166001600160a01b031681526020019081526020015f205f8282546111ba9190613f57565b9091555085905084828181106111d2576111d2613fc5565b9050602002013560725f8282546111e99190613f57565b90915550611237905087878381811061120457611204613fc5565b905060200201602081019061121991906139f1565b86868481811061122b5761122b613fc5565b90506020020135612f79565b86868281811061124957611249613fc5565b905060200201602081019061125e91906139f1565b6001600160a01b03167f8fafebcaf9d154343dad25669bfa277f4fbacd7ac6b0c4fed522580e040a0f3386868481811061129a5761129a613fc5565b905060200201355f6040516112b9929190918252602082015260400190565b60405180910390a28282828181106112d3576112d3613fc5565b905060200201358787838181106112ec576112ec613fc5565b905060200201602081019061130191906139f1565b6001600160a01b03167ff7fbd7b10bb4753c87113cbf609a1b1dcc1268c0bf39e562d08df1bff21ff02587878581811061133d5761133d613fc5565b9050602002013560405161135391815260200190565b60405180910390a3600101610f44565b50505050505050565b611374612f95565b6001600160a01b0382166113bf5760405162461bcd60e51b8152602060048201526012602482015271125b9d985b1a5908199959481dd85b1b195d60721b6044820152606401610cbb565b6103e88111156114115760405162461bcd60e51b815260206004820152601760248201527f4665652070657263656e7461676520746f6f20686967680000000000000000006044820152606401610cbb565b606680546001600160a01b0319166001600160a01b039390931692909217909155606755565b61143f612f95565b604080516080810182526001600160a01b03909516808652602086018590529215159085018190529015156060909401849052607380546001600160a01b0319169092179091556074919091556075805461010090930261ff001990921661ffff1990931692909217179055565b6114b5612f95565b846114f85760405162461bcd60e51b8152602060048201526013602482015272125b9d985b1a59081b595c9adb19481c9bdbdd606a1b6044820152606401610cbb565b6040805160c08101825286815260208101869052607c5491810191909152606081018490526080810183905260a001819052607a94909455607b92909255607d55607e55607f55565b6073545f906001600160a01b03166115935760405162461bcd60e51b815260206004820152601560248201527413dc9858db19481b9bdd0818dbdb999a59dd5c9959605a1b6044820152606401610cbb565b60735460408051633fabe5a360e21b815290515f926001600160a01b03169163feaf968c9160048083019260a09291908290030181865afa1580156115da573d5f5f3e3d5ffd5b505050506040513d601f19601f820116820180604052508101906115fe9190614020565b5050509150505f81136116435760405162461bcd60e51b815260206004820152600d60248201526c496e76616c696420707269636560981b6044820152606401610cbb565b919050565b611650612f95565b604080516101408101825289815260208101899052908101879052606081018690526080810185905260a0810184905260c0810183905260e081018290526071805460ff8082161515610100808601829052808404909216151561012090950185905260699c909c55606a9a909a55606b98909855606c96909655606d94909455606e92909255606f5560705561ffff1990921661ff0019909416939093179102179055565b5f5460ff16156117185760405162461bcd60e51b8152600401610cbb90613f6a565b611720612b9e565b607b544211156117695760405162461bcd60e51b8152602060048201526014602482015273105a5c991c9bdc081c195c9a5bd908195b99195960621b6044820152606401610cbb565b335f9081526088602052604090205460ff16156117c85760405162461bcd60e51b815260206004820152601760248201527f41697264726f7020616c726561647920636c61696d65640000000000000000006044820152606401610cbb565b6040516bffffffffffffffffffffffff193360601b166020820152603481018290525f906054016040516020818303038152906040528051906020012090506118478484808060200260200160405190810160405280939291908181526020018383602002808284375f9201919091525050607a549150849050612ff0565b61188a5760405162461bcd60e51b815260206004820152601460248201527324b73b30b634b21036b2b935b63290383937b7b360611b6044820152606401610cbb565b335f908152608860205260408120805460ff19166001179055607c80548492906118b5908490613f57565b9091555050607d54607e54607f546118d292339286926001613005565b60405182815233907f650e45f04ef8a0c267b2f78d983913f69ae3a353b2b32de5429307522be0ab559060200160405180910390a2506119126001603255565b505050565b61191f612f95565b5f5460ff16156119415760405162461bcd60e51b8152600401610cbb90613f6a565b82611965816001600160a01b03165f90815260846020526040902054600416151590565b156119825760405162461bcd60e51b8152600401610cbb90613ebc565b61198b81612bf7565b6119a75760405162461bcd60e51b8152600401610cbb90613ee6565b6119b081612c2a565b6119cc5760405162461bcd60e51b8152600401610cbb90613f14565b5f828152608a602052604090205460ff1615611a265760405162461bcd60e51b815260206004820152601960248201527814185e5b595b9d08185b1c9958591e481c1c9bd8d95cdcd959603a1b6044820152606401610cbb565b606f54607254611a37908590613f57565b1115611a555760405162461bcd60e51b8152600401610cbb90613fd9565b5f828152608a60209081526040808320805460ff191660011790556001600160a01b0387168352608390915281208054859290611a93908490613f57565b925050819055508260725f828254611aab9190613f57565b90915550611abb90508484612f79565b604080518481525f60208201526001600160a01b038616917f8fafebcaf9d154343dad25669bfa277f4fbacd7ac6b0c4fed522580e040a0f33910160405180910390a281846001600160a01b03167ff7fbd7b10bb4753c87113cbf609a1b1dcc1268c0bf39e562d08df1bff21ff02585604051611b3a91815260200190565b60405180910390a350505050565b611b50612f95565b611b58613117565b565b611b62612f95565b6001600160a01b03919091165f908152608b60205260409020805460ff1916911515919091179055565b611b94613168565b611b9d8261320c565b611ba78282613214565b5050565b5f611bb46132d0565b505f5160206141185f395f51905f5290565b335f908152608b60205260409020547f3114365664767534a65ed86f6b30d534fcb3cd028269d38aacd8479cf73cd7a89060ff16611c465760405162461bcd60e51b815260206004820152601e60248201527f4e6f7420617574686f72697a6564206d756c7469736967207369676e657200006044820152606401610cbb565b5f818152608c60205260408120805491611c5f8361406e565b90915550506078545f828152608c60205260409020541015611cc35760405162461bcd60e51b815260206004820152601f60248201527f496e73756666696369656e74206d756c746973696720617070726f76616c73006044820152606401610cbb565b5f818152608c60209081526040808320929092556071805461ffff191660011790556072548251478152918201527f17b1a568460bc127a7f9a9677d502ac593fa4af690a1c3aed38bda591e196e2e910160405180910390a150565b611d27612f95565b608092909255608155608255565b611d3d612f95565b6040805160a081018252868152602081018690529081018490529115156060830181905290151560809092018290526076949094556077929092556078556079805461ffff191661ff001990931692909217610100909102179055565b611da2612f95565b6001600160a01b038116611df85760405162461bcd60e51b815260206004820152601a60248201527f496e76616c6964207769746864726177616c20616464726573730000000000006044820152606401610cbb565b6040516001600160a01b038216904780156108fc02915f818181858888f19350505050158015611ba7573d5f5f3e3d5ffd5b611e32612f95565b611b585f613319565b611e43612f95565b611b58613389565b5f5f5f5f60695f01544210158015611e655750606a544211155b607154607254606f5492965060ff9091169450611e8191614086565b606a549092504210611e93575f611ea1565b606a54611ea1904290614086565b905090919293565b611eb1612f95565b5f5460ff1615611ed35760405162461bcd60e51b8152600401610cbb90613f6a565b611edb612b9e565b5f5b81811015612030575f838383818110611ef857611ef8613fc5565b9050602002016020810190611f0d91906139f1565b6001600160a01b0381165f90815260896020526040902060068101549192509060ff168015611f3c5750805415155b15612026575f611f4b83612a0c565b905080156120245780826001015f828254611f669190613f57565b909155505060645460405163a9059cbb60e01b81526001600160a01b038581166004830152602482018490529091169063a9059cbb906044016020604051808303815f875af1158015611fbb573d5f5f3e3d5ffd5b505050506040513d601f19601f82011682018060405250810190611fdf9190614099565b50826001600160a01b03167f896e034966eaaf1adc54acc0f257056febbd300c9e47182cf761982cf1f5e4308260405161201b91815260200190565b60405180910390a25b505b5050600101611edd565b50611ba76001603255565b612043612f95565b888714801561205157508685145b801561205c57508483145b801561206757508281145b6120835760405162461bcd60e51b8152600401610cbb90613f96565b5f5b8981101561212a576121228b8b838181106120a2576120a2613fc5565b90506020020160208101906120b791906139f1565b8a8a848181106120c9576120c9613fc5565b905060200201358989858181106120e2576120e2613fc5565b905060200201358888868181106120fb576120fb613fc5565b9050602002013587878781811061211457612114613fc5565b905060200201356001613005565b600101612085565b5050505050505050505050565b5f5460ff16156121595760405162461bcd60e51b8152600401610cbb90613f6a565b612161612b9e565b607154610100900460ff166121af5760405162461bcd60e51b81526020600482015260146024820152731499599d5b991cc8185c9948191a5cd8589b195960621b6044820152606401610cbb565b606a54421180156121c35750606d54607254105b61220f5760405162461bcd60e51b815260206004820152601960248201527f526566756e6420636f6e646974696f6e73206e6f74206d6574000000000000006044820152606401610cbb565b335f90815260856020526040902054806122615760405162461bcd60e51b81526020600482015260136024820152724e6f20726566756e6420617661696c61626c6560681b6044820152606401610cbb565b335f818152608560205260408082208290555183156108fc0291849190818181858888f19350505050158015612299573d5f5f3e3d5ffd5b5060405181815233907fa171b6942063c6f2800ce40a780edce37baa2b618571b11eedd1e69e626e7d769060200160405180910390a250611b586001603255565b6122e2612f95565b6001600160a01b0381166123315760405162461bcd60e51b8152602060048201526016602482015275125b9d985b1a59081d1bdad95b8818dbdb9d1c9858dd60521b6044820152606401610cbb565b606480546001600160a01b0319166001600160a01b0392909216919091179055565b5f61235c6133c5565b805490915060ff600160401b82041615906001600160401b03165f811580156123825750825b90505f826001600160401b0316600114801561239d5750303b155b9050811580156123ab575080155b156123c95760405163f92ee8a960e01b815260040160405180910390fd5b845467ffffffffffffffff1916600117855583156123f357845460ff60401b1916600160401b1785555b6123fc336133ed565b6124046133fe565b61240c613406565b612414613416565b606480546001600160a01b03808b166001600160a01b031992831617909255606580548a841690831617905560668054928916929091169190911790556071805461ff0019166101001790556101f460675583156124ac57845460ff60401b19168555604051600181527fc7f505b2f371ae2175ee4913f4499e1f2633a7b5936321eed1cdaeb6115181d29060200160405180910390a15b5050505050505050565b335f908152608b60205260409020547f731281df435fb3ac8209b35dd5bf0581e52a20e6aceb30aa1cf328306d7ec2209060ff166125365760405162461bcd60e51b815260206004820152601e60248201527f4e6f7420617574686f72697a6564206d756c7469736967207369676e657200006044820152606401610cbb565b5f818152608c6020526040812080549161254f8361406e565b90915550506078545f828152608c602052604090205410156125b35760405162461bcd60e51b815260206004820152601f60248201527f496e73756666696369656e74206d756c746973696720617070726f76616c73006044820152606401610cbb565b5f818152608c602052604081205560715460ff166126085760405162461bcd60e51b815260206004820152601260248201527114d85b19481b9bdd08199a5b985b1a5e995960721b6044820152606401610cbb565b6064546065546040516370a0823160e01b81523060048201526001600160a01b039283169263a9059cbb92169083906370a0823190602401602060405180830381865afa15801561265b573d5f5f3e3d5ffd5b505050506040513d601f19601f8201168201806040525081019061267f91906140b4565b6040516001600160e01b031960e085901b1681526001600160a01b03909216600483015260248201526044016020604051808303815f875af11580156126c7573d5f5f3e3d5ffd5b505050506040513d601f19601f82011682018060405250810190611ba79190614099565b6126f3612f95565b8281146127125760405162461bcd60e51b8152600401610cbb90613f96565b5f5b838110156127805782828281811061272e5761272e613fc5565b9050602002013560845f87878581811061274a5761274a613fc5565b905060200201602081019061275f91906139f1565b6001600160a01b0316815260208101919091526040015f2055600101612714565b5050505050565b6001600160a01b0381165f908152608360205260408120549080806127ab85612a0c565b6001600160a01b039095165f90815260896020908152604080832060010154608590925290912054949690949350915050565b5f5460ff16156128005760405162461bcd60e51b8152600401610cbb90613f6a565b612808612b9e565b335f908152608960205260409020600681015460ff1661286a5760405162461bcd60e51b815260206004820152601a60248201527f4e6f206163746976652076657374696e67207363686564756c650000000000006044820152606401610cbb565b80546128ab5760405162461bcd60e51b815260206004820152601060248201526f139bc81d1bdad95b9cc81d995cdd195960821b6044820152606401610cbb565b5f6128b533612a0c565b90505f81116129065760405162461bcd60e51b815260206004820152601d60248201527f4e6f20746f6b656e7320617661696c61626c6520666f7220636c61696d0000006044820152606401610cbb565b80826001015f8282546129199190613f57565b909155505060645460405163a9059cbb60e01b8152336004820152602481018390526001600160a01b039091169063a9059cbb906044016020604051808303815f875af115801561296c573d5f5f3e3d5ffd5b505050506040513d601f19601f820116820180604052508101906129909190614099565b5060405181815233907f896e034966eaaf1adc54acc0f257056febbd300c9e47182cf761982cf1f5e4309060200160405180910390a25050611b586001603255565b6129da612f95565b6001600160a01b038116612a0357604051631e4fbdf760e01b81525f6004820152602401610cbb565b610eeb81613319565b6001600160a01b0381165f908152608960209081526040808320815160e08101835281548152600182015493810193909352600281015491830182905260038101546060840152600481015460808401819052600582015460a085015260069091015460ff16151560c0840152612a8291613f57565b421015612a9157505f92915050565b5f816040015142612aa29190614086565b905081606001518110612ac85760208201518251612ac09190614086565b949350505050565b5f60648360a00151845f0151612ade91906140cb565b612ae891906140e2565b90505f83608001518460600151612aff9190614086565b6080850151612b0e9085614086565b8551612b1b908590614086565b612b2591906140cb565b612b2f91906140e2565b90505f612b3c8284613f57565b9050846020015181612b4e9190614086565b979650505050505050565b5f5460ff1615611b585760405162461bcd60e51b815260206004820152601060248201526f14185d5cd8589b194e881c185d5cd95960821b6044820152606401610cbb565b600260325403612bf05760405162461bcd60e51b815260206004820152601f60248201527f5265656e7472616e637947756172643a207265656e7472616e742063616c6c006044820152606401610cbb565b6002603255565b6079545f9060ff161580612c2457506001600160a01b0382165f9081526084602052604090205460011615155b92915050565b6079545f90610100900460ff161580612c245750506001600160a01b03165f90815260846020526040902054600216151590565b6075545f90819060ff16612c7a57612c7583613426565b612c83565b612c838361346a565b607054909150612c9390826140cb565b9392505050565b606b54811115612cec5760405162461bcd60e51b815260206004820152601d60248201527f45786365656473207065722d7472616e73616374696f6e206c696d69740000006044820152606401610cbb565b607654811115612d3e5760405162461bcd60e51b815260206004820152601860248201527f4578636565647320616e74692d7768616c65206c696d697400000000000000006044820152606401610cbb565b606c546001600160a01b0383165f90815260836020526040902054612d64908390613f57565b1115612db25760405162461bcd60e51b815260206004820152601860248201527f45786365656473207065722d77616c6c6574206c696d697400000000000000006044820152606401610cbb565b606e54607254612dc3908390613f57565b1115612e045760405162461bcd60e51b815260206004820152601060248201526f0457863656564732068617264206361760841b6044820152606401610cbb565b606f54607254612e15908390613f57565b1115611ba75760405162461bcd60e51b8152600401610cbb90613fd9565b6001600160a01b0383165f9081526083602052604081208054849290612e5a908490613f57565b925050819055508160725f828254612e729190613f57565b90915550506001600160a01b0383165f9081526085602052604081208054839290612e9e908490613f57565b9091555050505050565b5f606754118015612ec357506066546001600160a01b031615155b15610eeb575f61271060675483612eda91906140cb565b612ee491906140e2565b6066546040519192506001600160a01b03169082156108fc029083905f818181858888f19350505050158015612f1c573d5f5f3e3d5ffd5b508060685f828254612f2e9190613f57565b90915550506066546040518281526001600160a01b03909116907f34e8a84e537ed93d93ddf39a78816dcbc74df8397c635838b8cc973d4fa943f89060200160405180910390a25050565b611ba782826080546081546082546001613005565b6001603255565b33612fc77f9016d09d72d40fdae2fd8ceac6b6234c7706214fd39c1cd1e609a0528c199300546001600160a01b031690565b6001600160a01b031614611b585760405163118cdaa760e01b8152336004820152602401610cbb565b5f82612ffc8584613593565b14949350505050565b6040518060e001604052808681526020015f815260200142815260200185815260200184815260200183815260200182151581525060895f886001600160a01b03166001600160a01b031681526020019081526020015f205f820151815f01556020820151816001015560408201518160020155606082015181600301556080820151816004015560a0820151816005015560c0820151816006015f6101000a81548160ff021916908315150217905550905050856001600160a01b03167fcf204ce1b55772bfa423f3f0c5d9a2cfe3197a5110073875f0b9c7dd3538c7d6864287604051613107939291909283526020830191909152604082015260600190565b60405180910390a2505050505050565b61311f6135d5565b5f805460ff191690557f5db9ee0a495bf2e6ff9c91a7834c1ba4fdd244a5e8aa4e537bd38aeae4b073aa335b6040516001600160a01b03909116815260200160405180910390a1565b306001600160a01b037f00000000000000000000000000000000000000000000000000000000000000001614806131ee57507f00000000000000000000000000000000000000000000000000000000000000006001600160a01b03166131e25f5160206141185f395f51905f52546001600160a01b031690565b6001600160a01b031614155b15611b585760405163703e46dd60e11b815260040160405180910390fd5b610eeb612f95565b816001600160a01b03166352d1902d6040518163ffffffff1660e01b8152600401602060405180830381865afa92505050801561326e575060408051601f3d908101601f1916820190925261326b918101906140b4565b60015b61329657604051634c9c8ce360e01b81526001600160a01b0383166004820152602401610cbb565b5f5160206141185f395f51905f5281146132c657604051632a87526960e21b815260048101829052602401610cbb565b611912838361361d565b306001600160a01b037f00000000000000000000000000000000000000000000000000000000000000001614611b585760405163703e46dd60e11b815260040160405180910390fd5b7f9016d09d72d40fdae2fd8ceac6b6234c7706214fd39c1cd1e609a0528c19930080546001600160a01b031981166001600160a01b03848116918217845560405192169182907f8be0079c531659141344cd1fd0a4f28419497f9722a3daafe3b4186f6b6457e0905f90a3505050565b613391612b59565b5f805460ff191660011790557f62e78cea01bee320cd4e420270b5ea74000d11b0c9f74754ebdbfc544b05a25861314b3390565b5f807ff0c57e16840df040f15088dc2f81fe391c3923bec73e23a9662efc9c229c6a00612c24565b6133f5613672565b610eeb81613697565b611b58613672565b61340e613672565b611b5861369f565b61341e613672565b611b586136b2565b6075545f90610100900460ff161561345957607454670de0b6b3a76400009061344f90846140cb565b612c2491906140e2565b612c2466038d7ea4c68000836140e2565b6073545f906001600160a01b03166134bc5760405162461bcd60e51b815260206004820152601560248201527413dc9858db19481b9bdd0818dbdb999a59dd5c9959605a1b6044820152606401610cbb565b60735460408051633fabe5a360e21b815290515f926001600160a01b03169163feaf968c9160048083019260a09291908290030181865afa158015613503573d5f5f3e3d5ffd5b505050506040513d601f19601f820116820180604052508101906135279190614020565b5050509150505f81136135735760405162461bcd60e51b8152602060048201526014602482015273496e76616c6964206f7261636c6520707269636560601b6044820152606401610cbb565b6a52b7d2dcc80cd2e400000061358982856140cb565b612c9391906140e2565b5f81815b84518110156135cd576135c3828683815181106135b6576135b6613fc5565b60200260200101516136ba565b9150600101613597565b509392505050565b5f5460ff16611b585760405162461bcd60e51b815260206004820152601460248201527314185d5cd8589b194e881b9bdd081c185d5cd95960621b6044820152606401610cbb565b613626826136e3565b6040516001600160a01b038316907fbc7cd75a20ee27fd9adebab32041f755214dbc6bffa90cc0225b39da2e5c2d3b905f90a280511561366a576119128282613746565b611ba76137b8565b61367a6137d7565b611b5857604051631afcd79f60e31b815260040160405180910390fd5b6129da613672565b6136a7613672565b5f805460ff19169055565b612f8e613672565b5f8183106136d4575f828152602084905260409020612c93565b505f9182526020526040902090565b806001600160a01b03163b5f0361371857604051634c9c8ce360e01b81526001600160a01b0382166004820152602401610cbb565b5f5160206141185f395f51905f5280546001600160a01b0319166001600160a01b0392909216919091179055565b60605f5f846001600160a01b0316846040516137629190614101565b5f60405180830381855af49150503d805f811461379a576040519150601f19603f3d011682016040523d82523d5f602084013e61379f565b606091505b50915091506137af8583836137f0565b95945050505050565b3415611b585760405163b398979f60e01b815260040160405180910390fd5b5f6137e06133c5565b54600160401b900460ff16919050565b606082613805576138008261384c565b612c93565b815115801561381c57506001600160a01b0384163b155b1561384557604051639996b31560e01b81526001600160a01b0385166004820152602401610cbb565b5080612c93565b80511561385c5780518082602001fd5b60405163d6bda27560e01b815260040160405180910390fd5b5f5f83601f840112613885575f5ffd5b5081356001600160401b0381111561389b575f5ffd5b6020830191508360208260051b85010111156138b5575f5ffd5b9250929050565b5f5f5f5f5f5f606087890312156138d1575f5ffd5b86356001600160401b038111156138e6575f5ffd5b6138f289828a01613875565b90975095505060208701356001600160401b03811115613910575f5ffd5b61391c89828a01613875565b90955093505060408701356001600160401b0381111561393a575f5ffd5b61394689828a01613875565b979a9699509497509295939492505050565b80356001600160a01b0381168114611643575f5ffd5b5f5f6040838503121561397f575f5ffd5b61398883613958565b946020939093013593505050565b8015158114610eeb575f5ffd5b5f5f5f5f608085870312156139b6575f5ffd5b6139bf85613958565b93506020850135925060408501356139d681613996565b915060608501356139e681613996565b939692955090935050565b5f60208284031215613a01575f5ffd5b612c9382613958565b5f5f5f5f5f60a08688031215613a1e575f5ffd5b505083359560208501359550604085013594606081013594506080013592509050565b5f5f5f5f5f5f5f5f610100898b031215613a59575f5ffd5b505086359860208801359850604088013597606081013597506080810135965060a0810135955060c0810135945060e0013592509050565b5f5f5f60408486031215613aa3575f5ffd5b83356001600160401b03811115613ab8575f5ffd5b613ac486828701613875565b909790965060209590950135949350505050565b5f5f5f60608486031215613aea575f5ffd5b613af384613958565b95602085013595506040909401359392505050565b5f5f60408385031215613b19575f5ffd5b613b2283613958565b91506020830135613b3281613996565b809150509250929050565b634e487b7160e01b5f52604160045260245ffd5b5f5f60408385031215613b62575f5ffd5b613b6b83613958565b915060208301356001600160401b03811115613b85575f5ffd5b8301601f81018513613b95575f5ffd5b80356001600160401b03811115613bae57613bae613b3d565b604051601f8201601f19908116603f011681016001600160401b0381118282101715613bdc57613bdc613b3d565b604052818152828201602001871015613bf3575f5ffd5b816020840160208301375f602083830101528093505050509250929050565b5f5f5f60608486031215613c24575f5ffd5b505081359360208301359350604090920135919050565b5f60208284031215613c4b575f5ffd5b5035919050565b5f5f5f5f5f60a08688031215613c66575f5ffd5b8535945060208601359350604086013592506060860135613c8681613996565b91506080860135613c9681613996565b809150509295509295909350565b5f5f60208385031215613cb5575f5ffd5b82356001600160401b03811115613cca575f5ffd5b613cd685828601613875565b90969095509350505050565b602081525f82518060208401528060208501604085015e5f604082850101526040601f19601f83011684010191505092915050565b5f5f5f5f5f5f5f5f5f5f60a08b8d031215613d30575f5ffd5b8a356001600160401b03811115613d45575f5ffd5b613d518d828e01613875565b909b5099505060208b01356001600160401b03811115613d6f575f5ffd5b613d7b8d828e01613875565b90995097505060408b01356001600160401b03811115613d99575f5ffd5b613da58d828e01613875565b90975095505060608b01356001600160401b03811115613dc3575f5ffd5b613dcf8d828e01613875565b90955093505060808b01356001600160401b03811115613ded575f5ffd5b613df98d828e01613875565b915080935050809150509295989b9194979a5092959850565b5f5f5f60608486031215613e24575f5ffd5b613e2d84613958565b9250613e3b60208501613958565b9150613e4960408501613958565b90509250925092565b5f5f5f5f60408587031215613e65575f5ffd5b84356001600160401b03811115613e7a575f5ffd5b613e8687828801613875565b90955093505060208501356001600160401b03811115613ea4575f5ffd5b613eb087828801613875565b95989497509550505050565b60208082526010908201526f155cd95c88189b1858dadb1a5cdd195960821b604082015260600190565b602080825260149082015273155cd95c881b9bdd081dda1a5d195b1a5cdd195960621b604082015260600190565b602080825260159082015274155cd95c881b9bdd0812d650c81d995c9a599a5959605a1b604082015260600190565b634e487b7160e01b5f52601160045260245ffd5b80820180821115612c2457612c24613f43565b60208082526012908201527110dbdb9d1c9858dd081a5cc81c185d5cd95960721b604082015260600190565b602080825260159082015274082e4e4c2f240d8cadccee8d040dad2e6dac2e8c6d605b1b604082015260600190565b634e487b7160e01b5f52603260045260245ffd5b6020808252601490820152734578636565647320746f74616c20737570706c7960601b604082015260600190565b805169ffffffffffffffffffff81168114611643575f5ffd5b5f5f5f5f5f60a08688031215614034575f5ffd5b61403d86614007565b6020870151604088015160608901519297509095509350915061406260808701614007565b90509295509295909350565b5f6001820161407f5761407f613f43565b5060010190565b81810381811115612c2457612c24613f43565b5f602082840312156140a9575f5ffd5b8151612c9381613996565b5f602082840312156140c4575f5ffd5b5051919050565b8082028115828204841417612c2457612c24613f43565b5f826140fc57634e487b7160e01b5f52601260045260245ffd5b500490565b5f82518060208501845e5f92019182525091905056fe360894a13ba1a3210667c828492db98dca3e2076cc3735a920a3ca505d382bbca2646970667358221220701259561b5833798421ecd3d9458b5e4ae74a6c022a12a93b66d934e5ec35b664736f6c634300081d0033",
			"opcodes": "PUSH1 0xA0 PUSH1 0x40 MSTORE ADDRESS PUSH1 0x80 MSTORE CALLVALUE DUP1 ISZERO PUSH1 0x12 JUMPI PUSH0 PUSH0 REVERT JUMPDEST POP PUSH1 0x80 MLOAD PUSH2 0x416D PUSH2 0x39 PUSH0 CODECOPY PUSH0 DUP2 DUP2 PUSH2 0x3173 ADD MSTORE DUP2 DUP2 PUSH2 0x319C ADD MSTORE PUSH2 0x32DB ADD MSTORE PUSH2 0x416D PUSH0 RETURN INVALID PUSH1 0x80 PUSH1 0x40 MSTORE PUSH1 0x4 CALLDATASIZE LT PUSH2 0x369 JUMPI PUSH0 CALLDATALOAD PUSH1 0xE0 SHR DUP1 PUSH4 0x8456CB59 GT PUSH2 0x1C8 JUMPI DUP1 PUSH4 0xBE11B1D0 GT PUSH2 0xFD JUMPI DUP1 PUSH4 0xE6801AC7 GT PUSH2 0x9D JUMPI DUP1 PUSH4 0xF43B05E9 GT PUSH2 0x6D JUMPI DUP1 PUSH4 0xF43B05E9 EQ PUSH2 0xB55 JUMPI DUP1 PUSH4 0xF4CDDA36 EQ PUSH2 0xB80 JUMPI DUP1 PUSH4 0xFA3D888E EQ PUSH2 0xBAE JUMPI DUP1 PUSH4 0xFDB20CCB EQ PUSH2 0xBCD JUMPI PUSH0 PUSH0 REVERT JUMPDEST DUP1 PUSH4 0xE6801AC7 EQ PUSH2 0xAC4 JUMPI DUP1 PUSH4 0xE74F3FBB EQ PUSH2 0xB03 JUMPI DUP1 PUSH4 0xF25F4B56 EQ PUSH2 0xB17 JUMPI DUP1 PUSH4 0xF2FDE38B EQ PUSH2 0xB36 JUMPI PUSH0 PUSH0 REVERT JUMPDEST DUP1 PUSH4 0xD80317B6 GT PUSH2 0xD8 JUMPI DUP1 PUSH4 0xD80317B6 EQ PUSH2 0xA50 JUMPI DUP1 PUSH4 0xDA507B91 EQ PUSH2 0xA65 JUMPI DUP1 PUSH4 0xDC08B118 EQ PUSH2 0xA90 JUMPI DUP1 PUSH4 0xDDBBA775 EQ PUSH2 0xAAF JUMPI PUSH0 PUSH0 REVERT JUMPDEST DUP1 PUSH4 0xBE11B1D0 EQ PUSH2 0x9C3 JUMPI DUP1 PUSH4 0xC0C53B8B EQ PUSH2 0xA1D JUMPI DUP1 PUSH4 0xC8BDBFB6 EQ PUSH2 0xA3C JUMPI PUSH0 PUSH0 REVERT JUMPDEST DUP1 PUSH4 0xA281C0CE GT PUSH2 0x168 JUMPI DUP1 PUSH4 0xB4519398 GT PUSH2 0x143 JUMPI DUP1 PUSH4 0xB4519398 EQ PUSH2 0x943 JUMPI DUP1 PUSH4 0xB50722D7 EQ PUSH2 0x971 JUMPI DUP1 PUSH4 0xB5545A3C EQ PUSH2 0x990 JUMPI DUP1 PUSH4 0xBBCD5BBE EQ PUSH2 0x9A4 JUMPI PUSH0 PUSH0 REVERT JUMPDEST DUP1 PUSH4 0xA281C0CE EQ PUSH2 0x8BC JUMPI DUP1 PUSH4 0xA7076038 EQ PUSH2 0x8DB JUMPI DUP1 PUSH4 0xAD3CB1CC EQ PUSH2 0x906 JUMPI PUSH0 PUSH0 REVERT JUMPDEST DUP1 PUSH4 0x8DA5CB5B GT PUSH2 0x1A3 JUMPI DUP1 PUSH4 0x8DA5CB5B EQ PUSH2 0x7C6 JUMPI DUP1 PUSH4 0x90AA0B0F EQ PUSH2 0x802 JUMPI DUP1 PUSH4 0x97646103 EQ PUSH2 0x892 JUMPI DUP1 PUSH4 0xA001ECDD EQ PUSH2 0x8A7 JUMPI PUSH0 PUSH0 REVERT JUMPDEST DUP1 PUSH4 0x8456CB59 EQ PUSH2 0x751 JUMPI DUP1 PUSH4 0x892033E6 EQ PUSH2 0x765 JUMPI DUP1 PUSH4 0x8C3C4B34 EQ PUSH2 0x790 JUMPI PUSH0 PUSH0 REVERT JUMPDEST DUP1 PUSH4 0x4F1EF286 GT PUSH2 0x29E JUMPI DUP1 PUSH4 0x5D71C215 GT PUSH2 0x23E JUMPI DUP1 PUSH4 0x68156191 GT PUSH2 0x219 JUMPI DUP1 PUSH4 0x68156191 EQ PUSH2 0x6EC JUMPI DUP1 PUSH4 0x6FF1C9BC EQ PUSH2 0x70B JUMPI DUP1 PUSH4 0x715018A6 EQ PUSH2 0x72A JUMPI DUP1 PUSH4 0x7B97008D EQ PUSH2 0x73E JUMPI PUSH0 PUSH0 REVERT JUMPDEST DUP1 PUSH4 0x5D71C215 EQ PUSH2 0x694 JUMPI DUP1 PUSH4 0x60C6D8AE EQ PUSH2 0x6C2 JUMPI DUP1 PUSH4 0x63B20117 EQ PUSH2 0x6D7 JUMPI PUSH0 PUSH0 REVERT JUMPDEST DUP1 PUSH4 0x58A687EC GT PUSH2 0x279 JUMPI DUP1 PUSH4 0x58A687EC EQ PUSH2 0x5DA JUMPI DUP1 PUSH4 0x59DCC36E EQ PUSH2 0x5EE JUMPI DUP1 PUSH4 0x5AD8B373 EQ PUSH2 0x653 JUMPI DUP1 PUSH4 0x5C975ABB EQ PUSH2 0x672 JUMPI PUSH0 PUSH0 REVERT JUMPDEST DUP1 PUSH4 0x4F1EF286 EQ PUSH2 0x594 JUMPI DUP1 PUSH4 0x52D1902D EQ PUSH2 0x5A7 JUMPI DUP1 PUSH4 0x55A373D6 EQ PUSH2 0x5BB JUMPI PUSH0 PUSH0 REVERT JUMPDEST DUP1 PUSH4 0x2AD92740 GT PUSH2 0x309 JUMPI DUP1 PUSH4 0x398348E5 GT PUSH2 0x2E4 JUMPI DUP1 PUSH4 0x398348E5 EQ PUSH2 0x50B JUMPI DUP1 PUSH4 0x3F4BA83A EQ PUSH2 0x52A JUMPI DUP1 PUSH4 0x4357C013 EQ PUSH2 0x53E JUMPI DUP1 PUSH4 0x4626402B EQ PUSH2 0x55D JUMPI PUSH0 PUSH0 REVERT JUMPDEST DUP1 PUSH4 0x2AD92740 EQ PUSH2 0x4A2 JUMPI DUP1 PUSH4 0x32FF93B7 EQ PUSH2 0x4CD JUMPI DUP1 PUSH4 0x3335252B EQ PUSH2 0x4EC JUMPI PUSH0 PUSH0 REVERT JUMPDEST DUP1 PUSH4 0xCCAB2EE GT PUSH2 0x344 JUMPI DUP1 PUSH4 0xCCAB2EE EQ PUSH2 0x417 JUMPI DUP1 PUSH4 0x227A14C1 EQ PUSH2 0x436 JUMPI DUP1 PUSH4 0x25727F44 EQ PUSH2 0x46F JUMPI DUP1 PUSH4 0x2A246139 EQ PUSH2 0x48E JUMPI PUSH0 PUSH0 REVERT JUMPDEST DUP1 PUSH4 0xC38D039 EQ PUSH2 0x37D JUMPI DUP1 PUSH4 0xCA15C3C EQ PUSH2 0x39C JUMPI DUP1 PUSH4 0xCB0D5F8 EQ PUSH2 0x3BB JUMPI PUSH0 PUSH0 REVERT JUMPDEST CALLDATASIZE PUSH2 0x379 JUMPI PUSH2 0x377 CALLVALUE PUSH2 0xC5D JUMP JUMPDEST STOP JUMPDEST PUSH0 PUSH0 REVERT JUMPDEST CALLVALUE DUP1 ISZERO PUSH2 0x388 JUMPI PUSH0 PUSH0 REVERT JUMPDEST POP PUSH2 0x377 PUSH2 0x397 CALLDATASIZE PUSH1 0x4 PUSH2 0x38BC JUMP JUMPDEST PUSH2 0xEEE JUMP JUMPDEST CALLVALUE DUP1 ISZERO PUSH2 0x3A7 JUMPI PUSH0 PUSH0 REVERT JUMPDEST POP PUSH2 0x377 PUSH2 0x3B6 CALLDATASIZE PUSH1 0x4 PUSH2 0x396E JUMP JUMPDEST PUSH2 0x136C JUMP JUMPDEST CALLVALUE DUP1 ISZERO PUSH2 0x3C6 JUMPI PUSH0 PUSH0 REVERT JUMPDEST POP PUSH1 0x7A SLOAD PUSH1 0x7B SLOAD PUSH1 0x7C SLOAD PUSH1 0x7D SLOAD PUSH1 0x7E SLOAD PUSH1 0x7F SLOAD PUSH2 0x3E5 SWAP6 SWAP5 SWAP4 SWAP3 SWAP2 SWAP1 DUP7 JUMP JUMPDEST PUSH1 0x40 DUP1 MLOAD SWAP7 DUP8 MSTORE PUSH1 0x20 DUP8 ADD SWAP6 SWAP1 SWAP6 MSTORE SWAP4 DUP6 ADD SWAP3 SWAP1 SWAP3 MSTORE PUSH1 0x60 DUP5 ADD MSTORE PUSH1 0x80 DUP4 ADD MSTORE PUSH1 0xA0 DUP3 ADD MSTORE PUSH1 0xC0 ADD JUMPDEST PUSH1 0x40 MLOAD DUP1 SWAP2 SUB SWAP1 RETURN JUMPDEST CALLVALUE DUP1 ISZERO PUSH2 0x422 JUMPI PUSH0 PUSH0 REVERT JUMPDEST POP PUSH2 0x377 PUSH2 0x431 CALLDATASIZE PUSH1 0x4 PUSH2 0x39A3 JUMP JUMPDEST PUSH2 0x1437 JUMP JUMPDEST CALLVALUE DUP1 ISZERO PUSH2 0x441 JUMPI PUSH0 PUSH0 REVERT JUMPDEST POP PUSH2 0x461 PUSH2 0x450 CALLDATASIZE PUSH1 0x4 PUSH2 0x39F1 JUMP JUMPDEST PUSH1 0x86 PUSH1 0x20 MSTORE PUSH0 SWAP1 DUP2 MSTORE PUSH1 0x40 SWAP1 KECCAK256 SLOAD DUP2 JUMP JUMPDEST PUSH1 0x40 MLOAD SWAP1 DUP2 MSTORE PUSH1 0x20 ADD PUSH2 0x40E JUMP JUMPDEST CALLVALUE DUP1 ISZERO PUSH2 0x47A JUMPI PUSH0 PUSH0 REVERT JUMPDEST POP PUSH2 0x377 PUSH2 0x489 CALLDATASIZE PUSH1 0x4 PUSH2 0x3A0A JUMP JUMPDEST PUSH2 0x14AD JUMP JUMPDEST CALLVALUE DUP1 ISZERO PUSH2 0x499 JUMPI PUSH0 PUSH0 REVERT JUMPDEST POP PUSH2 0x461 PUSH2 0x1541 JUMP JUMPDEST CALLVALUE DUP1 ISZERO PUSH2 0x4AD JUMPI PUSH0 PUSH0 REVERT JUMPDEST POP PUSH2 0x461 PUSH2 0x4BC CALLDATASIZE PUSH1 0x4 PUSH2 0x39F1 JUMP JUMPDEST PUSH1 0x83 PUSH1 0x20 MSTORE PUSH0 SWAP1 DUP2 MSTORE PUSH1 0x40 SWAP1 KECCAK256 SLOAD DUP2 JUMP JUMPDEST CALLVALUE DUP1 ISZERO PUSH2 0x4D8 JUMPI PUSH0 PUSH0 REVERT JUMPDEST POP PUSH2 0x377 PUSH2 0x4E7 CALLDATASIZE PUSH1 0x4 PUSH2 0x3A41 JUMP JUMPDEST PUSH2 0x1648 JUMP JUMPDEST CALLVALUE DUP1 ISZERO PUSH2 0x4F7 JUMPI PUSH0 PUSH0 REVERT JUMPDEST POP PUSH2 0x377 PUSH2 0x506 CALLDATASIZE PUSH1 0x4 PUSH2 0x3A91 JUMP JUMPDEST PUSH2 0x16F6 JUMP JUMPDEST CALLVALUE DUP1 ISZERO PUSH2 0x516 JUMPI PUSH0 PUSH0 REVERT JUMPDEST POP PUSH2 0x377 PUSH2 0x525 CALLDATASIZE PUSH1 0x4 PUSH2 0x3AD8 JUMP JUMPDEST PUSH2 0x1917 JUMP JUMPDEST CALLVALUE DUP1 ISZERO PUSH2 0x535 JUMPI PUSH0 PUSH0 REVERT JUMPDEST POP PUSH2 0x377 PUSH2 0x1B48 JUMP JUMPDEST CALLVALUE DUP1 ISZERO PUSH2 0x549 JUMPI PUSH0 PUSH0 REVERT JUMPDEST POP PUSH2 0x377 PUSH2 0x558 CALLDATASIZE PUSH1 0x4 PUSH2 0x3B08 JUMP JUMPDEST PUSH2 0x1B5A JUMP JUMPDEST CALLVALUE DUP1 ISZERO PUSH2 0x568 JUMPI PUSH0 PUSH0 REVERT JUMPDEST POP PUSH1 0x65 SLOAD PUSH2 0x57C SWAP1 PUSH1 0x1 PUSH1 0x1 PUSH1 0xA0 SHL SUB AND DUP2 JUMP JUMPDEST PUSH1 0x40 MLOAD PUSH1 0x1 PUSH1 0x1 PUSH1 0xA0 SHL SUB SWAP1 SWAP2 AND DUP2 MSTORE PUSH1 0x20 ADD PUSH2 0x40E JUMP JUMPDEST PUSH2 0x377 PUSH2 0x5A2 CALLDATASIZE PUSH1 0x4 PUSH2 0x3B51 JUMP JUMPDEST PUSH2 0x1B8C JUMP JUMPDEST CALLVALUE DUP1 ISZERO PUSH2 0x5B2 JUMPI PUSH0 PUSH0 REVERT JUMPDEST POP PUSH2 0x461 PUSH2 0x1BAB JUMP JUMPDEST CALLVALUE DUP1 ISZERO PUSH2 0x5C6 JUMPI PUSH0 PUSH0 REVERT JUMPDEST POP PUSH1 0x64 SLOAD PUSH2 0x57C SWAP1 PUSH1 0x1 PUSH1 0x1 PUSH1 0xA0 SHL SUB AND DUP2 JUMP JUMPDEST CALLVALUE DUP1 ISZERO PUSH2 0x5E5 JUMPI PUSH0 PUSH0 REVERT JUMPDEST POP PUSH2 0x377 PUSH2 0x1BC6 JUMP JUMPDEST CALLVALUE DUP1 ISZERO PUSH2 0x5F9 JUMPI PUSH0 PUSH0 REVERT JUMPDEST POP PUSH1 0x73 SLOAD PUSH1 0x74 SLOAD PUSH1 0x75 SLOAD PUSH2 0x621 SWAP3 PUSH1 0x1 PUSH1 0x1 PUSH1 0xA0 SHL SUB AND SWAP2 SWAP1 PUSH1 0xFF DUP1 DUP3 AND SWAP2 PUSH2 0x100 SWAP1 DIV AND DUP5 JUMP JUMPDEST PUSH1 0x40 DUP1 MLOAD PUSH1 0x1 PUSH1 0x1 PUSH1 0xA0 SHL SUB SWAP1 SWAP6 AND DUP6 MSTORE PUSH1 0x20 DUP6 ADD SWAP4 SWAP1 SWAP4 MSTORE SWAP1 ISZERO ISZERO SWAP2 DUP4 ADD SWAP2 SWAP1 SWAP2 MSTORE ISZERO ISZERO PUSH1 0x60 DUP3 ADD MSTORE PUSH1 0x80 ADD PUSH2 0x40E JUMP JUMPDEST CALLVALUE DUP1 ISZERO PUSH2 0x65E JUMPI PUSH0 PUSH0 REVERT JUMPDEST POP PUSH2 0x377 PUSH2 0x66D CALLDATASIZE PUSH1 0x4 PUSH2 0x3C12 JUMP JUMPDEST PUSH2 0x1D1F JUMP JUMPDEST CALLVALUE DUP1 ISZERO PUSH2 0x67D JUMPI PUSH0 PUSH0 REVERT JUMPDEST POP PUSH0 SLOAD PUSH1 0xFF AND JUMPDEST PUSH1 0x40 MLOAD SWAP1 ISZERO ISZERO DUP2 MSTORE PUSH1 0x20 ADD PUSH2 0x40E JUMP JUMPDEST CALLVALUE DUP1 ISZERO PUSH2 0x69F JUMPI PUSH0 PUSH0 REVERT JUMPDEST POP PUSH2 0x684 PUSH2 0x6AE CALLDATASIZE PUSH1 0x4 PUSH2 0x3C3B JUMP JUMPDEST PUSH1 0x8A PUSH1 0x20 MSTORE PUSH0 SWAP1 DUP2 MSTORE PUSH1 0x40 SWAP1 KECCAK256 SLOAD PUSH1 0xFF AND DUP2 JUMP JUMPDEST CALLVALUE DUP1 ISZERO PUSH2 0x6CD JUMPI PUSH0 PUSH0 REVERT JUMPDEST POP PUSH2 0x461 PUSH1 0x68 SLOAD DUP2 JUMP JUMPDEST CALLVALUE DUP1 ISZERO PUSH2 0x6E2 JUMPI PUSH0 PUSH0 REVERT JUMPDEST POP PUSH2 0x461 PUSH1 0x72 SLOAD DUP2 JUMP JUMPDEST CALLVALUE DUP1 ISZERO PUSH2 0x6F7 JUMPI PUSH0 PUSH0 REVERT JUMPDEST POP PUSH2 0x377 PUSH2 0x706 CALLDATASIZE PUSH1 0x4 PUSH2 0x3C52 JUMP JUMPDEST PUSH2 0x1D35 JUMP JUMPDEST CALLVALUE DUP1 ISZERO PUSH2 0x716 JUMPI PUSH0 PUSH0 REVERT JUMPDEST POP PUSH2 0x377 PUSH2 0x725 CALLDATASIZE PUSH1 0x4 PUSH2 0x39F1 JUMP JUMPDEST PUSH2 0x1D9A JUMP JUMPDEST CALLVALUE DUP1 ISZERO PUSH2 0x735 JUMPI PUSH0 PUSH0 REVERT JUMPDEST POP PUSH2 0x377 PUSH2 0x1E2A JUMP JUMPDEST PUSH2 0x377 PUSH2 0x74C CALLDATASIZE PUSH1 0x4 PUSH2 0x3C3B JUMP JUMPDEST PUSH2 0xC5D JUMP JUMPDEST CALLVALUE DUP1 ISZERO PUSH2 0x75C JUMPI PUSH0 PUSH0 REVERT JUMPDEST POP PUSH2 0x377 PUSH2 0x1E3B JUMP JUMPDEST CALLVALUE DUP1 ISZERO PUSH2 0x770 JUMPI PUSH0 PUSH0 REVERT JUMPDEST POP PUSH2 0x461 PUSH2 0x77F CALLDATASIZE PUSH1 0x4 PUSH2 0x39F1 JUMP JUMPDEST PUSH1 0x84 PUSH1 0x20 MSTORE PUSH0 SWAP1 DUP2 MSTORE PUSH1 0x40 SWAP1 KECCAK256 SLOAD DUP2 JUMP JUMPDEST CALLVALUE DUP1 ISZERO PUSH2 0x79B JUMPI PUSH0 PUSH0 REVERT JUMPDEST POP PUSH2 0x7A4 PUSH2 0x1E4B JUMP JUMPDEST PUSH1 0x40 DUP1 MLOAD SWAP5 ISZERO ISZERO DUP6 MSTORE SWAP3 ISZERO ISZERO PUSH1 0x20 DUP6 ADD MSTORE SWAP2 DUP4 ADD MSTORE PUSH1 0x60 DUP3 ADD MSTORE PUSH1 0x80 ADD PUSH2 0x40E JUMP JUMPDEST CALLVALUE DUP1 ISZERO PUSH2 0x7D1 JUMPI PUSH0 PUSH0 REVERT JUMPDEST POP PUSH32 0x9016D09D72D40FDAE2FD8CEAC6B6234C7706214FD39C1CD1E609A0528C199300 SLOAD PUSH1 0x1 PUSH1 0x1 PUSH1 0xA0 SHL SUB AND PUSH2 0x57C JUMP JUMPDEST CALLVALUE DUP1 ISZERO PUSH2 0x80D JUMPI PUSH0 PUSH0 REVERT JUMPDEST POP PUSH1 0x69 SLOAD PUSH1 0x6A SLOAD PUSH1 0x6B SLOAD PUSH1 0x6C SLOAD PUSH1 0x6D SLOAD PUSH1 0x6E SLOAD PUSH1 0x6F SLOAD PUSH1 0x70 SLOAD PUSH1 0x71 SLOAD PUSH2 0x844 SWAP9 SWAP8 SWAP7 SWAP6 SWAP5 SWAP4 SWAP3 SWAP2 SWAP1 PUSH1 0xFF DUP1 DUP3 AND SWAP2 PUSH2 0x100 SWAP1 DIV AND DUP11 JUMP JUMPDEST PUSH1 0x40 DUP1 MLOAD SWAP11 DUP12 MSTORE PUSH1 0x20 DUP12 ADD SWAP10 SWAP1 SWAP10 MSTORE SWAP8 DUP10 ADD SWAP7 SWAP1 SWAP7 MSTORE PUSH1 0x60 DUP9 ADD SWAP5 SWAP1 SWAP5 MSTORE PUSH1 0x80 DUP8 ADD SWAP3 SWAP1 SWAP3 MSTORE PUSH1 0xA0 DUP7 ADD MSTORE PUSH1 0xC0 DUP6 ADD MSTORE PUSH1 0xE0 DUP5 ADD MSTORE ISZERO ISZERO PUSH2 0x100 DUP4 ADD MSTORE ISZERO ISZERO PUSH2 0x120 DUP3 ADD MSTORE PUSH2 0x140 ADD PUSH2 0x40E JUMP JUMPDEST CALLVALUE DUP1 ISZERO PUSH2 0x89D JUMPI PUSH0 PUSH0 REVERT JUMPDEST POP PUSH2 0x461 PUSH1 0x81 SLOAD DUP2 JUMP JUMPDEST CALLVALUE DUP1 ISZERO PUSH2 0x8B2 JUMPI PUSH0 PUSH0 REVERT JUMPDEST POP PUSH2 0x461 PUSH1 0x67 SLOAD DUP2 JUMP JUMPDEST CALLVALUE DUP1 ISZERO PUSH2 0x8C7 JUMPI PUSH0 PUSH0 REVERT JUMPDEST POP PUSH2 0x377 PUSH2 0x8D6 CALLDATASIZE PUSH1 0x4 PUSH2 0x3CA4 JUMP JUMPDEST PUSH2 0x1EA9 JUMP JUMPDEST CALLVALUE DUP1 ISZERO PUSH2 0x8E6 JUMPI PUSH0 PUSH0 REVERT JUMPDEST POP PUSH2 0x461 PUSH2 0x8F5 CALLDATASIZE PUSH1 0x4 PUSH2 0x39F1 JUMP JUMPDEST PUSH1 0x87 PUSH1 0x20 MSTORE PUSH0 SWAP1 DUP2 MSTORE PUSH1 0x40 SWAP1 KECCAK256 SLOAD DUP2 JUMP JUMPDEST CALLVALUE DUP1 ISZERO PUSH2 0x911 JUMPI PUSH0 PUSH0 REVERT JUMPDEST POP PUSH2 0x936 PUSH1 0x40 MLOAD DUP1 PUSH1 0x40 ADD PUSH1 0x40 MSTORE DUP1 PUSH1 0x5 DUP2 MSTORE PUSH1 0x20 ADD PUSH5 0x352E302E3 PUSH1 0xDC SHL DUP2 MSTORE POP DUP2 JUMP JUMPDEST PUSH1 0x40 MLOAD PUSH2 0x40E SWAP2 SWAP1 PUSH2 0x3CE2 JUMP JUMPDEST CALLVALUE DUP1 ISZERO PUSH2 0x94E JUMPI PUSH0 PUSH0 REVERT JUMPDEST POP PUSH2 0x684 PUSH2 0x95D CALLDATASIZE PUSH1 0x4 PUSH2 0x39F1 JUMP JUMPDEST PUSH1 0x8B PUSH1 0x20 MSTORE PUSH0 SWAP1 DUP2 MSTORE PUSH1 0x40 SWAP1 KECCAK256 SLOAD PUSH1 0xFF AND DUP2 JUMP JUMPDEST CALLVALUE DUP1 ISZERO PUSH2 0x97C JUMPI PUSH0 PUSH0 REVERT JUMPDEST POP PUSH2 0x377 PUSH2 0x98B CALLDATASIZE PUSH1 0x4 PUSH2 0x3D17 JUMP JUMPDEST PUSH2 0x203B JUMP JUMPDEST CALLVALUE DUP1 ISZERO PUSH2 0x99B JUMPI PUSH0 PUSH0 REVERT JUMPDEST POP PUSH2 0x377 PUSH2 0x2137 JUMP JUMPDEST CALLVALUE DUP1 ISZERO PUSH2 0x9AF JUMPI PUSH0 PUSH0 REVERT JUMPDEST POP PUSH2 0x377 PUSH2 0x9BE CALLDATASIZE PUSH1 0x4 PUSH2 0x39F1 JUMP JUMPDEST PUSH2 0x22DA JUMP JUMPDEST CALLVALUE DUP1 ISZERO PUSH2 0x9CE JUMPI PUSH0 PUSH0 REVERT JUMPDEST POP PUSH1 0x76 SLOAD PUSH1 0x77 SLOAD PUSH1 0x78 SLOAD PUSH1 0x79 SLOAD PUSH2 0x9F1 SWAP4 SWAP3 SWAP2 SWAP1 PUSH1 0xFF DUP1 DUP3 AND SWAP2 PUSH2 0x100 SWAP1 DIV AND DUP6 JUMP JUMPDEST PUSH1 0x40 DUP1 MLOAD SWAP6 DUP7 MSTORE PUSH1 0x20 DUP7 ADD SWAP5 SWAP1 SWAP5 MSTORE SWAP3 DUP5 ADD SWAP2 SWAP1 SWAP2 MSTORE ISZERO ISZERO PUSH1 0x60 DUP4 ADD MSTORE ISZERO ISZERO PUSH1 0x80 DUP3 ADD MSTORE PUSH1 0xA0 ADD PUSH2 0x40E JUMP JUMPDEST CALLVALUE DUP1 ISZERO PUSH2 0xA28 JUMPI PUSH0 PUSH0 REVERT JUMPDEST POP PUSH2 0x377 PUSH2 0xA37 CALLDATASIZE PUSH1 0x4 PUSH2 0x3E12 JUMP JUMPDEST PUSH2 0x2353 JUMP JUMPDEST CALLVALUE DUP1 ISZERO PUSH2 0xA47 JUMPI PUSH0 PUSH0 REVERT JUMPDEST POP PUSH2 0x377 PUSH2 0x24B6 JUMP JUMPDEST CALLVALUE DUP1 ISZERO PUSH2 0xA5B JUMPI PUSH0 PUSH0 REVERT JUMPDEST POP PUSH2 0x461 PUSH1 0x80 SLOAD DUP2 JUMP JUMPDEST CALLVALUE DUP1 ISZERO PUSH2 0xA70 JUMPI PUSH0 PUSH0 REVERT JUMPDEST POP PUSH2 0x461 PUSH2 0xA7F CALLDATASIZE PUSH1 0x4 PUSH2 0x3C3B JUMP JUMPDEST PUSH1 0x8C PUSH1 0x20 MSTORE PUSH0 SWAP1 DUP2 MSTORE PUSH1 0x40 SWAP1 KECCAK256 SLOAD DUP2 JUMP JUMPDEST CALLVALUE DUP1 ISZERO PUSH2 0xA9B JUMPI PUSH0 PUSH0 REVERT JUMPDEST POP PUSH2 0x377 PUSH2 0xAAA CALLDATASIZE PUSH1 0x4 PUSH2 0x3E52 JUMP JUMPDEST PUSH2 0x26EB JUMP JUMPDEST CALLVALUE DUP1 ISZERO PUSH2 0xABA JUMPI PUSH0 PUSH0 REVERT JUMPDEST POP PUSH2 0x461 PUSH1 0x82 SLOAD DUP2 JUMP JUMPDEST CALLVALUE DUP1 ISZERO PUSH2 0xACF JUMPI PUSH0 PUSH0 REVERT JUMPDEST POP PUSH2 0xAE3 PUSH2 0xADE CALLDATASIZE PUSH1 0x4 PUSH2 0x39F1 JUMP JUMPDEST PUSH2 0x2787 JUMP JUMPDEST PUSH1 0x40 DUP1 MLOAD SWAP5 DUP6 MSTORE PUSH1 0x20 DUP6 ADD SWAP4 SWAP1 SWAP4 MSTORE SWAP2 DUP4 ADD MSTORE PUSH1 0x60 DUP3 ADD MSTORE PUSH1 0x80 ADD PUSH2 0x40E JUMP JUMPDEST CALLVALUE DUP1 ISZERO PUSH2 0xB0E JUMPI PUSH0 PUSH0 REVERT JUMPDEST POP PUSH2 0x377 PUSH2 0x27DE JUMP JUMPDEST CALLVALUE DUP1 ISZERO PUSH2 0xB22 JUMPI PUSH0 PUSH0 REVERT JUMPDEST POP PUSH1 0x66 SLOAD PUSH2 0x57C SWAP1 PUSH1 0x1 PUSH1 0x1 PUSH1 0xA0 SHL SUB AND DUP2 JUMP JUMPDEST CALLVALUE DUP1 ISZERO PUSH2 0xB41 JUMPI PUSH0 PUSH0 REVERT JUMPDEST POP PUSH2 0x377 PUSH2 0xB50 CALLDATASIZE PUSH1 0x4 PUSH2 0x39F1 JUMP JUMPDEST PUSH2 0x29D2 JUMP JUMPDEST CALLVALUE DUP1 ISZERO PUSH2 0xB60 JUMPI PUSH0 PUSH0 REVERT JUMPDEST POP PUSH2 0x461 PUSH2 0xB6F CALLDATASIZE PUSH1 0x4 PUSH2 0x39F1 JUMP JUMPDEST PUSH1 0x85 PUSH1 0x20 MSTORE PUSH0 SWAP1 DUP2 MSTORE PUSH1 0x40 SWAP1 KECCAK256 SLOAD DUP2 JUMP JUMPDEST CALLVALUE DUP1 ISZERO PUSH2 0xB8B JUMPI PUSH0 PUSH0 REVERT JUMPDEST POP PUSH2 0x684 PUSH2 0xB9A CALLDATASIZE PUSH1 0x4 PUSH2 0x39F1 JUMP JUMPDEST PUSH1 0x88 PUSH1 0x20 MSTORE PUSH0 SWAP1 DUP2 MSTORE PUSH1 0x40 SWAP1 KECCAK256 SLOAD PUSH1 0xFF AND DUP2 JUMP JUMPDEST CALLVALUE DUP1 ISZERO PUSH2 0xBB9 JUMPI PUSH0 PUSH0 REVERT JUMPDEST POP PUSH2 0x461 PUSH2 0xBC8 CALLDATASIZE PUSH1 0x4 PUSH2 0x39F1 JUMP JUMPDEST PUSH2 0x2A0C JUMP JUMPDEST CALLVALUE DUP1 ISZERO PUSH2 0xBD8 JUMPI PUSH0 PUSH0 REVERT JUMPDEST POP PUSH2 0xC26 PUSH2 0xBE7 CALLDATASIZE PUSH1 0x4 PUSH2 0x39F1 JUMP JUMPDEST PUSH1 0x89 PUSH1 0x20 MSTORE PUSH0 SWAP1 DUP2 MSTORE PUSH1 0x40 SWAP1 KECCAK256 DUP1 SLOAD PUSH1 0x1 DUP3 ADD SLOAD PUSH1 0x2 DUP4 ADD SLOAD PUSH1 0x3 DUP5 ADD SLOAD PUSH1 0x4 DUP6 ADD SLOAD PUSH1 0x5 DUP7 ADD SLOAD PUSH1 0x6 SWAP1 SWAP7 ADD SLOAD SWAP5 SWAP6 SWAP4 SWAP5 SWAP3 SWAP4 SWAP2 SWAP3 SWAP1 SWAP2 SWAP1 PUSH1 0xFF AND DUP8 JUMP JUMPDEST PUSH1 0x40 DUP1 MLOAD SWAP8 DUP9 MSTORE PUSH1 0x20 DUP9 ADD SWAP7 SWAP1 SWAP7 MSTORE SWAP5 DUP7 ADD SWAP4 SWAP1 SWAP4 MSTORE PUSH1 0x60 DUP6 ADD SWAP2 SWAP1 SWAP2 MSTORE PUSH1 0x80 DUP5 ADD MSTORE PUSH1 0xA0 DUP4 ADD MSTORE ISZERO ISZERO PUSH1 0xC0 DUP3 ADD MSTORE PUSH1 0xE0 ADD PUSH2 0x40E JUMP JUMPDEST PUSH2 0xC65 PUSH2 0x2B59 JUMP JUMPDEST PUSH2 0xC6D PUSH2 0x2B9E JUMP JUMPDEST PUSH1 0x69 SLOAD TIMESTAMP LT DUP1 ISZERO SWAP1 PUSH2 0xC81 JUMPI POP PUSH1 0x6A SLOAD TIMESTAMP GT ISZERO JUMPDEST PUSH2 0xCC4 JUMPI PUSH1 0x40 MLOAD PUSH3 0x461BCD PUSH1 0xE5 SHL DUP2 MSTORE PUSH1 0x20 PUSH1 0x4 DUP3 ADD MSTORE PUSH1 0xF PUSH1 0x24 DUP3 ADD MSTORE PUSH15 0x53616C65206E6F7420616374697665 PUSH1 0x88 SHL PUSH1 0x44 DUP3 ADD MSTORE PUSH1 0x64 ADD JUMPDEST PUSH1 0x40 MLOAD DUP1 SWAP2 SUB SWAP1 REVERT JUMPDEST CALLER PUSH0 DUP2 DUP2 MSTORE PUSH1 0x84 PUSH1 0x20 MSTORE PUSH1 0x40 SWAP1 KECCAK256 SLOAD PUSH1 0x4 AND ISZERO PUSH2 0xCF3 JUMPI PUSH1 0x40 MLOAD PUSH3 0x461BCD PUSH1 0xE5 SHL DUP2 MSTORE PUSH1 0x4 ADD PUSH2 0xCBB SWAP1 PUSH2 0x3EBC JUMP JUMPDEST PUSH2 0xCFC DUP2 PUSH2 0x2BF7 JUMP JUMPDEST PUSH2 0xD18 JUMPI PUSH1 0x40 MLOAD PUSH3 0x461BCD PUSH1 0xE5 SHL DUP2 MSTORE PUSH1 0x4 ADD PUSH2 0xCBB SWAP1 PUSH2 0x3EE6 JUMP JUMPDEST PUSH2 0xD21 DUP2 PUSH2 0x2C2A JUMP JUMPDEST PUSH2 0xD3D JUMPI PUSH1 0x40 MLOAD PUSH3 0x461BCD PUSH1 0xE5 SHL DUP2 MSTORE PUSH1 0x4 ADD PUSH2 0xCBB SWAP1 PUSH2 0x3F14 JUMP JUMPDEST CALLER PUSH0 SWAP1 DUP2 MSTORE PUSH1 0x87 PUSH1 0x20 MSTORE PUSH1 0x40 SWAP1 KECCAK256 SLOAD NUMBER GT PUSH2 0xDA9 JUMPI PUSH1 0x40 MLOAD PUSH3 0x461BCD PUSH1 0xE5 SHL DUP2 MSTORE PUSH1 0x20 PUSH1 0x4 DUP3 ADD MSTORE PUSH1 0x26 PUSH1 0x24 DUP3 ADD MSTORE PUSH32 0x4F6E6C79206F6E65207472616E73616374696F6E2070657220626C6F636B2061 PUSH1 0x44 DUP3 ADD MSTORE PUSH6 0x1B1B1BDDD959 PUSH1 0xD2 SHL PUSH1 0x64 DUP3 ADD MSTORE PUSH1 0x84 ADD PUSH2 0xCBB JUMP JUMPDEST CALLER PUSH0 SWAP1 DUP2 MSTORE PUSH1 0x87 PUSH1 0x20 SWAP1 DUP2 MSTORE PUSH1 0x40 DUP1 DUP4 KECCAK256 NUMBER SWAP1 SSTORE PUSH1 0x77 SLOAD PUSH1 0x86 SWAP1 SWAP3 MSTORE SWAP1 SWAP2 KECCAK256 SLOAD PUSH2 0xDD3 SWAP2 SWAP1 PUSH2 0x3F57 JUMP JUMPDEST TIMESTAMP LT ISZERO PUSH2 0xE1B JUMPI PUSH1 0x40 MLOAD PUSH3 0x461BCD PUSH1 0xE5 SHL DUP2 MSTORE PUSH1 0x20 PUSH1 0x4 DUP3 ADD MSTORE PUSH1 0x16 PUSH1 0x24 DUP3 ADD MSTORE PUSH22 0x436F6F6C646F776E20706572696F6420616374697665 PUSH1 0x50 SHL PUSH1 0x44 DUP3 ADD MSTORE PUSH1 0x64 ADD PUSH2 0xCBB JUMP JUMPDEST DUP2 CALLVALUE EQ PUSH2 0xE60 JUMPI PUSH1 0x40 MLOAD PUSH3 0x461BCD PUSH1 0xE5 SHL DUP2 MSTORE PUSH1 0x20 PUSH1 0x4 DUP3 ADD MSTORE PUSH1 0x13 PUSH1 0x24 DUP3 ADD MSTORE PUSH19 0x849C8440C2DADEEADCE840DAD2E6DAC2E8C6D PUSH1 0x6B SHL PUSH1 0x44 DUP3 ADD MSTORE PUSH1 0x64 ADD PUSH2 0xCBB JUMP JUMPDEST PUSH0 PUSH2 0xE6A DUP4 PUSH2 0x2C5E JUMP JUMPDEST SWAP1 POP PUSH2 0xE76 CALLER DUP3 PUSH2 0x2C9A JUMP JUMPDEST PUSH2 0xE81 CALLER DUP3 DUP6 PUSH2 0x2E33 JUMP JUMPDEST PUSH2 0xE8A DUP4 PUSH2 0x2EA8 JUMP JUMPDEST PUSH2 0xE94 CALLER DUP3 PUSH2 0x2F79 JUMP JUMPDEST CALLER PUSH0 DUP2 DUP2 MSTORE PUSH1 0x86 PUSH1 0x20 SWAP1 DUP2 MSTORE PUSH1 0x40 SWAP2 DUP3 SWAP1 KECCAK256 TIMESTAMP SWAP1 SSTORE DUP2 MLOAD DUP5 DUP2 MSTORE SWAP1 DUP2 ADD DUP7 SWAP1 MSTORE PUSH32 0x8FAFEBCAF9D154343DAD25669BFA277F4FBACD7AC6B0C4FED522580E040A0F33 SWAP2 ADD PUSH1 0x40 MLOAD DUP1 SWAP2 SUB SWAP1 LOG2 POP POP PUSH2 0xEEB PUSH1 0x1 PUSH1 0x32 SSTORE JUMP JUMPDEST POP JUMP JUMPDEST PUSH2 0xEF6 PUSH2 0x2F95 JUMP JUMPDEST PUSH0 SLOAD PUSH1 0xFF AND ISZERO PUSH2 0xF18 JUMPI PUSH1 0x40 MLOAD PUSH3 0x461BCD PUSH1 0xE5 SHL DUP2 MSTORE PUSH1 0x4 ADD PUSH2 0xCBB SWAP1 PUSH2 0x3F6A JUMP JUMPDEST DUP5 DUP4 EQ DUP1 ISZERO PUSH2 0xF26 JUMPI POP DUP3 DUP2 EQ JUMPDEST PUSH2 0xF42 JUMPI PUSH1 0x40 MLOAD PUSH3 0x461BCD PUSH1 0xE5 SHL DUP2 MSTORE PUSH1 0x4 ADD PUSH2 0xCBB SWAP1 PUSH2 0x3F96 JUMP JUMPDEST PUSH0 JUMPDEST DUP6 DUP2 LT ISZERO PUSH2 0x1363 JUMPI PUSH1 0x8A PUSH0 DUP5 DUP5 DUP5 DUP2 DUP2 LT PUSH2 0xF61 JUMPI PUSH2 0xF61 PUSH2 0x3FC5 JUMP JUMPDEST PUSH1 0x20 SWAP1 DUP2 MUL SWAP3 SWAP1 SWAP3 ADD CALLDATALOAD DUP4 MSTORE POP DUP2 ADD SWAP2 SWAP1 SWAP2 MSTORE PUSH1 0x40 ADD PUSH0 KECCAK256 SLOAD PUSH1 0xFF AND ISZERO PUSH2 0xFC6 JUMPI PUSH1 0x40 MLOAD PUSH3 0x461BCD PUSH1 0xE5 SHL DUP2 MSTORE PUSH1 0x20 PUSH1 0x4 DUP3 ADD MSTORE PUSH1 0x19 PUSH1 0x24 DUP3 ADD MSTORE PUSH25 0x14185E5B595B9D08185B1C9958591E481C1C9BD8D95CDCD959 PUSH1 0x3A SHL PUSH1 0x44 DUP3 ADD MSTORE PUSH1 0x64 ADD PUSH2 0xCBB JUMP JUMPDEST PUSH2 0x100F DUP8 DUP8 DUP4 DUP2 DUP2 LT PUSH2 0xFDB JUMPI PUSH2 0xFDB PUSH2 0x3FC5 JUMP JUMPDEST SWAP1 POP PUSH1 0x20 MUL ADD PUSH1 0x20 DUP2 ADD SWAP1 PUSH2 0xFF0 SWAP2 SWAP1 PUSH2 0x39F1 JUMP JUMPDEST PUSH1 0x1 PUSH1 0x1 PUSH1 0xA0 SHL SUB AND PUSH0 SWAP1 DUP2 MSTORE PUSH1 0x84 PUSH1 0x20 MSTORE PUSH1 0x40 SWAP1 KECCAK256 SLOAD PUSH1 0x4 AND ISZERO ISZERO SWAP1 JUMP JUMPDEST ISZERO PUSH2 0x102C JUMPI PUSH1 0x40 MLOAD PUSH3 0x461BCD PUSH1 0xE5 SHL DUP2 MSTORE PUSH1 0x4 ADD PUSH2 0xCBB SWAP1 PUSH2 0x3EBC JUMP JUMPDEST PUSH2 0x105B DUP8 DUP8 DUP4 DUP2 DUP2 LT PUSH2 0x1041 JUMPI PUSH2 0x1041 PUSH2 0x3FC5 JUMP JUMPDEST SWAP1 POP PUSH1 0x20 MUL ADD PUSH1 0x20 DUP2 ADD SWAP1 PUSH2 0x1056 SWAP2 SWAP1 PUSH2 0x39F1 JUMP JUMPDEST PUSH2 0x2BF7 JUMP JUMPDEST PUSH2 0x1077 JUMPI PUSH1 0x40 MLOAD PUSH3 0x461BCD PUSH1 0xE5 SHL DUP2 MSTORE PUSH1 0x4 ADD PUSH2 0xCBB SWAP1 PUSH2 0x3EE6 JUMP JUMPDEST PUSH2 0x10A6 DUP8 DUP8 DUP4 DUP2 DUP2 LT PUSH2 0x108C JUMPI PUSH2 0x108C PUSH2 0x3FC5 JUMP JUMPDEST SWAP1 POP PUSH1 0x20 MUL ADD PUSH1 0x20 DUP2 ADD SWAP1 PUSH2 0x10A1 SWAP2 SWAP1 PUSH2 0x39F1 JUMP JUMPDEST PUSH2 0x2C2A JUMP JUMPDEST PUSH2 0x10C2 JUMPI PUSH1 0x40 MLOAD PUSH3 0x461BCD PUSH1 0xE5 SHL DUP2 MSTORE PUSH1 0x4 ADD PUSH2 0xCBB SWAP1 PUSH2 0x3F14 JUMP JUMPDEST PUSH1 0x6F SLOAD DUP6 DUP6 DUP4 DUP2 DUP2 LT PUSH2 0x10D7 JUMPI PUSH2 0x10D7 PUSH2 0x3FC5 JUMP JUMPDEST SWAP1 POP PUSH1 0x20 MUL ADD CALLDATALOAD PUSH1 0x72 SLOAD PUSH2 0x10EB SWAP2 SWAP1 PUSH2 0x3F57 JUMP JUMPDEST GT ISZERO PUSH2 0x1109 JUMPI PUSH1 0x40 MLOAD PUSH3 0x461BCD PUSH1 0xE5 SHL DUP2 MSTORE PUSH1 0x4 ADD PUSH2 0xCBB SWAP1 PUSH2 0x3FD9 JUMP JUMPDEST PUSH1 0x1 PUSH1 0x8A PUSH0 DUP6 DUP6 DUP6 DUP2 DUP2 LT PUSH2 0x1120 JUMPI PUSH2 0x1120 PUSH2 0x3FC5 JUMP JUMPDEST SWAP1 POP PUSH1 0x20 MUL ADD CALLDATALOAD DUP2 MSTORE PUSH1 0x20 ADD SWAP1 DUP2 MSTORE PUSH1 0x20 ADD PUSH0 KECCAK256 PUSH0 PUSH2 0x100 EXP DUP2 SLOAD DUP2 PUSH1 0xFF MUL NOT AND SWAP1 DUP4 ISZERO ISZERO MUL OR SWAP1 SSTORE POP DUP5 DUP5 DUP3 DUP2 DUP2 LT PUSH2 0x115C JUMPI PUSH2 0x115C PUSH2 0x3FC5 JUMP JUMPDEST SWAP1 POP PUSH1 0x20 MUL ADD CALLDATALOAD PUSH1 0x83 PUSH0 DUP10 DUP10 DUP6 DUP2 DUP2 LT PUSH2 0x1178 JUMPI PUSH2 0x1178 PUSH2 0x3FC5 JUMP JUMPDEST SWAP1 POP PUSH1 0x20 MUL ADD PUSH1 0x20 DUP2 ADD SWAP1 PUSH2 0x118D SWAP2 SWAP1 PUSH2 0x39F1 JUMP JUMPDEST PUSH1 0x1 PUSH1 0x1 PUSH1 0xA0 SHL SUB AND PUSH1 0x1 PUSH1 0x1 PUSH1 0xA0 SHL SUB AND DUP2 MSTORE PUSH1 0x20 ADD SWAP1 DUP2 MSTORE PUSH1 0x20 ADD PUSH0 KECCAK256 PUSH0 DUP3 DUP3 SLOAD PUSH2 0x11BA SWAP2 SWAP1 PUSH2 0x3F57 JUMP JUMPDEST SWAP1 SWAP2 SSTORE POP DUP6 SWAP1 POP DUP5 DUP3 DUP2 DUP2 LT PUSH2 0x11D2 JUMPI PUSH2 0x11D2 PUSH2 0x3FC5 JUMP JUMPDEST SWAP1 POP PUSH1 0x20 MUL ADD CALLDATALOAD PUSH1 0x72 PUSH0 DUP3 DUP3 SLOAD PUSH2 0x11E9 SWAP2 SWAP1 PUSH2 0x3F57 JUMP JUMPDEST SWAP1 SWAP2 SSTORE POP PUSH2 0x1237 SWAP1 POP DUP8 DUP8 DUP4 DUP2 DUP2 LT PUSH2 0x1204 JUMPI PUSH2 0x1204 PUSH2 0x3FC5 JUMP JUMPDEST SWAP1 POP PUSH1 0x20 MUL ADD PUSH1 0x20 DUP2 ADD SWAP1 PUSH2 0x1219 SWAP2 SWAP1 PUSH2 0x39F1 JUMP JUMPDEST DUP7 DUP7 DUP5 DUP2 DUP2 LT PUSH2 0x122B JUMPI PUSH2 0x122B PUSH2 0x3FC5 JUMP JUMPDEST SWAP1 POP PUSH1 0x20 MUL ADD CALLDATALOAD PUSH2 0x2F79 JUMP JUMPDEST DUP7 DUP7 DUP3 DUP2 DUP2 LT PUSH2 0x1249 JUMPI PUSH2 0x1249 PUSH2 0x3FC5 JUMP JUMPDEST SWAP1 POP PUSH1 0x20 MUL ADD PUSH1 0x20 DUP2 ADD SWAP1 PUSH2 0x125E SWAP2 SWAP1 PUSH2 0x39F1 JUMP JUMPDEST PUSH1 0x1 PUSH1 0x1 PUSH1 0xA0 SHL SUB AND PUSH32 0x8FAFEBCAF9D154343DAD25669BFA277F4FBACD7AC6B0C4FED522580E040A0F33 DUP7 DUP7 DUP5 DUP2 DUP2 LT PUSH2 0x129A JUMPI PUSH2 0x129A PUSH2 0x3FC5 JUMP JUMPDEST SWAP1 POP PUSH1 0x20 MUL ADD CALLDATALOAD PUSH0 PUSH1 0x40 MLOAD PUSH2 0x12B9 SWAP3 SWAP2 SWAP1 SWAP2 DUP3 MSTORE PUSH1 0x20 DUP3 ADD MSTORE PUSH1 0x40 ADD SWAP1 JUMP JUMPDEST PUSH1 0x40 MLOAD DUP1 SWAP2 SUB SWAP1 LOG2 DUP3 DUP3 DUP3 DUP2 DUP2 LT PUSH2 0x12D3 JUMPI PUSH2 0x12D3 PUSH2 0x3FC5 JUMP JUMPDEST SWAP1 POP PUSH1 0x20 MUL ADD CALLDATALOAD DUP8 DUP8 DUP4 DUP2 DUP2 LT PUSH2 0x12EC JUMPI PUSH2 0x12EC PUSH2 0x3FC5 JUMP JUMPDEST SWAP1 POP PUSH1 0x20 MUL ADD PUSH1 0x20 DUP2 ADD SWAP1 PUSH2 0x1301 SWAP2 SWAP1 PUSH2 0x39F1 JUMP JUMPDEST PUSH1 0x1 PUSH1 0x1 PUSH1 0xA0 SHL SUB AND PUSH32 0xF7FBD7B10BB4753C87113CBF609A1B1DCC1268C0BF39E562D08DF1BFF21FF025 DUP8 DUP8 DUP6 DUP2 DUP2 LT PUSH2 0x133D JUMPI PUSH2 0x133D PUSH2 0x3FC5 JUMP JUMPDEST SWAP1 POP PUSH1 0x20 MUL ADD CALLDATALOAD PUSH1 0x40 MLOAD PUSH2 0x1353 SWAP2 DUP2 MSTORE PUSH1 0x20 ADD SWAP1 JUMP JUMPDEST PUSH1 0x40 MLOAD DUP1 SWAP2 SUB SWAP1 LOG3 PUSH1 0x1 ADD PUSH2 0xF44 JUMP JUMPDEST POP POP POP POP POP POP POP JUMP JUMPDEST PUSH2 0x1374 PUSH2 0x2F95 JUMP JUMPDEST PUSH1 0x1 PUSH1 0x1 PUSH1 0xA0 SHL SUB DUP3 AND PUSH2 0x13BF JUMPI PUSH1 0x40 MLOAD PUSH3 0x461BCD PUSH1 0xE5 SHL DUP2 MSTORE PUSH1 0x20 PUSH1 0x4 DUP3 ADD MSTORE PUSH1 0x12 PUSH1 0x24 DUP3 ADD MSTORE PUSH18 0x125B9D985B1A5908199959481DD85B1B195D PUSH1 0x72 SHL PUSH1 0x44 DUP3 ADD MSTORE PUSH1 0x64 ADD PUSH2 0xCBB JUMP JUMPDEST PUSH2 0x3E8 DUP2 GT ISZERO PUSH2 0x1411 JUMPI PUSH1 0x40 MLOAD PUSH3 0x461BCD PUSH1 0xE5 SHL DUP2 MSTORE PUSH1 0x20 PUSH1 0x4 DUP3 ADD MSTORE PUSH1 0x17 PUSH1 0x24 DUP3 ADD MSTORE PUSH32 0x4665652070657263656E7461676520746F6F2068696768000000000000000000 PUSH1 0x44 DUP3 ADD MSTORE PUSH1 0x64 ADD PUSH2 0xCBB JUMP JUMPDEST PUSH1 0x66 DUP1 SLOAD PUSH1 0x1 PUSH1 0x1 PUSH1 0xA0 SHL SUB NOT AND PUSH1 0x1 PUSH1 0x1 PUSH1 0xA0 SHL SUB SWAP4 SWAP1 SWAP4 AND SWAP3 SWAP1 SWAP3 OR SWAP1 SWAP2 SSTORE PUSH1 0x67 SSTORE JUMP JUMPDEST PUSH2 0x143F PUSH2 0x2F95 JUMP JUMPDEST PUSH1 0x40 DUP1 MLOAD PUSH1 0x80 DUP2 ADD DUP3 MSTORE PUSH1 0x1 PUSH1 0x1 PUSH1 0xA0 SHL SUB SWAP1 SWAP6 AND DUP1 DUP7 MSTORE PUSH1 0x20 DUP7 ADD DUP6 SWAP1 MSTORE SWAP3 ISZERO ISZERO SWAP1 DUP6 ADD DUP2 SWAP1 MSTORE SWAP1 ISZERO ISZERO PUSH1 0x60 SWAP1 SWAP5 ADD DUP5 SWAP1 MSTORE PUSH1 0x73 DUP1 SLOAD PUSH1 0x1 PUSH1 0x1 PUSH1 0xA0 SHL SUB NOT AND SWAP1 SWAP3 OR SWAP1 SWAP2 SSTORE PUSH1 0x74 SWAP2 SWAP1 SWAP2 SSTORE PUSH1 0x75 DUP1 SLOAD PUSH2 0x100 SWAP1 SWAP4 MUL PUSH2 0xFF00 NOT SWAP1 SWAP3 AND PUSH2 0xFFFF NOT SWAP1 SWAP4 AND SWAP3 SWAP1 SWAP3 OR OR SWAP1 SSTORE JUMP JUMPDEST PUSH2 0x14B5 PUSH2 0x2F95 JUMP JUMPDEST DUP5 PUSH2 0x14F8 JUMPI PUSH1 0x40 MLOAD PUSH3 0x461BCD PUSH1 0xE5 SHL DUP2 MSTORE PUSH1 0x20 PUSH1 0x4 DUP3 ADD MSTORE PUSH1 0x13 PUSH1 0x24 DUP3 ADD MSTORE PUSH19 0x125B9D985B1A59081B595C9ADB19481C9BDBDD PUSH1 0x6A SHL PUSH1 0x44 DUP3 ADD MSTORE PUSH1 0x64 ADD PUSH2 0xCBB JUMP JUMPDEST PUSH1 0x40 DUP1 MLOAD PUSH1 0xC0 DUP2 ADD DUP3 MSTORE DUP7 DUP2 MSTORE PUSH1 0x20 DUP2 ADD DUP7 SWAP1 MSTORE PUSH1 0x7C SLOAD SWAP2 DUP2 ADD SWAP2 SWAP1 SWAP2 MSTORE PUSH1 0x60 DUP2 ADD DUP5 SWAP1 MSTORE PUSH1 0x80 DUP2 ADD DUP4 SWAP1 MSTORE PUSH1 0xA0 ADD DUP2 SWAP1 MSTORE PUSH1 0x7A SWAP5 SWAP1 SWAP5 SSTORE PUSH1 0x7B SWAP3 SWAP1 SWAP3 SSTORE PUSH1 0x7D SSTORE PUSH1 0x7E SSTORE PUSH1 0x7F SSTORE JUMP JUMPDEST PUSH1 0x73 SLOAD PUSH0 SWAP1 PUSH1 0x1 PUSH1 0x1 PUSH1 0xA0 SHL SUB AND PUSH2 0x1593 JUMPI PUSH1 0x40 MLOAD PUSH3 0x461BCD PUSH1 0xE5 SHL DUP2 MSTORE PUSH1 0x20 PUSH1 0x4 DUP3 ADD MSTORE PUSH1 0x15 PUSH1 0x24 DUP3 ADD MSTORE PUSH21 0x13DC9858DB19481B9BDD0818DBDB999A59DD5C9959 PUSH1 0x5A SHL PUSH1 0x44 DUP3 ADD MSTORE PUSH1 0x64 ADD PUSH2 0xCBB JUMP JUMPDEST PUSH1 0x73 SLOAD PUSH1 0x40 DUP1 MLOAD PUSH4 0x3FABE5A3 PUSH1 0xE2 SHL DUP2 MSTORE SWAP1 MLOAD PUSH0 SWAP3 PUSH1 0x1 PUSH1 0x1 PUSH1 0xA0 SHL SUB AND SWAP2 PUSH4 0xFEAF968C SWAP2 PUSH1 0x4 DUP1 DUP4 ADD SWAP3 PUSH1 0xA0 SWAP3 SWAP2 SWAP1 DUP3 SWAP1 SUB ADD DUP2 DUP7 GAS STATICCALL ISZERO DUP1 ISZERO PUSH2 0x15DA JUMPI RETURNDATASIZE PUSH0 PUSH0 RETURNDATACOPY RETURNDATASIZE PUSH0 REVERT JUMPDEST POP POP POP POP PUSH1 0x40 MLOAD RETURNDATASIZE PUSH1 0x1F NOT PUSH1 0x1F DUP3 ADD AND DUP3 ADD DUP1 PUSH1 0x40 MSTORE POP DUP2 ADD SWAP1 PUSH2 0x15FE SWAP2 SWAP1 PUSH2 0x4020 JUMP JUMPDEST POP POP POP SWAP2 POP POP PUSH0 DUP2 SGT PUSH2 0x1643 JUMPI PUSH1 0x40 MLOAD PUSH3 0x461BCD PUSH1 0xE5 SHL DUP2 MSTORE PUSH1 0x20 PUSH1 0x4 DUP3 ADD MSTORE PUSH1 0xD PUSH1 0x24 DUP3 ADD MSTORE PUSH13 0x496E76616C6964207072696365 PUSH1 0x98 SHL PUSH1 0x44 DUP3 ADD MSTORE PUSH1 0x64 ADD PUSH2 0xCBB JUMP JUMPDEST SWAP2 SWAP1 POP JUMP JUMPDEST PUSH2 0x1650 PUSH2 0x2F95 JUMP JUMPDEST PUSH1 0x40 DUP1 MLOAD PUSH2 0x140 DUP2 ADD DUP3 MSTORE DUP10 DUP2 MSTORE PUSH1 0x20 DUP2 ADD DUP10 SWAP1 MSTORE SWAP1 DUP2 ADD DUP8 SWAP1 MSTORE PUSH1 0x60 DUP2 ADD DUP7 SWAP1 MSTORE PUSH1 0x80 DUP2 ADD DUP6 SWAP1 MSTORE PUSH1 0xA0 DUP2 ADD DUP5 SWAP1 MSTORE PUSH1 0xC0 DUP2 ADD DUP4 SWAP1 MSTORE PUSH1 0xE0 DUP2 ADD DUP3 SWAP1 MSTORE PUSH1 0x71 DUP1 SLOAD PUSH1 0xFF DUP1 DUP3 AND ISZERO ISZERO PUSH2 0x100 DUP1 DUP7 ADD DUP3 SWAP1 MSTORE DUP1 DUP5 DIV SWAP1 SWAP3 AND ISZERO ISZERO PUSH2 0x120 SWAP1 SWAP6 ADD DUP6 SWAP1 MSTORE PUSH1 0x69 SWAP13 SWAP1 SWAP13 SSTORE PUSH1 0x6A SWAP11 SWAP1 SWAP11 SSTORE PUSH1 0x6B SWAP9 SWAP1 SWAP9 SSTORE PUSH1 0x6C SWAP7 SWAP1 SWAP7 SSTORE PUSH1 0x6D SWAP5 SWAP1 SWAP5 SSTORE PUSH1 0x6E SWAP3 SWAP1 SWAP3 SSTORE PUSH1 0x6F SSTORE PUSH1 0x70 SSTORE PUSH2 0xFFFF NOT SWAP1 SWAP3 AND PUSH2 0xFF00 NOT SWAP1 SWAP5 AND SWAP4 SWAP1 SWAP4 OR SWAP2 MUL OR SWAP1 SSTORE JUMP JUMPDEST PUSH0 SLOAD PUSH1 0xFF AND ISZERO PUSH2 0x1718 JUMPI PUSH1 0x40 MLOAD PUSH3 0x461BCD PUSH1 0xE5 SHL DUP2 MSTORE PUSH1 0x4 ADD PUSH2 0xCBB SWAP1 PUSH2 0x3F6A JUMP JUMPDEST PUSH2 0x1720 PUSH2 0x2B9E JUMP JUMPDEST PUSH1 0x7B SLOAD TIMESTAMP GT ISZERO PUSH2 0x1769 JUMPI PUSH1 0x40 MLOAD PUSH3 0x461BCD PUSH1 0xE5 SHL DUP2 MSTORE PUSH1 0x20 PUSH1 0x4 DUP3 ADD MSTORE PUSH1 0x14 PUSH1 0x24 DUP3 ADD MSTORE PUSH20 0x105A5C991C9BDC081C195C9A5BD908195B991959 PUSH1 0x62 SHL PUSH1 0x44 DUP3 ADD MSTORE PUSH1 0x64 ADD PUSH2 0xCBB JUMP JUMPDEST CALLER PUSH0 SWAP1 DUP2 MSTORE PUSH1 0x88 PUSH1 0x20 MSTORE PUSH1 0x40 SWAP1 KECCAK256 SLOAD PUSH1 0xFF AND ISZERO PUSH2 0x17C8 JUMPI PUSH1 0x40 MLOAD PUSH3 0x461BCD PUSH1 0xE5 SHL DUP2 MSTORE PUSH1 0x20 PUSH1 0x4 DUP3 ADD MSTORE PUSH1 0x17 PUSH1 0x24 DUP3 ADD MSTORE PUSH32 0x41697264726F7020616C726561647920636C61696D6564000000000000000000 PUSH1 0x44 DUP3 ADD MSTORE PUSH1 0x64 ADD PUSH2 0xCBB JUMP JUMPDEST PUSH1 0x40 MLOAD PUSH12 0xFFFFFFFFFFFFFFFFFFFFFFFF NOT CALLER PUSH1 0x60 SHL AND PUSH1 0x20 DUP3 ADD MSTORE PUSH1 0x34 DUP2 ADD DUP3 SWAP1 MSTORE PUSH0 SWAP1 PUSH1 0x54 ADD PUSH1 0x40 MLOAD PUSH1 0x20 DUP2 DUP4 SUB SUB DUP2 MSTORE SWAP1 PUSH1 0x40 MSTORE DUP1 MLOAD SWAP1 PUSH1 0x20 ADD KECCAK256 SWAP1 POP PUSH2 0x1847 DUP5 DUP5 DUP1 DUP1 PUSH1 0x20 MUL PUSH1 0x20 ADD PUSH1 0x40 MLOAD SWAP1 DUP2 ADD PUSH1 0x40 MSTORE DUP1 SWAP4 SWAP3 SWAP2 SWAP1 DUP2 DUP2 MSTORE PUSH1 0x20 ADD DUP4 DUP4 PUSH1 0x20 MUL DUP1 DUP3 DUP5 CALLDATACOPY PUSH0 SWAP3 ADD SWAP2 SWAP1 SWAP2 MSTORE POP POP PUSH1 0x7A SLOAD SWAP2 POP DUP5 SWAP1 POP PUSH2 0x2FF0 JUMP JUMPDEST PUSH2 0x188A JUMPI PUSH1 0x40 MLOAD PUSH3 0x461BCD PUSH1 0xE5 SHL DUP2 MSTORE PUSH1 0x20 PUSH1 0x4 DUP3 ADD MSTORE PUSH1 0x14 PUSH1 0x24 DUP3 ADD MSTORE PUSH20 0x24B73B30B634B21036B2B935B63290383937B7B3 PUSH1 0x61 SHL PUSH1 0x44 DUP3 ADD MSTORE PUSH1 0x64 ADD PUSH2 0xCBB JUMP JUMPDEST CALLER PUSH0 SWAP1 DUP2 MSTORE PUSH1 0x88 PUSH1 0x20 MSTORE PUSH1 0x40 DUP2 KECCAK256 DUP1 SLOAD PUSH1 0xFF NOT AND PUSH1 0x1 OR SWAP1 SSTORE PUSH1 0x7C DUP1 SLOAD DUP5 SWAP3 SWAP1 PUSH2 0x18B5 SWAP1 DUP5 SWAP1 PUSH2 0x3F57 JUMP JUMPDEST SWAP1 SWAP2 SSTORE POP POP PUSH1 0x7D SLOAD PUSH1 0x7E SLOAD PUSH1 0x7F SLOAD PUSH2 0x18D2 SWAP3 CALLER SWAP3 DUP7 SWAP3 PUSH1 0x1 PUSH2 0x3005 JUMP JUMPDEST PUSH1 0x40 MLOAD DUP3 DUP2 MSTORE CALLER SWAP1 PUSH32 0x650E45F04EF8A0C267B2F78D983913F69AE3A353B2B32DE5429307522BE0AB55 SWAP1 PUSH1 0x20 ADD PUSH1 0x40 MLOAD DUP1 SWAP2 SUB SWAP1 LOG2 POP PUSH2 0x1912 PUSH1 0x1 PUSH1 0x32 SSTORE JUMP JUMPDEST POP POP POP JUMP JUMPDEST PUSH2 0x191F PUSH2 0x2F95 JUMP JUMPDEST PUSH0 SLOAD PUSH1 0xFF AND ISZERO PUSH2 0x1941 JUMPI PUSH1 0x40 MLOAD PUSH3 0x461BCD PUSH1 0xE5 SHL DUP2 MSTORE PUSH1 0x4 ADD PUSH2 0xCBB SWAP1 PUSH2 0x3F6A JUMP JUMPDEST DUP3 PUSH2 0x1965 DUP2 PUSH1 0x1 PUSH1 0x1 PUSH1 0xA0 SHL SUB AND PUSH0 SWAP1 DUP2 MSTORE PUSH1 0x84 PUSH1 0x20 MSTORE PUSH1 0x40 SWAP1 KECCAK256 SLOAD PUSH1 0x4 AND ISZERO ISZERO SWAP1 JUMP JUMPDEST ISZERO PUSH2 0x1982 JUMPI PUSH1 0x40 MLOAD PUSH3 0x461BCD PUSH1 0xE5 SHL DUP2 MSTORE PUSH1 0x4 ADD PUSH2 0xCBB SWAP1 PUSH2 0x3EBC JUMP JUMPDEST PUSH2 0x198B DUP2 PUSH2 0x2BF7 JUMP JUMPDEST PUSH2 0x19A7 JUMPI PUSH1 0x40 MLOAD PUSH3 0x461BCD PUSH1 0xE5 SHL DUP2 MSTORE PUSH1 0x4 ADD PUSH2 0xCBB SWAP1 PUSH2 0x3EE6 JUMP JUMPDEST PUSH2 0x19B0 DUP2 PUSH2 0x2C2A JUMP JUMPDEST PUSH2 0x19CC JUMPI PUSH1 0x40 MLOAD PUSH3 0x461BCD PUSH1 0xE5 SHL DUP2 MSTORE PUSH1 0x4 ADD PUSH2 0xCBB SWAP1 PUSH2 0x3F14 JUMP JUMPDEST PUSH0 DUP3 DUP2 MSTORE PUSH1 0x8A PUSH1 0x20 MSTORE PUSH1 0x40 SWAP1 KECCAK256 SLOAD PUSH1 0xFF AND ISZERO PUSH2 0x1A26 JUMPI PUSH1 0x40 MLOAD PUSH3 0x461BCD PUSH1 0xE5 SHL DUP2 MSTORE PUSH1 0x20 PUSH1 0x4 DUP3 ADD MSTORE PUSH1 0x19 PUSH1 0x24 DUP3 ADD MSTORE PUSH25 0x14185E5B595B9D08185B1C9958591E481C1C9BD8D95CDCD959 PUSH1 0x3A SHL PUSH1 0x44 DUP3 ADD MSTORE PUSH1 0x64 ADD PUSH2 0xCBB JUMP JUMPDEST PUSH1 0x6F SLOAD PUSH1 0x72 SLOAD PUSH2 0x1A37 SWAP1 DUP6 SWAP1 PUSH2 0x3F57 JUMP JUMPDEST GT ISZERO PUSH2 0x1A55 JUMPI PUSH1 0x40 MLOAD PUSH3 0x461BCD PUSH1 0xE5 SHL DUP2 MSTORE PUSH1 0x4 ADD PUSH2 0xCBB SWAP1 PUSH2 0x3FD9 JUMP JUMPDEST PUSH0 DUP3 DUP2 MSTORE PUSH1 0x8A PUSH1 0x20 SWAP1 DUP2 MSTORE PUSH1 0x40 DUP1 DUP4 KECCAK256 DUP1 SLOAD PUSH1 0xFF NOT AND PUSH1 0x1 OR SWAP1 SSTORE PUSH1 0x1 PUSH1 0x1 PUSH1 0xA0 SHL SUB DUP8 AND DUP4 MSTORE PUSH1 0x83 SWAP1 SWAP2 MSTORE DUP2 KECCAK256 DUP1 SLOAD DUP6 SWAP3 SWAP1 PUSH2 0x1A93 SWAP1 DUP5 SWAP1 PUSH2 0x3F57 JUMP JUMPDEST SWAP3 POP POP DUP2 SWAP1 SSTORE POP DUP3 PUSH1 0x72 PUSH0 DUP3 DUP3 SLOAD PUSH2 0x1AAB SWAP2 SWAP1 PUSH2 0x3F57 JUMP JUMPDEST SWAP1 SWAP2 SSTORE POP PUSH2 0x1ABB SWAP1 POP DUP5 DUP5 PUSH2 0x2F79 JUMP JUMPDEST PUSH1 0x40 DUP1 MLOAD DUP5 DUP2 MSTORE PUSH0 PUSH1 0x20 DUP3 ADD MSTORE PUSH1 0x1 PUSH1 0x1 PUSH1 0xA0 SHL SUB DUP7 AND SWAP2 PUSH32 0x8FAFEBCAF9D154343DAD25669BFA277F4FBACD7AC6B0C4FED522580E040A0F33 SWAP2 ADD PUSH1 0x40 MLOAD DUP1 SWAP2 SUB SWAP1 LOG2 DUP2 DUP5 PUSH1 0x1 PUSH1 0x1 PUSH1 0xA0 SHL SUB AND PUSH32 0xF7FBD7B10BB4753C87113CBF609A1B1DCC1268C0BF39E562D08DF1BFF21FF025 DUP6 PUSH1 0x40 MLOAD PUSH2 0x1B3A SWAP2 DUP2 MSTORE PUSH1 0x20 ADD SWAP1 JUMP JUMPDEST PUSH1 0x40 MLOAD DUP1 SWAP2 SUB SWAP1 LOG3 POP POP POP POP JUMP JUMPDEST PUSH2 0x1B50 PUSH2 0x2F95 JUMP JUMPDEST PUSH2 0x1B58 PUSH2 0x3117 JUMP JUMPDEST JUMP JUMPDEST PUSH2 0x1B62 PUSH2 0x2F95 JUMP JUMPDEST PUSH1 0x1 PUSH1 0x1 PUSH1 0xA0 SHL SUB SWAP2 SWAP1 SWAP2 AND PUSH0 SWAP1 DUP2 MSTORE PUSH1 0x8B PUSH1 0x20 MSTORE PUSH1 0x40 SWAP1 KECCAK256 DUP1 SLOAD PUSH1 0xFF NOT AND SWAP2 ISZERO ISZERO SWAP2 SWAP1 SWAP2 OR SWAP1 SSTORE JUMP JUMPDEST PUSH2 0x1B94 PUSH2 0x3168 JUMP JUMPDEST PUSH2 0x1B9D DUP3 PUSH2 0x320C JUMP JUMPDEST PUSH2 0x1BA7 DUP3 DUP3 PUSH2 0x3214 JUMP JUMPDEST POP POP JUMP JUMPDEST PUSH0 PUSH2 0x1BB4 PUSH2 0x32D0 JUMP JUMPDEST POP PUSH0 MLOAD PUSH1 0x20 PUSH2 0x4118 PUSH0 CODECOPY PUSH0 MLOAD SWAP1 PUSH0 MSTORE SWAP1 JUMP JUMPDEST CALLER PUSH0 SWAP1 DUP2 MSTORE PUSH1 0x8B PUSH1 0x20 MSTORE PUSH1 0x40 SWAP1 KECCAK256 SLOAD PUSH32 0x3114365664767534A65ED86F6B30D534FCB3CD028269D38AACD8479CF73CD7A8 SWAP1 PUSH1 0xFF AND PUSH2 0x1C46 JUMPI PUSH1 0x40 MLOAD PUSH3 0x461BCD PUSH1 0xE5 SHL DUP2 MSTORE PUSH1 0x20 PUSH1 0x4 DUP3 ADD MSTORE PUSH1 0x1E PUSH1 0x24 DUP3 ADD MSTORE PUSH32 0x4E6F7420617574686F72697A6564206D756C7469736967207369676E65720000 PUSH1 0x44 DUP3 ADD MSTORE PUSH1 0x64 ADD PUSH2 0xCBB JUMP JUMPDEST PUSH0 DUP2 DUP2 MSTORE PUSH1 0x8C PUSH1 0x20 MSTORE PUSH1 0x40 DUP2 KECCAK256 DUP1 SLOAD SWAP2 PUSH2 0x1C5F DUP4 PUSH2 0x406E JUMP JUMPDEST SWAP1 SWAP2 SSTORE POP POP PUSH1 0x78 SLOAD PUSH0 DUP3 DUP2 MSTORE PUSH1 0x8C PUSH1 0x20 MSTORE PUSH1 0x40 SWAP1 KECCAK256 SLOAD LT ISZERO PUSH2 0x1CC3 JUMPI PUSH1 0x40 MLOAD PUSH3 0x461BCD PUSH1 0xE5 SHL DUP2 MSTORE PUSH1 0x20 PUSH1 0x4 DUP3 ADD MSTORE PUSH1 0x1F PUSH1 0x24 DUP3 ADD MSTORE PUSH32 0x496E73756666696369656E74206D756C746973696720617070726F76616C7300 PUSH1 0x44 DUP3 ADD MSTORE PUSH1 0x64 ADD PUSH2 0xCBB JUMP JUMPDEST PUSH0 DUP2 DUP2 MSTORE PUSH1 0x8C PUSH1 0x20 SWAP1 DUP2 MSTORE PUSH1 0x40 DUP1 DUP4 KECCAK256 SWAP3 SWAP1 SWAP3 SSTORE PUSH1 0x71 DUP1 SLOAD PUSH2 0xFFFF NOT AND PUSH1 0x1 OR SWAP1 SSTORE PUSH1 0x72 SLOAD DUP3 MLOAD SELFBALANCE DUP2 MSTORE SWAP2 DUP3 ADD MSTORE PUSH32 0x17B1A568460BC127A7F9A9677D502AC593FA4AF690A1C3AED38BDA591E196E2E SWAP2 ADD PUSH1 0x40 MLOAD DUP1 SWAP2 SUB SWAP1 LOG1 POP JUMP JUMPDEST PUSH2 0x1D27 PUSH2 0x2F95 JUMP JUMPDEST PUSH1 0x80 SWAP3 SWAP1 SWAP3 SSTORE PUSH1 0x81 SSTORE PUSH1 0x82 SSTORE JUMP JUMPDEST PUSH2 0x1D3D PUSH2 0x2F95 JUMP JUMPDEST PUSH1 0x40 DUP1 MLOAD PUSH1 0xA0 DUP2 ADD DUP3 MSTORE DUP7 DUP2 MSTORE PUSH1 0x20 DUP2 ADD DUP7 SWAP1 MSTORE SWAP1 DUP2 ADD DUP5 SWAP1 MSTORE SWAP2 ISZERO ISZERO PUSH1 0x60 DUP4 ADD DUP2 SWAP1 MSTORE SWAP1 ISZERO ISZERO PUSH1 0x80 SWAP1 SWAP3 ADD DUP3 SWAP1 MSTORE PUSH1 0x76 SWAP5 SWAP1 SWAP5 SSTORE PUSH1 0x77 SWAP3 SWAP1 SWAP3 SSTORE PUSH1 0x78 SSTORE PUSH1 0x79 DUP1 SLOAD PUSH2 0xFFFF NOT AND PUSH2 0xFF00 NOT SWAP1 SWAP4 AND SWAP3 SWAP1 SWAP3 OR PUSH2 0x100 SWAP1 SWAP2 MUL OR SWAP1 SSTORE JUMP JUMPDEST PUSH2 0x1DA2 PUSH2 0x2F95 JUMP JUMPDEST PUSH1 0x1 PUSH1 0x1 PUSH1 0xA0 SHL SUB DUP2 AND PUSH2 0x1DF8 JUMPI PUSH1 0x40 MLOAD PUSH3 0x461BCD PUSH1 0xE5 SHL DUP2 MSTORE PUSH1 0x20 PUSH1 0x4 DUP3 ADD MSTORE PUSH1 0x1A PUSH1 0x24 DUP3 ADD MSTORE PUSH32 0x496E76616C6964207769746864726177616C2061646472657373000000000000 PUSH1 0x44 DUP3 ADD MSTORE PUSH1 0x64 ADD PUSH2 0xCBB JUMP JUMPDEST PUSH1 0x40 MLOAD PUSH1 0x1 PUSH1 0x1 PUSH1 0xA0 SHL SUB DUP3 AND SWAP1 SELFBALANCE DUP1 ISZERO PUSH2 0x8FC MUL SWAP2 PUSH0 DUP2 DUP2 DUP2 DUP6 DUP9 DUP9 CALL SWAP4 POP POP POP POP ISZERO DUP1 ISZERO PUSH2 0x1BA7 JUMPI RETURNDATASIZE PUSH0 PUSH0 RETURNDATACOPY RETURNDATASIZE PUSH0 REVERT JUMPDEST PUSH2 0x1E32 PUSH2 0x2F95 JUMP JUMPDEST PUSH2 0x1B58 PUSH0 PUSH2 0x3319 JUMP JUMPDEST PUSH2 0x1E43 PUSH2 0x2F95 JUMP JUMPDEST PUSH2 0x1B58 PUSH2 0x3389 JUMP JUMPDEST PUSH0 PUSH0 PUSH0 PUSH0 PUSH1 0x69 PUSH0 ADD SLOAD TIMESTAMP LT ISZERO DUP1 ISZERO PUSH2 0x1E65 JUMPI POP PUSH1 0x6A SLOAD TIMESTAMP GT ISZERO JUMPDEST PUSH1 0x71 SLOAD PUSH1 0x72 SLOAD PUSH1 0x6F SLOAD SWAP3 SWAP7 POP PUSH1 0xFF SWAP1 SWAP2 AND SWAP5 POP PUSH2 0x1E81 SWAP2 PUSH2 0x4086 JUMP JUMPDEST PUSH1 0x6A SLOAD SWAP1 SWAP3 POP TIMESTAMP LT PUSH2 0x1E93 JUMPI PUSH0 PUSH2 0x1EA1 JUMP JUMPDEST PUSH1 0x6A SLOAD PUSH2 0x1EA1 SWAP1 TIMESTAMP SWAP1 PUSH2 0x4086 JUMP JUMPDEST SWAP1 POP SWAP1 SWAP2 SWAP3 SWAP4 JUMP JUMPDEST PUSH2 0x1EB1 PUSH2 0x2F95 JUMP JUMPDEST PUSH0 SLOAD PUSH1 0xFF AND ISZERO PUSH2 0x1ED3 JUMPI PUSH1 0x40 MLOAD PUSH3 0x461BCD PUSH1 0xE5 SHL DUP2 MSTORE PUSH1 0x4 ADD PUSH2 0xCBB SWAP1 PUSH2 0x3F6A JUMP JUMPDEST PUSH2 0x1EDB PUSH2 0x2B9E JUMP JUMPDEST PUSH0 JUMPDEST DUP2 DUP2 LT ISZERO PUSH2 0x2030 JUMPI PUSH0 DUP4 DUP4 DUP4 DUP2 DUP2 LT PUSH2 0x1EF8 JUMPI PUSH2 0x1EF8 PUSH2 0x3FC5 JUMP JUMPDEST SWAP1 POP PUSH1 0x20 MUL ADD PUSH1 0x20 DUP2 ADD SWAP1 PUSH2 0x1F0D SWAP2 SWAP1 PUSH2 0x39F1 JUMP JUMPDEST PUSH1 0x1 PUSH1 0x1 PUSH1 0xA0 SHL SUB DUP2 AND PUSH0 SWAP1 DUP2 MSTORE PUSH1 0x89 PUSH1 0x20 MSTORE PUSH1 0x40 SWAP1 KECCAK256 PUSH1 0x6 DUP2 ADD SLOAD SWAP2 SWAP3 POP SWAP1 PUSH1 0xFF AND DUP1 ISZERO PUSH2 0x1F3C JUMPI POP DUP1 SLOAD ISZERO ISZERO JUMPDEST ISZERO PUSH2 0x2026 JUMPI PUSH0 PUSH2 0x1F4B DUP4 PUSH2 0x2A0C JUMP JUMPDEST SWAP1 POP DUP1 ISZERO PUSH2 0x2024 JUMPI DUP1 DUP3 PUSH1 0x1 ADD PUSH0 DUP3 DUP3 SLOAD PUSH2 0x1F66 SWAP2 SWAP1 PUSH2 0x3F57 JUMP JUMPDEST SWAP1 SWAP2 SSTORE POP POP PUSH1 0x64 SLOAD PUSH1 0x40 MLOAD PUSH4 0xA9059CBB PUSH1 0xE0 SHL DUP2 MSTORE PUSH1 0x1 PUSH1 0x1 PUSH1 0xA0 SHL SUB DUP6 DUP2 AND PUSH1 0x4 DUP4 ADD MSTORE PUSH1 0x24 DUP3 ADD DUP5 SWAP1 MSTORE SWAP1 SWAP2 AND SWAP1 PUSH4 0xA9059CBB SWAP1 PUSH1 0x44 ADD PUSH1 0x20 PUSH1 0x40 MLOAD DUP1 DUP4 SUB DUP2 PUSH0 DUP8 GAS CALL ISZERO DUP1 ISZERO PUSH2 0x1FBB JUMPI RETURNDATASIZE PUSH0 PUSH0 RETURNDATACOPY RETURNDATASIZE PUSH0 REVERT JUMPDEST POP POP POP POP PUSH1 0x40 MLOAD RETURNDATASIZE PUSH1 0x1F NOT PUSH1 0x1F DUP3 ADD AND DUP3 ADD DUP1 PUSH1 0x40 MSTORE POP DUP2 ADD SWAP1 PUSH2 0x1FDF SWAP2 SWAP1 PUSH2 0x4099 JUMP JUMPDEST POP DUP3 PUSH1 0x1 PUSH1 0x1 PUSH1 0xA0 SHL SUB AND PUSH32 0x896E034966EAAF1ADC54ACC0F257056FEBBD300C9E47182CF761982CF1F5E430 DUP3 PUSH1 0x40 MLOAD PUSH2 0x201B SWAP2 DUP2 MSTORE PUSH1 0x20 ADD SWAP1 JUMP JUMPDEST PUSH1 0x40 MLOAD DUP1 SWAP2 SUB SWAP1 LOG2 JUMPDEST POP JUMPDEST POP POP PUSH1 0x1 ADD PUSH2 0x1EDD JUMP JUMPDEST POP PUSH2 0x1BA7 PUSH1 0x1 PUSH1 0x32 SSTORE JUMP JUMPDEST PUSH2 0x2043 PUSH2 0x2F95 JUMP JUMPDEST DUP9 DUP8 EQ DUP1 ISZERO PUSH2 0x2051 JUMPI POP DUP7 DUP6 EQ JUMPDEST DUP1 ISZERO PUSH2 0x205C JUMPI POP DUP5 DUP4 EQ JUMPDEST DUP1 ISZERO PUSH2 0x2067 JUMPI POP DUP3 DUP2 EQ JUMPDEST PUSH2 0x2083 JUMPI PUSH1 0x40 MLOAD PUSH3 0x461BCD PUSH1 0xE5 SHL DUP2 MSTORE PUSH1 0x4 ADD PUSH2 0xCBB SWAP1 PUSH2 0x3F96 JUMP JUMPDEST PUSH0 JUMPDEST DUP10 DUP2 LT ISZERO PUSH2 0x212A JUMPI PUSH2 0x2122 DUP12 DUP12 DUP4 DUP2 DUP2 LT PUSH2 0x20A2 JUMPI PUSH2 0x20A2 PUSH2 0x3FC5 JUMP JUMPDEST SWAP1 POP PUSH1 0x20 MUL ADD PUSH1 0x20 DUP2 ADD SWAP1 PUSH2 0x20B7 SWAP2 SWAP1 PUSH2 0x39F1 JUMP JUMPDEST DUP11 DUP11 DUP5 DUP2 DUP2 LT PUSH2 0x20C9 JUMPI PUSH2 0x20C9 PUSH2 0x3FC5 JUMP JUMPDEST SWAP1 POP PUSH1 0x20 MUL ADD CALLDATALOAD DUP10 DUP10 DUP6 DUP2 DUP2 LT PUSH2 0x20E2 JUMPI PUSH2 0x20E2 PUSH2 0x3FC5 JUMP JUMPDEST SWAP1 POP PUSH1 0x20 MUL ADD CALLDATALOAD DUP9 DUP9 DUP7 DUP2 DUP2 LT PUSH2 0x20FB JUMPI PUSH2 0x20FB PUSH2 0x3FC5 JUMP JUMPDEST SWAP1 POP PUSH1 0x20 MUL ADD CALLDATALOAD DUP8 DUP8 DUP8 DUP2 DUP2 LT PUSH2 0x2114 JUMPI PUSH2 0x2114 PUSH2 0x3FC5 JUMP JUMPDEST SWAP1 POP PUSH1 0x20 MUL ADD CALLDATALOAD PUSH1 0x1 PUSH2 0x3005 JUMP JUMPDEST PUSH1 0x1 ADD PUSH2 0x2085 JUMP JUMPDEST POP POP POP POP POP POP POP POP POP POP POP JUMP JUMPDEST PUSH0 SLOAD PUSH1 0xFF AND ISZERO PUSH2 0x2159 JUMPI PUSH1 0x40 MLOAD PUSH3 0x461BCD PUSH1 0xE5 SHL DUP2 MSTORE PUSH1 0x4 ADD PUSH2 0xCBB SWAP1 PUSH2 0x3F6A JUMP JUMPDEST PUSH2 0x2161 PUSH2 0x2B9E JUMP JUMPDEST PUSH1 0x71 SLOAD PUSH2 0x100 SWAP1 DIV PUSH1 0xFF AND PUSH2 0x21AF JUMPI PUSH1 0x40 MLOAD PUSH3 0x461BCD PUSH1 0xE5 SHL DUP2 MSTORE PUSH1 0x20 PUSH1 0x4 DUP3 ADD MSTORE PUSH1 0x14 PUSH1 0x24 DUP3 ADD MSTORE PUSH20 0x1499599D5B991CC8185C9948191A5CD8589B1959 PUSH1 0x62 SHL PUSH1 0x44 DUP3 ADD MSTORE PUSH1 0x64 ADD PUSH2 0xCBB JUMP JUMPDEST PUSH1 0x6A SLOAD TIMESTAMP GT DUP1 ISZERO PUSH2 0x21C3 JUMPI POP PUSH1 0x6D SLOAD PUSH1 0x72 SLOAD LT JUMPDEST PUSH2 0x220F JUMPI PUSH1 0x40 MLOAD PUSH3 0x461BCD PUSH1 0xE5 SHL DUP2 MSTORE PUSH1 0x20 PUSH1 0x4 DUP3 ADD MSTORE PUSH1 0x19 PUSH1 0x24 DUP3 ADD MSTORE PUSH32 0x526566756E6420636F6E646974696F6E73206E6F74206D657400000000000000 PUSH1 0x44 DUP3 ADD MSTORE PUSH1 0x64 ADD PUSH2 0xCBB JUMP JUMPDEST CALLER PUSH0 SWAP1 DUP2 MSTORE PUSH1 0x85 PUSH1 0x20 MSTORE PUSH1 0x40 SWAP1 KECCAK256 SLOAD DUP1 PUSH2 0x2261 JUMPI PUSH1 0x40 MLOAD PUSH3 0x461BCD PUSH1 0xE5 SHL DUP2 MSTORE PUSH1 0x20 PUSH1 0x4 DUP3 ADD MSTORE PUSH1 0x13 PUSH1 0x24 DUP3 ADD MSTORE PUSH19 0x4E6F20726566756E6420617661696C61626C65 PUSH1 0x68 SHL PUSH1 0x44 DUP3 ADD MSTORE PUSH1 0x64 ADD PUSH2 0xCBB JUMP JUMPDEST CALLER PUSH0 DUP2 DUP2 MSTORE PUSH1 0x85 PUSH1 0x20 MSTORE PUSH1 0x40 DUP1 DUP3 KECCAK256 DUP3 SWAP1 SSTORE MLOAD DUP4 ISZERO PUSH2 0x8FC MUL SWAP2 DUP5 SWAP2 SWAP1 DUP2 DUP2 DUP2 DUP6 DUP9 DUP9 CALL SWAP4 POP POP POP POP ISZERO DUP1 ISZERO PUSH2 0x2299 JUMPI RETURNDATASIZE PUSH0 PUSH0 RETURNDATACOPY RETURNDATASIZE PUSH0 REVERT JUMPDEST POP PUSH1 0x40 MLOAD DUP2 DUP2 MSTORE CALLER SWAP1 PUSH32 0xA171B6942063C6F2800CE40A780EDCE37BAA2B618571B11EEDD1E69E626E7D76 SWAP1 PUSH1 0x20 ADD PUSH1 0x40 MLOAD DUP1 SWAP2 SUB SWAP1 LOG2 POP PUSH2 0x1B58 PUSH1 0x1 PUSH1 0x32 SSTORE JUMP JUMPDEST PUSH2 0x22E2 PUSH2 0x2F95 JUMP JUMPDEST PUSH1 0x1 PUSH1 0x1 PUSH1 0xA0 SHL SUB DUP2 AND PUSH2 0x2331 JUMPI PUSH1 0x40 MLOAD PUSH3 0x461BCD PUSH1 0xE5 SHL DUP2 MSTORE PUSH1 0x20 PUSH1 0x4 DUP3 ADD MSTORE PUSH1 0x16 PUSH1 0x24 DUP3 ADD MSTORE PUSH22 0x125B9D985B1A59081D1BDAD95B8818DBDB9D1C9858DD PUSH1 0x52 SHL PUSH1 0x44 DUP3 ADD MSTORE PUSH1 0x64 ADD PUSH2 0xCBB JUMP JUMPDEST PUSH1 0x64 DUP1 SLOAD PUSH1 0x1 PUSH1 0x1 PUSH1 0xA0 SHL SUB NOT AND PUSH1 0x1 PUSH1 0x1 PUSH1 0xA0 SHL SUB SWAP3 SWAP1 SWAP3 AND SWAP2 SWAP1 SWAP2 OR SWAP1 SSTORE JUMP JUMPDEST PUSH0 PUSH2 0x235C PUSH2 0x33C5 JUMP JUMPDEST DUP1 SLOAD SWAP1 SWAP2 POP PUSH1 0xFF PUSH1 0x1 PUSH1 0x40 SHL DUP3 DIV AND ISZERO SWAP1 PUSH1 0x1 PUSH1 0x1 PUSH1 0x40 SHL SUB AND PUSH0 DUP2 ISZERO DUP1 ISZERO PUSH2 0x2382 JUMPI POP DUP3 JUMPDEST SWAP1 POP PUSH0 DUP3 PUSH1 0x1 PUSH1 0x1 PUSH1 0x40 SHL SUB AND PUSH1 0x1 EQ DUP1 ISZERO PUSH2 0x239D JUMPI POP ADDRESS EXTCODESIZE ISZERO JUMPDEST SWAP1 POP DUP2 ISZERO DUP1 ISZERO PUSH2 0x23AB JUMPI POP DUP1 ISZERO JUMPDEST ISZERO PUSH2 0x23C9 JUMPI PUSH1 0x40 MLOAD PUSH4 0xF92EE8A9 PUSH1 0xE0 SHL DUP2 MSTORE PUSH1 0x4 ADD PUSH1 0x40 MLOAD DUP1 SWAP2 SUB SWAP1 REVERT JUMPDEST DUP5 SLOAD PUSH8 0xFFFFFFFFFFFFFFFF NOT AND PUSH1 0x1 OR DUP6 SSTORE DUP4 ISZERO PUSH2 0x23F3 JUMPI DUP5 SLOAD PUSH1 0xFF PUSH1 0x40 SHL NOT AND PUSH1 0x1 PUSH1 0x40 SHL OR DUP6 SSTORE JUMPDEST PUSH2 0x23FC CALLER PUSH2 0x33ED JUMP JUMPDEST PUSH2 0x2404 PUSH2 0x33FE JUMP JUMPDEST PUSH2 0x240C PUSH2 0x3406 JUMP JUMPDEST PUSH2 0x2414 PUSH2 0x3416 JUMP JUMPDEST PUSH1 0x64 DUP1 SLOAD PUSH1 0x1 PUSH1 0x1 PUSH1 0xA0 SHL SUB DUP1 DUP12 AND PUSH1 0x1 PUSH1 0x1 PUSH1 0xA0 SHL SUB NOT SWAP3 DUP4 AND OR SWAP1 SWAP3 SSTORE PUSH1 0x65 DUP1 SLOAD DUP11 DUP5 AND SWAP1 DUP4 AND OR SWAP1 SSTORE PUSH1 0x66 DUP1 SLOAD SWAP3 DUP10 AND SWAP3 SWAP1 SWAP2 AND SWAP2 SWAP1 SWAP2 OR SWAP1 SSTORE PUSH1 0x71 DUP1 SLOAD PUSH2 0xFF00 NOT AND PUSH2 0x100 OR SWAP1 SSTORE PUSH2 0x1F4 PUSH1 0x67 SSTORE DUP4 ISZERO PUSH2 0x24AC JUMPI DUP5 SLOAD PUSH1 0xFF PUSH1 0x40 SHL NOT AND DUP6 SSTORE PUSH1 0x40 MLOAD PUSH1 0x1 DUP2 MSTORE PUSH32 0xC7F505B2F371AE2175EE4913F4499E1F2633A7B5936321EED1CDAEB6115181D2 SWAP1 PUSH1 0x20 ADD PUSH1 0x40 MLOAD DUP1 SWAP2 SUB SWAP1 LOG1 JUMPDEST POP POP POP POP POP POP POP POP JUMP JUMPDEST CALLER PUSH0 SWAP1 DUP2 MSTORE PUSH1 0x8B PUSH1 0x20 MSTORE PUSH1 0x40 SWAP1 KECCAK256 SLOAD PUSH32 0x731281DF435FB3AC8209B35DD5BF0581E52A20E6ACEB30AA1CF328306D7EC220 SWAP1 PUSH1 0xFF AND PUSH2 0x2536 JUMPI PUSH1 0x40 MLOAD PUSH3 0x461BCD PUSH1 0xE5 SHL DUP2 MSTORE PUSH1 0x20 PUSH1 0x4 DUP3 ADD MSTORE PUSH1 0x1E PUSH1 0x24 DUP3 ADD MSTORE PUSH32 0x4E6F7420617574686F72697A6564206D756C7469736967207369676E65720000 PUSH1 0x44 DUP3 ADD MSTORE PUSH1 0x64 ADD PUSH2 0xCBB JUMP JUMPDEST PUSH0 DUP2 DUP2 MSTORE PUSH1 0x8C PUSH1 0x20 MSTORE PUSH1 0x40 DUP2 KECCAK256 DUP1 SLOAD SWAP2 PUSH2 0x254F DUP4 PUSH2 0x406E JUMP JUMPDEST SWAP1 SWAP2 SSTORE POP POP PUSH1 0x78 SLOAD PUSH0 DUP3 DUP2 MSTORE PUSH1 0x8C PUSH1 0x20 MSTORE PUSH1 0x40 SWAP1 KECCAK256 SLOAD LT ISZERO PUSH2 0x25B3 JUMPI PUSH1 0x40 MLOAD PUSH3 0x461BCD PUSH1 0xE5 SHL DUP2 MSTORE PUSH1 0x20 PUSH1 0x4 DUP3 ADD MSTORE PUSH1 0x1F PUSH1 0x24 DUP3 ADD MSTORE PUSH32 0x496E73756666696369656E74206D756C746973696720617070726F76616C7300 PUSH1 0x44 DUP3 ADD MSTORE PUSH1 0x64 ADD PUSH2 0xCBB JUMP JUMPDEST PUSH0 DUP2 DUP2 MSTORE PUSH1 0x8C PUSH1 0x20 MSTORE PUSH1 0x40 DUP2 KECCAK256 SSTORE PUSH1 0x71 SLOAD PUSH1 0xFF AND PUSH2 0x2608 JUMPI PUSH1 0x40 MLOAD PUSH3 0x461BCD PUSH1 0xE5 SHL DUP2 MSTORE PUSH1 0x20 PUSH1 0x4 DUP3 ADD MSTORE PUSH1 0x12 PUSH1 0x24 DUP3 ADD MSTORE PUSH18 0x14D85B19481B9BDD08199A5B985B1A5E9959 PUSH1 0x72 SHL PUSH1 0x44 DUP3 ADD MSTORE PUSH1 0x64 ADD PUSH2 0xCBB JUMP JUMPDEST PUSH1 0x64 SLOAD PUSH1 0x65 SLOAD PUSH1 0x40 MLOAD PUSH4 0x70A08231 PUSH1 0xE0 SHL DUP2 MSTORE ADDRESS PUSH1 0x4 DUP3 ADD MSTORE PUSH1 0x1 PUSH1 0x1 PUSH1 0xA0 SHL SUB SWAP3 DUP4 AND SWAP3 PUSH4 0xA9059CBB SWAP3 AND SWAP1 DUP4 SWAP1 PUSH4 0x70A08231 SWAP1 PUSH1 0x24 ADD PUSH1 0x20 PUSH1 0x40 MLOAD DUP1 DUP4 SUB DUP2 DUP7 GAS STATICCALL ISZERO DUP1 ISZERO PUSH2 0x265B JUMPI RETURNDATASIZE PUSH0 PUSH0 RETURNDATACOPY RETURNDATASIZE PUSH0 REVERT JUMPDEST POP POP POP POP PUSH1 0x40 MLOAD RETURNDATASIZE PUSH1 0x1F NOT PUSH1 0x1F DUP3 ADD AND DUP3 ADD DUP1 PUSH1 0x40 MSTORE POP DUP2 ADD SWAP1 PUSH2 0x267F SWAP2 SWAP1 PUSH2 0x40B4 JUMP JUMPDEST PUSH1 0x40 MLOAD PUSH1 0x1 PUSH1 0x1 PUSH1 0xE0 SHL SUB NOT PUSH1 0xE0 DUP6 SWAP1 SHL AND DUP2 MSTORE PUSH1 0x1 PUSH1 0x1 PUSH1 0xA0 SHL SUB SWAP1 SWAP3 AND PUSH1 0x4 DUP4 ADD MSTORE PUSH1 0x24 DUP3 ADD MSTORE PUSH1 0x44 ADD PUSH1 0x20 PUSH1 0x40 MLOAD DUP1 DUP4 SUB DUP2 PUSH0 DUP8 GAS CALL ISZERO DUP1 ISZERO PUSH2 0x26C7 JUMPI RETURNDATASIZE PUSH0 PUSH0 RETURNDATACOPY RETURNDATASIZE PUSH0 REVERT JUMPDEST POP POP POP POP PUSH1 0x40 MLOAD RETURNDATASIZE PUSH1 0x1F NOT PUSH1 0x1F DUP3 ADD AND DUP3 ADD DUP1 PUSH1 0x40 MSTORE POP DUP2 ADD SWAP1 PUSH2 0x1BA7 SWAP2 SWAP1 PUSH2 0x4099 JUMP JUMPDEST PUSH2 0x26F3 PUSH2 0x2F95 JUMP JUMPDEST DUP3 DUP2 EQ PUSH2 0x2712 JUMPI PUSH1 0x40 MLOAD PUSH3 0x461BCD PUSH1 0xE5 SHL DUP2 MSTORE PUSH1 0x4 ADD PUSH2 0xCBB SWAP1 PUSH2 0x3F96 JUMP JUMPDEST PUSH0 JUMPDEST DUP4 DUP2 LT ISZERO PUSH2 0x2780 JUMPI DUP3 DUP3 DUP3 DUP2 DUP2 LT PUSH2 0x272E JUMPI PUSH2 0x272E PUSH2 0x3FC5 JUMP JUMPDEST SWAP1 POP PUSH1 0x20 MUL ADD CALLDATALOAD PUSH1 0x84 PUSH0 DUP8 DUP8 DUP6 DUP2 DUP2 LT PUSH2 0x274A JUMPI PUSH2 0x274A PUSH2 0x3FC5 JUMP JUMPDEST SWAP1 POP PUSH1 0x20 MUL ADD PUSH1 0x20 DUP2 ADD SWAP1 PUSH2 0x275F SWAP2 SWAP1 PUSH2 0x39F1 JUMP JUMPDEST PUSH1 0x1 PUSH1 0x1 PUSH1 0xA0 SHL SUB AND DUP2 MSTORE PUSH1 0x20 DUP2 ADD SWAP2 SWAP1 SWAP2 MSTORE PUSH1 0x40 ADD PUSH0 KECCAK256 SSTORE PUSH1 0x1 ADD PUSH2 0x2714 JUMP JUMPDEST POP POP POP POP POP JUMP JUMPDEST PUSH1 0x1 PUSH1 0x1 PUSH1 0xA0 SHL SUB DUP2 AND PUSH0 SWAP1 DUP2 MSTORE PUSH1 0x83 PUSH1 0x20 MSTORE PUSH1 0x40 DUP2 KECCAK256 SLOAD SWAP1 DUP1 DUP1 PUSH2 0x27AB DUP6 PUSH2 0x2A0C JUMP JUMPDEST PUSH1 0x1 PUSH1 0x1 PUSH1 0xA0 SHL SUB SWAP1 SWAP6 AND PUSH0 SWAP1 DUP2 MSTORE PUSH1 0x89 PUSH1 0x20 SWAP1 DUP2 MSTORE PUSH1 0x40 DUP1 DUP4 KECCAK256 PUSH1 0x1 ADD SLOAD PUSH1 0x85 SWAP1 SWAP3 MSTORE SWAP1 SWAP2 KECCAK256 SLOAD SWAP5 SWAP7 SWAP1 SWAP5 SWAP4 POP SWAP2 POP POP JUMP JUMPDEST PUSH0 SLOAD PUSH1 0xFF AND ISZERO PUSH2 0x2800 JUMPI PUSH1 0x40 MLOAD PUSH3 0x461BCD PUSH1 0xE5 SHL DUP2 MSTORE PUSH1 0x4 ADD PUSH2 0xCBB SWAP1 PUSH2 0x3F6A JUMP JUMPDEST PUSH2 0x2808 PUSH2 0x2B9E JUMP JUMPDEST CALLER PUSH0 SWAP1 DUP2 MSTORE PUSH1 0x89 PUSH1 0x20 MSTORE PUSH1 0x40 SWAP1 KECCAK256 PUSH1 0x6 DUP2 ADD SLOAD PUSH1 0xFF AND PUSH2 0x286A JUMPI PUSH1 0x40 MLOAD PUSH3 0x461BCD PUSH1 0xE5 SHL DUP2 MSTORE PUSH1 0x20 PUSH1 0x4 DUP3 ADD MSTORE PUSH1 0x1A PUSH1 0x24 DUP3 ADD MSTORE PUSH32 0x4E6F206163746976652076657374696E67207363686564756C65000000000000 PUSH1 0x44 DUP3 ADD MSTORE PUSH1 0x64 ADD PUSH2 0xCBB JUMP JUMPDEST DUP1 SLOAD PUSH2 0x28AB JUMPI PUSH1 0x40 MLOAD PUSH3 0x461BCD PUSH1 0xE5 SHL DUP2 MSTORE PUSH1 0x20 PUSH1 0x4 DUP3 ADD MSTORE PUSH1 0x10 PUSH1 0x24 DUP3 ADD MSTORE PUSH16 0x139BC81D1BDAD95B9CC81D995CDD1959 PUSH1 0x82 SHL PUSH1 0x44 DUP3 ADD MSTORE PUSH1 0x64 ADD PUSH2 0xCBB JUMP JUMPDEST PUSH0 PUSH2 0x28B5 CALLER PUSH2 0x2A0C JUMP JUMPDEST SWAP1 POP PUSH0 DUP2 GT PUSH2 0x2906 JUMPI PUSH1 0x40 MLOAD PUSH3 0x461BCD PUSH1 0xE5 SHL DUP2 MSTORE PUSH1 0x20 PUSH1 0x4 DUP3 ADD MSTORE PUSH1 0x1D PUSH1 0x24 DUP3 ADD MSTORE PUSH32 0x4E6F20746F6B656E7320617661696C61626C6520666F7220636C61696D000000 PUSH1 0x44 DUP3 ADD MSTORE PUSH1 0x64 ADD PUSH2 0xCBB JUMP JUMPDEST DUP1 DUP3 PUSH1 0x1 ADD PUSH0 DUP3 DUP3 SLOAD PUSH2 0x2919 SWAP2 SWAP1 PUSH2 0x3F57 JUMP JUMPDEST SWAP1 SWAP2 SSTORE POP POP PUSH1 0x64 SLOAD PUSH1 0x40 MLOAD PUSH4 0xA9059CBB PUSH1 0xE0 SHL DUP2 MSTORE CALLER PUSH1 0x4 DUP3 ADD MSTORE PUSH1 0x24 DUP2 ADD DUP4 SWAP1 MSTORE PUSH1 0x1 PUSH1 0x1 PUSH1 0xA0 SHL SUB SWAP1 SWAP2 AND SWAP1 PUSH4 0xA9059CBB SWAP1 PUSH1 0x44 ADD PUSH1 0x20 PUSH1 0x40 MLOAD DUP1 DUP4 SUB DUP2 PUSH0 DUP8 GAS CALL ISZERO DUP1 ISZERO PUSH2 0x296C JUMPI RETURNDATASIZE PUSH0 PUSH0 RETURNDATACOPY RETURNDATASIZE PUSH0 REVERT JUMPDEST POP POP POP POP PUSH1 0x40 MLOAD RETURNDATASIZE PUSH1 0x1F NOT PUSH1 0x1F DUP3 ADD AND DUP3 ADD DUP1 PUSH1 0x40 MSTORE POP DUP2 ADD SWAP1 PUSH2 0x2990 SWAP2 SWAP1 PUSH2 0x4099 JUMP JUMPDEST POP PUSH1 0x40 MLOAD DUP2 DUP2 MSTORE CALLER SWAP1 PUSH32 0x896E034966EAAF1ADC54ACC0F257056FEBBD300C9E47182CF761982CF1F5E430 SWAP1 PUSH1 0x20 ADD PUSH1 0x40 MLOAD DUP1 SWAP2 SUB SWAP1 LOG2 POP POP PUSH2 0x1B58 PUSH1 0x1 PUSH1 0x32 SSTORE JUMP JUMPDEST PUSH2 0x29DA PUSH2 0x2F95 JUMP JUMPDEST PUSH1 0x1 PUSH1 0x1 PUSH1 0xA0 SHL SUB DUP2 AND PUSH2 0x2A03 JUMPI PUSH1 0x40 MLOAD PUSH4 0x1E4FBDF7 PUSH1 0xE0 SHL DUP2 MSTORE PUSH0 PUSH1 0x4 DUP3 ADD MSTORE PUSH1 0x24 ADD PUSH2 0xCBB JUMP JUMPDEST PUSH2 0xEEB DUP2 PUSH2 0x3319 JUMP JUMPDEST PUSH1 0x1 PUSH1 0x1 PUSH1 0xA0 SHL SUB DUP2 AND PUSH0 SWAP1 DUP2 MSTORE PUSH1 0x89 PUSH1 0x20 SWAP1 DUP2 MSTORE PUSH1 0x40 DUP1 DUP4 KECCAK256 DUP2 MLOAD PUSH1 0xE0 DUP2 ADD DUP4 MSTORE DUP2 SLOAD DUP2 MSTORE PUSH1 0x1 DUP3 ADD SLOAD SWAP4 DUP2 ADD SWAP4 SWAP1 SWAP4 MSTORE PUSH1 0x2 DUP2 ADD SLOAD SWAP2 DUP4 ADD DUP3 SWAP1 MSTORE PUSH1 0x3 DUP2 ADD SLOAD PUSH1 0x60 DUP5 ADD MSTORE PUSH1 0x4 DUP2 ADD SLOAD PUSH1 0x80 DUP5 ADD DUP2 SWAP1 MSTORE PUSH1 0x5 DUP3 ADD SLOAD PUSH1 0xA0 DUP6 ADD MSTORE PUSH1 0x6 SWAP1 SWAP2 ADD SLOAD PUSH1 0xFF AND ISZERO ISZERO PUSH1 0xC0 DUP5 ADD MSTORE PUSH2 0x2A82 SWAP2 PUSH2 0x3F57 JUMP JUMPDEST TIMESTAMP LT ISZERO PUSH2 0x2A91 JUMPI POP PUSH0 SWAP3 SWAP2 POP POP JUMP JUMPDEST PUSH0 DUP2 PUSH1 0x40 ADD MLOAD TIMESTAMP PUSH2 0x2AA2 SWAP2 SWAP1 PUSH2 0x4086 JUMP JUMPDEST SWAP1 POP DUP2 PUSH1 0x60 ADD MLOAD DUP2 LT PUSH2 0x2AC8 JUMPI PUSH1 0x20 DUP3 ADD MLOAD DUP3 MLOAD PUSH2 0x2AC0 SWAP2 SWAP1 PUSH2 0x4086 JUMP JUMPDEST SWAP5 SWAP4 POP POP POP POP JUMP JUMPDEST PUSH0 PUSH1 0x64 DUP4 PUSH1 0xA0 ADD MLOAD DUP5 PUSH0 ADD MLOAD PUSH2 0x2ADE SWAP2 SWAP1 PUSH2 0x40CB JUMP JUMPDEST PUSH2 0x2AE8 SWAP2 SWAP1 PUSH2 0x40E2 JUMP JUMPDEST SWAP1 POP PUSH0 DUP4 PUSH1 0x80 ADD MLOAD DUP5 PUSH1 0x60 ADD MLOAD PUSH2 0x2AFF SWAP2 SWAP1 PUSH2 0x4086 JUMP JUMPDEST PUSH1 0x80 DUP6 ADD MLOAD PUSH2 0x2B0E SWAP1 DUP6 PUSH2 0x4086 JUMP JUMPDEST DUP6 MLOAD PUSH2 0x2B1B SWAP1 DUP6 SWAP1 PUSH2 0x4086 JUMP JUMPDEST PUSH2 0x2B25 SWAP2 SWAP1 PUSH2 0x40CB JUMP JUMPDEST PUSH2 0x2B2F SWAP2 SWAP1 PUSH2 0x40E2 JUMP JUMPDEST SWAP1 POP PUSH0 PUSH2 0x2B3C DUP3 DUP5 PUSH2 0x3F57 JUMP JUMPDEST SWAP1 POP DUP5 PUSH1 0x20 ADD MLOAD DUP2 PUSH2 0x2B4E SWAP2 SWAP1 PUSH2 0x4086 JUMP JUMPDEST SWAP8 SWAP7 POP POP POP POP POP POP POP JUMP JUMPDEST PUSH0 SLOAD PUSH1 0xFF AND ISZERO PUSH2 0x1B58 JUMPI PUSH1 0x40 MLOAD PUSH3 0x461BCD PUSH1 0xE5 SHL DUP2 MSTORE PUSH1 0x20 PUSH1 0x4 DUP3 ADD MSTORE PUSH1 0x10 PUSH1 0x24 DUP3 ADD MSTORE PUSH16 0x14185D5CD8589B194E881C185D5CD959 PUSH1 0x82 SHL PUSH1 0x44 DUP3 ADD MSTORE PUSH1 0x64 ADD PUSH2 0xCBB JUMP JUMPDEST PUSH1 0x2 PUSH1 0x32 SLOAD SUB PUSH2 0x2BF0 JUMPI PUSH1 0x40 MLOAD PUSH3 0x461BCD PUSH1 0xE5 SHL DUP2 MSTORE PUSH1 0x20 PUSH1 0x4 DUP3 ADD MSTORE PUSH1 0x1F PUSH1 0x24 DUP3 ADD MSTORE PUSH32 0x5265656E7472616E637947756172643A207265656E7472616E742063616C6C00 PUSH1 0x44 DUP3 ADD MSTORE PUSH1 0x64 ADD PUSH2 0xCBB JUMP JUMPDEST PUSH1 0x2 PUSH1 0x32 SSTORE JUMP JUMPDEST PUSH1 0x79 SLOAD PUSH0 SWAP1 PUSH1 0xFF AND ISZERO DUP1 PUSH2 0x2C24 JUMPI POP PUSH1 0x1 PUSH1 0x1 PUSH1 0xA0 SHL SUB DUP3 AND PUSH0 SWAP1 DUP2 MSTORE PUSH1 0x84 PUSH1 0x20 MSTORE PUSH1 0x40 SWAP1 KECCAK256 SLOAD PUSH1 0x1 AND ISZERO ISZERO JUMPDEST SWAP3 SWAP2 POP POP JUMP JUMPDEST PUSH1 0x79 SLOAD PUSH0 SWAP1 PUSH2 0x100 SWAP1 DIV PUSH1 0xFF AND ISZERO DUP1 PUSH2 0x2C24 JUMPI POP POP PUSH1 0x1 PUSH1 0x1 PUSH1 0xA0 SHL SUB AND PUSH0 SWAP1 DUP2 MSTORE PUSH1 0x84 PUSH1 0x20 MSTORE PUSH1 0x40 SWAP1 KECCAK256 SLOAD PUSH1 0x2 AND ISZERO ISZERO SWAP1 JUMP JUMPDEST PUSH1 0x75 SLOAD PUSH0 SWAP1 DUP2 SWAP1 PUSH1 0xFF AND PUSH2 0x2C7A JUMPI PUSH2 0x2C75 DUP4 PUSH2 0x3426 JUMP JUMPDEST PUSH2 0x2C83 JUMP JUMPDEST PUSH2 0x2C83 DUP4 PUSH2 0x346A JUMP JUMPDEST PUSH1 0x70 SLOAD SWAP1 SWAP2 POP PUSH2 0x2C93 SWAP1 DUP3 PUSH2 0x40CB JUMP JUMPDEST SWAP4 SWAP3 POP POP POP JUMP JUMPDEST PUSH1 0x6B SLOAD DUP2 GT ISZERO PUSH2 0x2CEC JUMPI PUSH1 0x40 MLOAD PUSH3 0x461BCD PUSH1 0xE5 SHL DUP2 MSTORE PUSH1 0x20 PUSH1 0x4 DUP3 ADD MSTORE PUSH1 0x1D PUSH1 0x24 DUP3 ADD MSTORE PUSH32 0x45786365656473207065722D7472616E73616374696F6E206C696D6974000000 PUSH1 0x44 DUP3 ADD MSTORE PUSH1 0x64 ADD PUSH2 0xCBB JUMP JUMPDEST PUSH1 0x76 SLOAD DUP2 GT ISZERO PUSH2 0x2D3E JUMPI PUSH1 0x40 MLOAD PUSH3 0x461BCD PUSH1 0xE5 SHL DUP2 MSTORE PUSH1 0x20 PUSH1 0x4 DUP3 ADD MSTORE PUSH1 0x18 PUSH1 0x24 DUP3 ADD MSTORE PUSH32 0x4578636565647320616E74692D7768616C65206C696D69740000000000000000 PUSH1 0x44 DUP3 ADD MSTORE PUSH1 0x64 ADD PUSH2 0xCBB JUMP JUMPDEST PUSH1 0x6C SLOAD PUSH1 0x1 PUSH1 0x1 PUSH1 0xA0 SHL SUB DUP4 AND PUSH0 SWAP1 DUP2 MSTORE PUSH1 0x83 PUSH1 0x20 MSTORE PUSH1 0x40 SWAP1 KECCAK256 SLOAD PUSH2 0x2D64 SWAP1 DUP4 SWAP1 PUSH2 0x3F57 JUMP JUMPDEST GT ISZERO PUSH2 0x2DB2 JUMPI PUSH1 0x40 MLOAD PUSH3 0x461BCD PUSH1 0xE5 SHL DUP2 MSTORE PUSH1 0x20 PUSH1 0x4 DUP3 ADD MSTORE PUSH1 0x18 PUSH1 0x24 DUP3 ADD MSTORE PUSH32 0x45786365656473207065722D77616C6C6574206C696D69740000000000000000 PUSH1 0x44 DUP3 ADD MSTORE PUSH1 0x64 ADD PUSH2 0xCBB JUMP JUMPDEST PUSH1 0x6E SLOAD PUSH1 0x72 SLOAD PUSH2 0x2DC3 SWAP1 DUP4 SWAP1 PUSH2 0x3F57 JUMP JUMPDEST GT ISZERO PUSH2 0x2E04 JUMPI PUSH1 0x40 MLOAD PUSH3 0x461BCD PUSH1 0xE5 SHL DUP2 MSTORE PUSH1 0x20 PUSH1 0x4 DUP3 ADD MSTORE PUSH1 0x10 PUSH1 0x24 DUP3 ADD MSTORE PUSH16 0x4578636565647320686172642063617 PUSH1 0x84 SHL PUSH1 0x44 DUP3 ADD MSTORE PUSH1 0x64 ADD PUSH2 0xCBB JUMP JUMPDEST PUSH1 0x6F SLOAD PUSH1 0x72 SLOAD PUSH2 0x2E15 SWAP1 DUP4 SWAP1 PUSH2 0x3F57 JUMP JUMPDEST GT ISZERO PUSH2 0x1BA7 JUMPI PUSH1 0x40 MLOAD PUSH3 0x461BCD PUSH1 0xE5 SHL DUP2 MSTORE PUSH1 0x4 ADD PUSH2 0xCBB SWAP1 PUSH2 0x3FD9 JUMP JUMPDEST PUSH1 0x1 PUSH1 0x1 PUSH1 0xA0 SHL SUB DUP4 AND PUSH0 SWAP1 DUP2 MSTORE PUSH1 0x83 PUSH1 0x20 MSTORE PUSH1 0x40 DUP2 KECCAK256 DUP1 SLOAD DUP5 SWAP3 SWAP1 PUSH2 0x2E5A SWAP1 DUP5 SWAP1 PUSH2 0x3F57 JUMP JUMPDEST SWAP3 POP POP DUP2 SWAP1 SSTORE POP DUP2 PUSH1 0x72 PUSH0 DUP3 DUP3 SLOAD PUSH2 0x2E72 SWAP2 SWAP1 PUSH2 0x3F57 JUMP JUMPDEST SWAP1 SWAP2 SSTORE POP POP PUSH1 0x1 PUSH1 0x1 PUSH1 0xA0 SHL SUB DUP4 AND PUSH0 SWAP1 DUP2 MSTORE PUSH1 0x85 PUSH1 0x20 MSTORE PUSH1 0x40 DUP2 KECCAK256 DUP1 SLOAD DUP4 SWAP3 SWAP1 PUSH2 0x2E9E SWAP1 DUP5 SWAP1 PUSH2 0x3F57 JUMP JUMPDEST SWAP1 SWAP2 SSTORE POP POP POP POP POP JUMP JUMPDEST PUSH0 PUSH1 0x67 SLOAD GT DUP1 ISZERO PUSH2 0x2EC3 JUMPI POP PUSH1 0x66 SLOAD PUSH1 0x1 PUSH1 0x1 PUSH1 0xA0 SHL SUB AND ISZERO ISZERO JUMPDEST ISZERO PUSH2 0xEEB JUMPI PUSH0 PUSH2 0x2710 PUSH1 0x67 SLOAD DUP4 PUSH2 0x2EDA SWAP2 SWAP1 PUSH2 0x40CB JUMP JUMPDEST PUSH2 0x2EE4 SWAP2 SWAP1 PUSH2 0x40E2 JUMP JUMPDEST PUSH1 0x66 SLOAD PUSH1 0x40 MLOAD SWAP2 SWAP3 POP PUSH1 0x1 PUSH1 0x1 PUSH1 0xA0 SHL SUB AND SWAP1 DUP3 ISZERO PUSH2 0x8FC MUL SWAP1 DUP4 SWAP1 PUSH0 DUP2 DUP2 DUP2 DUP6 DUP9 DUP9 CALL SWAP4 POP POP POP POP ISZERO DUP1 ISZERO PUSH2 0x2F1C JUMPI RETURNDATASIZE PUSH0 PUSH0 RETURNDATACOPY RETURNDATASIZE PUSH0 REVERT JUMPDEST POP DUP1 PUSH1 0x68 PUSH0 DUP3 DUP3 SLOAD PUSH2 0x2F2E SWAP2 SWAP1 PUSH2 0x3F57 JUMP JUMPDEST SWAP1 SWAP2 SSTORE POP POP PUSH1 0x66 SLOAD PUSH1 0x40 MLOAD DUP3 DUP2 MSTORE PUSH1 0x1 PUSH1 0x1 PUSH1 0xA0 SHL SUB SWAP1 SWAP2 AND SWAP1 PUSH32 0x34E8A84E537ED93D93DDF39A78816DCBC74DF8397C635838B8CC973D4FA943F8 SWAP1 PUSH1 0x20 ADD PUSH1 0x40 MLOAD DUP1 SWAP2 SUB SWAP1 LOG2 POP POP JUMP JUMPDEST PUSH2 0x1BA7 DUP3 DUP3 PUSH1 0x80 SLOAD PUSH1 0x81 SLOAD PUSH1 0x82 SLOAD PUSH1 0x1 PUSH2 0x3005 JUMP JUMPDEST PUSH1 0x1 PUSH1 0x32 SSTORE JUMP JUMPDEST CALLER PUSH2 0x2FC7 PUSH32 0x9016D09D72D40FDAE2FD8CEAC6B6234C7706214FD39C1CD1E609A0528C199300 SLOAD PUSH1 0x1 PUSH1 0x1 PUSH1 0xA0 SHL SUB AND SWAP1 JUMP JUMPDEST PUSH1 0x1 PUSH1 0x1 PUSH1 0xA0 SHL SUB AND EQ PUSH2 0x1B58 JUMPI PUSH1 0x40 MLOAD PUSH4 0x118CDAA7 PUSH1 0xE0 SHL DUP2 MSTORE CALLER PUSH1 0x4 DUP3 ADD MSTORE PUSH1 0x24 ADD PUSH2 0xCBB JUMP JUMPDEST PUSH0 DUP3 PUSH2 0x2FFC DUP6 DUP5 PUSH2 0x3593 JUMP JUMPDEST EQ SWAP5 SWAP4 POP POP POP POP JUMP JUMPDEST PUSH1 0x40 MLOAD DUP1 PUSH1 0xE0 ADD PUSH1 0x40 MSTORE DUP1 DUP7 DUP2 MSTORE PUSH1 0x20 ADD PUSH0 DUP2 MSTORE PUSH1 0x20 ADD TIMESTAMP DUP2 MSTORE PUSH1 0x20 ADD DUP6 DUP2 MSTORE PUSH1 0x20 ADD DUP5 DUP2 MSTORE PUSH1 0x20 ADD DUP4 DUP2 MSTORE PUSH1 0x20 ADD DUP3 ISZERO ISZERO DUP2 MSTORE POP PUSH1 0x89 PUSH0 DUP9 PUSH1 0x1 PUSH1 0x1 PUSH1 0xA0 SHL SUB AND PUSH1 0x1 PUSH1 0x1 PUSH1 0xA0 SHL SUB AND DUP2 MSTORE PUSH1 0x20 ADD SWAP1 DUP2 MSTORE PUSH1 0x20 ADD PUSH0 KECCAK256 PUSH0 DUP3 ADD MLOAD DUP2 PUSH0 ADD SSTORE PUSH1 0x20 DUP3 ADD MLOAD DUP2 PUSH1 0x1 ADD SSTORE PUSH1 0x40 DUP3 ADD MLOAD DUP2 PUSH1 0x2 ADD SSTORE PUSH1 0x60 DUP3 ADD MLOAD DUP2 PUSH1 0x3 ADD SSTORE PUSH1 0x80 DUP3 ADD MLOAD DUP2 PUSH1 0x4 ADD SSTORE PUSH1 0xA0 DUP3 ADD MLOAD DUP2 PUSH1 0x5 ADD SSTORE PUSH1 0xC0 DUP3 ADD MLOAD DUP2 PUSH1 0x6 ADD PUSH0 PUSH2 0x100 EXP DUP2 SLOAD DUP2 PUSH1 0xFF MUL NOT AND SWAP1 DUP4 ISZERO ISZERO MUL OR SWAP1 SSTORE POP SWAP1 POP POP DUP6 PUSH1 0x1 PUSH1 0x1 PUSH1 0xA0 SHL SUB AND PUSH32 0xCF204CE1B55772BFA423F3F0C5D9A2CFE3197A5110073875F0B9C7DD3538C7D6 DUP7 TIMESTAMP DUP8 PUSH1 0x40 MLOAD PUSH2 0x3107 SWAP4 SWAP3 SWAP2 SWAP1 SWAP3 DUP4 MSTORE PUSH1 0x20 DUP4 ADD SWAP2 SWAP1 SWAP2 MSTORE PUSH1 0x40 DUP3 ADD MSTORE PUSH1 0x60 ADD SWAP1 JUMP JUMPDEST PUSH1 0x40 MLOAD DUP1 SWAP2 SUB SWAP1 LOG2 POP POP POP POP POP POP JUMP JUMPDEST PUSH2 0x311F PUSH2 0x35D5 JUMP JUMPDEST PUSH0 DUP1 SLOAD PUSH1 0xFF NOT AND SWAP1 SSTORE PUSH32 0x5DB9EE0A495BF2E6FF9C91A7834C1BA4FDD244A5E8AA4E537BD38AEAE4B073AA CALLER JUMPDEST PUSH1 0x40 MLOAD PUSH1 0x1 PUSH1 0x1 PUSH1 0xA0 SHL SUB SWAP1 SWAP2 AND DUP2 MSTORE PUSH1 0x20 ADD PUSH1 0x40 MLOAD DUP1 SWAP2 SUB SWAP1 LOG1 JUMP JUMPDEST ADDRESS PUSH1 0x1 PUSH1 0x1 PUSH1 0xA0 SHL SUB PUSH32 0x0 AND EQ DUP1 PUSH2 0x31EE JUMPI POP PUSH32 0x0 PUSH1 0x1 PUSH1 0x1 PUSH1 0xA0 SHL SUB AND PUSH2 0x31E2 PUSH0 MLOAD PUSH1 0x20 PUSH2 0x4118 PUSH0 CODECOPY PUSH0 MLOAD SWAP1 PUSH0 MSTORE SLOAD PUSH1 0x1 PUSH1 0x1 PUSH1 0xA0 SHL SUB AND SWAP1 JUMP JUMPDEST PUSH1 0x1 PUSH1 0x1 PUSH1 0xA0 SHL SUB AND EQ ISZERO JUMPDEST ISZERO PUSH2 0x1B58 JUMPI PUSH1 0x40 MLOAD PUSH4 0x703E46DD PUSH1 0xE1 SHL DUP2 MSTORE PUSH1 0x4 ADD PUSH1 0x40 MLOAD DUP1 SWAP2 SUB SWAP1 REVERT JUMPDEST PUSH2 0xEEB PUSH2 0x2F95 JUMP JUMPDEST DUP2 PUSH1 0x1 PUSH1 0x1 PUSH1 0xA0 SHL SUB AND PUSH4 0x52D1902D PUSH1 0x40 MLOAD DUP2 PUSH4 0xFFFFFFFF AND PUSH1 0xE0 SHL DUP2 MSTORE PUSH1 0x4 ADD PUSH1 0x20 PUSH1 0x40 MLOAD DUP1 DUP4 SUB DUP2 DUP7 GAS STATICCALL SWAP3 POP POP POP DUP1 ISZERO PUSH2 0x326E JUMPI POP PUSH1 0x40 DUP1 MLOAD PUSH1 0x1F RETURNDATASIZE SWAP1 DUP2 ADD PUSH1 0x1F NOT AND DUP3 ADD SWAP1 SWAP3 MSTORE PUSH2 0x326B SWAP2 DUP2 ADD SWAP1 PUSH2 0x40B4 JUMP JUMPDEST PUSH1 0x1 JUMPDEST PUSH2 0x3296 JUMPI PUSH1 0x40 MLOAD PUSH4 0x4C9C8CE3 PUSH1 0xE0 SHL DUP2 MSTORE PUSH1 0x1 PUSH1 0x1 PUSH1 0xA0 SHL SUB DUP4 AND PUSH1 0x4 DUP3 ADD MSTORE PUSH1 0x24 ADD PUSH2 0xCBB JUMP JUMPDEST PUSH0 MLOAD PUSH1 0x20 PUSH2 0x4118 PUSH0 CODECOPY PUSH0 MLOAD SWAP1 PUSH0 MSTORE DUP2 EQ PUSH2 0x32C6 JUMPI PUSH1 0x40 MLOAD PUSH4 0x2A875269 PUSH1 0xE2 SHL DUP2 MSTORE PUSH1 0x4 DUP2 ADD DUP3 SWAP1 MSTORE PUSH1 0x24 ADD PUSH2 0xCBB JUMP JUMPDEST PUSH2 0x1912 DUP4 DUP4 PUSH2 0x361D JUMP JUMPDEST ADDRESS PUSH1 0x1 PUSH1 0x1 PUSH1 0xA0 SHL SUB PUSH32 0x0 AND EQ PUSH2 0x1B58 JUMPI PUSH1 0x40 MLOAD PUSH4 0x703E46DD PUSH1 0xE1 SHL DUP2 MSTORE PUSH1 0x4 ADD PUSH1 0x40 MLOAD DUP1 SWAP2 SUB SWAP1 REVERT JUMPDEST PUSH32 0x9016D09D72D40FDAE2FD8CEAC6B6234C7706214FD39C1CD1E609A0528C199300 DUP1 SLOAD PUSH1 0x1 PUSH1 0x1 PUSH1 0xA0 SHL SUB NOT DUP2 AND PUSH1 0x1 PUSH1 0x1 PUSH1 0xA0 SHL SUB DUP5 DUP2 AND SWAP2 DUP3 OR DUP5 SSTORE PUSH1 0x40 MLOAD SWAP3 AND SWAP2 DUP3 SWAP1 PUSH32 0x8BE0079C531659141344CD1FD0A4F28419497F9722A3DAAFE3B4186F6B6457E0 SWAP1 PUSH0 SWAP1 LOG3 POP POP POP JUMP JUMPDEST PUSH2 0x3391 PUSH2 0x2B59 JUMP JUMPDEST PUSH0 DUP1 SLOAD PUSH1 0xFF NOT AND PUSH1 0x1 OR SWAP1 SSTORE PUSH32 0x62E78CEA01BEE320CD4E420270B5EA74000D11B0C9F74754EBDBFC544B05A258 PUSH2 0x314B CALLER SWAP1 JUMP JUMPDEST PUSH0 DUP1 PUSH32 0xF0C57E16840DF040F15088DC2F81FE391C3923BEC73E23A9662EFC9C229C6A00 PUSH2 0x2C24 JUMP JUMPDEST PUSH2 0x33F5 PUSH2 0x3672 JUMP JUMPDEST PUSH2 0xEEB DUP2 PUSH2 0x3697 JUMP JUMPDEST PUSH2 0x1B58 PUSH2 0x3672 JUMP JUMPDEST PUSH2 0x340E PUSH2 0x3672 JUMP JUMPDEST PUSH2 0x1B58 PUSH2 0x369F JUMP JUMPDEST PUSH2 0x341E PUSH2 0x3672 JUMP JUMPDEST PUSH2 0x1B58 PUSH2 0x36B2 JUMP JUMPDEST PUSH1 0x75 SLOAD PUSH0 SWAP1 PUSH2 0x100 SWAP1 DIV PUSH1 0xFF AND ISZERO PUSH2 0x3459 JUMPI PUSH1 0x74 SLOAD PUSH8 0xDE0B6B3A7640000 SWAP1 PUSH2 0x344F SWAP1 DUP5 PUSH2 0x40CB JUMP JUMPDEST PUSH2 0x2C24 SWAP2 SWAP1 PUSH2 0x40E2 JUMP JUMPDEST PUSH2 0x2C24 PUSH7 0x38D7EA4C68000 DUP4 PUSH2 0x40E2 JUMP JUMPDEST PUSH1 0x73 SLOAD PUSH0 SWAP1 PUSH1 0x1 PUSH1 0x1 PUSH1 0xA0 SHL SUB AND PUSH2 0x34BC JUMPI PUSH1 0x40 MLOAD PUSH3 0x461BCD PUSH1 0xE5 SHL DUP2 MSTORE PUSH1 0x20 PUSH1 0x4 DUP3 ADD MSTORE PUSH1 0x15 PUSH1 0x24 DUP3 ADD MSTORE PUSH21 0x13DC9858DB19481B9BDD0818DBDB999A59DD5C9959 PUSH1 0x5A SHL PUSH1 0x44 DUP3 ADD MSTORE PUSH1 0x64 ADD PUSH2 0xCBB JUMP JUMPDEST PUSH1 0x73 SLOAD PUSH1 0x40 DUP1 MLOAD PUSH4 0x3FABE5A3 PUSH1 0xE2 SHL DUP2 MSTORE SWAP1 MLOAD PUSH0 SWAP3 PUSH1 0x1 PUSH1 0x1 PUSH1 0xA0 SHL SUB AND SWAP2 PUSH4 0xFEAF968C SWAP2 PUSH1 0x4 DUP1 DUP4 ADD SWAP3 PUSH1 0xA0 SWAP3 SWAP2 SWAP1 DUP3 SWAP1 SUB ADD DUP2 DUP7 GAS STATICCALL ISZERO DUP1 ISZERO PUSH2 0x3503 JUMPI RETURNDATASIZE PUSH0 PUSH0 RETURNDATACOPY RETURNDATASIZE PUSH0 REVERT JUMPDEST POP POP POP POP PUSH1 0x40 MLOAD RETURNDATASIZE PUSH1 0x1F NOT PUSH1 0x1F DUP3 ADD AND DUP3 ADD DUP1 PUSH1 0x40 MSTORE POP DUP2 ADD SWAP1 PUSH2 0x3527 SWAP2 SWAP1 PUSH2 0x4020 JUMP JUMPDEST POP POP POP SWAP2 POP POP PUSH0 DUP2 SGT PUSH2 0x3573 JUMPI PUSH1 0x40 MLOAD PUSH3 0x461BCD PUSH1 0xE5 SHL DUP2 MSTORE PUSH1 0x20 PUSH1 0x4 DUP3 ADD MSTORE PUSH1 0x14 PUSH1 0x24 DUP3 ADD MSTORE PUSH20 0x496E76616C6964206F7261636C65207072696365 PUSH1 0x60 SHL PUSH1 0x44 DUP3 ADD MSTORE PUSH1 0x64 ADD PUSH2 0xCBB JUMP JUMPDEST PUSH11 0x52B7D2DCC80CD2E4000000 PUSH2 0x3589 DUP3 DUP6 PUSH2 0x40CB JUMP JUMPDEST PUSH2 0x2C93 SWAP2 SWAP1 PUSH2 0x40E2 JUMP JUMPDEST PUSH0 DUP2 DUP2 JUMPDEST DUP5 MLOAD DUP2 LT ISZERO PUSH2 0x35CD JUMPI PUSH2 0x35C3 DUP3 DUP7 DUP4 DUP2 MLOAD DUP2 LT PUSH2 0x35B6 JUMPI PUSH2 0x35B6 PUSH2 0x3FC5 JUMP JUMPDEST PUSH1 0x20 MUL PUSH1 0x20 ADD ADD MLOAD PUSH2 0x36BA JUMP JUMPDEST SWAP2 POP PUSH1 0x1 ADD PUSH2 0x3597 JUMP JUMPDEST POP SWAP4 SWAP3 POP POP POP JUMP JUMPDEST PUSH0 SLOAD PUSH1 0xFF AND PUSH2 0x1B58 JUMPI PUSH1 0x40 MLOAD PUSH3 0x461BCD PUSH1 0xE5 SHL DUP2 MSTORE PUSH1 0x20 PUSH1 0x4 DUP3 ADD MSTORE PUSH1 0x14 PUSH1 0x24 DUP3 ADD MSTORE PUSH20 0x14185D5CD8589B194E881B9BDD081C185D5CD959 PUSH1 0x62 SHL PUSH1 0x44 DUP3 ADD MSTORE PUSH1 0x64 ADD PUSH2 0xCBB JUMP JUMPDEST PUSH2 0x3626 DUP3 PUSH2 0x36E3 JUMP JUMPDEST PUSH1 0x40 MLOAD PUSH1 0x1 PUSH1 0x1 PUSH1 0xA0 SHL SUB DUP4 AND SWAP1 PUSH32 0xBC7CD75A20EE27FD9ADEBAB32041F755214DBC6BFFA90CC0225B39DA2E5C2D3B SWAP1 PUSH0 SWAP1 LOG2 DUP1 MLOAD ISZERO PUSH2 0x366A JUMPI PUSH2 0x1912 DUP3 DUP3 PUSH2 0x3746 JUMP JUMPDEST PUSH2 0x1BA7 PUSH2 0x37B8 JUMP JUMPDEST PUSH2 0x367A PUSH2 0x37D7 JUMP JUMPDEST PUSH2 0x1B58 JUMPI PUSH1 0x40 MLOAD PUSH4 0x1AFCD79F PUSH1 0xE3 SHL DUP2 MSTORE PUSH1 0x4 ADD PUSH1 0x40 MLOAD DUP1 SWAP2 SUB SWAP1 REVERT JUMPDEST PUSH2 0x29DA PUSH2 0x3672 JUMP JUMPDEST PUSH2 0x36A7 PUSH2 0x3672 JUMP JUMPDEST PUSH0 DUP1 SLOAD PUSH1 0xFF NOT AND SWAP1 SSTORE JUMP JUMPDEST PUSH2 0x2F8E PUSH2 0x3672 JUMP JUMPDEST PUSH0 DUP2 DUP4 LT PUSH2 0x36D4 JUMPI PUSH0 DUP3 DUP2 MSTORE PUSH1 0x20 DUP5 SWAP1 MSTORE PUSH1 0x40 SWAP1 KECCAK256 PUSH2 0x2C93 JUMP JUMPDEST POP PUSH0 SWAP2 DUP3 MSTORE PUSH1 0x20 MSTORE PUSH1 0x40 SWAP1 KECCAK256 SWAP1 JUMP JUMPDEST DUP1 PUSH1 0x1 PUSH1 0x1 PUSH1 0xA0 SHL SUB AND EXTCODESIZE PUSH0 SUB PUSH2 0x3718 JUMPI PUSH1 0x40 MLOAD PUSH4 0x4C9C8CE3 PUSH1 0xE0 SHL DUP2 MSTORE PUSH1 0x1 PUSH1 0x1 PUSH1 0xA0 SHL SUB DUP3 AND PUSH1 0x4 DUP3 ADD MSTORE PUSH1 0x24 ADD PUSH2 0xCBB JUMP JUMPDEST PUSH0 MLOAD PUSH1 0x20 PUSH2 0x4118 PUSH0 CODECOPY PUSH0 MLOAD SWAP1 PUSH0 MSTORE DUP1 SLOAD PUSH1 0x1 PUSH1 0x1 PUSH1 0xA0 SHL SUB NOT AND PUSH1 0x1 PUSH1 0x1 PUSH1 0xA0 SHL SUB SWAP3 SWAP1 SWAP3 AND SWAP2 SWAP1 SWAP2 OR SWAP1 SSTORE JUMP JUMPDEST PUSH1 0x60 PUSH0 PUSH0 DUP5 PUSH1 0x1 PUSH1 0x1 PUSH1 0xA0 SHL SUB AND DUP5 PUSH1 0x40 MLOAD PUSH2 0x3762 SWAP2 SWAP1 PUSH2 0x4101 JUMP JUMPDEST PUSH0 PUSH1 0x40 MLOAD DUP1 DUP4 SUB DUP2 DUP6 GAS DELEGATECALL SWAP2 POP POP RETURNDATASIZE DUP1 PUSH0 DUP2 EQ PUSH2 0x379A JUMPI PUSH1 0x40 MLOAD SWAP2 POP PUSH1 0x1F NOT PUSH1 0x3F RETURNDATASIZE ADD AND DUP3 ADD PUSH1 0x40 MSTORE RETURNDATASIZE DUP3 MSTORE RETURNDATASIZE PUSH0 PUSH1 0x20 DUP5 ADD RETURNDATACOPY PUSH2 0x379F JUMP JUMPDEST PUSH1 0x60 SWAP2 POP JUMPDEST POP SWAP2 POP SWAP2 POP PUSH2 0x37AF DUP6 DUP4 DUP4 PUSH2 0x37F0 JUMP JUMPDEST SWAP6 SWAP5 POP POP POP POP POP JUMP JUMPDEST CALLVALUE ISZERO PUSH2 0x1B58 JUMPI PUSH1 0x40 MLOAD PUSH4 0xB398979F PUSH1 0xE0 SHL DUP2 MSTORE PUSH1 0x4 ADD PUSH1 0x40 MLOAD DUP1 SWAP2 SUB SWAP1 REVERT JUMPDEST PUSH0 PUSH2 0x37E0 PUSH2 0x33C5 JUMP JUMPDEST SLOAD PUSH1 0x1 PUSH1 0x40 SHL SWAP1 DIV PUSH1 0xFF AND SWAP2 SWAP1 POP JUMP JUMPDEST PUSH1 0x60 DUP3 PUSH2 0x3805 JUMPI PUSH2 0x3800 DUP3 PUSH2 0x384C JUMP JUMPDEST PUSH2 0x2C93 JUMP JUMPDEST DUP2 MLOAD ISZERO DUP1 ISZERO PUSH2 0x381C JUMPI POP PUSH1 0x1 PUSH1 0x1 PUSH1 0xA0 SHL SUB DUP5 AND EXTCODESIZE ISZERO JUMPDEST ISZERO PUSH2 0x3845 JUMPI PUSH1 0x40 MLOAD PUSH4 0x9996B315 PUSH1 0xE0 SHL DUP2 MSTORE PUSH1 0x1 PUSH1 0x1 PUSH1 0xA0 SHL SUB DUP6 AND PUSH1 0x4 DUP3 ADD MSTORE PUSH1 0x24 ADD PUSH2 0xCBB JUMP JUMPDEST POP DUP1 PUSH2 0x2C93 JUMP JUMPDEST DUP1 MLOAD ISZERO PUSH2 0x385C JUMPI DUP1 MLOAD DUP1 DUP3 PUSH1 0x20 ADD REVERT JUMPDEST PUSH1 0x40 MLOAD PUSH4 0xD6BDA275 PUSH1 0xE0 SHL DUP2 MSTORE PUSH1 0x4 ADD PUSH1 0x40 MLOAD DUP1 SWAP2 SUB SWAP1 REVERT JUMPDEST PUSH0 PUSH0 DUP4 PUSH1 0x1F DUP5 ADD SLT PUSH2 0x3885 JUMPI PUSH0 PUSH0 REVERT JUMPDEST POP DUP2 CALLDATALOAD PUSH1 0x1 PUSH1 0x1 PUSH1 0x40 SHL SUB DUP2 GT ISZERO PUSH2 0x389B JUMPI PUSH0 PUSH0 REVERT JUMPDEST PUSH1 0x20 DUP4 ADD SWAP2 POP DUP4 PUSH1 0x20 DUP3 PUSH1 0x5 SHL DUP6 ADD ADD GT ISZERO PUSH2 0x38B5 JUMPI PUSH0 PUSH0 REVERT JUMPDEST SWAP3 POP SWAP3 SWAP1 POP JUMP JUMPDEST PUSH0 PUSH0 PUSH0 PUSH0 PUSH0 PUSH0 PUSH1 0x60 DUP8 DUP10 SUB SLT ISZERO PUSH2 0x38D1 JUMPI PUSH0 PUSH0 REVERT JUMPDEST DUP7 CALLDATALOAD PUSH1 0x1 PUSH1 0x1 PUSH1 0x40 SHL SUB DUP2 GT ISZERO PUSH2 0x38E6 JUMPI PUSH0 PUSH0 REVERT JUMPDEST PUSH2 0x38F2 DUP10 DUP3 DUP11 ADD PUSH2 0x3875 JUMP JUMPDEST SWAP1 SWAP8 POP SWAP6 POP POP PUSH1 0x20 DUP8 ADD CALLDATALOAD PUSH1 0x1 PUSH1 0x1 PUSH1 0x40 SHL SUB DUP2 GT ISZERO PUSH2 0x3910 JUMPI PUSH0 PUSH0 REVERT JUMPDEST PUSH2 0x391C DUP10 DUP3 DUP11 ADD PUSH2 0x3875 JUMP JUMPDEST SWAP1 SWAP6 POP SWAP4 POP POP PUSH1 0x40 DUP8 ADD CALLDATALOAD PUSH1 0x1 PUSH1 0x1 PUSH1 0x40 SHL SUB DUP2 GT ISZERO PUSH2 0x393A JUMPI PUSH0 PUSH0 REVERT JUMPDEST PUSH2 0x3946 DUP10 DUP3 DUP11 ADD PUSH2 0x3875 JUMP JUMPDEST SWAP8 SWAP11 SWAP7 SWAP10 POP SWAP5 SWAP8 POP SWAP3 SWAP6 SWAP4 SWAP5 SWAP3 POP POP POP JUMP JUMPDEST DUP1 CALLDATALOAD PUSH1 0x1 PUSH1 0x1 PUSH1 0xA0 SHL SUB DUP2 AND DUP2 EQ PUSH2 0x1643 JUMPI PUSH0 PUSH0 REVERT JUMPDEST PUSH0 PUSH0 PUSH1 0x40 DUP4 DUP6 SUB SLT ISZERO PUSH2 0x397F JUMPI PUSH0 PUSH0 REVERT JUMPDEST PUSH2 0x3988 DUP4 PUSH2 0x3958 JUMP JUMPDEST SWAP5 PUSH1 0x20 SWAP4 SWAP1 SWAP4 ADD CALLDATALOAD SWAP4 POP POP POP JUMP JUMPDEST DUP1 ISZERO ISZERO DUP2 EQ PUSH2 0xEEB JUMPI PUSH0 PUSH0 REVERT JUMPDEST PUSH0 PUSH0 PUSH0 PUSH0 PUSH1 0x80 DUP6 DUP8 SUB SLT ISZERO PUSH2 0x39B6 JUMPI PUSH0 PUSH0 REVERT JUMPDEST PUSH2 0x39BF DUP6 PUSH2 0x3958 JUMP JUMPDEST SWAP4 POP PUSH1 0x20 DUP6 ADD CALLDATALOAD SWAP3 POP PUSH1 0x40 DUP6 ADD CALLDATALOAD PUSH2 0x39D6 DUP2 PUSH2 0x3996 JUMP JUMPDEST SWAP2 POP PUSH1 0x60 DUP6 ADD CALLDATALOAD PUSH2 0x39E6 DUP2 PUSH2 0x3996 JUMP JUMPDEST SWAP4 SWAP7 SWAP3 SWAP6 POP SWAP1 SWAP4 POP POP JUMP JUMPDEST PUSH0 PUSH1 0x20 DUP3 DUP5 SUB SLT ISZERO PUSH2 0x3A01 JUMPI PUSH0 PUSH0 REVERT JUMPDEST PUSH2 0x2C93 DUP3 PUSH2 0x3958 JUMP JUMPDEST PUSH0 PUSH0 PUSH0 PUSH0 PUSH0 PUSH1 0xA0 DUP7 DUP9 SUB SLT ISZERO PUSH2 0x3A1E JUMPI PUSH0 PUSH0 REVERT JUMPDEST POP POP DUP4 CALLDATALOAD SWAP6 PUSH1 0x20 DUP6 ADD CALLDATALOAD SWAP6 POP PUSH1 0x40 DUP6 ADD CALLDATALOAD SWAP5 PUSH1 0x60 DUP2 ADD CALLDATALOAD SWAP5 POP PUSH1 0x80 ADD CALLDATALOAD SWAP3 POP SWAP1 POP JUMP JUMPDEST PUSH0 PUSH0 PUSH0 PUSH0 PUSH0 PUSH0 PUSH0 PUSH0 PUSH2 0x100 DUP10 DUP12 SUB SLT ISZERO PUSH2 0x3A59 JUMPI PUSH0 PUSH0 REVERT JUMPDEST POP POP DUP7 CALLDATALOAD SWAP9 PUSH1 0x20 DUP9 ADD CALLDATALOAD SWAP9 POP PUSH1 0x40 DUP9 ADD CALLDATALOAD SWAP8 PUSH1 0x60 DUP2 ADD CALLDATALOAD SWAP8 POP PUSH1 0x80 DUP2 ADD CALLDATALOAD SWAP7 POP PUSH1 0xA0 DUP2 ADD CALLDATALOAD SWAP6 POP PUSH1 0xC0 DUP2 ADD CALLDATALOAD SWAP5 POP PUSH1 0xE0 ADD CALLDATALOAD SWAP3 POP SWAP1 POP JUMP JUMPDEST PUSH0 PUSH0 PUSH0 PUSH1 0x40 DUP5 DUP7 SUB SLT ISZERO PUSH2 0x3AA3 JUMPI PUSH0 PUSH0 REVERT JUMPDEST DUP4 CALLDATALOAD PUSH1 0x1 PUSH1 0x1 PUSH1 0x40 SHL SUB DUP2 GT ISZERO PUSH2 0x3AB8 JUMPI PUSH0 PUSH0 REVERT JUMPDEST PUSH2 0x3AC4 DUP7 DUP3 DUP8 ADD PUSH2 0x3875 JUMP JUMPDEST SWAP1 SWAP8 SWAP1 SWAP7 POP PUSH1 0x20 SWAP6 SWAP1 SWAP6 ADD CALLDATALOAD SWAP5 SWAP4 POP POP POP POP JUMP JUMPDEST PUSH0 PUSH0 PUSH0 PUSH1 0x60 DUP5 DUP7 SUB SLT ISZERO PUSH2 0x3AEA JUMPI PUSH0 PUSH0 REVERT JUMPDEST PUSH2 0x3AF3 DUP5 PUSH2 0x3958 JUMP JUMPDEST SWAP6 PUSH1 0x20 DUP6 ADD CALLDATALOAD SWAP6 POP PUSH1 0x40 SWAP1 SWAP5 ADD CALLDATALOAD SWAP4 SWAP3 POP POP POP JUMP JUMPDEST PUSH0 PUSH0 PUSH1 0x40 DUP4 DUP6 SUB SLT ISZERO PUSH2 0x3B19 JUMPI PUSH0 PUSH0 REVERT JUMPDEST PUSH2 0x3B22 DUP4 PUSH2 0x3958 JUMP JUMPDEST SWAP2 POP PUSH1 0x20 DUP4 ADD CALLDATALOAD PUSH2 0x3B32 DUP2 PUSH2 0x3996 JUMP JUMPDEST DUP1 SWAP2 POP POP SWAP3 POP SWAP3 SWAP1 POP JUMP JUMPDEST PUSH4 0x4E487B71 PUSH1 0xE0 SHL PUSH0 MSTORE PUSH1 0x41 PUSH1 0x4 MSTORE PUSH1 0x24 PUSH0 REVERT JUMPDEST PUSH0 PUSH0 PUSH1 0x40 DUP4 DUP6 SUB SLT ISZERO PUSH2 0x3B62 JUMPI PUSH0 PUSH0 REVERT JUMPDEST PUSH2 0x3B6B DUP4 PUSH2 0x3958 JUMP JUMPDEST SWAP2 POP PUSH1 0x20 DUP4 ADD CALLDATALOAD PUSH1 0x1 PUSH1 0x1 PUSH1 0x40 SHL SUB DUP2 GT ISZERO PUSH2 0x3B85 JUMPI PUSH0 PUSH0 REVERT JUMPDEST DUP4 ADD PUSH1 0x1F DUP2 ADD DUP6 SGT PUSH2 0x3B95 JUMPI PUSH0 PUSH0 REVERT JUMPDEST DUP1 CALLDATALOAD PUSH1 0x1 PUSH1 0x1 PUSH1 0x40 SHL SUB DUP2 GT ISZERO PUSH2 0x3BAE JUMPI PUSH2 0x3BAE PUSH2 0x3B3D JUMP JUMPDEST PUSH1 0x40 MLOAD PUSH1 0x1F DUP3 ADD PUSH1 0x1F NOT SWAP1 DUP2 AND PUSH1 0x3F ADD AND DUP2 ADD PUSH1 0x1 PUSH1 0x1 PUSH1 0x40 SHL SUB DUP2 GT DUP3 DUP3 LT OR ISZERO PUSH2 0x3BDC JUMPI PUSH2 0x3BDC PUSH2 0x3B3D JUMP JUMPDEST PUSH1 0x40 MSTORE DUP2 DUP2 MSTORE DUP3 DUP3 ADD PUSH1 0x20 ADD DUP8 LT ISZERO PUSH2 0x3BF3 JUMPI PUSH0 PUSH0 REVERT JUMPDEST DUP2 PUSH1 0x20 DUP5 ADD PUSH1 0x20 DUP4 ADD CALLDATACOPY PUSH0 PUSH1 0x20 DUP4 DUP4 ADD ADD MSTORE DUP1 SWAP4 POP POP POP POP SWAP3 POP SWAP3 SWAP1 POP JUMP JUMPDEST PUSH0 PUSH0 PUSH0 PUSH1 0x60 DUP5 DUP7 SUB SLT ISZERO PUSH2 0x3C24 JUMPI PUSH0 PUSH0 REVERT JUMPDEST POP POP DUP2 CALLDATALOAD SWAP4 PUSH1 0x20 DUP4 ADD CALLDATALOAD SWAP4 POP PUSH1 0x40 SWAP1 SWAP3 ADD CALLDATALOAD SWAP2 SWAP1 POP JUMP JUMPDEST PUSH0 PUSH1 0x20 DUP3 DUP5 SUB SLT ISZERO PUSH2 0x3C4B JUMPI PUSH0 PUSH0 REVERT JUMPDEST POP CALLDATALOAD SWAP2 SWAP1 POP JUMP JUMPDEST PUSH0 PUSH0 PUSH0 PUSH0 PUSH0 PUSH1 0xA0 DUP7 DUP9 SUB SLT ISZERO PUSH2 0x3C66 JUMPI PUSH0 PUSH0 REVERT JUMPDEST DUP6 CALLDATALOAD SWAP5 POP PUSH1 0x20 DUP7 ADD CALLDATALOAD SWAP4 POP PUSH1 0x40 DUP7 ADD CALLDATALOAD SWAP3 POP PUSH1 0x60 DUP7 ADD CALLDATALOAD PUSH2 0x3C86 DUP2 PUSH2 0x3996 JUMP JUMPDEST SWAP2 POP PUSH1 0x80 DUP7 ADD CALLDATALOAD PUSH2 0x3C96 DUP2 PUSH2 0x3996 JUMP JUMPDEST DUP1 SWAP2 POP POP SWAP3 SWAP6 POP SWAP3 SWAP6 SWAP1 SWAP4 POP JUMP JUMPDEST PUSH0 PUSH0 PUSH1 0x20 DUP4 DUP6 SUB SLT ISZERO PUSH2 0x3CB5 JUMPI PUSH0 PUSH0 REVERT JUMPDEST DUP3 CALLDATALOAD PUSH1 0x1 PUSH1 0x1 PUSH1 0x40 SHL SUB DUP2 GT ISZERO PUSH2 0x3CCA JUMPI PUSH0 PUSH0 REVERT JUMPDEST PUSH2 0x3CD6 DUP6 DUP3 DUP7 ADD PUSH2 0x3875 JUMP JUMPDEST SWAP1 SWAP7 SWAP1 SWAP6 POP SWAP4 POP POP POP POP JUMP JUMPDEST PUSH1 0x20 DUP2 MSTORE PUSH0 DUP3 MLOAD DUP1 PUSH1 0x20 DUP5 ADD MSTORE DUP1 PUSH1 0x20 DUP6 ADD PUSH1 0x40 DUP6 ADD MCOPY PUSH0 PUSH1 0x40 DUP3 DUP6 ADD ADD MSTORE PUSH1 0x40 PUSH1 0x1F NOT PUSH1 0x1F DUP4 ADD AND DUP5 ADD ADD SWAP2 POP POP SWAP3 SWAP2 POP POP JUMP JUMPDEST PUSH0 PUSH0 PUSH0 PUSH0 PUSH0 PUSH0 PUSH0 PUSH0 PUSH0 PUSH0 PUSH1 0xA0 DUP12 DUP14 SUB SLT ISZERO PUSH2 0x3D30 JUMPI PUSH0 PUSH0 REVERT JUMPDEST DUP11 CALLDATALOAD PUSH1 0x1 PUSH1 0x1 PUSH1 0x40 SHL SUB DUP2 GT ISZERO PUSH2 0x3D45 JUMPI PUSH0 PUSH0 REVERT JUMPDEST PUSH2 0x3D51 DUP14 DUP3 DUP15 ADD PUSH2 0x3875 JUMP JUMPDEST SWAP1 SWAP12 POP SWAP10 POP POP PUSH1 0x20 DUP12 ADD CALLDATALOAD PUSH1 0x1 PUSH1 0x1 PUSH1 0x40 SHL SUB DUP2 GT ISZERO PUSH2 0x3D6F JUMPI PUSH0 PUSH0 REVERT JUMPDEST PUSH2 0x3D7B DUP14 DUP3 DUP15 ADD PUSH2 0x3875 JUMP JUMPDEST SWAP1 SWAP10 POP SWAP8 POP POP PUSH1 0x40 DUP12 ADD CALLDATALOAD PUSH1 0x1 PUSH1 0x1 PUSH1 0x40 SHL SUB DUP2 GT ISZERO PUSH2 0x3D99 JUMPI PUSH0 PUSH0 REVERT JUMPDEST PUSH2 0x3DA5 DUP14 DUP3 DUP15 ADD PUSH2 0x3875 JUMP JUMPDEST SWAP1 SWAP8 POP SWAP6 POP POP PUSH1 0x60 DUP12 ADD CALLDATALOAD PUSH1 0x1 PUSH1 0x1 PUSH1 0x40 SHL SUB DUP2 GT ISZERO PUSH2 0x3DC3 JUMPI PUSH0 PUSH0 REVERT JUMPDEST PUSH2 0x3DCF DUP14 DUP3 DUP15 ADD PUSH2 0x3875 JUMP JUMPDEST SWAP1 SWAP6 POP SWAP4 POP POP PUSH1 0x80 DUP12 ADD CALLDATALOAD PUSH1 0x1 PUSH1 0x1 PUSH1 0x40 SHL SUB DUP2 GT ISZERO PUSH2 0x3DED JUMPI PUSH0 PUSH0 REVERT JUMPDEST PUSH2 0x3DF9 DUP14 DUP3 DUP15 ADD PUSH2 0x3875 JUMP JUMPDEST SWAP2 POP DUP1 SWAP4 POP POP DUP1 SWAP2 POP POP SWAP3 SWAP6 SWAP9 SWAP12 SWAP2 SWAP5 SWAP8 SWAP11 POP SWAP3 SWAP6 SWAP9 POP JUMP JUMPDEST PUSH0 PUSH0 PUSH0 PUSH1 0x60 DUP5 DUP7 SUB SLT ISZERO PUSH2 0x3E24 JUMPI PUSH0 PUSH0 REVERT JUMPDEST PUSH2 0x3E2D DUP5 PUSH2 0x3958 JUMP JUMPDEST SWAP3 POP PUSH2 0x3E3B PUSH1 0x20 DUP6 ADD PUSH2 0x3958 JUMP JUMPDEST SWAP2 POP PUSH2 0x3E49 PUSH1 0x40 DUP6 ADD PUSH2 0x3958 JUMP JUMPDEST SWAP1 POP SWAP3 POP SWAP3 POP SWAP3 JUMP JUMPDEST PUSH0 PUSH0 PUSH0 PUSH0 PUSH1 0x40 DUP6 DUP8 SUB SLT ISZERO PUSH2 0x3E65 JUMPI PUSH0 PUSH0 REVERT JUMPDEST DUP5 CALLDATALOAD PUSH1 0x1 PUSH1 0x1 PUSH1 0x40 SHL SUB DUP2 GT ISZERO PUSH2 0x3E7A JUMPI PUSH0 PUSH0 REVERT JUMPDEST PUSH2 0x3E86 DUP8 DUP3 DUP9 ADD PUSH2 0x3875 JUMP JUMPDEST SWAP1 SWAP6 POP SWAP4 POP POP PUSH1 0x20 DUP6 ADD CALLDATALOAD PUSH1 0x1 PUSH1 0x1 PUSH1 0x40 SHL SUB DUP2 GT ISZERO PUSH2 0x3EA4 JUMPI PUSH0 PUSH0 REVERT JUMPDEST PUSH2 0x3EB0 DUP8 DUP3 DUP9 ADD PUSH2 0x3875 JUMP JUMPDEST SWAP6 SWAP9 SWAP5 SWAP8 POP SWAP6 POP POP POP POP JUMP JUMPDEST PUSH1 0x20 DUP1 DUP3 MSTORE PUSH1 0x10 SWAP1 DUP3 ADD MSTORE PUSH16 0x155CD95C88189B1858DADB1A5CDD1959 PUSH1 0x82 SHL PUSH1 0x40 DUP3 ADD MSTORE PUSH1 0x60 ADD SWAP1 JUMP JUMPDEST PUSH1 0x20 DUP1 DUP3 MSTORE PUSH1 0x14 SWAP1 DUP3 ADD MSTORE PUSH20 0x155CD95C881B9BDD081DDA1A5D195B1A5CDD1959 PUSH1 0x62 SHL PUSH1 0x40 DUP3 ADD MSTORE PUSH1 0x60 ADD SWAP1 JUMP JUMPDEST PUSH1 0x20 DUP1 DUP3 MSTORE PUSH1 0x15 SWAP1 DUP3 ADD MSTORE PUSH21 0x155CD95C881B9BDD0812D650C81D995C9A599A5959 PUSH1 0x5A SHL PUSH1 0x40 DUP3 ADD MSTORE PUSH1 0x60 ADD SWAP1 JUMP JUMPDEST PUSH4 0x4E487B71 PUSH1 0xE0 SHL PUSH0 MSTORE PUSH1 0x11 PUSH1 0x4 MSTORE PUSH1 0x24 PUSH0 REVERT JUMPDEST DUP1 DUP3 ADD DUP1 DUP3 GT ISZERO PUSH2 0x2C24 JUMPI PUSH2 0x2C24 PUSH2 0x3F43 JUMP JUMPDEST PUSH1 0x20 DUP1 DUP3 MSTORE PUSH1 0x12 SWAP1 DUP3 ADD MSTORE PUSH18 0x10DBDB9D1C9858DD081A5CC81C185D5CD959 PUSH1 0x72 SHL PUSH1 0x40 DUP3 ADD MSTORE PUSH1 0x60 ADD SWAP1 JUMP JUMPDEST PUSH1 0x20 DUP1 DUP3 MSTORE PUSH1 0x15 SWAP1 DUP3 ADD MSTORE PUSH21 0x82E4E4C2F240D8CADCCEE8D040DAD2E6DAC2E8C6D PUSH1 0x5B SHL PUSH1 0x40 DUP3 ADD MSTORE PUSH1 0x60 ADD SWAP1 JUMP JUMPDEST PUSH4 0x4E487B71 PUSH1 0xE0 SHL PUSH0 MSTORE PUSH1 0x32 PUSH1 0x4 MSTORE PUSH1 0x24 PUSH0 REVERT JUMPDEST PUSH1 0x20 DUP1 DUP3 MSTORE PUSH1 0x14 SWAP1 DUP3 ADD MSTORE PUSH20 0x4578636565647320746F74616C20737570706C79 PUSH1 0x60 SHL PUSH1 0x40 DUP3 ADD MSTORE PUSH1 0x60 ADD SWAP1 JUMP JUMPDEST DUP1 MLOAD PUSH10 0xFFFFFFFFFFFFFFFFFFFF DUP2 AND DUP2 EQ PUSH2 0x1643 JUMPI PUSH0 PUSH0 REVERT JUMPDEST PUSH0 PUSH0 PUSH0 PUSH0 PUSH0 PUSH1 0xA0 DUP7 DUP9 SUB SLT ISZERO PUSH2 0x4034 JUMPI PUSH0 PUSH0 REVERT JUMPDEST PUSH2 0x403D DUP7 PUSH2 0x4007 JUMP JUMPDEST PUSH1 0x20 DUP8 ADD MLOAD PUSH1 0x40 DUP9 ADD MLOAD PUSH1 0x60 DUP10 ADD MLOAD SWAP3 SWAP8 POP SWAP1 SWAP6 POP SWAP4 POP SWAP2 POP PUSH2 0x4062 PUSH1 0x80 DUP8 ADD PUSH2 0x4007 JUMP JUMPDEST SWAP1 POP SWAP3 SWAP6 POP SWAP3 SWAP6 SWAP1 SWAP4 POP JUMP JUMPDEST PUSH0 PUSH1 0x1 DUP3 ADD PUSH2 0x407F JUMPI PUSH2 0x407F PUSH2 0x3F43 JUMP JUMPDEST POP PUSH1 0x1 ADD SWAP1 JUMP JUMPDEST DUP2 DUP2 SUB DUP2 DUP2 GT ISZERO PUSH2 0x2C24 JUMPI PUSH2 0x2C24 PUSH2 0x3F43 JUMP JUMPDEST PUSH0 PUSH1 0x20 DUP3 DUP5 SUB SLT ISZERO PUSH2 0x40A9 JUMPI PUSH0 PUSH0 REVERT JUMPDEST DUP2 MLOAD PUSH2 0x2C93 DUP2 PUSH2 0x3996 JUMP JUMPDEST PUSH0 PUSH1 0x20 DUP3 DUP5 SUB SLT ISZERO PUSH2 0x40C4 JUMPI PUSH0 PUSH0 REVERT JUMPDEST POP MLOAD SWAP2 SWAP1 POP JUMP JUMPDEST DUP1 DUP3 MUL DUP2 ISZERO DUP3 DUP3 DIV DUP5 EQ OR PUSH2 0x2C24 JUMPI PUSH2 0x2C24 PUSH2 0x3F43 JUMP JUMPDEST PUSH0 DUP3 PUSH2 0x40FC JUMPI PUSH4 0x4E487B71 PUSH1 0xE0 SHL PUSH0 MSTORE PUSH1 0x12 PUSH1 0x4 MSTORE PUSH1 0x24 PUSH0 REVERT JUMPDEST POP DIV SWAP1 JUMP JUMPDEST PUSH0 DUP3 MLOAD DUP1 PUSH1 0x20 DUP6 ADD DUP5 MCOPY PUSH0 SWAP3 ADD SWAP2 DUP3 MSTORE POP SWAP2 SWAP1 POP JUMP INVALID CALLDATASIZE ADDMOD SWAP5 LOG1 EXTCODESIZE LOG1 LOG3 0x21 MOD PUSH8 0xC828492DB98DCA3E KECCAK256 PUSH23 0xCC3735A920A3CA505D382BBCA264697066735822122070 SLT MSIZE JUMP SHL PC CALLER PUSH26 0x8421ECD3D9458B5E4AE74A6C022A12A93B66D934E5EC35B66473 PUSH16 0x6C634300081D00330000000000000000 "
		},
		"gasEstimates": {
			"creation": {
				"codeDepositCost": "3349800",
				"executionCost": "infinite",
				"totalCost": "infinite"
			},
			"external": {
				"UPGRADE_INTERFACE_VERSION()": "infinite",
				"airdropConfig()": "13026",
				"batchClaimTokens(address[])": "infinite",
				"batchCreateVestingSchedules(address[],uint256[],uint256[],uint256[],uint256[])": "infinite",
				"batchProcessFiatPayments(address[],uint256[],bytes32[])": "infinite",
				"batchSetUserAccess(address[],uint256[])": "infinite",
				"calculateClaimableTokens(address)": "infinite",
				"claimAirdrop(bytes32[],uint256)": "infinite",
				"claimRefund()": "infinite",
				"claimVestedTokens()": "infinite",
				"configureAirdrop(bytes32,uint256,uint256,uint256,uint256)": "115402",
				"configurePricing(address,uint256,bool,bool)": "infinite",
				"configureSale(uint256,uint256,uint256,uint256,uint256,uint256,uint256,uint256)": "204058",
				"configureSecurity(uint256,uint256,uint256,bool,bool)": "infinite",
				"defaultCliffPercent()": "2427",
				"defaultCliffPeriod()": "2406",
				"defaultVestingDuration()": "2361",
				"emergencyWithdraw(address)": "infinite",
				"feePercentage()": "2428",
				"feeWallet()": "2447",
				"finalizeSale()": "63787",
				"getCurrentBnbPrice()": "infinite",
				"getSaleStatus()": "infinite",
				"getUserPurchaseInfo(address)": "infinite",
				"hasClaimedAirdrop(address)": "2616",
				"initialize(address,address,address)": "infinite",
				"lastPurchaseTime(address)": "2607",
				"lastTransactionBlock(address)": "2606",
				"multisigApprovalCounts(bytes32)": "2524",
				"multisigSigners(address)": "2595",
				"owner()": "2398",
				"pause()": "infinite",
				"paused()": "2425",
				"pricingConfig()": "6748",
				"processFiatPayment(address,uint256,bytes32)": "infinite",
				"processedFiatPayments(bytes32)": "2515",
				"proxiableUUID()": "infinite",
				"purchaseTokens(uint256)": "infinite",
				"refundableAmounts(address)": "2582",
				"renounceOwnership()": "infinite",
				"saleConfig()": "19450",
				"securityConfig()": "8805",
				"setDefaultVestingParameters(uint256,uint256,uint256)": "68890",
				"setFeeConfiguration(address,uint256)": "49045",
				"setMultisigSigner(address,bool)": "27028",
				"setTokenContract(address)": "26934",
				"tokenContract()": "2449",
				"tokensPurchased(address)": "2585",
				"totalFeesCollected()": "2384",
				"totalTokensSold()": "2406",
				"transferOwnership(address)": "28498",
				"treasuryWallet()": "2470",
				"unpause()": "infinite",
				"upgradeToAndCall(address,bytes)": "infinite",
				"userAccessLevel(address)": "2607",
				"vestingSchedules(address)": "15473",
				"withdrawUnsoldTokens()": "infinite"
			},
			"internal": {
				"_authorizeUpgrade(address)": "infinite",
				"_calculateTokensForBnb(uint256)": "infinite",
				"_createVestingSchedule(address,uint256,uint256,uint256,uint256,bool)": "infinite",
				"_getManualUsdPrice(uint256)": "infinite",
				"_getOracleBasedUsdPrice(uint256)": "infinite",
				"_handleFeeDistribution(uint256)": "infinite",
				"_isUserBlacklisted(address)": "infinite",
				"_isUserKYCVerified(address)": "4364",
				"_isUserWhitelisted(address)": "4362",
				"_processPurchase(address,uint256,uint256)": "infinite",
				"_setupUserVesting(address,uint256)": "infinite",
				"_validatePurchaseLimits(address,uint256)": "infinite"
			}
		},
		"methodIdentifiers": {
			"UPGRADE_INTERFACE_VERSION()": "ad3cb1cc",
			"airdropConfig()": "0cb0d5f8",
			"batchClaimTokens(address[])": "a281c0ce",
			"batchCreateVestingSchedules(address[],uint256[],uint256[],uint256[],uint256[])": "b50722d7",
			"batchProcessFiatPayments(address[],uint256[],bytes32[])": "0c38d039",
			"batchSetUserAccess(address[],uint256[])": "dc08b118",
			"calculateClaimableTokens(address)": "fa3d888e",
			"claimAirdrop(bytes32[],uint256)": "3335252b",
			"claimRefund()": "b5545a3c",
			"claimVestedTokens()": "e74f3fbb",
			"configureAirdrop(bytes32,uint256,uint256,uint256,uint256)": "25727f44",
			"configurePricing(address,uint256,bool,bool)": "0ccab2ee",
			"configureSale(uint256,uint256,uint256,uint256,uint256,uint256,uint256,uint256)": "32ff93b7",
			"configureSecurity(uint256,uint256,uint256,bool,bool)": "68156191",
			"defaultCliffPercent()": "ddbba775",
			"defaultCliffPeriod()": "97646103",
			"defaultVestingDuration()": "d80317b6",
			"emergencyWithdraw(address)": "6ff1c9bc",
			"feePercentage()": "a001ecdd",
			"feeWallet()": "f25f4b56",
			"finalizeSale()": "58a687ec",
			"getCurrentBnbPrice()": "2a246139",
			"getSaleStatus()": "8c3c4b34",
			"getUserPurchaseInfo(address)": "e6801ac7",
			"hasClaimedAirdrop(address)": "f4cdda36",
			"initialize(address,address,address)": "c0c53b8b",
			"lastPurchaseTime(address)": "227a14c1",
			"lastTransactionBlock(address)": "a7076038",
			"multisigApprovalCounts(bytes32)": "da507b91",
			"multisigSigners(address)": "b4519398",
			"owner()": "8da5cb5b",
			"pause()": "8456cb59",
			"paused()": "5c975abb",
			"pricingConfig()": "59dcc36e",
			"processFiatPayment(address,uint256,bytes32)": "398348e5",
			"processedFiatPayments(bytes32)": "5d71c215",
			"proxiableUUID()": "52d1902d",
			"purchaseTokens(uint256)": "7b97008d",
			"refundableAmounts(address)": "f43b05e9",
			"renounceOwnership()": "715018a6",
			"saleConfig()": "90aa0b0f",
			"securityConfig()": "be11b1d0",
			"setDefaultVestingParameters(uint256,uint256,uint256)": "5ad8b373",
			"setFeeConfiguration(address,uint256)": "0ca15c3c",
			"setMultisigSigner(address,bool)": "4357c013",
			"setTokenContract(address)": "bbcd5bbe",
			"tokenContract()": "55a373d6",
			"tokensPurchased(address)": "2ad92740",
			"totalFeesCollected()": "60c6d8ae",
			"totalTokensSold()": "63b20117",
			"transferOwnership(address)": "f2fde38b",
			"treasuryWallet()": "4626402b",
			"unpause()": "3f4ba83a",
			"upgradeToAndCall(address,bytes)": "4f1ef286",
			"userAccessLevel(address)": "892033e6",
			"vestingSchedules(address)": "fdb20ccb",
			"withdrawUnsoldTokens()": "c8bdbfb6"
		}
	},
	"abi": [
		{
			"inputs": [
				{
					"internalType": "address",
					"name": "target",
					"type": "address"
				}
			],
			"name": "AddressEmptyCode",
			"type": "error"
		},
		{
			"inputs": [
				{
					"internalType": "address",
					"name": "implementation",
					"type": "address"
				}
			],
			"name": "ERC1967InvalidImplementation",
			"type": "error"
		},
		{
			"inputs": [],
			"name": "ERC1967NonPayable",
			"type": "error"
		},
		{
			"inputs": [],
			"name": "FailedCall",
			"type": "error"
		},
		{
			"inputs": [],
			"name": "InvalidInitialization",
			"type": "error"
		},
		{
			"inputs": [],
			"name": "NotInitializing",
			"type": "error"
		},
		{
			"inputs": [
				{
					"internalType": "address",
					"name": "owner",
					"type": "address"
				}
			],
			"name": "OwnableInvalidOwner",
			"type": "error"
		},
		{
			"inputs": [
				{
					"internalType": "address",
					"name": "account",
					"type": "address"
				}
			],
			"name": "OwnableUnauthorizedAccount",
			"type": "error"
		},
		{
			"inputs": [],
			"name": "UUPSUnauthorizedCallContext",
			"type": "error"
		},
		{
			"inputs": [
				{
					"internalType": "bytes32",
					"name": "slot",
					"type": "bytes32"
				}
			],
			"name": "UUPSUnsupportedProxiableUUID",
			"type": "error"
		},
		{
			"anonymous": false,
			"inputs": [
				{
					"indexed": true,
					"internalType": "address",
					"name": "user",
					"type": "address"
				},
				{
					"indexed": false,
					"internalType": "uint256",
					"name": "amount",
					"type": "uint256"
				}
			],
			"name": "AirdropClaimed",
			"type": "event"
		},
		{
			"anonymous": false,
			"inputs": [
				{
					"indexed": true,
					"internalType": "address",
					"name": "feeWallet",
					"type": "address"
				},
				{
					"indexed": false,
					"internalType": "uint256",
					"name": "amount",
					"type": "uint256"
				}
			],
			"name": "FeeTransferred",
			"type": "event"
		},
		{
			"anonymous": false,
			"inputs": [
				{
					"indexed": true,
					"internalType": "address",
					"name": "recipient",
					"type": "address"
				},
				{
					"indexed": false,
					"internalType": "uint256",
					"name": "amount",
					"type": "uint256"
				},
				{
					"indexed": true,
					"internalType": "bytes32",
					"name": "paymentId",
					"type": "bytes32"
				}
			],
			"name": "FiatPaymentProcessed",
			"type": "event"
		},
		{
			"anonymous": false,
			"inputs": [
				{
					"indexed": false,
					"internalType": "uint64",
					"name": "version",
					"type": "uint64"
				}
			],
			"name": "Initialized",
			"type": "event"
		},
		{
			"anonymous": false,
			"inputs": [
				{
					"indexed": true,
					"internalType": "address",
					"name": "previousOwner",
					"type": "address"
				},
				{
					"indexed": true,
					"internalType": "address",
					"name": "newOwner",
					"type": "address"
				}
			],
			"name": "OwnershipTransferred",
			"type": "event"
		},
		{
			"anonymous": false,
			"inputs": [
				{
					"indexed": false,
					"internalType": "address",
					"name": "account",
					"type": "address"
				}
			],
			"name": "Paused",
			"type": "event"
		},
		{
			"anonymous": false,
			"inputs": [
				{
					"indexed": true,
					"internalType": "address",
					"name": "user",
					"type": "address"
				},
				{
					"indexed": false,
					"internalType": "uint256",
					"name": "amount",
					"type": "uint256"
				}
			],
			"name": "RefundIssued",
			"type": "event"
		},
		{
			"anonymous": false,
			"inputs": [
				{
					"indexed": false,
					"internalType": "uint256",
					"name": "totalRaised",
					"type": "uint256"
				},
				{
					"indexed": false,
					"internalType": "uint256",
					"name": "totalTokensSold",
					"type": "uint256"
				}
			],
			"name": "SaleFinalized",
			"type": "event"
		},
		{
			"anonymous": false,
			"inputs": [
				{
					"indexed": true,
					"internalType": "address",
					"name": "user",
					"type": "address"
				},
				{
					"indexed": false,
					"internalType": "uint256",
					"name": "amount",
					"type": "uint256"
				}
			],
			"name": "TokensClaimed",
			"type": "event"
		},
		{
			"anonymous": false,
			"inputs": [
				{
					"indexed": true,
					"internalType": "address",
					"name": "buyer",
					"type": "address"
				},
				{
					"indexed": false,
					"internalType": "uint256",
					"name": "tokenAmount",
					"type": "uint256"
				},
				{
					"indexed": false,
					"internalType": "uint256",
					"name": "bnbPaid",
					"type": "uint256"
				}
			],
			"name": "TokensPurchased",
			"type": "event"
		},
		{
			"anonymous": false,
			"inputs": [
				{
					"indexed": true,
					"internalType": "address",
					"name": "user",
					"type": "address"
				},
				{
					"indexed": false,
					"internalType": "uint256",
					"name": "amount",
					"type": "uint256"
				},
				{
					"indexed": false,
					"internalType": "uint256",
					"name": "startTime",
					"type": "uint256"
				},
				{
					"indexed": false,
					"internalType": "uint256",
					"name": "duration",
					"type": "uint256"
				}
			],
			"name": "TokensVested",
			"type": "event"
		},
		{
			"anonymous": false,
			"inputs": [
				{
					"indexed": false,
					"internalType": "address",
					"name": "account",
					"type": "address"
				}
			],
			"name": "Unpaused",
			"type": "event"
		},
		{
			"anonymous": false,
			"inputs": [
				{
					"indexed": true,
					"internalType": "address",
					"name": "implementation",
					"type": "address"
				}
			],
			"name": "Upgraded",
			"type": "event"
		},
		{
			"inputs": [],
			"name": "UPGRADE_INTERFACE_VERSION",
			"outputs": [
				{
					"internalType": "string",
					"name": "",
					"type": "string"
				}
			],
			"stateMutability": "view",
			"type": "function"
		},
		{
			"inputs": [],
			"name": "airdropConfig",
			"outputs": [
				{
					"internalType": "bytes32",
					"name": "merkleRoot",
					"type": "bytes32"
				},
				{
					"internalType": "uint256",
					"name": "deadline",
					"type": "uint256"
				},
				{
					"internalType": "uint256",
					"name": "totalSupply",
					"type": "uint256"
				},
				{
					"internalType": "uint256",
					"name": "vestingDuration",
					"type": "uint256"
				},
				{
					"internalType": "uint256",
					"name": "cliffPeriod",
					"type": "uint256"
				},
				{
					"internalType": "uint256",
					"name": "cliffReleasePercent",
					"type": "uint256"
				}
			],
			"stateMutability": "view",
			"type": "function"
		},
		{
			"inputs": [
				{
					"internalType": "address[]",
					"name": "users",
					"type": "address[]"
				}
			],
			"name": "batchClaimTokens",
			"outputs": [],
			"stateMutability": "nonpayable",
			"type": "function"
		},
		{
			"inputs": [
				{
					"internalType": "address[]",
					"name": "users",
					"type": "address[]"
				},
				{
					"internalType": "uint256[]",
					"name": "amounts",
					"type": "uint256[]"
				},
				{
					"internalType": "uint256[]",
					"name": "durations",
					"type": "uint256[]"
				},
				{
					"internalType": "uint256[]",
					"name": "cliffPeriods",
					"type": "uint256[]"
				},
				{
					"internalType": "uint256[]",
					"name": "cliffPercents",
					"type": "uint256[]"
				}
			],
			"name": "batchCreateVestingSchedules",
			"outputs": [],
			"stateMutability": "nonpayable",
			"type": "function"
		},
		{
			"inputs": [
				{
					"internalType": "address[]",
					"name": "recipients",
					"type": "address[]"
				},
				{
					"internalType": "uint256[]",
					"name": "amounts",
					"type": "uint256[]"
				},
				{
					"internalType": "bytes32[]",
					"name": "paymentIds",
					"type": "bytes32[]"
				}
			],
			"name": "batchProcessFiatPayments",
			"outputs": [],
			"stateMutability": "nonpayable",
			"type": "function"
		},
		{
			"inputs": [
				{
					"internalType": "address[]",
					"name": "users",
					"type": "address[]"
				},
				{
					"internalType": "uint256[]",
					"name": "accessLevels",
					"type": "uint256[]"
				}
			],
			"name": "batchSetUserAccess",
			"outputs": [],
			"stateMutability": "nonpayable",
			"type": "function"
		},
		{
			"inputs": [
				{
					"internalType": "address",
					"name": "user",
					"type": "address"
				}
			],
			"name": "calculateClaimableTokens",
			"outputs": [
				{
					"internalType": "uint256",
					"name": "",
					"type": "uint256"
				}
			],
			"stateMutability": "view",
			"type": "function"
		},
		{
			"inputs": [
				{
					"internalType": "bytes32[]",
					"name": "merkleProof",
					"type": "bytes32[]"
				},
				{
					"internalType": "uint256",
					"name": "tokenAmount",
					"type": "uint256"
				}
			],
			"name": "claimAirdrop",
			"outputs": [],
			"stateMutability": "nonpayable",
			"type": "function"
		},
		{
			"inputs": [],
			"name": "claimRefund",
			"outputs": [],
			"stateMutability": "nonpayable",
			"type": "function"
		},
		{
			"inputs": [],
			"name": "claimVestedTokens",
			"outputs": [],
			"stateMutability": "nonpayable",
			"type": "function"
		},
		{
			"inputs": [
				{
					"internalType": "bytes32",
					"name": "_merkleRoot",
					"type": "bytes32"
				},
				{
					"internalType": "uint256",
					"name": "_deadline",
					"type": "uint256"
				},
				{
					"internalType": "uint256",
					"name": "_vestingDuration",
					"type": "uint256"
				},
				{
					"internalType": "uint256",
					"name": "_cliffPeriod",
					"type": "uint256"
				},
				{
					"internalType": "uint256",
					"name": "_cliffPercent",
					"type": "uint256"
				}
			],
			"name": "configureAirdrop",
			"outputs": [],
			"stateMutability": "nonpayable",
			"type": "function"
		},
		{
			"inputs": [
				{
					"internalType": "address",
					"name": "_oracleAddress",
					"type": "address"
				},
				{
					"internalType": "uint256",
					"name": "_manualBnbPrice",
					"type": "uint256"
				},
				{
					"internalType": "bool",
					"name": "_useOracle",
					"type": "bool"
				},
				{
					"internalType": "bool",
					"name": "_useManualPrice",
					"type": "bool"
				}
			],
			"name": "configurePricing",
			"outputs": [],
			"stateMutability": "nonpayable",
			"type": "function"
		},
		{
			"inputs": [
				{
					"internalType": "uint256",
					"name": "_startTime",
					"type": "uint256"
				},
				{
					"internalType": "uint256",
					"name": "_endTime",
					"type": "uint256"
				},
				{
					"internalType": "uint256",
					"name": "_maxPerTx",
					"type": "uint256"
				},
				{
					"internalType": "uint256",
					"name": "_maxPerWallet",
					"type": "uint256"
				},
				{
					"internalType": "uint256",
					"name": "_softCap",
					"type": "uint256"
				},
				{
					"internalType": "uint256",
					"name": "_hardCap",
					"type": "uint256"
				},
				{
					"internalType": "uint256",
					"name": "_totalSupply",
					"type": "uint256"
				},
				{
					"internalType": "uint256",
					"name": "_tokensPerUsd",
					"type": "uint256"
				}
			],
			"name": "configureSale",
			"outputs": [],
			"stateMutability": "nonpayable",
			"type": "function"
		},
		{
			"inputs": [
				{
					"internalType": "uint256",
					"name": "_antiWhaleLimit",
					"type": "uint256"
				},
				{
					"internalType": "uint256",
					"name": "_cooldownPeriod",
					"type": "uint256"
				},
				{
					"internalType": "uint256",
					"name": "_multisigThreshold",
					"type": "uint256"
				},
				{
					"internalType": "bool",
					"name": "_requireWhitelist",
					"type": "bool"
				},
				{
					"internalType": "bool",
					"name": "_requireKYC",
					"type": "bool"
				}
			],
			"name": "configureSecurity",
			"outputs": [],
			"stateMutability": "nonpayable",
			"type": "function"
		},
		{
			"inputs": [],
			"name": "defaultCliffPercent",
			"outputs": [
				{
					"internalType": "uint256",
					"name": "",
					"type": "uint256"
				}
			],
			"stateMutability": "view",
			"type": "function"
		},
		{
			"inputs": [],
			"name": "defaultCliffPeriod",
			"outputs": [
				{
					"internalType": "uint256",
					"name": "",
					"type": "uint256"
				}
			],
			"stateMutability": "view",
			"type": "function"
		},
		{
			"inputs": [],
			"name": "defaultVestingDuration",
			"outputs": [
				{
					"internalType": "uint256",
					"name": "",
					"type": "uint256"
				}
			],
			"stateMutability": "view",
			"type": "function"
		},
		{
			"inputs": [
				{
					"internalType": "address",
					"name": "_to",
					"type": "address"
				}
			],
			"name": "emergencyWithdraw",
			"outputs": [],
			"stateMutability": "nonpayable",
			"type": "function"
		},
		{
			"inputs": [],
			"name": "feePercentage",
			"outputs": [
				{
					"internalType": "uint256",
					"name": "",
					"type": "uint256"
				}
			],
			"stateMutability": "view",
			"type": "function"
		},
		{
			"inputs": [],
			"name": "feeWallet",
			"outputs": [
				{
					"internalType": "address",
					"name": "",
					"type": "address"
				}
			],
			"stateMutability": "view",
			"type": "function"
		},
		{
			"inputs": [],
			"name": "finalizeSale",
			"outputs": [],
			"stateMutability": "nonpayable",
			"type": "function"
		},
		{
			"inputs": [],
			"name": "getCurrentBnbPrice",
			"outputs": [
				{
					"internalType": "uint256",
					"name": "",
					"type": "uint256"
				}
			],
			"stateMutability": "view",
			"type": "function"
		},
		{
			"inputs": [],
			"name": "getSaleStatus",
			"outputs": [
				{
					"internalType": "bool",
					"name": "isActive",
					"type": "bool"
				},
				{
					"internalType": "bool",
					"name": "isFinalized",
					"type": "bool"
				},
				{
					"internalType": "uint256",
					"name": "tokensRemaining",
					"type": "uint256"
				},
				{
					"internalType": "uint256",
					"name": "timeRemaining",
					"type": "uint256"
				}
			],
			"stateMutability": "view",
			"type": "function"
		},
		{
			"inputs": [
				{
					"internalType": "address",
					"name": "user",
					"type": "address"
				}
			],
			"name": "getUserPurchaseInfo",
			"outputs": [
				{
					"internalType": "uint256",
					"name": "totalPurchased",
					"type": "uint256"
				},
				{
					"internalType": "uint256",
					"name": "availableForClaim",
					"type": "uint256"
				},
				{
					"internalType": "uint256",
					"name": "totalClaimed",
					"type": "uint256"
				},
				{
					"internalType": "uint256",
					"name": "refundEligible",
					"type": "uint256"
				}
			],
			"stateMutability": "view",
			"type": "function"
		},
		{
			"inputs": [
				{
					"internalType": "address",
					"name": "",
					"type": "address"
				}
			],
			"name": "hasClaimedAirdrop",
			"outputs": [
				{
					"internalType": "bool",
					"name": "",
					"type": "bool"
				}
			],
			"stateMutability": "view",
			"type": "function"
		},
		{
			"inputs": [
				{
					"internalType": "address",
					"name": "_tokenContract",
					"type": "address"
				},
				{
					"internalType": "address",
					"name": "_treasuryWallet",
					"type": "address"
				},
				{
					"internalType": "address",
					"name": "_feeWallet",
					"type": "address"
				}
			],
			"name": "initialize",
			"outputs": [],
			"stateMutability": "nonpayable",
			"type": "function"
		},
		{
			"inputs": [
				{
					"internalType": "address",
					"name": "",
					"type": "address"
				}
			],
			"name": "lastPurchaseTime",
			"outputs": [
				{
					"internalType": "uint256",
					"name": "",
					"type": "uint256"
				}
			],
			"stateMutability": "view",
			"type": "function"
		},
		{
			"inputs": [
				{
					"internalType": "address",
					"name": "",
					"type": "address"
				}
			],
			"name": "lastTransactionBlock",
			"outputs": [
				{
					"internalType": "uint256",
					"name": "",
					"type": "uint256"
				}
			],
			"stateMutability": "view",
			"type": "function"
		},
		{
			"inputs": [
				{
					"internalType": "bytes32",
					"name": "",
					"type": "bytes32"
				}
			],
			"name": "multisigApprovalCounts",
			"outputs": [
				{
					"internalType": "uint256",
					"name": "",
					"type": "uint256"
				}
			],
			"stateMutability": "view",
			"type": "function"
		},
		{
			"inputs": [
				{
					"internalType": "address",
					"name": "",
					"type": "address"
				}
			],
			"name": "multisigSigners",
			"outputs": [
				{
					"internalType": "bool",
					"name": "",
					"type": "bool"
				}
			],
			"stateMutability": "view",
			"type": "function"
		},
		{
			"inputs": [],
			"name": "owner",
			"outputs": [
				{
					"internalType": "address",
					"name": "",
					"type": "address"
				}
			],
			"stateMutability": "view",
			"type": "function"
		},
		{
			"inputs": [],
			"name": "pause",
			"outputs": [],
			"stateMutability": "nonpayable",
			"type": "function"
		},
		{
			"inputs": [],
			"name": "paused",
			"outputs": [
				{
					"internalType": "bool",
					"name": "",
					"type": "bool"
				}
			],
			"stateMutability": "view",
			"type": "function"
		},
		{
			"inputs": [],
			"name": "pricingConfig",
			"outputs": [
				{
					"internalType": "address",
					"name": "oracleAddress",
					"type": "address"
				},
				{
					"internalType": "uint256",
					"name": "manualBnbPrice",
					"type": "uint256"
				},
				{
					"internalType": "bool",
					"name": "useOracle",
					"type": "bool"
				},
				{
					"internalType": "bool",
					"name": "useManualPrice",
					"type": "bool"
				}
			],
			"stateMutability": "view",
			"type": "function"
		},
		{
			"inputs": [
				{
					"internalType": "address",
					"name": "recipient",
					"type": "address"
				},
				{
					"internalType": "uint256",
					"name": "tokenAmount",
					"type": "uint256"
				},
				{
					"internalType": "bytes32",
					"name": "paymentId",
					"type": "bytes32"
				}
			],
			"name": "processFiatPayment",
			"outputs": [],
			"stateMutability": "nonpayable",
			"type": "function"
		},
		{
			"inputs": [
				{
					"internalType": "bytes32",
					"name": "",
					"type": "bytes32"
				}
			],
			"name": "processedFiatPayments",
			"outputs": [
				{
					"internalType": "bool",
					"name": "",
					"type": "bool"
				}
			],
			"stateMutability": "view",
			"type": "function"
		},
		{
			"inputs": [],
			"name": "proxiableUUID",
			"outputs": [
				{
					"internalType": "bytes32",
					"name": "",
					"type": "bytes32"
				}
			],
			"stateMutability": "view",
			"type": "function"
		},
		{
			"inputs": [
				{
					"internalType": "uint256",
					"name": "bnbAmount",
					"type": "uint256"
				}
			],
			"name": "purchaseTokens",
			"outputs": [],
			"stateMutability": "payable",
			"type": "function"
		},
		{
			"inputs": [
				{
					"internalType": "address",
					"name": "",
					"type": "address"
				}
			],
			"name": "refundableAmounts",
			"outputs": [
				{
					"internalType": "uint256",
					"name": "",
					"type": "uint256"
				}
			],
			"stateMutability": "view",
			"type": "function"
		},
		{
			"inputs": [],
			"name": "renounceOwnership",
			"outputs": [],
			"stateMutability": "nonpayable",
			"type": "function"
		},
		{
			"inputs": [],
			"name": "saleConfig",
			"outputs": [
				{
					"internalType": "uint256",
					"name": "startTime",
					"type": "uint256"
				},
				{
					"internalType": "uint256",
					"name": "endTime",
					"type": "uint256"
				},
				{
					"internalType": "uint256",
					"name": "maxTokensPerTx",
					"type": "uint256"
				},
				{
					"internalType": "uint256",
					"name": "maxTokensPerWallet",
					"type": "uint256"
				},
				{
					"internalType": "uint256",
					"name": "softCap",
					"type": "uint256"
				},
				{
					"internalType": "uint256",
					"name": "hardCap",
					"type": "uint256"
				},
				{
					"internalType": "uint256",
					"name": "totalSupply",
					"type": "uint256"
				},
				{
					"internalType": "uint256",
					"name": "tokensPerUsd",
					"type": "uint256"
				},
				{
					"internalType": "bool",
					"name": "isFinalized",
					"type": "bool"
				},
				{
					"internalType": "bool",
					"name": "isRefundEnabled",
					"type": "bool"
				}
			],
			"stateMutability": "view",
			"type": "function"
		},
		{
			"inputs": [],
			"name": "securityConfig",
			"outputs": [
				{
					"internalType": "uint256",
					"name": "antiWhaleLimit",
					"type": "uint256"
				},
				{
					"internalType": "uint256",
					"name": "cooldownPeriod",
					"type": "uint256"
				},
				{
					"internalType": "uint256",
					"name": "multisigThreshold",
					"type": "uint256"
				},
				{
					"internalType": "bool",
					"name": "requireWhitelist",
					"type": "bool"
				},
				{
					"internalType": "bool",
					"name": "requireKYC",
					"type": "bool"
				}
			],
			"stateMutability": "view",
			"type": "function"
		},
		{
			"inputs": [
				{
					"internalType": "uint256",
					"name": "_duration",
					"type": "uint256"
				},
				{
					"internalType": "uint256",
					"name": "_cliffPeriod",
					"type": "uint256"
				},
				{
					"internalType": "uint256",
					"name": "_cliffPercent",
					"type": "uint256"
				}
			],
			"name": "setDefaultVestingParameters",
			"outputs": [],
			"stateMutability": "nonpayable",
			"type": "function"
		},
		{
			"inputs": [
				{
					"internalType": "address",
					"name": "_feeWallet",
					"type": "address"
				},
				{
					"internalType": "uint256",
					"name": "_feePercentage",
					"type": "uint256"
				}
			],
			"name": "setFeeConfiguration",
			"outputs": [],
			"stateMutability": "nonpayable",
			"type": "function"
		},
		{
			"inputs": [
				{
					"internalType": "address",
					"name": "_signer",
					"type": "address"
				},
				{
					"internalType": "bool",
					"name": "_status",
					"type": "bool"
				}
			],
			"name": "setMultisigSigner",
			"outputs": [],
			"stateMutability": "nonpayable",
			"type": "function"
		},
		{
			"inputs": [
				{
					"internalType": "address",
					"name": "_tokenContract",
					"type": "address"
				}
			],
			"name": "setTokenContract",
			"outputs": [],
			"stateMutability": "nonpayable",
			"type": "function"
		},
		{
			"inputs": [],
			"name": "tokenContract",
			"outputs": [
				{
					"internalType": "contract IERC20Upgradeable",
					"name": "",
					"type": "address"
				}
			],
			"stateMutability": "view",
			"type": "function"
		},
		{
			"inputs": [
				{
					"internalType": "address",
					"name": "",
					"type": "address"
				}
			],
			"name": "tokensPurchased",
			"outputs": [
				{
					"internalType": "uint256",
					"name": "",
					"type": "uint256"
				}
			],
			"stateMutability": "view",
			"type": "function"
		},
		{
			"inputs": [],
			"name": "totalFeesCollected",
			"outputs": [
				{
					"internalType": "uint256",
					"name": "",
					"type": "uint256"
				}
			],
			"stateMutability": "view",
			"type": "function"
		},
		{
			"inputs": [],
			"name": "totalTokensSold",
			"outputs": [
				{
					"internalType": "uint256",
					"name": "",
					"type": "uint256"
				}
			],
			"stateMutability": "view",
			"type": "function"
		},
		{
			"inputs": [
				{
					"internalType": "address",
					"name": "newOwner",
					"type": "address"
				}
			],
			"name": "transferOwnership",
			"outputs": [],
			"stateMutability": "nonpayable",
			"type": "function"
		},
		{
			"inputs": [],
			"name": "treasuryWallet",
			"outputs": [
				{
					"internalType": "address",
					"name": "",
					"type": "address"
				}
			],
			"stateMutability": "view",
			"type": "function"
		},
		{
			"inputs": [],
			"name": "unpause",
			"outputs": [],
			"stateMutability": "nonpayable",
			"type": "function"
		},
		{
			"inputs": [
				{
					"internalType": "address",
					"name": "newImplementation",
					"type": "address"
				},
				{
					"internalType": "bytes",
					"name": "data",
					"type": "bytes"
				}
			],
			"name": "upgradeToAndCall",
			"outputs": [],
			"stateMutability": "payable",
			"type": "function"
		},
		{
			"inputs": [
				{
					"internalType": "address",
					"name": "",
					"type": "address"
				}
			],
			"name": "userAccessLevel",
			"outputs": [
				{
					"internalType": "uint256",
					"name": "",
					"type": "uint256"
				}
			],
			"stateMutability": "view",
			"type": "function"
		},
		{
			"inputs": [
				{
					"internalType": "address",
					"name": "",
					"type": "address"
				}
			],
			"name": "vestingSchedules",
			"outputs": [
				{
					"internalType": "uint256",
					"name": "totalTokens",
					"type": "uint256"
				},
				{
					"internalType": "uint256",
					"name": "claimedTokens",
					"type": "uint256"
				},
				{
					"internalType": "uint256",
					"name": "startTime",
					"type": "uint256"
				},
				{
					"internalType": "uint256",
					"name": "vestingDuration",
					"type": "uint256"
				},
				{
					"internalType": "uint256",
					"name": "cliffPeriod",
					"type": "uint256"
				},
				{
					"internalType": "uint256",
					"name": "cliffReleasePercent",
					"type": "uint256"
				},
				{
					"internalType": "bool",
					"name": "isActive",
					"type": "bool"
				}
			],
			"stateMutability": "view",
			"type": "function"
		},
		{
			"inputs": [],
			"name": "withdrawUnsoldTokens",
			"outputs": [],
			"stateMutability": "nonpayable",
			"type": "function"
		},
		{
			"stateMutability": "payable",
			"type": "receive"
		}
	]
}