{
	"data": {
		"bytecode": {
			"linkReferences": {},
			"object": "60a0604052306080523480156012575f5ffd5b506080516142fa6100395f395f818161338d015281816133b601526134f501526142fa5ff3fe60806040526004361061037f575f3560e01c806390aa0b0f116101d3578063cf756fdf116100fd578063f25f4b561161009d578063f71cc3a51161006d578063f71cc3a514610baf578063fb897ce414610bce578063fc0c546a14610c44578063fdb20ccb14610c63575f5ffd5b8063f25f4b5614610b18578063f2fde38b14610b37578063f3f247eb14610b56578063f43b05e914610b84575f5ffd5b8063db83694c116100d8578063db83694c14610a59578063defa27f914610acc578063e74f3fbb14610aeb578063e82ba40614610aff575f5ffd5b8063cf756fdf146109f8578063d1b6dd3014610a17578063dae8052114610a45575f5ffd5b8063a59989ac11610173578063b9edb3a511610143578063b9edb3a514610965578063ba3586f014610983578063be11b1d0146109a2578063c8bdbfb6146109e4575f5ffd5b8063a59989ac146108bc578063ad3cb1cc146108db578063b2cfd4b714610918578063b451939814610937575f5ffd5b8063a001ecdd116101ae578063a001ecdd14610854578063a1e98a6d14610869578063a281c0ce1461087e578063a4369a6f1461089d575f5ffd5b806390aa0b0f14610790578063997f5070146108205780639f8ed38d1461083f575f5ffd5b806344878724116102b4578063664a1ad6116102545780638456cb59116102245780638456cb59146106ea57806386cbf53a146106fe578063891b591b146107295780638da5cb5b14610754575f5ffd5b8063664a1ad6146106795780636ff1c9bc14610698578063715018a6146106b75780637274f7fd146106cb575f5ffd5b806358a687ec1161028f57806358a687ec146105d65780635c975abb146105ea578063624253d6146106005780636386c1c71461061f575f5ffd5b8063448787241461057f5780634f1ef286146105af57806352d1902d146105c2575f5ffd5b80632a2461391161031f578063398348e5116102fa578063398348e51461050257806339f65c09146105215780633f4ba83a1461054c5780634357c01314610560575f5ffd5b80632a246139146104c75780633290ce29146104db5780633335252b146104e3575f5ffd5b806320d8c7961161035a57806320d8c7961461040d578063225d29a11461042c578063227a14c1146104655780632630c12f14610490575f5ffd5b806309ce871c146103925780630c38d039146103d05780630cb0d5f8146103ef575f5ffd5b3661038e5761038c610cf3565b005b5f5ffd5b34801561039d575f5ffd5b50607c54607d54607e546103b092919083565b604080519384526020840192909252908201526060015b60405180910390f35b3480156103db575f5ffd5b5061038c6103ea366004613ae1565b61100b565b3480156103fa575f5ffd5b50607f546080546081546103b092919083565b348015610418575f5ffd5b5061038c610427366004613b7d565b6113ec565b348015610437575f5ffd5b50610457610446366004613bbc565b60836020525f908152604090205481565b6040519081526020016103c7565b348015610470575f5ffd5b5061045761047f366004613bbc565b60856020525f908152604090205481565b34801561049b575f5ffd5b506069546104af906001600160a01b031681565b6040516001600160a01b0390911681526020016103c7565b3480156104d2575f5ffd5b50610457611441565b61038c610cf3565b3480156104ee575f5ffd5b5061038c6104fd366004613bd5565b61154f565b34801561050d575f5ffd5b5061038c61051c366004613c1c565b61173d565b34801561052c575f5ffd5b5061045761053b366004613bbc565b60826020525f908152604090205481565b348015610557575f5ffd5b5061038c6119ee565b34801561056b575f5ffd5b5061038c61057a366004613c59565b6119fe565b34801561058a575f5ffd5b5060695461059f90600160a01b900460ff1681565b60405190151581526020016103c7565b61038c6105bd366004613ca2565b611a30565b3480156105cd575f5ffd5b50610457611a4f565b3480156105e1575f5ffd5b5061038c611a6a565b3480156105f5575f5ffd5b505f5460ff1661059f565b34801561060b575f5ffd5b5061038c61061a366004613d63565b611c0c565b34801561062a575f5ffd5b5061063e610639366004613bbc565b611ca8565b60408051978852602088019690965294860193909352606085019190915215156080840152151560a0830152151560c082015260e0016103c7565b348015610684575f5ffd5b506065546104af906001600160a01b031681565b3480156106a3575f5ffd5b5061038c6106b2366004613bbc565b611d25565b3480156106c2575f5ffd5b5061038c611db6565b3480156106d6575f5ffd5b506104576106e5366004613bbc565b611dc7565b3480156106f5575f5ffd5b5061038c611f27565b348015610709575f5ffd5b50610457610718366004613bbc565b60866020525f908152604090205481565b348015610734575f5ffd5b50610457610743366004613dcd565b608a6020525f908152604090205481565b34801561075f575f5ffd5b507f9016d09d72d40fdae2fd8ceac6b6234c7706214fd39c1cd1e609a0528c199300546001600160a01b03166104af565b34801561079b575f5ffd5b50606c54606d54606e54606f546070546071546072546073546074546107d298979695949392919060ff808216916101009004168a565b604080519a8b5260208b0199909952978901969096526060880194909452608087019290925260a086015260c085015260e084015215156101008301521515610120820152610140016103c7565b34801561082b575f5ffd5b5061038c61083a366004613de4565b611f37565b34801561084a575f5ffd5b50610457606a5481565b34801561085f575f5ffd5b5061045760675481565b348015610874575f5ffd5b5061045760685481565b348015610889575f5ffd5b5061038c610898366004613e2b565b611ff3565b3480156108a8575f5ffd5b5061038c6108b7366004613e69565b612150565b3480156108c7575f5ffd5b5061038c6108d6366004613b7d565b612163565b3480156108e6575f5ffd5b5061090b604051806040016040528060058152602001640352e302e360dc1b81525081565b6040516103c79190613e89565b348015610923575f5ffd5b5061038c610932366004613ebe565b612215565b348015610942575f5ffd5b5061059f610951366004613bbc565b60896020525f908152604090205460ff1681565b348015610970575f5ffd5b50607954607a54607b546103b092919083565b34801561098e575f5ffd5b5061038c61099d366004613b7d565b61226a565b3480156109ad575f5ffd5b506075546076546077546078546109c49392919084565b6040805194855260208501939093529183015260608201526080016103c7565b3480156109ef575f5ffd5b5061038c61231c565b348015610a03575f5ffd5b5061038c610a12366004613f17565b612556565b348015610a22575f5ffd5b5061059f610a31366004613bbc565b60876020525f908152604090205460ff1681565b348015610a50575f5ffd5b5061038c612837565b348015610a64575f5ffd5b50606c54606d54607354607254607054607154607454606854604080519889526020890197909752958701949094526060860192909252608085015260a084015260ff808216151560c08501526101009182900416151560e0840152820152610120016103c7565b348015610ad7575f5ffd5b5061038c610ae6366004613f5f565b6129b7565b348015610af6575f5ffd5b5061038c612aee565b348015610b0a575f5ffd5b50606b5461059f9060ff1681565b348015610b23575f5ffd5b506066546104af906001600160a01b031681565b348015610b42575f5ffd5b5061038c610b51366004613bbc565b612cb3565b348015610b61575f5ffd5b5061059f610b70366004613dcd565b60886020525f908152604090205460ff1681565b348015610b8f575f5ffd5b50610457610b9e366004613bbc565b60846020525f908152604090205481565b348015610bba575f5ffd5b5061038c610bc936600461405a565b612cf0565b348015610bd9575f5ffd5b50610bed610be8366004613bbc565b612d13565b6040516103c791905f60e082019050825182526020830151602083015260408301516040830152606083015160608301526080830151608083015260a083015160a083015260c0830151151560c083015292915050565b348015610c4f575f5ffd5b506064546104af906001600160a01b031681565b348015610c6e575f5ffd5b50610cbc610c7d366004613bbc565b608b6020525f90815260409020805460018201546002830154600384015460048501546005860154600690960154949593949293919290919060ff1687565b604080519788526020880196909652948601939093526060850191909152608084015260a0830152151560c082015260e0016103c7565b610cfb612dbe565b610d03612e03565b335f908152608660205260409020544311610d745760405162461bcd60e51b815260206004820152602660248201527f4f6e6c79206f6e65207472616e73616374696f6e2070657220626c6f636b20616044820152651b1b1bddd95960d21b60648201526084015b60405180910390fd5b335f908152608660209081526040808320439055607654608590925290912054610d9e9190614096565b421015610de65760405162461bcd60e51b8152602060048201526016602482015275436f6f6c646f776e20706572696f642061637469766560501b6044820152606401610d6b565b606c544210801590610dfa5750606d544211155b610e385760405162461bcd60e51b815260206004820152600f60248201526e53616c65206e6f742061637469766560881b6044820152606401610d6b565b335f8181526083602052604090205460041615610e8a5760405162461bcd60e51b815260206004820152601060248201526f155cd95c88189b1858dadb1a5cdd195960821b6044820152606401610d6b565b6001600160a01b0381165f90815260836020526040902054600116610ee85760405162461bcd60e51b8152602060048201526014602482015273155cd95c881b9bdd081dda1a5d195b1a5cdd195960621b6044820152606401610d6b565b6001600160a01b0381165f90815260836020526040902054600216610f475760405162461bcd60e51b8152602060048201526015602482015274155cd95c881b9bdd0812d650c81d995c9a599a5959605a1b6044820152606401610d6b565b5f3411610f8b5760405162461bcd60e51b8152602060048201526012602482015271125b9d985b1a590810939088185b5bdd5b9d60721b6044820152606401610d6b565b5f610f9534612e5c565b9050610fa13382612e7e565b610fac33823461300e565b607954607a54607b54610fc2923392859261314f565b6040805182815234602082015233917f8fafebcaf9d154343dad25669bfa277f4fbacd7ac6b0c4fed522580e040a0f3391015b60405180910390a250506110096001603255565b565b611013613255565b848314801561102157508281145b61103d5760405162461bcd60e51b8152600401610d6b906140a9565b5f5b858110156113e35761107687878381811061105c5761105c6140d8565b90506020020160208101906110719190613bbc565b6132b0565b6110b15760405162461bcd60e51b815260206004820152600c60248201526b24b73b30b634b2103ab9b2b960a11b6044820152606401610d6b565b60885f8484848181106110c6576110c66140d8565b602090810292909201358352508101919091526040015f205460ff161561112b5760405162461bcd60e51b815260206004820152601960248201527814185e5b595b9d08185b1c9958591e481c1c9bd8d95cdcd959603a1b6044820152606401610d6b565b607254858583818110611140576111406140d8565b90506020020135606c600701546111579190614096565b11156111755760405162461bcd60e51b8152600401610d6b906140ec565b600160885f85858581811061118c5761118c6140d8565b9050602002013581526020019081526020015f205f6101000a81548160ff0219169083151502179055508484828181106111c8576111c86140d8565b9050602002013560825f8989858181106111e4576111e46140d8565b90506020020160208101906111f99190613bbc565b6001600160a01b03166001600160a01b031681526020019081526020015f205f8282546112269190614096565b90915550859050848281811061123e5761123e6140d8565b90506020020135606c6007015f8282546112589190614096565b909155506112b79050878783818110611273576112736140d8565b90506020020160208101906112889190613bbc565b86868481811061129a5761129a6140d8565b9050602002013560795f015460796001015460796002015461314f565b8686828181106112c9576112c96140d8565b90506020020160208101906112de9190613bbc565b6001600160a01b03167f8fafebcaf9d154343dad25669bfa277f4fbacd7ac6b0c4fed522580e040a0f3386868481811061131a5761131a6140d8565b905060200201355f604051611339929190918252602082015260400190565b60405180910390a2828282818110611353576113536140d8565b9050602002013587878381811061136c5761136c6140d8565b90506020020160208101906113819190613bbc565b6001600160a01b03167ff7fbd7b10bb4753c87113cbf609a1b1dcc1268c0bf39e562d08df1bff21ff0258787858181106113bd576113bd6140d8565b905060200201356040516113d391815260200190565b60405180910390a360010161103f565b50505050505050565b6113f4613255565b60758390556076829055607781905560408051848152602081018490527f12c54ca5f11040a432de6bac8e45ffe120504728957f073b147379acab58f844910160405180910390a1505050565b6069545f906001600160a01b03166114935760405162461bcd60e51b815260206004820152601560248201527413dc9858db19481b9bdd0818dbdb999a59dd5c9959605a1b6044820152606401610d6b565b60695460408051633fabe5a360e21b815290515f926001600160a01b03169163feaf968c9160048083019260a09291908290030181865afa1580156114da573d5f5f3e3d5ffd5b505050506040513d601f19601f820116820180604052508101906114fe9190614133565b5050509150505f811361154a5760405162461bcd60e51b8152602060048201526014602482015273496e76616c6964206f7261636c6520707269636560601b6044820152606401610d6b565b919050565b60805442111561159a5760405162461bcd60e51b8152602060048201526016602482015275105a5c991c9bdc081c195c9a5bd908195e1c1a5c995960521b6044820152606401610d6b565b335f9081526087602052604090205460ff16156115f95760405162461bcd60e51b815260206004820152601760248201527f41697264726f7020616c726561647920636c61696d65640000000000000000006044820152606401610d6b565b6040516bffffffffffffffffffffffff193360601b166020820152603481018290525f906054016040516020818303038152906040528051906020012090506116788484808060200260200160405190810160405280939291908181526020018383602002808284375f9201919091525050607f54915084905061331c565b6116bb5760405162461bcd60e51b815260206004820152601460248201527324b73b30b634b21036b2b935b63290383937b7b360611b6044820152606401610d6b565b335f908152608760205260408120805460ff19166001179055608180548492906116e6908490614096565b9091555050607c54607d54607e54611701923392869261314f565b60405182815233907f650e45f04ef8a0c267b2f78d983913f69ae3a353b2b32de5429307522be0ab55906020015b60405180910390a250505050565b611745613255565b82611769816001600160a01b03165f90815260836020526040902054600416151590565b156117a95760405162461bcd60e51b815260206004820152601060248201526f155cd95c88189b1858dadb1a5cdd195960821b6044820152606401610d6b565b6001600160a01b0381165f908152608360205260409020546001166118075760405162461bcd60e51b8152602060048201526014602482015273155cd95c881b9bdd081dda1a5d195b1a5cdd195960621b6044820152606401610d6b565b6001600160a01b0381165f908152608360205260409020546002166118665760405162461bcd60e51b8152602060048201526015602482015274155cd95c881b9bdd0812d650c81d995c9a599a5959605a1b6044820152606401610d6b565b5f8281526088602052604090205460ff16156118c05760405162461bcd60e51b815260206004820152601960248201527814185e5b595b9d08185b1c9958591e481c1c9bd8d95cdcd959603a1b6044820152606401610d6b565b6072546073546118d1908590614096565b11156118ef5760405162461bcd60e51b8152600401610d6b906140ec565b5f828152608860209081526040808320805460ff191660011790556001600160a01b038716835260829091528120805485929061192d908490614096565b9091555050607380548491905f90611946908490614096565b9091555050607954607a54607b54611961928792879261314f565b604080518481525f60208201526001600160a01b038616917f8fafebcaf9d154343dad25669bfa277f4fbacd7ac6b0c4fed522580e040a0f33910160405180910390a281846001600160a01b03167ff7fbd7b10bb4753c87113cbf609a1b1dcc1268c0bf39e562d08df1bff21ff025856040516119e091815260200190565b60405180910390a350505050565b6119f6613255565b611009613331565b611a06613255565b6001600160a01b03919091165f908152608960205260409020805460ff1916911515919091179055565b611a38613382565b611a4182613426565b611a4b828261342e565b5050565b5f611a586134ea565b505f5160206142a55f395f51905f5290565b335f908152608960205260409020547f3114365664767534a65ed86f6b30d534fcb3cd028269d38aacd8479cf73cd7a89060ff16611aea5760405162461bcd60e51b815260206004820152601e60248201527f4e6f7420617574686f72697a6564206d756c7469736967207369676e657200006044820152606401610d6b565b5f818152608a60205260408120805491611b0383614181565b90915550506077545f828152608a60205260409020541015611b675760405162461bcd60e51b815260206004820152601f60248201527f496e73756666696369656e74206d756c746973696720617070726f76616c73006044820152606401610d6b565b5f818152608a602052604081205560745460ff1615611bc15760405162461bcd60e51b815260206004820152601660248201527514d85b1948185b1c9958591e48199a5b985b1a5e995960521b6044820152606401610d6b565b6074805461ffff191660011790556040517f69f3cc4e34492a96604c6a9068df274385221039516ee176167f6defd2d195ee90611c019047815260200190565b60405180910390a150565b611c14613255565b828114611c335760405162461bcd60e51b8152600401610d6b906140a9565b5f5b83811015611ca157828282818110611c4f57611c4f6140d8565b9050602002013560835f878785818110611c6b57611c6b6140d8565b9050602002016020810190611c809190613bbc565b6001600160a01b0316815260208101919091526040015f2055600101611c35565b5050505050565b6001600160a01b0381165f90815260826020526040812054908080808080611ccf88611dc7565b6001600160a01b03989098165f908152608b60209081526040808320600190810154608484528285205460839094529190932054999b909991985091811615159650600281161515955060041615159350915050565b611d2d613255565b6001600160a01b038116611d775760405162461bcd60e51b8152602060048201526011602482015270125b9d985b1a59081c9958da5c1a595b9d607a1b6044820152606401610d6b565b478015611a4b576040516001600160a01b0383169082156108fc029083905f818181858888f19350505050158015611db1573d5f5f3e3d5ffd5b505050565b611dbe613255565b6110095f613533565b6001600160a01b0381165f908152608b60209081526040808320815160e081018352815481526001820154938101939093526002810154918301919091526003810154606083015260048101546080830152600581015460a08301526006015460ff1615801560c083015280611e4f575080608001518160400151611e4c9190614096565b42105b15611e5c57505f92915050565b5f816040015142611e6d9190614199565b905081606001518110611e935760208201518251611e8b9190614199565b949350505050565b5f60648360a00151845f0151611ea991906141ac565b611eb391906141c3565b90505f81845f0151611ec59190614199565b90505f8285608001518660600151611edd9190614199565b6080870151611eec9087614199565b611ef690856141ac565b611f0091906141c3565b611f0a9190614096565b9050846020015181611f1c9190614199565b979650505050505050565b611f2f613255565b6110096135a3565b611f3f613255565b858710611f835760405162461bcd60e51b8152602060048201526012602482015271496e76616c69642074696d652072616e676560701b6044820152606401610d6b565b81831115611fd35760405162461bcd60e51b815260206004820152601960248201527f496e76616c69642063617020636f6e66696775726174696f6e000000000000006044820152606401610d6b565b606c96909655606d94909455606e92909255606f55607055607155607255565b611ffb613255565b5f5b81811015611db1575f838383818110612018576120186140d8565b905060200201602081019061202d9190613bbc565b6001600160a01b0381165f908152608b6020526040902060068101549192509060ff16801561205c5750805415155b15612146575f61206b83611dc7565b905080156121445780826001015f8282546120869190614096565b909155505060645460405163a9059cbb60e01b81526001600160a01b038581166004830152602482018490529091169063a9059cbb906044016020604051808303815f875af11580156120db573d5f5f3e3d5ffd5b505050506040513d601f19601f820116820180604052508101906120ff91906141e2565b50826001600160a01b03167f896e034966eaaf1adc54acc0f257056febbd300c9e47182cf761982cf1f5e4308260405161213b91815260200190565b60405180910390a25b505b5050600101611ffd565b612158613255565b607f91909155608055565b61216b613255565b828211156121bb5760405162461bcd60e51b815260206004820152601b60248201527f496e76616c696420636c69666620636f6e66696775726174696f6e00000000006044820152606401610d6b565b60648111156122075760405162461bcd60e51b8152602060048201526018602482015277496e76616c696420636c6966662070657263656e7461676560401b6044820152606401610d6b565b607992909255607a55607b55565b61221d613255565b60689490945560698054921515600160a01b026001600160a81b03199093166001600160a01b039094169390931791909117909155606a55606b805491151560ff19909216919091179055565b612272613255565b828211156122c25760405162461bcd60e51b815260206004820152601b60248201527f496e76616c696420636c69666620636f6e66696775726174696f6e00000000006044820152606401610d6b565b606481111561230e5760405162461bcd60e51b8152602060048201526018602482015277496e76616c696420636c6966662070657263656e7461676560401b6044820152606401610d6b565b607c92909255607d55607e55565b335f908152608960205260409020547f731281df435fb3ac8209b35dd5bf0581e52a20e6aceb30aa1cf328306d7ec2209060ff1661239c5760405162461bcd60e51b815260206004820152601e60248201527f4e6f7420617574686f72697a6564206d756c7469736967207369676e657200006044820152606401610d6b565b5f818152608a602052604081208054916123b583614181565b90915550506077545f828152608a602052604090205410156124195760405162461bcd60e51b815260206004820152601f60248201527f496e73756666696369656e74206d756c746973696720617070726f76616c73006044820152606401610d6b565b5f818152608a602052604081205560745460ff1661246e5760405162461bcd60e51b815260206004820152601260248201527114d85b19481b9bdd08199a5b985b1a5e995960721b6044820152606401610d6b565b6064546040516370a0823160e01b81523060048201525f916001600160a01b0316906370a0823190602401602060405180830381865afa1580156124b4573d5f5f3e3d5ffd5b505050506040513d601f19601f820116820180604052508101906124d891906141fd565b90508015611a4b5760645460655460405163a9059cbb60e01b81526001600160a01b0391821660048201526024810184905291169063a9059cbb906044016020604051808303815f875af1158015612532573d5f5f3e3d5ffd5b505050506040513d601f19601f82011682018060405250810190611db191906141e2565b5f61255f6135df565b805490915060ff600160401b82041615906001600160401b03165f811580156125855750825b90505f826001600160401b031660011480156125a05750303b155b9050811580156125ae575080155b156125cc5760405163f92ee8a960e01b815260040160405180910390fd5b845467ffffffffffffffff1916600117855583156125f657845460ff60401b1916600160401b1785555b6001600160a01b0389166126445760405162461bcd60e51b8152602060048201526015602482015274496e76616c696420746f6b656e206164647265737360581b6044820152606401610d6b565b6001600160a01b0388166126905760405162461bcd60e51b8152602060048201526013602482015272125b9d985b1a5908199d5b99081dd85b1b195d606a1b6044820152606401610d6b565b6001600160a01b0387166126db5760405162461bcd60e51b8152602060048201526012602482015271125b9d985b1a5908199959481dd85b1b195d60721b6044820152606401610d6b565b6103e886111561272d5760405162461bcd60e51b815260206004820152601760248201527f4665652070657263656e7461676520746f6f20686967680000000000000000006044820152606401610d6b565b61273633613607565b61273e613618565b612746613620565b61274e613630565b606480546001600160a01b038b81166001600160a01b03199283168117909355606580548c8316908416811790915560668054928c1692909316821790925560678990556074805461ff0019166101001790556001607755604080519384526020840192909252908201527fb6ca29b69e5e9e082ae73a4c1d0def95d12b340d9c2c19da843fb5687286bfe69060600160405180910390a1831561282c57845460ff60401b19168555604051600181527fc7f505b2f371ae2175ee4913f4499e1f2633a7b5936321eed1cdaeb6115181d29060200160405180910390a15b505050505050505050565b61283f612e03565b607454610100900460ff1661288c5760405162461bcd60e51b81526020600482015260136024820152721499599d5b991cc81b9bdd08195b98589b1959606a1b6044820152606401610d6b565b606d54421180156128a05750607054607354105b6128ec5760405162461bcd60e51b815260206004820152601960248201527f526566756e6420636f6e646974696f6e73206e6f74206d6574000000000000006044820152606401610d6b565b335f908152608460205260409020548061293e5760405162461bcd60e51b81526020600482015260136024820152724e6f20726566756e6420617661696c61626c6560681b6044820152606401610d6b565b335f818152608460205260408082208290555183156108fc0291849190818181858888f19350505050158015612976573d5f5f3e3d5ffd5b5060405181815233907f3367befd2b2f39615cd79917c2153263c4af1d3945ec003e5d5bfc13a8d858339060200160405180910390a2506110096001603255565b6129bf613255565b88871480156129cd57508685145b80156129d857508483145b80156129e357508281145b6129ff5760405162461bcd60e51b8152600401610d6b906140a9565b5f5b89811015612aa457612a9c8b8b83818110612a1e57612a1e6140d8565b9050602002016020810190612a339190613bbc565b8a8a84818110612a4557612a456140d8565b90506020020135898985818110612a5e57612a5e6140d8565b90506020020135888886818110612a7757612a776140d8565b90506020020135878787818110612a9057612a906140d8565b9050602002013561314f565b600101612a01565b507f80eca6ad465c07f90192b0cd05c75dc1c6738ce23048480f6454b595e71d923a8a8a8a8a604051612ada9493929190614214565b60405180910390a150505050505050505050565b612af6612e03565b335f908152608b60205260409020600681015460ff16612b585760405162461bcd60e51b815260206004820152601a60248201527f4e6f206163746976652076657374696e67207363686564756c650000000000006044820152606401610d6b565b8054612b9b5760405162461bcd60e51b81526020600482015260126024820152714e6f20746f6b656e7320746f20636c61696d60701b6044820152606401610d6b565b5f612ba533611dc7565b90505f8111612bf65760405162461bcd60e51b815260206004820152601d60248201527f4e6f20746f6b656e7320617661696c61626c6520666f7220636c61696d0000006044820152606401610d6b565b80826001015f828254612c099190614096565b909155505060645460405163a9059cbb60e01b8152336004820152602481018390526001600160a01b039091169063a9059cbb906044016020604051808303815f875af1158015612c5c573d5f5f3e3d5ffd5b505050506040513d601f19601f82011682018060405250810190612c8091906141e2565b5060405181815233907f896e034966eaaf1adc54acc0f257056febbd300c9e47182cf761982cf1f5e43090602001610ff5565b612cbb613255565b6001600160a01b038116612ce457604051631e4fbdf760e01b81525f6004820152602401610d6b565b612ced81613533565b50565b612cf8613255565b6001600160a01b039091165f90815260836020526040902055565b612d4e6040518060e001604052805f81526020015f81526020015f81526020015f81526020015f81526020015f81526020015f151581525090565b506001600160a01b03165f908152608b6020908152604091829020825160e081018452815481526001820154928101929092526002810154928201929092526003820154606082015260048201546080820152600582015460a082015260069091015460ff16151560c082015290565b5f5460ff16156110095760405162461bcd60e51b815260206004820152601060248201526f14185d5cd8589b194e881c185d5cd95960821b6044820152606401610d6b565b600260325403612e555760405162461bcd60e51b815260206004820152601f60248201527f5265656e7472616e637947756172643a207265656e7472616e742063616c6c006044820152606401610d6b565b6002603255565b5f5f612e6783613640565b905060685481612e7791906141ac565b9392505050565b606e54811115612ed05760405162461bcd60e51b815260206004820152601b60248201527f45786365656473206d617820706572207472616e73616374696f6e00000000006044820152606401610d6b565b607554811115612f225760405162461bcd60e51b815260206004820152601860248201527f4578636565647320616e74692d7768616c65206c696d697400000000000000006044820152606401610d6b565b606f546001600160a01b0383165f90815260826020526040902054612f48908390614096565b1115612f8d5760405162461bcd60e51b8152602060048201526014602482015273115e18d959591cc81dd85b1b195d081b1a5b5a5d60621b6044820152606401610d6b565b607154607354612f9e908390614096565b1115612fdf5760405162461bcd60e51b815260206004820152601060248201526f0457863656564732068617264206361760841b6044820152606401610d6b565b607254607354612ff0908390614096565b1115611a4b5760405162461bcd60e51b8152600401610d6b906140ec565b6001600160a01b0383165f9081526082602052604081208054849290613035908490614096565b9091555050607380548391905f9061304e908490614096565b90915550506001600160a01b0383165f908152608460205260408120805483929061307a908490614096565b90915550506001600160a01b0383165f90815260856020526040902042905560675415611db1575f612710606754836130b391906141ac565b6130bd91906141c3565b90508060756003015f8282546130d39190614096565b90915550506066546040516001600160a01b039091169082156108fc029083905f818181858888f1935050505015801561310f573d5f5f3e3d5ffd5b506066546040518281526001600160a01b03909116907f34e8a84e537ed93d93ddf39a78816dcbc74df8397c635838b8cc973d4fa943f89060200161172f565b6040518060e001604052808581526020015f815260200142815260200184815260200183815260200182815260200160011515815250608b5f876001600160a01b03166001600160a01b031681526020019081526020015f205f820151815f01556020820151816001015560408201518160020155606082015181600301556080820151816004015560a0820151816005015560c0820151816006015f6101000a81548160ff021916908315150217905550905050846001600160a01b03167f969705509595726740fe60cc30769bbd53c883efff4d8e70108a82817e0392a98560405161323f91815260200190565b60405180910390a25050505050565b6001603255565b336132877f9016d09d72d40fdae2fd8ceac6b6234c7706214fd39c1cd1e609a0528c199300546001600160a01b031690565b6001600160a01b0316146110095760405163118cdaa760e01b8152336004820152602401610d6b565b6001600160a01b0381165f90815260836020526040812054600116151580156132f257506001600160a01b0382165f9081526083602052604090205460021615155b801561331657506001600160a01b0382165f90815260836020526040902054600416155b92915050565b5f8261332885846137b8565b14949350505050565b6133396137fa565b5f805460ff191690557f5db9ee0a495bf2e6ff9c91a7834c1ba4fdd244a5e8aa4e537bd38aeae4b073aa335b6040516001600160a01b03909116815260200160405180910390a1565b306001600160a01b037f000000000000000000000000000000000000000000000000000000000000000016148061340857507f00000000000000000000000000000000000000000000000000000000000000006001600160a01b03166133fc5f5160206142a55f395f51905f52546001600160a01b031690565b6001600160a01b031614155b156110095760405163703e46dd60e11b815260040160405180910390fd5b612ced613255565b816001600160a01b03166352d1902d6040518163ffffffff1660e01b8152600401602060405180830381865afa925050508015613488575060408051601f3d908101601f19168201909252613485918101906141fd565b60015b6134b057604051634c9c8ce360e01b81526001600160a01b0383166004820152602401610d6b565b5f5160206142a55f395f51905f5281146134e057604051632a87526960e21b815260048101829052602401610d6b565b611db18383613842565b306001600160a01b037f000000000000000000000000000000000000000000000000000000000000000016146110095760405163703e46dd60e11b815260040160405180910390fd5b7f9016d09d72d40fdae2fd8ceac6b6234c7706214fd39c1cd1e609a0528c19930080546001600160a01b031981166001600160a01b03848116918217845560405192169182907f8be0079c531659141344cd1fd0a4f28419497f9722a3daafe3b4186f6b6457e0905f90a3505050565b6135ab612dbe565b5f805460ff191660011790557f62e78cea01bee320cd4e420270b5ea74000d11b0c9f74754ebdbfc544b05a2586133653390565b5f807ff0c57e16840df040f15088dc2f81fe391c3923bec73e23a9662efc9c229c6a00613316565b61360f613897565b612ced816138bc565b611009613897565b613628613897565b6110096138c4565b613638613897565b6110096138d7565b606b545f9060ff161561366e57670de0b6b3a7640000606a548361366491906141ac565b61331691906141c3565b606954600160a01b900460ff16156137a7576069546001600160a01b03166136d05760405162461bcd60e51b815260206004820152601560248201527413dc9858db19481b9bdd0818dbdb999a59dd5c9959605a1b6044820152606401610d6b565b60695460408051633fabe5a360e21b815290515f926001600160a01b03169163feaf968c9160048083019260a09291908290030181865afa158015613717573d5f5f3e3d5ffd5b505050506040513d601f19601f8201168201806040525081019061373b9190614133565b5050509150505f81136137875760405162461bcd60e51b8152602060048201526014602482015273496e76616c6964206f7261636c6520707269636560601b6044820152606401610d6b565b6a52b7d2dcc80cd2e400000061379d82856141ac565b612e7791906141c3565b61331666038d7ea4c68000836141c3565b5f81815b84518110156137f2576137e8828683815181106137db576137db6140d8565b60200260200101516138df565b91506001016137bc565b509392505050565b5f5460ff166110095760405162461bcd60e51b815260206004820152601460248201527314185d5cd8589b194e881b9bdd081c185d5cd95960621b6044820152606401610d6b565b61384b82613908565b6040516001600160a01b038316907fbc7cd75a20ee27fd9adebab32041f755214dbc6bffa90cc0225b39da2e5c2d3b905f90a280511561388f57611db1828261396b565b611a4b6139dd565b61389f6139fc565b61100957604051631afcd79f60e31b815260040160405180910390fd5b612cbb613897565b6138cc613897565b5f805460ff19169055565b61324e613897565b5f8183106138f9575f828152602084905260409020612e77565b505f9182526020526040902090565b806001600160a01b03163b5f0361393d57604051634c9c8ce360e01b81526001600160a01b0382166004820152602401610d6b565b5f5160206142a55f395f51905f5280546001600160a01b0319166001600160a01b0392909216919091179055565b60605f5f846001600160a01b031684604051613987919061428e565b5f60405180830381855af49150503d805f81146139bf576040519150601f19603f3d011682016040523d82523d5f602084013e6139c4565b606091505b50915091506139d4858383613a15565b95945050505050565b34156110095760405163b398979f60e01b815260040160405180910390fd5b5f613a056135df565b54600160401b900460ff16919050565b606082613a2a57613a2582613a71565b612e77565b8151158015613a4157506001600160a01b0384163b155b15613a6a57604051639996b31560e01b81526001600160a01b0385166004820152602401610d6b565b5080612e77565b805115613a815780518082602001fd5b60405163d6bda27560e01b815260040160405180910390fd5b5f5f83601f840112613aaa575f5ffd5b5081356001600160401b03811115613ac0575f5ffd5b6020830191508360208260051b8501011115613ada575f5ffd5b9250929050565b5f5f5f5f5f5f60608789031215613af6575f5ffd5b86356001600160401b03811115613b0b575f5ffd5b613b1789828a01613a9a565b90975095505060208701356001600160401b03811115613b35575f5ffd5b613b4189828a01613a9a565b90955093505060408701356001600160401b03811115613b5f575f5ffd5b613b6b89828a01613a9a565b979a9699509497509295939492505050565b5f5f5f60608486031215613b8f575f5ffd5b505081359360208301359350604090920135919050565b80356001600160a01b038116811461154a575f5ffd5b5f60208284031215613bcc575f5ffd5b612e7782613ba6565b5f5f5f60408486031215613be7575f5ffd5b83356001600160401b03811115613bfc575f5ffd5b613c0886828701613a9a565b909790965060209590950135949350505050565b5f5f5f60608486031215613c2e575f5ffd5b613c3784613ba6565b95602085013595506040909401359392505050565b8015158114612ced575f5ffd5b5f5f60408385031215613c6a575f5ffd5b613c7383613ba6565b91506020830135613c8381613c4c565b809150509250929050565b634e487b7160e01b5f52604160045260245ffd5b5f5f60408385031215613cb3575f5ffd5b613cbc83613ba6565b915060208301356001600160401b03811115613cd6575f5ffd5b8301601f81018513613ce6575f5ffd5b80356001600160401b03811115613cff57613cff613c8e565b604051601f8201601f19908116603f011681016001600160401b0381118282101715613d2d57613d2d613c8e565b604052818152828201602001871015613d44575f5ffd5b816020840160208301375f602083830101528093505050509250929050565b5f5f5f5f60408587031215613d76575f5ffd5b84356001600160401b03811115613d8b575f5ffd5b613d9787828801613a9a565b90955093505060208501356001600160401b03811115613db5575f5ffd5b613dc187828801613a9a565b95989497509550505050565b5f60208284031215613ddd575f5ffd5b5035919050565b5f5f5f5f5f5f5f60e0888a031215613dfa575f5ffd5b505085359760208701359750604087013596606081013596506080810135955060a0810135945060c0013592509050565b5f5f60208385031215613e3c575f5ffd5b82356001600160401b03811115613e51575f5ffd5b613e5d85828601613a9a565b90969095509350505050565b5f5f60408385031215613e7a575f5ffd5b50508035926020909101359150565b602081525f82518060208401528060208501604085015e5f604082850101526040601f19601f83011684010191505092915050565b5f5f5f5f5f60a08688031215613ed2575f5ffd5b85359450613ee260208701613ba6565b93506040860135613ef281613c4c565b9250606086013591506080860135613f0981613c4c565b809150509295509295909350565b5f5f5f5f60808587031215613f2a575f5ffd5b613f3385613ba6565b9350613f4160208601613ba6565b9250613f4f60408601613ba6565b9396929550929360600135925050565b5f5f5f5f5f5f5f5f5f5f60a08b8d031215613f78575f5ffd5b8a356001600160401b03811115613f8d575f5ffd5b613f998d828e01613a9a565b909b5099505060208b01356001600160401b03811115613fb7575f5ffd5b613fc38d828e01613a9a565b90995097505060408b01356001600160401b03811115613fe1575f5ffd5b613fed8d828e01613a9a565b90975095505060608b01356001600160401b0381111561400b575f5ffd5b6140178d828e01613a9a565b90955093505060808b01356001600160401b03811115614035575f5ffd5b6140418d828e01613a9a565b915080935050809150509295989b9194979a5092959850565b5f5f6040838503121561406b575f5ffd5b61407483613ba6565b946020939093013593505050565b634e487b7160e01b5f52601160045260245ffd5b8082018082111561331657613316614082565b602080825260159082015274082e4e4c2f240d8cadccee8d040dad2e6dac2e8c6d605b1b604082015260600190565b634e487b7160e01b5f52603260045260245ffd5b6020808252601490820152734578636565647320746f74616c20737570706c7960601b604082015260600190565b805169ffffffffffffffffffff8116811461154a575f5ffd5b5f5f5f5f5f60a08688031215614147575f5ffd5b6141508661411a565b602087015160408801516060890151929750909550935091506141756080870161411a565b90509295509295909350565b5f6001820161419257614192614082565b5060010190565b8181038181111561331657613316614082565b808202811582820484141761331657613316614082565b5f826141dd57634e487b7160e01b5f52601260045260245ffd5b500490565b5f602082840312156141f2575f5ffd5b8151612e7781613c4c565b5f6020828403121561420d575f5ffd5b5051919050565b604080825281018490525f8560608301825b87811015614254576001600160a01b0361423f84613ba6565b16825260209283019290910190600101614226565b5083810360208501528481526001600160fb1b03851115614273575f5ffd5b8460051b915081866020830137016020019695505050505050565b5f82518060208501845e5f92019182525091905056fe360894a13ba1a3210667c828492db98dca3e2076cc3735a920a3ca505d382bbca264697066735822122060186a12e007dcabe1a022f84d5d588b7397d1e13b2adc2d8b439eb0040f3bd064736f6c634300081e0033",
			"opcodes": "PUSH1 0xA0 PUSH1 0x40 MSTORE ADDRESS PUSH1 0x80 MSTORE CALLVALUE DUP1 ISZERO PUSH1 0x12 JUMPI PUSH0 PUSH0 REVERT JUMPDEST POP PUSH1 0x80 MLOAD PUSH2 0x42FA PUSH2 0x39 PUSH0 CODECOPY PUSH0 DUP2 DUP2 PUSH2 0x338D ADD MSTORE DUP2 DUP2 PUSH2 0x33B6 ADD MSTORE PUSH2 0x34F5 ADD MSTORE PUSH2 0x42FA PUSH0 RETURN INVALID PUSH1 0x80 PUSH1 0x40 MSTORE PUSH1 0x4 CALLDATASIZE LT PUSH2 0x37F JUMPI PUSH0 CALLDATALOAD PUSH1 0xE0 SHR DUP1 PUSH4 0x90AA0B0F GT PUSH2 0x1D3 JUMPI DUP1 PUSH4 0xCF756FDF GT PUSH2 0xFD JUMPI DUP1 PUSH4 0xF25F4B56 GT PUSH2 0x9D JUMPI DUP1 PUSH4 0xF71CC3A5 GT PUSH2 0x6D JUMPI DUP1 PUSH4 0xF71CC3A5 EQ PUSH2 0xBAF JUMPI DUP1 PUSH4 0xFB897CE4 EQ PUSH2 0xBCE JUMPI DUP1 PUSH4 0xFC0C546A EQ PUSH2 0xC44 JUMPI DUP1 PUSH4 0xFDB20CCB EQ PUSH2 0xC63 JUMPI PUSH0 PUSH0 REVERT JUMPDEST DUP1 PUSH4 0xF25F4B56 EQ PUSH2 0xB18 JUMPI DUP1 PUSH4 0xF2FDE38B EQ PUSH2 0xB37 JUMPI DUP1 PUSH4 0xF3F247EB EQ PUSH2 0xB56 JUMPI DUP1 PUSH4 0xF43B05E9 EQ PUSH2 0xB84 JUMPI PUSH0 PUSH0 REVERT JUMPDEST DUP1 PUSH4 0xDB83694C GT PUSH2 0xD8 JUMPI DUP1 PUSH4 0xDB83694C EQ PUSH2 0xA59 JUMPI DUP1 PUSH4 0xDEFA27F9 EQ PUSH2 0xACC JUMPI DUP1 PUSH4 0xE74F3FBB EQ PUSH2 0xAEB JUMPI DUP1 PUSH4 0xE82BA406 EQ PUSH2 0xAFF JUMPI PUSH0 PUSH0 REVERT JUMPDEST DUP1 PUSH4 0xCF756FDF EQ PUSH2 0x9F8 JUMPI DUP1 PUSH4 0xD1B6DD30 EQ PUSH2 0xA17 JUMPI DUP1 PUSH4 0xDAE80521 EQ PUSH2 0xA45 JUMPI PUSH0 PUSH0 REVERT JUMPDEST DUP1 PUSH4 0xA59989AC GT PUSH2 0x173 JUMPI DUP1 PUSH4 0xB9EDB3A5 GT PUSH2 0x143 JUMPI DUP1 PUSH4 0xB9EDB3A5 EQ PUSH2 0x965 JUMPI DUP1 PUSH4 0xBA3586F0 EQ PUSH2 0x983 JUMPI DUP1 PUSH4 0xBE11B1D0 EQ PUSH2 0x9A2 JUMPI DUP1 PUSH4 0xC8BDBFB6 EQ PUSH2 0x9E4 JUMPI PUSH0 PUSH0 REVERT JUMPDEST DUP1 PUSH4 0xA59989AC EQ PUSH2 0x8BC JUMPI DUP1 PUSH4 0xAD3CB1CC EQ PUSH2 0x8DB JUMPI DUP1 PUSH4 0xB2CFD4B7 EQ PUSH2 0x918 JUMPI DUP1 PUSH4 0xB4519398 EQ PUSH2 0x937 JUMPI PUSH0 PUSH0 REVERT JUMPDEST DUP1 PUSH4 0xA001ECDD GT PUSH2 0x1AE JUMPI DUP1 PUSH4 0xA001ECDD EQ PUSH2 0x854 JUMPI DUP1 PUSH4 0xA1E98A6D EQ PUSH2 0x869 JUMPI DUP1 PUSH4 0xA281C0CE EQ PUSH2 0x87E JUMPI DUP1 PUSH4 0xA4369A6F EQ PUSH2 0x89D JUMPI PUSH0 PUSH0 REVERT JUMPDEST DUP1 PUSH4 0x90AA0B0F EQ PUSH2 0x790 JUMPI DUP1 PUSH4 0x997F5070 EQ PUSH2 0x820 JUMPI DUP1 PUSH4 0x9F8ED38D EQ PUSH2 0x83F JUMPI PUSH0 PUSH0 REVERT JUMPDEST DUP1 PUSH4 0x44878724 GT PUSH2 0x2B4 JUMPI DUP1 PUSH4 0x664A1AD6 GT PUSH2 0x254 JUMPI DUP1 PUSH4 0x8456CB59 GT PUSH2 0x224 JUMPI DUP1 PUSH4 0x8456CB59 EQ PUSH2 0x6EA JUMPI DUP1 PUSH4 0x86CBF53A EQ PUSH2 0x6FE JUMPI DUP1 PUSH4 0x891B591B EQ PUSH2 0x729 JUMPI DUP1 PUSH4 0x8DA5CB5B EQ PUSH2 0x754 JUMPI PUSH0 PUSH0 REVERT JUMPDEST DUP1 PUSH4 0x664A1AD6 EQ PUSH2 0x679 JUMPI DUP1 PUSH4 0x6FF1C9BC EQ PUSH2 0x698 JUMPI DUP1 PUSH4 0x715018A6 EQ PUSH2 0x6B7 JUMPI DUP1 PUSH4 0x7274F7FD EQ PUSH2 0x6CB JUMPI PUSH0 PUSH0 REVERT JUMPDEST DUP1 PUSH4 0x58A687EC GT PUSH2 0x28F JUMPI DUP1 PUSH4 0x58A687EC EQ PUSH2 0x5D6 JUMPI DUP1 PUSH4 0x5C975ABB EQ PUSH2 0x5EA JUMPI DUP1 PUSH4 0x624253D6 EQ PUSH2 0x600 JUMPI DUP1 PUSH4 0x6386C1C7 EQ PUSH2 0x61F JUMPI PUSH0 PUSH0 REVERT JUMPDEST DUP1 PUSH4 0x44878724 EQ PUSH2 0x57F JUMPI DUP1 PUSH4 0x4F1EF286 EQ PUSH2 0x5AF JUMPI DUP1 PUSH4 0x52D1902D EQ PUSH2 0x5C2 JUMPI PUSH0 PUSH0 REVERT JUMPDEST DUP1 PUSH4 0x2A246139 GT PUSH2 0x31F JUMPI DUP1 PUSH4 0x398348E5 GT PUSH2 0x2FA JUMPI DUP1 PUSH4 0x398348E5 EQ PUSH2 0x502 JUMPI DUP1 PUSH4 0x39F65C09 EQ PUSH2 0x521 JUMPI DUP1 PUSH4 0x3F4BA83A EQ PUSH2 0x54C JUMPI DUP1 PUSH4 0x4357C013 EQ PUSH2 0x560 JUMPI PUSH0 PUSH0 REVERT JUMPDEST DUP1 PUSH4 0x2A246139 EQ PUSH2 0x4C7 JUMPI DUP1 PUSH4 0x3290CE29 EQ PUSH2 0x4DB JUMPI DUP1 PUSH4 0x3335252B EQ PUSH2 0x4E3 JUMPI PUSH0 PUSH0 REVERT JUMPDEST DUP1 PUSH4 0x20D8C796 GT PUSH2 0x35A JUMPI DUP1 PUSH4 0x20D8C796 EQ PUSH2 0x40D JUMPI DUP1 PUSH4 0x225D29A1 EQ PUSH2 0x42C JUMPI DUP1 PUSH4 0x227A14C1 EQ PUSH2 0x465 JUMPI DUP1 PUSH4 0x2630C12F EQ PUSH2 0x490 JUMPI PUSH0 PUSH0 REVERT JUMPDEST DUP1 PUSH4 0x9CE871C EQ PUSH2 0x392 JUMPI DUP1 PUSH4 0xC38D039 EQ PUSH2 0x3D0 JUMPI DUP1 PUSH4 0xCB0D5F8 EQ PUSH2 0x3EF JUMPI PUSH0 PUSH0 REVERT JUMPDEST CALLDATASIZE PUSH2 0x38E JUMPI PUSH2 0x38C PUSH2 0xCF3 JUMP JUMPDEST STOP JUMPDEST PUSH0 PUSH0 REVERT JUMPDEST CALLVALUE DUP1 ISZERO PUSH2 0x39D JUMPI PUSH0 PUSH0 REVERT JUMPDEST POP PUSH1 0x7C SLOAD PUSH1 0x7D SLOAD PUSH1 0x7E SLOAD PUSH2 0x3B0 SWAP3 SWAP2 SWAP1 DUP4 JUMP JUMPDEST PUSH1 0x40 DUP1 MLOAD SWAP4 DUP5 MSTORE PUSH1 0x20 DUP5 ADD SWAP3 SWAP1 SWAP3 MSTORE SWAP1 DUP3 ADD MSTORE PUSH1 0x60 ADD JUMPDEST PUSH1 0x40 MLOAD DUP1 SWAP2 SUB SWAP1 RETURN JUMPDEST CALLVALUE DUP1 ISZERO PUSH2 0x3DB JUMPI PUSH0 PUSH0 REVERT JUMPDEST POP PUSH2 0x38C PUSH2 0x3EA CALLDATASIZE PUSH1 0x4 PUSH2 0x3AE1 JUMP JUMPDEST PUSH2 0x100B JUMP JUMPDEST CALLVALUE DUP1 ISZERO PUSH2 0x3FA JUMPI PUSH0 PUSH0 REVERT JUMPDEST POP PUSH1 0x7F SLOAD PUSH1 0x80 SLOAD PUSH1 0x81 SLOAD PUSH2 0x3B0 SWAP3 SWAP2 SWAP1 DUP4 JUMP JUMPDEST CALLVALUE DUP1 ISZERO PUSH2 0x418 JUMPI PUSH0 PUSH0 REVERT JUMPDEST POP PUSH2 0x38C PUSH2 0x427 CALLDATASIZE PUSH1 0x4 PUSH2 0x3B7D JUMP JUMPDEST PUSH2 0x13EC JUMP JUMPDEST CALLVALUE DUP1 ISZERO PUSH2 0x437 JUMPI PUSH0 PUSH0 REVERT JUMPDEST POP PUSH2 0x457 PUSH2 0x446 CALLDATASIZE PUSH1 0x4 PUSH2 0x3BBC JUMP JUMPDEST PUSH1 0x83 PUSH1 0x20 MSTORE PUSH0 SWAP1 DUP2 MSTORE PUSH1 0x40 SWAP1 KECCAK256 SLOAD DUP2 JUMP JUMPDEST PUSH1 0x40 MLOAD SWAP1 DUP2 MSTORE PUSH1 0x20 ADD PUSH2 0x3C7 JUMP JUMPDEST CALLVALUE DUP1 ISZERO PUSH2 0x470 JUMPI PUSH0 PUSH0 REVERT JUMPDEST POP PUSH2 0x457 PUSH2 0x47F CALLDATASIZE PUSH1 0x4 PUSH2 0x3BBC JUMP JUMPDEST PUSH1 0x85 PUSH1 0x20 MSTORE PUSH0 SWAP1 DUP2 MSTORE PUSH1 0x40 SWAP1 KECCAK256 SLOAD DUP2 JUMP JUMPDEST CALLVALUE DUP1 ISZERO PUSH2 0x49B JUMPI PUSH0 PUSH0 REVERT JUMPDEST POP PUSH1 0x69 SLOAD PUSH2 0x4AF SWAP1 PUSH1 0x1 PUSH1 0x1 PUSH1 0xA0 SHL SUB AND DUP2 JUMP JUMPDEST PUSH1 0x40 MLOAD PUSH1 0x1 PUSH1 0x1 PUSH1 0xA0 SHL SUB SWAP1 SWAP2 AND DUP2 MSTORE PUSH1 0x20 ADD PUSH2 0x3C7 JUMP JUMPDEST CALLVALUE DUP1 ISZERO PUSH2 0x4D2 JUMPI PUSH0 PUSH0 REVERT JUMPDEST POP PUSH2 0x457 PUSH2 0x1441 JUMP JUMPDEST PUSH2 0x38C PUSH2 0xCF3 JUMP JUMPDEST CALLVALUE DUP1 ISZERO PUSH2 0x4EE JUMPI PUSH0 PUSH0 REVERT JUMPDEST POP PUSH2 0x38C PUSH2 0x4FD CALLDATASIZE PUSH1 0x4 PUSH2 0x3BD5 JUMP JUMPDEST PUSH2 0x154F JUMP JUMPDEST CALLVALUE DUP1 ISZERO PUSH2 0x50D JUMPI PUSH0 PUSH0 REVERT JUMPDEST POP PUSH2 0x38C PUSH2 0x51C CALLDATASIZE PUSH1 0x4 PUSH2 0x3C1C JUMP JUMPDEST PUSH2 0x173D JUMP JUMPDEST CALLVALUE DUP1 ISZERO PUSH2 0x52C JUMPI PUSH0 PUSH0 REVERT JUMPDEST POP PUSH2 0x457 PUSH2 0x53B CALLDATASIZE PUSH1 0x4 PUSH2 0x3BBC JUMP JUMPDEST PUSH1 0x82 PUSH1 0x20 MSTORE PUSH0 SWAP1 DUP2 MSTORE PUSH1 0x40 SWAP1 KECCAK256 SLOAD DUP2 JUMP JUMPDEST CALLVALUE DUP1 ISZERO PUSH2 0x557 JUMPI PUSH0 PUSH0 REVERT JUMPDEST POP PUSH2 0x38C PUSH2 0x19EE JUMP JUMPDEST CALLVALUE DUP1 ISZERO PUSH2 0x56B JUMPI PUSH0 PUSH0 REVERT JUMPDEST POP PUSH2 0x38C PUSH2 0x57A CALLDATASIZE PUSH1 0x4 PUSH2 0x3C59 JUMP JUMPDEST PUSH2 0x19FE JUMP JUMPDEST CALLVALUE DUP1 ISZERO PUSH2 0x58A JUMPI PUSH0 PUSH0 REVERT JUMPDEST POP PUSH1 0x69 SLOAD PUSH2 0x59F SWAP1 PUSH1 0x1 PUSH1 0xA0 SHL SWAP1 DIV PUSH1 0xFF AND DUP2 JUMP JUMPDEST PUSH1 0x40 MLOAD SWAP1 ISZERO ISZERO DUP2 MSTORE PUSH1 0x20 ADD PUSH2 0x3C7 JUMP JUMPDEST PUSH2 0x38C PUSH2 0x5BD CALLDATASIZE PUSH1 0x4 PUSH2 0x3CA2 JUMP JUMPDEST PUSH2 0x1A30 JUMP JUMPDEST CALLVALUE DUP1 ISZERO PUSH2 0x5CD JUMPI PUSH0 PUSH0 REVERT JUMPDEST POP PUSH2 0x457 PUSH2 0x1A4F JUMP JUMPDEST CALLVALUE DUP1 ISZERO PUSH2 0x5E1 JUMPI PUSH0 PUSH0 REVERT JUMPDEST POP PUSH2 0x38C PUSH2 0x1A6A JUMP JUMPDEST CALLVALUE DUP1 ISZERO PUSH2 0x5F5 JUMPI PUSH0 PUSH0 REVERT JUMPDEST POP PUSH0 SLOAD PUSH1 0xFF AND PUSH2 0x59F JUMP JUMPDEST CALLVALUE DUP1 ISZERO PUSH2 0x60B JUMPI PUSH0 PUSH0 REVERT JUMPDEST POP PUSH2 0x38C PUSH2 0x61A CALLDATASIZE PUSH1 0x4 PUSH2 0x3D63 JUMP JUMPDEST PUSH2 0x1C0C JUMP JUMPDEST CALLVALUE DUP1 ISZERO PUSH2 0x62A JUMPI PUSH0 PUSH0 REVERT JUMPDEST POP PUSH2 0x63E PUSH2 0x639 CALLDATASIZE PUSH1 0x4 PUSH2 0x3BBC JUMP JUMPDEST PUSH2 0x1CA8 JUMP JUMPDEST PUSH1 0x40 DUP1 MLOAD SWAP8 DUP9 MSTORE PUSH1 0x20 DUP9 ADD SWAP7 SWAP1 SWAP7 MSTORE SWAP5 DUP7 ADD SWAP4 SWAP1 SWAP4 MSTORE PUSH1 0x60 DUP6 ADD SWAP2 SWAP1 SWAP2 MSTORE ISZERO ISZERO PUSH1 0x80 DUP5 ADD MSTORE ISZERO ISZERO PUSH1 0xA0 DUP4 ADD MSTORE ISZERO ISZERO PUSH1 0xC0 DUP3 ADD MSTORE PUSH1 0xE0 ADD PUSH2 0x3C7 JUMP JUMPDEST CALLVALUE DUP1 ISZERO PUSH2 0x684 JUMPI PUSH0 PUSH0 REVERT JUMPDEST POP PUSH1 0x65 SLOAD PUSH2 0x4AF SWAP1 PUSH1 0x1 PUSH1 0x1 PUSH1 0xA0 SHL SUB AND DUP2 JUMP JUMPDEST CALLVALUE DUP1 ISZERO PUSH2 0x6A3 JUMPI PUSH0 PUSH0 REVERT JUMPDEST POP PUSH2 0x38C PUSH2 0x6B2 CALLDATASIZE PUSH1 0x4 PUSH2 0x3BBC JUMP JUMPDEST PUSH2 0x1D25 JUMP JUMPDEST CALLVALUE DUP1 ISZERO PUSH2 0x6C2 JUMPI PUSH0 PUSH0 REVERT JUMPDEST POP PUSH2 0x38C PUSH2 0x1DB6 JUMP JUMPDEST CALLVALUE DUP1 ISZERO PUSH2 0x6D6 JUMPI PUSH0 PUSH0 REVERT JUMPDEST POP PUSH2 0x457 PUSH2 0x6E5 CALLDATASIZE PUSH1 0x4 PUSH2 0x3BBC JUMP JUMPDEST PUSH2 0x1DC7 JUMP JUMPDEST CALLVALUE DUP1 ISZERO PUSH2 0x6F5 JUMPI PUSH0 PUSH0 REVERT JUMPDEST POP PUSH2 0x38C PUSH2 0x1F27 JUMP JUMPDEST CALLVALUE DUP1 ISZERO PUSH2 0x709 JUMPI PUSH0 PUSH0 REVERT JUMPDEST POP PUSH2 0x457 PUSH2 0x718 CALLDATASIZE PUSH1 0x4 PUSH2 0x3BBC JUMP JUMPDEST PUSH1 0x86 PUSH1 0x20 MSTORE PUSH0 SWAP1 DUP2 MSTORE PUSH1 0x40 SWAP1 KECCAK256 SLOAD DUP2 JUMP JUMPDEST CALLVALUE DUP1 ISZERO PUSH2 0x734 JUMPI PUSH0 PUSH0 REVERT JUMPDEST POP PUSH2 0x457 PUSH2 0x743 CALLDATASIZE PUSH1 0x4 PUSH2 0x3DCD JUMP JUMPDEST PUSH1 0x8A PUSH1 0x20 MSTORE PUSH0 SWAP1 DUP2 MSTORE PUSH1 0x40 SWAP1 KECCAK256 SLOAD DUP2 JUMP JUMPDEST CALLVALUE DUP1 ISZERO PUSH2 0x75F JUMPI PUSH0 PUSH0 REVERT JUMPDEST POP PUSH32 0x9016D09D72D40FDAE2FD8CEAC6B6234C7706214FD39C1CD1E609A0528C199300 SLOAD PUSH1 0x1 PUSH1 0x1 PUSH1 0xA0 SHL SUB AND PUSH2 0x4AF JUMP JUMPDEST CALLVALUE DUP1 ISZERO PUSH2 0x79B JUMPI PUSH0 PUSH0 REVERT JUMPDEST POP PUSH1 0x6C SLOAD PUSH1 0x6D SLOAD PUSH1 0x6E SLOAD PUSH1 0x6F SLOAD PUSH1 0x70 SLOAD PUSH1 0x71 SLOAD PUSH1 0x72 SLOAD PUSH1 0x73 SLOAD PUSH1 0x74 SLOAD PUSH2 0x7D2 SWAP9 SWAP8 SWAP7 SWAP6 SWAP5 SWAP4 SWAP3 SWAP2 SWAP1 PUSH1 0xFF DUP1 DUP3 AND SWAP2 PUSH2 0x100 SWAP1 DIV AND DUP11 JUMP JUMPDEST PUSH1 0x40 DUP1 MLOAD SWAP11 DUP12 MSTORE PUSH1 0x20 DUP12 ADD SWAP10 SWAP1 SWAP10 MSTORE SWAP8 DUP10 ADD SWAP7 SWAP1 SWAP7 MSTORE PUSH1 0x60 DUP9 ADD SWAP5 SWAP1 SWAP5 MSTORE PUSH1 0x80 DUP8 ADD SWAP3 SWAP1 SWAP3 MSTORE PUSH1 0xA0 DUP7 ADD MSTORE PUSH1 0xC0 DUP6 ADD MSTORE PUSH1 0xE0 DUP5 ADD MSTORE ISZERO ISZERO PUSH2 0x100 DUP4 ADD MSTORE ISZERO ISZERO PUSH2 0x120 DUP3 ADD MSTORE PUSH2 0x140 ADD PUSH2 0x3C7 JUMP JUMPDEST CALLVALUE DUP1 ISZERO PUSH2 0x82B JUMPI PUSH0 PUSH0 REVERT JUMPDEST POP PUSH2 0x38C PUSH2 0x83A CALLDATASIZE PUSH1 0x4 PUSH2 0x3DE4 JUMP JUMPDEST PUSH2 0x1F37 JUMP JUMPDEST CALLVALUE DUP1 ISZERO PUSH2 0x84A JUMPI PUSH0 PUSH0 REVERT JUMPDEST POP PUSH2 0x457 PUSH1 0x6A SLOAD DUP2 JUMP JUMPDEST CALLVALUE DUP1 ISZERO PUSH2 0x85F JUMPI PUSH0 PUSH0 REVERT JUMPDEST POP PUSH2 0x457 PUSH1 0x67 SLOAD DUP2 JUMP JUMPDEST CALLVALUE DUP1 ISZERO PUSH2 0x874 JUMPI PUSH0 PUSH0 REVERT JUMPDEST POP PUSH2 0x457 PUSH1 0x68 SLOAD DUP2 JUMP JUMPDEST CALLVALUE DUP1 ISZERO PUSH2 0x889 JUMPI PUSH0 PUSH0 REVERT JUMPDEST POP PUSH2 0x38C PUSH2 0x898 CALLDATASIZE PUSH1 0x4 PUSH2 0x3E2B JUMP JUMPDEST PUSH2 0x1FF3 JUMP JUMPDEST CALLVALUE DUP1 ISZERO PUSH2 0x8A8 JUMPI PUSH0 PUSH0 REVERT JUMPDEST POP PUSH2 0x38C PUSH2 0x8B7 CALLDATASIZE PUSH1 0x4 PUSH2 0x3E69 JUMP JUMPDEST PUSH2 0x2150 JUMP JUMPDEST CALLVALUE DUP1 ISZERO PUSH2 0x8C7 JUMPI PUSH0 PUSH0 REVERT JUMPDEST POP PUSH2 0x38C PUSH2 0x8D6 CALLDATASIZE PUSH1 0x4 PUSH2 0x3B7D JUMP JUMPDEST PUSH2 0x2163 JUMP JUMPDEST CALLVALUE DUP1 ISZERO PUSH2 0x8E6 JUMPI PUSH0 PUSH0 REVERT JUMPDEST POP PUSH2 0x90B PUSH1 0x40 MLOAD DUP1 PUSH1 0x40 ADD PUSH1 0x40 MSTORE DUP1 PUSH1 0x5 DUP2 MSTORE PUSH1 0x20 ADD PUSH5 0x352E302E3 PUSH1 0xDC SHL DUP2 MSTORE POP DUP2 JUMP JUMPDEST PUSH1 0x40 MLOAD PUSH2 0x3C7 SWAP2 SWAP1 PUSH2 0x3E89 JUMP JUMPDEST CALLVALUE DUP1 ISZERO PUSH2 0x923 JUMPI PUSH0 PUSH0 REVERT JUMPDEST POP PUSH2 0x38C PUSH2 0x932 CALLDATASIZE PUSH1 0x4 PUSH2 0x3EBE JUMP JUMPDEST PUSH2 0x2215 JUMP JUMPDEST CALLVALUE DUP1 ISZERO PUSH2 0x942 JUMPI PUSH0 PUSH0 REVERT JUMPDEST POP PUSH2 0x59F PUSH2 0x951 CALLDATASIZE PUSH1 0x4 PUSH2 0x3BBC JUMP JUMPDEST PUSH1 0x89 PUSH1 0x20 MSTORE PUSH0 SWAP1 DUP2 MSTORE PUSH1 0x40 SWAP1 KECCAK256 SLOAD PUSH1 0xFF AND DUP2 JUMP JUMPDEST CALLVALUE DUP1 ISZERO PUSH2 0x970 JUMPI PUSH0 PUSH0 REVERT JUMPDEST POP PUSH1 0x79 SLOAD PUSH1 0x7A SLOAD PUSH1 0x7B SLOAD PUSH2 0x3B0 SWAP3 SWAP2 SWAP1 DUP4 JUMP JUMPDEST CALLVALUE DUP1 ISZERO PUSH2 0x98E JUMPI PUSH0 PUSH0 REVERT JUMPDEST POP PUSH2 0x38C PUSH2 0x99D CALLDATASIZE PUSH1 0x4 PUSH2 0x3B7D JUMP JUMPDEST PUSH2 0x226A JUMP JUMPDEST CALLVALUE DUP1 ISZERO PUSH2 0x9AD JUMPI PUSH0 PUSH0 REVERT JUMPDEST POP PUSH1 0x75 SLOAD PUSH1 0x76 SLOAD PUSH1 0x77 SLOAD PUSH1 0x78 SLOAD PUSH2 0x9C4 SWAP4 SWAP3 SWAP2 SWAP1 DUP5 JUMP JUMPDEST PUSH1 0x40 DUP1 MLOAD SWAP5 DUP6 MSTORE PUSH1 0x20 DUP6 ADD SWAP4 SWAP1 SWAP4 MSTORE SWAP2 DUP4 ADD MSTORE PUSH1 0x60 DUP3 ADD MSTORE PUSH1 0x80 ADD PUSH2 0x3C7 JUMP JUMPDEST CALLVALUE DUP1 ISZERO PUSH2 0x9EF JUMPI PUSH0 PUSH0 REVERT JUMPDEST POP PUSH2 0x38C PUSH2 0x231C JUMP JUMPDEST CALLVALUE DUP1 ISZERO PUSH2 0xA03 JUMPI PUSH0 PUSH0 REVERT JUMPDEST POP PUSH2 0x38C PUSH2 0xA12 CALLDATASIZE PUSH1 0x4 PUSH2 0x3F17 JUMP JUMPDEST PUSH2 0x2556 JUMP JUMPDEST CALLVALUE DUP1 ISZERO PUSH2 0xA22 JUMPI PUSH0 PUSH0 REVERT JUMPDEST POP PUSH2 0x59F PUSH2 0xA31 CALLDATASIZE PUSH1 0x4 PUSH2 0x3BBC JUMP JUMPDEST PUSH1 0x87 PUSH1 0x20 MSTORE PUSH0 SWAP1 DUP2 MSTORE PUSH1 0x40 SWAP1 KECCAK256 SLOAD PUSH1 0xFF AND DUP2 JUMP JUMPDEST CALLVALUE DUP1 ISZERO PUSH2 0xA50 JUMPI PUSH0 PUSH0 REVERT JUMPDEST POP PUSH2 0x38C PUSH2 0x2837 JUMP JUMPDEST CALLVALUE DUP1 ISZERO PUSH2 0xA64 JUMPI PUSH0 PUSH0 REVERT JUMPDEST POP PUSH1 0x6C SLOAD PUSH1 0x6D SLOAD PUSH1 0x73 SLOAD PUSH1 0x72 SLOAD PUSH1 0x70 SLOAD PUSH1 0x71 SLOAD PUSH1 0x74 SLOAD PUSH1 0x68 SLOAD PUSH1 0x40 DUP1 MLOAD SWAP9 DUP10 MSTORE PUSH1 0x20 DUP10 ADD SWAP8 SWAP1 SWAP8 MSTORE SWAP6 DUP8 ADD SWAP5 SWAP1 SWAP5 MSTORE PUSH1 0x60 DUP7 ADD SWAP3 SWAP1 SWAP3 MSTORE PUSH1 0x80 DUP6 ADD MSTORE PUSH1 0xA0 DUP5 ADD MSTORE PUSH1 0xFF DUP1 DUP3 AND ISZERO ISZERO PUSH1 0xC0 DUP6 ADD MSTORE PUSH2 0x100 SWAP2 DUP3 SWAP1 DIV AND ISZERO ISZERO PUSH1 0xE0 DUP5 ADD MSTORE DUP3 ADD MSTORE PUSH2 0x120 ADD PUSH2 0x3C7 JUMP JUMPDEST CALLVALUE DUP1 ISZERO PUSH2 0xAD7 JUMPI PUSH0 PUSH0 REVERT JUMPDEST POP PUSH2 0x38C PUSH2 0xAE6 CALLDATASIZE PUSH1 0x4 PUSH2 0x3F5F JUMP JUMPDEST PUSH2 0x29B7 JUMP JUMPDEST CALLVALUE DUP1 ISZERO PUSH2 0xAF6 JUMPI PUSH0 PUSH0 REVERT JUMPDEST POP PUSH2 0x38C PUSH2 0x2AEE JUMP JUMPDEST CALLVALUE DUP1 ISZERO PUSH2 0xB0A JUMPI PUSH0 PUSH0 REVERT JUMPDEST POP PUSH1 0x6B SLOAD PUSH2 0x59F SWAP1 PUSH1 0xFF AND DUP2 JUMP JUMPDEST CALLVALUE DUP1 ISZERO PUSH2 0xB23 JUMPI PUSH0 PUSH0 REVERT JUMPDEST POP PUSH1 0x66 SLOAD PUSH2 0x4AF SWAP1 PUSH1 0x1 PUSH1 0x1 PUSH1 0xA0 SHL SUB AND DUP2 JUMP JUMPDEST CALLVALUE DUP1 ISZERO PUSH2 0xB42 JUMPI PUSH0 PUSH0 REVERT JUMPDEST POP PUSH2 0x38C PUSH2 0xB51 CALLDATASIZE PUSH1 0x4 PUSH2 0x3BBC JUMP JUMPDEST PUSH2 0x2CB3 JUMP JUMPDEST CALLVALUE DUP1 ISZERO PUSH2 0xB61 JUMPI PUSH0 PUSH0 REVERT JUMPDEST POP PUSH2 0x59F PUSH2 0xB70 CALLDATASIZE PUSH1 0x4 PUSH2 0x3DCD JUMP JUMPDEST PUSH1 0x88 PUSH1 0x20 MSTORE PUSH0 SWAP1 DUP2 MSTORE PUSH1 0x40 SWAP1 KECCAK256 SLOAD PUSH1 0xFF AND DUP2 JUMP JUMPDEST CALLVALUE DUP1 ISZERO PUSH2 0xB8F JUMPI PUSH0 PUSH0 REVERT JUMPDEST POP PUSH2 0x457 PUSH2 0xB9E CALLDATASIZE PUSH1 0x4 PUSH2 0x3BBC JUMP JUMPDEST PUSH1 0x84 PUSH1 0x20 MSTORE PUSH0 SWAP1 DUP2 MSTORE PUSH1 0x40 SWAP1 KECCAK256 SLOAD DUP2 JUMP JUMPDEST CALLVALUE DUP1 ISZERO PUSH2 0xBBA JUMPI PUSH0 PUSH0 REVERT JUMPDEST POP PUSH2 0x38C PUSH2 0xBC9 CALLDATASIZE PUSH1 0x4 PUSH2 0x405A JUMP JUMPDEST PUSH2 0x2CF0 JUMP JUMPDEST CALLVALUE DUP1 ISZERO PUSH2 0xBD9 JUMPI PUSH0 PUSH0 REVERT JUMPDEST POP PUSH2 0xBED PUSH2 0xBE8 CALLDATASIZE PUSH1 0x4 PUSH2 0x3BBC JUMP JUMPDEST PUSH2 0x2D13 JUMP JUMPDEST PUSH1 0x40 MLOAD PUSH2 0x3C7 SWAP2 SWAP1 PUSH0 PUSH1 0xE0 DUP3 ADD SWAP1 POP DUP3 MLOAD DUP3 MSTORE PUSH1 0x20 DUP4 ADD MLOAD PUSH1 0x20 DUP4 ADD MSTORE PUSH1 0x40 DUP4 ADD MLOAD PUSH1 0x40 DUP4 ADD MSTORE PUSH1 0x60 DUP4 ADD MLOAD PUSH1 0x60 DUP4 ADD MSTORE PUSH1 0x80 DUP4 ADD MLOAD PUSH1 0x80 DUP4 ADD MSTORE PUSH1 0xA0 DUP4 ADD MLOAD PUSH1 0xA0 DUP4 ADD MSTORE PUSH1 0xC0 DUP4 ADD MLOAD ISZERO ISZERO PUSH1 0xC0 DUP4 ADD MSTORE SWAP3 SWAP2 POP POP JUMP JUMPDEST CALLVALUE DUP1 ISZERO PUSH2 0xC4F JUMPI PUSH0 PUSH0 REVERT JUMPDEST POP PUSH1 0x64 SLOAD PUSH2 0x4AF SWAP1 PUSH1 0x1 PUSH1 0x1 PUSH1 0xA0 SHL SUB AND DUP2 JUMP JUMPDEST CALLVALUE DUP1 ISZERO PUSH2 0xC6E JUMPI PUSH0 PUSH0 REVERT JUMPDEST POP PUSH2 0xCBC PUSH2 0xC7D CALLDATASIZE PUSH1 0x4 PUSH2 0x3BBC JUMP JUMPDEST PUSH1 0x8B PUSH1 0x20 MSTORE PUSH0 SWAP1 DUP2 MSTORE PUSH1 0x40 SWAP1 KECCAK256 DUP1 SLOAD PUSH1 0x1 DUP3 ADD SLOAD PUSH1 0x2 DUP4 ADD SLOAD PUSH1 0x3 DUP5 ADD SLOAD PUSH1 0x4 DUP6 ADD SLOAD PUSH1 0x5 DUP7 ADD SLOAD PUSH1 0x6 SWAP1 SWAP7 ADD SLOAD SWAP5 SWAP6 SWAP4 SWAP5 SWAP3 SWAP4 SWAP2 SWAP3 SWAP1 SWAP2 SWAP1 PUSH1 0xFF AND DUP8 JUMP JUMPDEST PUSH1 0x40 DUP1 MLOAD SWAP8 DUP9 MSTORE PUSH1 0x20 DUP9 ADD SWAP7 SWAP1 SWAP7 MSTORE SWAP5 DUP7 ADD SWAP4 SWAP1 SWAP4 MSTORE PUSH1 0x60 DUP6 ADD SWAP2 SWAP1 SWAP2 MSTORE PUSH1 0x80 DUP5 ADD MSTORE PUSH1 0xA0 DUP4 ADD MSTORE ISZERO ISZERO PUSH1 0xC0 DUP3 ADD MSTORE PUSH1 0xE0 ADD PUSH2 0x3C7 JUMP JUMPDEST PUSH2 0xCFB PUSH2 0x2DBE JUMP JUMPDEST PUSH2 0xD03 PUSH2 0x2E03 JUMP JUMPDEST CALLER PUSH0 SWAP1 DUP2 MSTORE PUSH1 0x86 PUSH1 0x20 MSTORE PUSH1 0x40 SWAP1 KECCAK256 SLOAD NUMBER GT PUSH2 0xD74 JUMPI PUSH1 0x40 MLOAD PUSH3 0x461BCD PUSH1 0xE5 SHL DUP2 MSTORE PUSH1 0x20 PUSH1 0x4 DUP3 ADD MSTORE PUSH1 0x26 PUSH1 0x24 DUP3 ADD MSTORE PUSH32 0x4F6E6C79206F6E65207472616E73616374696F6E2070657220626C6F636B2061 PUSH1 0x44 DUP3 ADD MSTORE PUSH6 0x1B1B1BDDD959 PUSH1 0xD2 SHL PUSH1 0x64 DUP3 ADD MSTORE PUSH1 0x84 ADD JUMPDEST PUSH1 0x40 MLOAD DUP1 SWAP2 SUB SWAP1 REVERT JUMPDEST CALLER PUSH0 SWAP1 DUP2 MSTORE PUSH1 0x86 PUSH1 0x20 SWAP1 DUP2 MSTORE PUSH1 0x40 DUP1 DUP4 KECCAK256 NUMBER SWAP1 SSTORE PUSH1 0x76 SLOAD PUSH1 0x85 SWAP1 SWAP3 MSTORE SWAP1 SWAP2 KECCAK256 SLOAD PUSH2 0xD9E SWAP2 SWAP1 PUSH2 0x4096 JUMP JUMPDEST TIMESTAMP LT ISZERO PUSH2 0xDE6 JUMPI PUSH1 0x40 MLOAD PUSH3 0x461BCD PUSH1 0xE5 SHL DUP2 MSTORE PUSH1 0x20 PUSH1 0x4 DUP3 ADD MSTORE PUSH1 0x16 PUSH1 0x24 DUP3 ADD MSTORE PUSH22 0x436F6F6C646F776E20706572696F6420616374697665 PUSH1 0x50 SHL PUSH1 0x44 DUP3 ADD MSTORE PUSH1 0x64 ADD PUSH2 0xD6B JUMP JUMPDEST PUSH1 0x6C SLOAD TIMESTAMP LT DUP1 ISZERO SWAP1 PUSH2 0xDFA JUMPI POP PUSH1 0x6D SLOAD TIMESTAMP GT ISZERO JUMPDEST PUSH2 0xE38 JUMPI PUSH1 0x40 MLOAD PUSH3 0x461BCD PUSH1 0xE5 SHL DUP2 MSTORE PUSH1 0x20 PUSH1 0x4 DUP3 ADD MSTORE PUSH1 0xF PUSH1 0x24 DUP3 ADD MSTORE PUSH15 0x53616C65206E6F7420616374697665 PUSH1 0x88 SHL PUSH1 0x44 DUP3 ADD MSTORE PUSH1 0x64 ADD PUSH2 0xD6B JUMP JUMPDEST CALLER PUSH0 DUP2 DUP2 MSTORE PUSH1 0x83 PUSH1 0x20 MSTORE PUSH1 0x40 SWAP1 KECCAK256 SLOAD PUSH1 0x4 AND ISZERO PUSH2 0xE8A JUMPI PUSH1 0x40 MLOAD PUSH3 0x461BCD PUSH1 0xE5 SHL DUP2 MSTORE PUSH1 0x20 PUSH1 0x4 DUP3 ADD MSTORE PUSH1 0x10 PUSH1 0x24 DUP3 ADD MSTORE PUSH16 0x155CD95C88189B1858DADB1A5CDD1959 PUSH1 0x82 SHL PUSH1 0x44 DUP3 ADD MSTORE PUSH1 0x64 ADD PUSH2 0xD6B JUMP JUMPDEST PUSH1 0x1 PUSH1 0x1 PUSH1 0xA0 SHL SUB DUP2 AND PUSH0 SWAP1 DUP2 MSTORE PUSH1 0x83 PUSH1 0x20 MSTORE PUSH1 0x40 SWAP1 KECCAK256 SLOAD PUSH1 0x1 AND PUSH2 0xEE8 JUMPI PUSH1 0x40 MLOAD PUSH3 0x461BCD PUSH1 0xE5 SHL DUP2 MSTORE PUSH1 0x20 PUSH1 0x4 DUP3 ADD MSTORE PUSH1 0x14 PUSH1 0x24 DUP3 ADD MSTORE PUSH20 0x155CD95C881B9BDD081DDA1A5D195B1A5CDD1959 PUSH1 0x62 SHL PUSH1 0x44 DUP3 ADD MSTORE PUSH1 0x64 ADD PUSH2 0xD6B JUMP JUMPDEST PUSH1 0x1 PUSH1 0x1 PUSH1 0xA0 SHL SUB DUP2 AND PUSH0 SWAP1 DUP2 MSTORE PUSH1 0x83 PUSH1 0x20 MSTORE PUSH1 0x40 SWAP1 KECCAK256 SLOAD PUSH1 0x2 AND PUSH2 0xF47 JUMPI PUSH1 0x40 MLOAD PUSH3 0x461BCD PUSH1 0xE5 SHL DUP2 MSTORE PUSH1 0x20 PUSH1 0x4 DUP3 ADD MSTORE PUSH1 0x15 PUSH1 0x24 DUP3 ADD MSTORE PUSH21 0x155CD95C881B9BDD0812D650C81D995C9A599A5959 PUSH1 0x5A SHL PUSH1 0x44 DUP3 ADD MSTORE PUSH1 0x64 ADD PUSH2 0xD6B JUMP JUMPDEST PUSH0 CALLVALUE GT PUSH2 0xF8B JUMPI PUSH1 0x40 MLOAD PUSH3 0x461BCD PUSH1 0xE5 SHL DUP2 MSTORE PUSH1 0x20 PUSH1 0x4 DUP3 ADD MSTORE PUSH1 0x12 PUSH1 0x24 DUP3 ADD MSTORE PUSH18 0x125B9D985B1A590810939088185B5BDD5B9D PUSH1 0x72 SHL PUSH1 0x44 DUP3 ADD MSTORE PUSH1 0x64 ADD PUSH2 0xD6B JUMP JUMPDEST PUSH0 PUSH2 0xF95 CALLVALUE PUSH2 0x2E5C JUMP JUMPDEST SWAP1 POP PUSH2 0xFA1 CALLER DUP3 PUSH2 0x2E7E JUMP JUMPDEST PUSH2 0xFAC CALLER DUP3 CALLVALUE PUSH2 0x300E JUMP JUMPDEST PUSH1 0x79 SLOAD PUSH1 0x7A SLOAD PUSH1 0x7B SLOAD PUSH2 0xFC2 SWAP3 CALLER SWAP3 DUP6 SWAP3 PUSH2 0x314F JUMP JUMPDEST PUSH1 0x40 DUP1 MLOAD DUP3 DUP2 MSTORE CALLVALUE PUSH1 0x20 DUP3 ADD MSTORE CALLER SWAP2 PUSH32 0x8FAFEBCAF9D154343DAD25669BFA277F4FBACD7AC6B0C4FED522580E040A0F33 SWAP2 ADD JUMPDEST PUSH1 0x40 MLOAD DUP1 SWAP2 SUB SWAP1 LOG2 POP POP PUSH2 0x1009 PUSH1 0x1 PUSH1 0x32 SSTORE JUMP JUMPDEST JUMP JUMPDEST PUSH2 0x1013 PUSH2 0x3255 JUMP JUMPDEST DUP5 DUP4 EQ DUP1 ISZERO PUSH2 0x1021 JUMPI POP DUP3 DUP2 EQ JUMPDEST PUSH2 0x103D JUMPI PUSH1 0x40 MLOAD PUSH3 0x461BCD PUSH1 0xE5 SHL DUP2 MSTORE PUSH1 0x4 ADD PUSH2 0xD6B SWAP1 PUSH2 0x40A9 JUMP JUMPDEST PUSH0 JUMPDEST DUP6 DUP2 LT ISZERO PUSH2 0x13E3 JUMPI PUSH2 0x1076 DUP8 DUP8 DUP4 DUP2 DUP2 LT PUSH2 0x105C JUMPI PUSH2 0x105C PUSH2 0x40D8 JUMP JUMPDEST SWAP1 POP PUSH1 0x20 MUL ADD PUSH1 0x20 DUP2 ADD SWAP1 PUSH2 0x1071 SWAP2 SWAP1 PUSH2 0x3BBC JUMP JUMPDEST PUSH2 0x32B0 JUMP JUMPDEST PUSH2 0x10B1 JUMPI PUSH1 0x40 MLOAD PUSH3 0x461BCD PUSH1 0xE5 SHL DUP2 MSTORE PUSH1 0x20 PUSH1 0x4 DUP3 ADD MSTORE PUSH1 0xC PUSH1 0x24 DUP3 ADD MSTORE PUSH12 0x24B73B30B634B2103AB9B2B9 PUSH1 0xA1 SHL PUSH1 0x44 DUP3 ADD MSTORE PUSH1 0x64 ADD PUSH2 0xD6B JUMP JUMPDEST PUSH1 0x88 PUSH0 DUP5 DUP5 DUP5 DUP2 DUP2 LT PUSH2 0x10C6 JUMPI PUSH2 0x10C6 PUSH2 0x40D8 JUMP JUMPDEST PUSH1 0x20 SWAP1 DUP2 MUL SWAP3 SWAP1 SWAP3 ADD CALLDATALOAD DUP4 MSTORE POP DUP2 ADD SWAP2 SWAP1 SWAP2 MSTORE PUSH1 0x40 ADD PUSH0 KECCAK256 SLOAD PUSH1 0xFF AND ISZERO PUSH2 0x112B JUMPI PUSH1 0x40 MLOAD PUSH3 0x461BCD PUSH1 0xE5 SHL DUP2 MSTORE PUSH1 0x20 PUSH1 0x4 DUP3 ADD MSTORE PUSH1 0x19 PUSH1 0x24 DUP3 ADD MSTORE PUSH25 0x14185E5B595B9D08185B1C9958591E481C1C9BD8D95CDCD959 PUSH1 0x3A SHL PUSH1 0x44 DUP3 ADD MSTORE PUSH1 0x64 ADD PUSH2 0xD6B JUMP JUMPDEST PUSH1 0x72 SLOAD DUP6 DUP6 DUP4 DUP2 DUP2 LT PUSH2 0x1140 JUMPI PUSH2 0x1140 PUSH2 0x40D8 JUMP JUMPDEST SWAP1 POP PUSH1 0x20 MUL ADD CALLDATALOAD PUSH1 0x6C PUSH1 0x7 ADD SLOAD PUSH2 0x1157 SWAP2 SWAP1 PUSH2 0x4096 JUMP JUMPDEST GT ISZERO PUSH2 0x1175 JUMPI PUSH1 0x40 MLOAD PUSH3 0x461BCD PUSH1 0xE5 SHL DUP2 MSTORE PUSH1 0x4 ADD PUSH2 0xD6B SWAP1 PUSH2 0x40EC JUMP JUMPDEST PUSH1 0x1 PUSH1 0x88 PUSH0 DUP6 DUP6 DUP6 DUP2 DUP2 LT PUSH2 0x118C JUMPI PUSH2 0x118C PUSH2 0x40D8 JUMP JUMPDEST SWAP1 POP PUSH1 0x20 MUL ADD CALLDATALOAD DUP2 MSTORE PUSH1 0x20 ADD SWAP1 DUP2 MSTORE PUSH1 0x20 ADD PUSH0 KECCAK256 PUSH0 PUSH2 0x100 EXP DUP2 SLOAD DUP2 PUSH1 0xFF MUL NOT AND SWAP1 DUP4 ISZERO ISZERO MUL OR SWAP1 SSTORE POP DUP5 DUP5 DUP3 DUP2 DUP2 LT PUSH2 0x11C8 JUMPI PUSH2 0x11C8 PUSH2 0x40D8 JUMP JUMPDEST SWAP1 POP PUSH1 0x20 MUL ADD CALLDATALOAD PUSH1 0x82 PUSH0 DUP10 DUP10 DUP6 DUP2 DUP2 LT PUSH2 0x11E4 JUMPI PUSH2 0x11E4 PUSH2 0x40D8 JUMP JUMPDEST SWAP1 POP PUSH1 0x20 MUL ADD PUSH1 0x20 DUP2 ADD SWAP1 PUSH2 0x11F9 SWAP2 SWAP1 PUSH2 0x3BBC JUMP JUMPDEST PUSH1 0x1 PUSH1 0x1 PUSH1 0xA0 SHL SUB AND PUSH1 0x1 PUSH1 0x1 PUSH1 0xA0 SHL SUB AND DUP2 MSTORE PUSH1 0x20 ADD SWAP1 DUP2 MSTORE PUSH1 0x20 ADD PUSH0 KECCAK256 PUSH0 DUP3 DUP3 SLOAD PUSH2 0x1226 SWAP2 SWAP1 PUSH2 0x4096 JUMP JUMPDEST SWAP1 SWAP2 SSTORE POP DUP6 SWAP1 POP DUP5 DUP3 DUP2 DUP2 LT PUSH2 0x123E JUMPI PUSH2 0x123E PUSH2 0x40D8 JUMP JUMPDEST SWAP1 POP PUSH1 0x20 MUL ADD CALLDATALOAD PUSH1 0x6C PUSH1 0x7 ADD PUSH0 DUP3 DUP3 SLOAD PUSH2 0x1258 SWAP2 SWAP1 PUSH2 0x4096 JUMP JUMPDEST SWAP1 SWAP2 SSTORE POP PUSH2 0x12B7 SWAP1 POP DUP8 DUP8 DUP4 DUP2 DUP2 LT PUSH2 0x1273 JUMPI PUSH2 0x1273 PUSH2 0x40D8 JUMP JUMPDEST SWAP1 POP PUSH1 0x20 MUL ADD PUSH1 0x20 DUP2 ADD SWAP1 PUSH2 0x1288 SWAP2 SWAP1 PUSH2 0x3BBC JUMP JUMPDEST DUP7 DUP7 DUP5 DUP2 DUP2 LT PUSH2 0x129A JUMPI PUSH2 0x129A PUSH2 0x40D8 JUMP JUMPDEST SWAP1 POP PUSH1 0x20 MUL ADD CALLDATALOAD PUSH1 0x79 PUSH0 ADD SLOAD PUSH1 0x79 PUSH1 0x1 ADD SLOAD PUSH1 0x79 PUSH1 0x2 ADD SLOAD PUSH2 0x314F JUMP JUMPDEST DUP7 DUP7 DUP3 DUP2 DUP2 LT PUSH2 0x12C9 JUMPI PUSH2 0x12C9 PUSH2 0x40D8 JUMP JUMPDEST SWAP1 POP PUSH1 0x20 MUL ADD PUSH1 0x20 DUP2 ADD SWAP1 PUSH2 0x12DE SWAP2 SWAP1 PUSH2 0x3BBC JUMP JUMPDEST PUSH1 0x1 PUSH1 0x1 PUSH1 0xA0 SHL SUB AND PUSH32 0x8FAFEBCAF9D154343DAD25669BFA277F4FBACD7AC6B0C4FED522580E040A0F33 DUP7 DUP7 DUP5 DUP2 DUP2 LT PUSH2 0x131A JUMPI PUSH2 0x131A PUSH2 0x40D8 JUMP JUMPDEST SWAP1 POP PUSH1 0x20 MUL ADD CALLDATALOAD PUSH0 PUSH1 0x40 MLOAD PUSH2 0x1339 SWAP3 SWAP2 SWAP1 SWAP2 DUP3 MSTORE PUSH1 0x20 DUP3 ADD MSTORE PUSH1 0x40 ADD SWAP1 JUMP JUMPDEST PUSH1 0x40 MLOAD DUP1 SWAP2 SUB SWAP1 LOG2 DUP3 DUP3 DUP3 DUP2 DUP2 LT PUSH2 0x1353 JUMPI PUSH2 0x1353 PUSH2 0x40D8 JUMP JUMPDEST SWAP1 POP PUSH1 0x20 MUL ADD CALLDATALOAD DUP8 DUP8 DUP4 DUP2 DUP2 LT PUSH2 0x136C JUMPI PUSH2 0x136C PUSH2 0x40D8 JUMP JUMPDEST SWAP1 POP PUSH1 0x20 MUL ADD PUSH1 0x20 DUP2 ADD SWAP1 PUSH2 0x1381 SWAP2 SWAP1 PUSH2 0x3BBC JUMP JUMPDEST PUSH1 0x1 PUSH1 0x1 PUSH1 0xA0 SHL SUB AND PUSH32 0xF7FBD7B10BB4753C87113CBF609A1B1DCC1268C0BF39E562D08DF1BFF21FF025 DUP8 DUP8 DUP6 DUP2 DUP2 LT PUSH2 0x13BD JUMPI PUSH2 0x13BD PUSH2 0x40D8 JUMP JUMPDEST SWAP1 POP PUSH1 0x20 MUL ADD CALLDATALOAD PUSH1 0x40 MLOAD PUSH2 0x13D3 SWAP2 DUP2 MSTORE PUSH1 0x20 ADD SWAP1 JUMP JUMPDEST PUSH1 0x40 MLOAD DUP1 SWAP2 SUB SWAP1 LOG3 PUSH1 0x1 ADD PUSH2 0x103F JUMP JUMPDEST POP POP POP POP POP POP POP JUMP JUMPDEST PUSH2 0x13F4 PUSH2 0x3255 JUMP JUMPDEST PUSH1 0x75 DUP4 SWAP1 SSTORE PUSH1 0x76 DUP3 SWAP1 SSTORE PUSH1 0x77 DUP2 SWAP1 SSTORE PUSH1 0x40 DUP1 MLOAD DUP5 DUP2 MSTORE PUSH1 0x20 DUP2 ADD DUP5 SWAP1 MSTORE PUSH32 0x12C54CA5F11040A432DE6BAC8E45FFE120504728957F073B147379ACAB58F844 SWAP2 ADD PUSH1 0x40 MLOAD DUP1 SWAP2 SUB SWAP1 LOG1 POP POP POP JUMP JUMPDEST PUSH1 0x69 SLOAD PUSH0 SWAP1 PUSH1 0x1 PUSH1 0x1 PUSH1 0xA0 SHL SUB AND PUSH2 0x1493 JUMPI PUSH1 0x40 MLOAD PUSH3 0x461BCD PUSH1 0xE5 SHL DUP2 MSTORE PUSH1 0x20 PUSH1 0x4 DUP3 ADD MSTORE PUSH1 0x15 PUSH1 0x24 DUP3 ADD MSTORE PUSH21 0x13DC9858DB19481B9BDD0818DBDB999A59DD5C9959 PUSH1 0x5A SHL PUSH1 0x44 DUP3 ADD MSTORE PUSH1 0x64 ADD PUSH2 0xD6B JUMP JUMPDEST PUSH1 0x69 SLOAD PUSH1 0x40 DUP1 MLOAD PUSH4 0x3FABE5A3 PUSH1 0xE2 SHL DUP2 MSTORE SWAP1 MLOAD PUSH0 SWAP3 PUSH1 0x1 PUSH1 0x1 PUSH1 0xA0 SHL SUB AND SWAP2 PUSH4 0xFEAF968C SWAP2 PUSH1 0x4 DUP1 DUP4 ADD SWAP3 PUSH1 0xA0 SWAP3 SWAP2 SWAP1 DUP3 SWAP1 SUB ADD DUP2 DUP7 GAS STATICCALL ISZERO DUP1 ISZERO PUSH2 0x14DA JUMPI RETURNDATASIZE PUSH0 PUSH0 RETURNDATACOPY RETURNDATASIZE PUSH0 REVERT JUMPDEST POP POP POP POP PUSH1 0x40 MLOAD RETURNDATASIZE PUSH1 0x1F NOT PUSH1 0x1F DUP3 ADD AND DUP3 ADD DUP1 PUSH1 0x40 MSTORE POP DUP2 ADD SWAP1 PUSH2 0x14FE SWAP2 SWAP1 PUSH2 0x4133 JUMP JUMPDEST POP POP POP SWAP2 POP POP PUSH0 DUP2 SGT PUSH2 0x154A JUMPI PUSH1 0x40 MLOAD PUSH3 0x461BCD PUSH1 0xE5 SHL DUP2 MSTORE PUSH1 0x20 PUSH1 0x4 DUP3 ADD MSTORE PUSH1 0x14 PUSH1 0x24 DUP3 ADD MSTORE PUSH20 0x496E76616C6964206F7261636C65207072696365 PUSH1 0x60 SHL PUSH1 0x44 DUP3 ADD MSTORE PUSH1 0x64 ADD PUSH2 0xD6B JUMP JUMPDEST SWAP2 SWAP1 POP JUMP JUMPDEST PUSH1 0x80 SLOAD TIMESTAMP GT ISZERO PUSH2 0x159A JUMPI PUSH1 0x40 MLOAD PUSH3 0x461BCD PUSH1 0xE5 SHL DUP2 MSTORE PUSH1 0x20 PUSH1 0x4 DUP3 ADD MSTORE PUSH1 0x16 PUSH1 0x24 DUP3 ADD MSTORE PUSH22 0x105A5C991C9BDC081C195C9A5BD908195E1C1A5C9959 PUSH1 0x52 SHL PUSH1 0x44 DUP3 ADD MSTORE PUSH1 0x64 ADD PUSH2 0xD6B JUMP JUMPDEST CALLER PUSH0 SWAP1 DUP2 MSTORE PUSH1 0x87 PUSH1 0x20 MSTORE PUSH1 0x40 SWAP1 KECCAK256 SLOAD PUSH1 0xFF AND ISZERO PUSH2 0x15F9 JUMPI PUSH1 0x40 MLOAD PUSH3 0x461BCD PUSH1 0xE5 SHL DUP2 MSTORE PUSH1 0x20 PUSH1 0x4 DUP3 ADD MSTORE PUSH1 0x17 PUSH1 0x24 DUP3 ADD MSTORE PUSH32 0x41697264726F7020616C726561647920636C61696D6564000000000000000000 PUSH1 0x44 DUP3 ADD MSTORE PUSH1 0x64 ADD PUSH2 0xD6B JUMP JUMPDEST PUSH1 0x40 MLOAD PUSH12 0xFFFFFFFFFFFFFFFFFFFFFFFF NOT CALLER PUSH1 0x60 SHL AND PUSH1 0x20 DUP3 ADD MSTORE PUSH1 0x34 DUP2 ADD DUP3 SWAP1 MSTORE PUSH0 SWAP1 PUSH1 0x54 ADD PUSH1 0x40 MLOAD PUSH1 0x20 DUP2 DUP4 SUB SUB DUP2 MSTORE SWAP1 PUSH1 0x40 MSTORE DUP1 MLOAD SWAP1 PUSH1 0x20 ADD KECCAK256 SWAP1 POP PUSH2 0x1678 DUP5 DUP5 DUP1 DUP1 PUSH1 0x20 MUL PUSH1 0x20 ADD PUSH1 0x40 MLOAD SWAP1 DUP2 ADD PUSH1 0x40 MSTORE DUP1 SWAP4 SWAP3 SWAP2 SWAP1 DUP2 DUP2 MSTORE PUSH1 0x20 ADD DUP4 DUP4 PUSH1 0x20 MUL DUP1 DUP3 DUP5 CALLDATACOPY PUSH0 SWAP3 ADD SWAP2 SWAP1 SWAP2 MSTORE POP POP PUSH1 0x7F SLOAD SWAP2 POP DUP5 SWAP1 POP PUSH2 0x331C JUMP JUMPDEST PUSH2 0x16BB JUMPI PUSH1 0x40 MLOAD PUSH3 0x461BCD PUSH1 0xE5 SHL DUP2 MSTORE PUSH1 0x20 PUSH1 0x4 DUP3 ADD MSTORE PUSH1 0x14 PUSH1 0x24 DUP3 ADD MSTORE PUSH20 0x24B73B30B634B21036B2B935B63290383937B7B3 PUSH1 0x61 SHL PUSH1 0x44 DUP3 ADD MSTORE PUSH1 0x64 ADD PUSH2 0xD6B JUMP JUMPDEST CALLER PUSH0 SWAP1 DUP2 MSTORE PUSH1 0x87 PUSH1 0x20 MSTORE PUSH1 0x40 DUP2 KECCAK256 DUP1 SLOAD PUSH1 0xFF NOT AND PUSH1 0x1 OR SWAP1 SSTORE PUSH1 0x81 DUP1 SLOAD DUP5 SWAP3 SWAP1 PUSH2 0x16E6 SWAP1 DUP5 SWAP1 PUSH2 0x4096 JUMP JUMPDEST SWAP1 SWAP2 SSTORE POP POP PUSH1 0x7C SLOAD PUSH1 0x7D SLOAD PUSH1 0x7E SLOAD PUSH2 0x1701 SWAP3 CALLER SWAP3 DUP7 SWAP3 PUSH2 0x314F JUMP JUMPDEST PUSH1 0x40 MLOAD DUP3 DUP2 MSTORE CALLER SWAP1 PUSH32 0x650E45F04EF8A0C267B2F78D983913F69AE3A353B2B32DE5429307522BE0AB55 SWAP1 PUSH1 0x20 ADD JUMPDEST PUSH1 0x40 MLOAD DUP1 SWAP2 SUB SWAP1 LOG2 POP POP POP POP JUMP JUMPDEST PUSH2 0x1745 PUSH2 0x3255 JUMP JUMPDEST DUP3 PUSH2 0x1769 DUP2 PUSH1 0x1 PUSH1 0x1 PUSH1 0xA0 SHL SUB AND PUSH0 SWAP1 DUP2 MSTORE PUSH1 0x83 PUSH1 0x20 MSTORE PUSH1 0x40 SWAP1 KECCAK256 SLOAD PUSH1 0x4 AND ISZERO ISZERO SWAP1 JUMP JUMPDEST ISZERO PUSH2 0x17A9 JUMPI PUSH1 0x40 MLOAD PUSH3 0x461BCD PUSH1 0xE5 SHL DUP2 MSTORE PUSH1 0x20 PUSH1 0x4 DUP3 ADD MSTORE PUSH1 0x10 PUSH1 0x24 DUP3 ADD MSTORE PUSH16 0x155CD95C88189B1858DADB1A5CDD1959 PUSH1 0x82 SHL PUSH1 0x44 DUP3 ADD MSTORE PUSH1 0x64 ADD PUSH2 0xD6B JUMP JUMPDEST PUSH1 0x1 PUSH1 0x1 PUSH1 0xA0 SHL SUB DUP2 AND PUSH0 SWAP1 DUP2 MSTORE PUSH1 0x83 PUSH1 0x20 MSTORE PUSH1 0x40 SWAP1 KECCAK256 SLOAD PUSH1 0x1 AND PUSH2 0x1807 JUMPI PUSH1 0x40 MLOAD PUSH3 0x461BCD PUSH1 0xE5 SHL DUP2 MSTORE PUSH1 0x20 PUSH1 0x4 DUP3 ADD MSTORE PUSH1 0x14 PUSH1 0x24 DUP3 ADD MSTORE PUSH20 0x155CD95C881B9BDD081DDA1A5D195B1A5CDD1959 PUSH1 0x62 SHL PUSH1 0x44 DUP3 ADD MSTORE PUSH1 0x64 ADD PUSH2 0xD6B JUMP JUMPDEST PUSH1 0x1 PUSH1 0x1 PUSH1 0xA0 SHL SUB DUP2 AND PUSH0 SWAP1 DUP2 MSTORE PUSH1 0x83 PUSH1 0x20 MSTORE PUSH1 0x40 SWAP1 KECCAK256 SLOAD PUSH1 0x2 AND PUSH2 0x1866 JUMPI PUSH1 0x40 MLOAD PUSH3 0x461BCD PUSH1 0xE5 SHL DUP2 MSTORE PUSH1 0x20 PUSH1 0x4 DUP3 ADD MSTORE PUSH1 0x15 PUSH1 0x24 DUP3 ADD MSTORE PUSH21 0x155CD95C881B9BDD0812D650C81D995C9A599A5959 PUSH1 0x5A SHL PUSH1 0x44 DUP3 ADD MSTORE PUSH1 0x64 ADD PUSH2 0xD6B JUMP JUMPDEST PUSH0 DUP3 DUP2 MSTORE PUSH1 0x88 PUSH1 0x20 MSTORE PUSH1 0x40 SWAP1 KECCAK256 SLOAD PUSH1 0xFF AND ISZERO PUSH2 0x18C0 JUMPI PUSH1 0x40 MLOAD PUSH3 0x461BCD PUSH1 0xE5 SHL DUP2 MSTORE PUSH1 0x20 PUSH1 0x4 DUP3 ADD MSTORE PUSH1 0x19 PUSH1 0x24 DUP3 ADD MSTORE PUSH25 0x14185E5B595B9D08185B1C9958591E481C1C9BD8D95CDCD959 PUSH1 0x3A SHL PUSH1 0x44 DUP3 ADD MSTORE PUSH1 0x64 ADD PUSH2 0xD6B JUMP JUMPDEST PUSH1 0x72 SLOAD PUSH1 0x73 SLOAD PUSH2 0x18D1 SWAP1 DUP6 SWAP1 PUSH2 0x4096 JUMP JUMPDEST GT ISZERO PUSH2 0x18EF JUMPI PUSH1 0x40 MLOAD PUSH3 0x461BCD PUSH1 0xE5 SHL DUP2 MSTORE PUSH1 0x4 ADD PUSH2 0xD6B SWAP1 PUSH2 0x40EC JUMP JUMPDEST PUSH0 DUP3 DUP2 MSTORE PUSH1 0x88 PUSH1 0x20 SWAP1 DUP2 MSTORE PUSH1 0x40 DUP1 DUP4 KECCAK256 DUP1 SLOAD PUSH1 0xFF NOT AND PUSH1 0x1 OR SWAP1 SSTORE PUSH1 0x1 PUSH1 0x1 PUSH1 0xA0 SHL SUB DUP8 AND DUP4 MSTORE PUSH1 0x82 SWAP1 SWAP2 MSTORE DUP2 KECCAK256 DUP1 SLOAD DUP6 SWAP3 SWAP1 PUSH2 0x192D SWAP1 DUP5 SWAP1 PUSH2 0x4096 JUMP JUMPDEST SWAP1 SWAP2 SSTORE POP POP PUSH1 0x73 DUP1 SLOAD DUP5 SWAP2 SWAP1 PUSH0 SWAP1 PUSH2 0x1946 SWAP1 DUP5 SWAP1 PUSH2 0x4096 JUMP JUMPDEST SWAP1 SWAP2 SSTORE POP POP PUSH1 0x79 SLOAD PUSH1 0x7A SLOAD PUSH1 0x7B SLOAD PUSH2 0x1961 SWAP3 DUP8 SWAP3 DUP8 SWAP3 PUSH2 0x314F JUMP JUMPDEST PUSH1 0x40 DUP1 MLOAD DUP5 DUP2 MSTORE PUSH0 PUSH1 0x20 DUP3 ADD MSTORE PUSH1 0x1 PUSH1 0x1 PUSH1 0xA0 SHL SUB DUP7 AND SWAP2 PUSH32 0x8FAFEBCAF9D154343DAD25669BFA277F4FBACD7AC6B0C4FED522580E040A0F33 SWAP2 ADD PUSH1 0x40 MLOAD DUP1 SWAP2 SUB SWAP1 LOG2 DUP2 DUP5 PUSH1 0x1 PUSH1 0x1 PUSH1 0xA0 SHL SUB AND PUSH32 0xF7FBD7B10BB4753C87113CBF609A1B1DCC1268C0BF39E562D08DF1BFF21FF025 DUP6 PUSH1 0x40 MLOAD PUSH2 0x19E0 SWAP2 DUP2 MSTORE PUSH1 0x20 ADD SWAP1 JUMP JUMPDEST PUSH1 0x40 MLOAD DUP1 SWAP2 SUB SWAP1 LOG3 POP POP POP POP JUMP JUMPDEST PUSH2 0x19F6 PUSH2 0x3255 JUMP JUMPDEST PUSH2 0x1009 PUSH2 0x3331 JUMP JUMPDEST PUSH2 0x1A06 PUSH2 0x3255 JUMP JUMPDEST PUSH1 0x1 PUSH1 0x1 PUSH1 0xA0 SHL SUB SWAP2 SWAP1 SWAP2 AND PUSH0 SWAP1 DUP2 MSTORE PUSH1 0x89 PUSH1 0x20 MSTORE PUSH1 0x40 SWAP1 KECCAK256 DUP1 SLOAD PUSH1 0xFF NOT AND SWAP2 ISZERO ISZERO SWAP2 SWAP1 SWAP2 OR SWAP1 SSTORE JUMP JUMPDEST PUSH2 0x1A38 PUSH2 0x3382 JUMP JUMPDEST PUSH2 0x1A41 DUP3 PUSH2 0x3426 JUMP JUMPDEST PUSH2 0x1A4B DUP3 DUP3 PUSH2 0x342E JUMP JUMPDEST POP POP JUMP JUMPDEST PUSH0 PUSH2 0x1A58 PUSH2 0x34EA JUMP JUMPDEST POP PUSH0 MLOAD PUSH1 0x20 PUSH2 0x42A5 PUSH0 CODECOPY PUSH0 MLOAD SWAP1 PUSH0 MSTORE SWAP1 JUMP JUMPDEST CALLER PUSH0 SWAP1 DUP2 MSTORE PUSH1 0x89 PUSH1 0x20 MSTORE PUSH1 0x40 SWAP1 KECCAK256 SLOAD PUSH32 0x3114365664767534A65ED86F6B30D534FCB3CD028269D38AACD8479CF73CD7A8 SWAP1 PUSH1 0xFF AND PUSH2 0x1AEA JUMPI PUSH1 0x40 MLOAD PUSH3 0x461BCD PUSH1 0xE5 SHL DUP2 MSTORE PUSH1 0x20 PUSH1 0x4 DUP3 ADD MSTORE PUSH1 0x1E PUSH1 0x24 DUP3 ADD MSTORE PUSH32 0x4E6F7420617574686F72697A6564206D756C7469736967207369676E65720000 PUSH1 0x44 DUP3 ADD MSTORE PUSH1 0x64 ADD PUSH2 0xD6B JUMP JUMPDEST PUSH0 DUP2 DUP2 MSTORE PUSH1 0x8A PUSH1 0x20 MSTORE PUSH1 0x40 DUP2 KECCAK256 DUP1 SLOAD SWAP2 PUSH2 0x1B03 DUP4 PUSH2 0x4181 JUMP JUMPDEST SWAP1 SWAP2 SSTORE POP POP PUSH1 0x77 SLOAD PUSH0 DUP3 DUP2 MSTORE PUSH1 0x8A PUSH1 0x20 MSTORE PUSH1 0x40 SWAP1 KECCAK256 SLOAD LT ISZERO PUSH2 0x1B67 JUMPI PUSH1 0x40 MLOAD PUSH3 0x461BCD PUSH1 0xE5 SHL DUP2 MSTORE PUSH1 0x20 PUSH1 0x4 DUP3 ADD MSTORE PUSH1 0x1F PUSH1 0x24 DUP3 ADD MSTORE PUSH32 0x496E73756666696369656E74206D756C746973696720617070726F76616C7300 PUSH1 0x44 DUP3 ADD MSTORE PUSH1 0x64 ADD PUSH2 0xD6B JUMP JUMPDEST PUSH0 DUP2 DUP2 MSTORE PUSH1 0x8A PUSH1 0x20 MSTORE PUSH1 0x40 DUP2 KECCAK256 SSTORE PUSH1 0x74 SLOAD PUSH1 0xFF AND ISZERO PUSH2 0x1BC1 JUMPI PUSH1 0x40 MLOAD PUSH3 0x461BCD PUSH1 0xE5 SHL DUP2 MSTORE PUSH1 0x20 PUSH1 0x4 DUP3 ADD MSTORE PUSH1 0x16 PUSH1 0x24 DUP3 ADD MSTORE PUSH22 0x14D85B1948185B1C9958591E48199A5B985B1A5E9959 PUSH1 0x52 SHL PUSH1 0x44 DUP3 ADD MSTORE PUSH1 0x64 ADD PUSH2 0xD6B JUMP JUMPDEST PUSH1 0x74 DUP1 SLOAD PUSH2 0xFFFF NOT AND PUSH1 0x1 OR SWAP1 SSTORE PUSH1 0x40 MLOAD PUSH32 0x69F3CC4E34492A96604C6A9068DF274385221039516EE176167F6DEFD2D195EE SWAP1 PUSH2 0x1C01 SWAP1 SELFBALANCE DUP2 MSTORE PUSH1 0x20 ADD SWAP1 JUMP JUMPDEST PUSH1 0x40 MLOAD DUP1 SWAP2 SUB SWAP1 LOG1 POP JUMP JUMPDEST PUSH2 0x1C14 PUSH2 0x3255 JUMP JUMPDEST DUP3 DUP2 EQ PUSH2 0x1C33 JUMPI PUSH1 0x40 MLOAD PUSH3 0x461BCD PUSH1 0xE5 SHL DUP2 MSTORE PUSH1 0x4 ADD PUSH2 0xD6B SWAP1 PUSH2 0x40A9 JUMP JUMPDEST PUSH0 JUMPDEST DUP4 DUP2 LT ISZERO PUSH2 0x1CA1 JUMPI DUP3 DUP3 DUP3 DUP2 DUP2 LT PUSH2 0x1C4F JUMPI PUSH2 0x1C4F PUSH2 0x40D8 JUMP JUMPDEST SWAP1 POP PUSH1 0x20 MUL ADD CALLDATALOAD PUSH1 0x83 PUSH0 DUP8 DUP8 DUP6 DUP2 DUP2 LT PUSH2 0x1C6B JUMPI PUSH2 0x1C6B PUSH2 0x40D8 JUMP JUMPDEST SWAP1 POP PUSH1 0x20 MUL ADD PUSH1 0x20 DUP2 ADD SWAP1 PUSH2 0x1C80 SWAP2 SWAP1 PUSH2 0x3BBC JUMP JUMPDEST PUSH1 0x1 PUSH1 0x1 PUSH1 0xA0 SHL SUB AND DUP2 MSTORE PUSH1 0x20 DUP2 ADD SWAP2 SWAP1 SWAP2 MSTORE PUSH1 0x40 ADD PUSH0 KECCAK256 SSTORE PUSH1 0x1 ADD PUSH2 0x1C35 JUMP JUMPDEST POP POP POP POP POP JUMP JUMPDEST PUSH1 0x1 PUSH1 0x1 PUSH1 0xA0 SHL SUB DUP2 AND PUSH0 SWAP1 DUP2 MSTORE PUSH1 0x82 PUSH1 0x20 MSTORE PUSH1 0x40 DUP2 KECCAK256 SLOAD SWAP1 DUP1 DUP1 DUP1 DUP1 DUP1 PUSH2 0x1CCF DUP9 PUSH2 0x1DC7 JUMP JUMPDEST PUSH1 0x1 PUSH1 0x1 PUSH1 0xA0 SHL SUB SWAP9 SWAP1 SWAP9 AND PUSH0 SWAP1 DUP2 MSTORE PUSH1 0x8B PUSH1 0x20 SWAP1 DUP2 MSTORE PUSH1 0x40 DUP1 DUP4 KECCAK256 PUSH1 0x1 SWAP1 DUP2 ADD SLOAD PUSH1 0x84 DUP5 MSTORE DUP3 DUP6 KECCAK256 SLOAD PUSH1 0x83 SWAP1 SWAP5 MSTORE SWAP2 SWAP1 SWAP4 KECCAK256 SLOAD SWAP10 SWAP12 SWAP1 SWAP10 SWAP2 SWAP9 POP SWAP2 DUP2 AND ISZERO ISZERO SWAP7 POP PUSH1 0x2 DUP2 AND ISZERO ISZERO SWAP6 POP PUSH1 0x4 AND ISZERO ISZERO SWAP4 POP SWAP2 POP POP JUMP JUMPDEST PUSH2 0x1D2D PUSH2 0x3255 JUMP JUMPDEST PUSH1 0x1 PUSH1 0x1 PUSH1 0xA0 SHL SUB DUP2 AND PUSH2 0x1D77 JUMPI PUSH1 0x40 MLOAD PUSH3 0x461BCD PUSH1 0xE5 SHL DUP2 MSTORE PUSH1 0x20 PUSH1 0x4 DUP3 ADD MSTORE PUSH1 0x11 PUSH1 0x24 DUP3 ADD MSTORE PUSH17 0x125B9D985B1A59081C9958DA5C1A595B9D PUSH1 0x7A SHL PUSH1 0x44 DUP3 ADD MSTORE PUSH1 0x64 ADD PUSH2 0xD6B JUMP JUMPDEST SELFBALANCE DUP1 ISZERO PUSH2 0x1A4B JUMPI PUSH1 0x40 MLOAD PUSH1 0x1 PUSH1 0x1 PUSH1 0xA0 SHL SUB DUP4 AND SWAP1 DUP3 ISZERO PUSH2 0x8FC MUL SWAP1 DUP4 SWAP1 PUSH0 DUP2 DUP2 DUP2 DUP6 DUP9 DUP9 CALL SWAP4 POP POP POP POP ISZERO DUP1 ISZERO PUSH2 0x1DB1 JUMPI RETURNDATASIZE PUSH0 PUSH0 RETURNDATACOPY RETURNDATASIZE PUSH0 REVERT JUMPDEST POP POP POP JUMP JUMPDEST PUSH2 0x1DBE PUSH2 0x3255 JUMP JUMPDEST PUSH2 0x1009 PUSH0 PUSH2 0x3533 JUMP JUMPDEST PUSH1 0x1 PUSH1 0x1 PUSH1 0xA0 SHL SUB DUP2 AND PUSH0 SWAP1 DUP2 MSTORE PUSH1 0x8B PUSH1 0x20 SWAP1 DUP2 MSTORE PUSH1 0x40 DUP1 DUP4 KECCAK256 DUP2 MLOAD PUSH1 0xE0 DUP2 ADD DUP4 MSTORE DUP2 SLOAD DUP2 MSTORE PUSH1 0x1 DUP3 ADD SLOAD SWAP4 DUP2 ADD SWAP4 SWAP1 SWAP4 MSTORE PUSH1 0x2 DUP2 ADD SLOAD SWAP2 DUP4 ADD SWAP2 SWAP1 SWAP2 MSTORE PUSH1 0x3 DUP2 ADD SLOAD PUSH1 0x60 DUP4 ADD MSTORE PUSH1 0x4 DUP2 ADD SLOAD PUSH1 0x80 DUP4 ADD MSTORE PUSH1 0x5 DUP2 ADD SLOAD PUSH1 0xA0 DUP4 ADD MSTORE PUSH1 0x6 ADD SLOAD PUSH1 0xFF AND ISZERO DUP1 ISZERO PUSH1 0xC0 DUP4 ADD MSTORE DUP1 PUSH2 0x1E4F JUMPI POP DUP1 PUSH1 0x80 ADD MLOAD DUP2 PUSH1 0x40 ADD MLOAD PUSH2 0x1E4C SWAP2 SWAP1 PUSH2 0x4096 JUMP JUMPDEST TIMESTAMP LT JUMPDEST ISZERO PUSH2 0x1E5C JUMPI POP PUSH0 SWAP3 SWAP2 POP POP JUMP JUMPDEST PUSH0 DUP2 PUSH1 0x40 ADD MLOAD TIMESTAMP PUSH2 0x1E6D SWAP2 SWAP1 PUSH2 0x4199 JUMP JUMPDEST SWAP1 POP DUP2 PUSH1 0x60 ADD MLOAD DUP2 LT PUSH2 0x1E93 JUMPI PUSH1 0x20 DUP3 ADD MLOAD DUP3 MLOAD PUSH2 0x1E8B SWAP2 SWAP1 PUSH2 0x4199 JUMP JUMPDEST SWAP5 SWAP4 POP POP POP POP JUMP JUMPDEST PUSH0 PUSH1 0x64 DUP4 PUSH1 0xA0 ADD MLOAD DUP5 PUSH0 ADD MLOAD PUSH2 0x1EA9 SWAP2 SWAP1 PUSH2 0x41AC JUMP JUMPDEST PUSH2 0x1EB3 SWAP2 SWAP1 PUSH2 0x41C3 JUMP JUMPDEST SWAP1 POP PUSH0 DUP2 DUP5 PUSH0 ADD MLOAD PUSH2 0x1EC5 SWAP2 SWAP1 PUSH2 0x4199 JUMP JUMPDEST SWAP1 POP PUSH0 DUP3 DUP6 PUSH1 0x80 ADD MLOAD DUP7 PUSH1 0x60 ADD MLOAD PUSH2 0x1EDD SWAP2 SWAP1 PUSH2 0x4199 JUMP JUMPDEST PUSH1 0x80 DUP8 ADD MLOAD PUSH2 0x1EEC SWAP1 DUP8 PUSH2 0x4199 JUMP JUMPDEST PUSH2 0x1EF6 SWAP1 DUP6 PUSH2 0x41AC JUMP JUMPDEST PUSH2 0x1F00 SWAP2 SWAP1 PUSH2 0x41C3 JUMP JUMPDEST PUSH2 0x1F0A SWAP2 SWAP1 PUSH2 0x4096 JUMP JUMPDEST SWAP1 POP DUP5 PUSH1 0x20 ADD MLOAD DUP2 PUSH2 0x1F1C SWAP2 SWAP1 PUSH2 0x4199 JUMP JUMPDEST SWAP8 SWAP7 POP POP POP POP POP POP POP JUMP JUMPDEST PUSH2 0x1F2F PUSH2 0x3255 JUMP JUMPDEST PUSH2 0x1009 PUSH2 0x35A3 JUMP JUMPDEST PUSH2 0x1F3F PUSH2 0x3255 JUMP JUMPDEST DUP6 DUP8 LT PUSH2 0x1F83 JUMPI PUSH1 0x40 MLOAD PUSH3 0x461BCD PUSH1 0xE5 SHL DUP2 MSTORE PUSH1 0x20 PUSH1 0x4 DUP3 ADD MSTORE PUSH1 0x12 PUSH1 0x24 DUP3 ADD MSTORE PUSH18 0x496E76616C69642074696D652072616E6765 PUSH1 0x70 SHL PUSH1 0x44 DUP3 ADD MSTORE PUSH1 0x64 ADD PUSH2 0xD6B JUMP JUMPDEST DUP2 DUP4 GT ISZERO PUSH2 0x1FD3 JUMPI PUSH1 0x40 MLOAD PUSH3 0x461BCD PUSH1 0xE5 SHL DUP2 MSTORE PUSH1 0x20 PUSH1 0x4 DUP3 ADD MSTORE PUSH1 0x19 PUSH1 0x24 DUP3 ADD MSTORE PUSH32 0x496E76616C69642063617020636F6E66696775726174696F6E00000000000000 PUSH1 0x44 DUP3 ADD MSTORE PUSH1 0x64 ADD PUSH2 0xD6B JUMP JUMPDEST PUSH1 0x6C SWAP7 SWAP1 SWAP7 SSTORE PUSH1 0x6D SWAP5 SWAP1 SWAP5 SSTORE PUSH1 0x6E SWAP3 SWAP1 SWAP3 SSTORE PUSH1 0x6F SSTORE PUSH1 0x70 SSTORE PUSH1 0x71 SSTORE PUSH1 0x72 SSTORE JUMP JUMPDEST PUSH2 0x1FFB PUSH2 0x3255 JUMP JUMPDEST PUSH0 JUMPDEST DUP2 DUP2 LT ISZERO PUSH2 0x1DB1 JUMPI PUSH0 DUP4 DUP4 DUP4 DUP2 DUP2 LT PUSH2 0x2018 JUMPI PUSH2 0x2018 PUSH2 0x40D8 JUMP JUMPDEST SWAP1 POP PUSH1 0x20 MUL ADD PUSH1 0x20 DUP2 ADD SWAP1 PUSH2 0x202D SWAP2 SWAP1 PUSH2 0x3BBC JUMP JUMPDEST PUSH1 0x1 PUSH1 0x1 PUSH1 0xA0 SHL SUB DUP2 AND PUSH0 SWAP1 DUP2 MSTORE PUSH1 0x8B PUSH1 0x20 MSTORE PUSH1 0x40 SWAP1 KECCAK256 PUSH1 0x6 DUP2 ADD SLOAD SWAP2 SWAP3 POP SWAP1 PUSH1 0xFF AND DUP1 ISZERO PUSH2 0x205C JUMPI POP DUP1 SLOAD ISZERO ISZERO JUMPDEST ISZERO PUSH2 0x2146 JUMPI PUSH0 PUSH2 0x206B DUP4 PUSH2 0x1DC7 JUMP JUMPDEST SWAP1 POP DUP1 ISZERO PUSH2 0x2144 JUMPI DUP1 DUP3 PUSH1 0x1 ADD PUSH0 DUP3 DUP3 SLOAD PUSH2 0x2086 SWAP2 SWAP1 PUSH2 0x4096 JUMP JUMPDEST SWAP1 SWAP2 SSTORE POP POP PUSH1 0x64 SLOAD PUSH1 0x40 MLOAD PUSH4 0xA9059CBB PUSH1 0xE0 SHL DUP2 MSTORE PUSH1 0x1 PUSH1 0x1 PUSH1 0xA0 SHL SUB DUP6 DUP2 AND PUSH1 0x4 DUP4 ADD MSTORE PUSH1 0x24 DUP3 ADD DUP5 SWAP1 MSTORE SWAP1 SWAP2 AND SWAP1 PUSH4 0xA9059CBB SWAP1 PUSH1 0x44 ADD PUSH1 0x20 PUSH1 0x40 MLOAD DUP1 DUP4 SUB DUP2 PUSH0 DUP8 GAS CALL ISZERO DUP1 ISZERO PUSH2 0x20DB JUMPI RETURNDATASIZE PUSH0 PUSH0 RETURNDATACOPY RETURNDATASIZE PUSH0 REVERT JUMPDEST POP POP POP POP PUSH1 0x40 MLOAD RETURNDATASIZE PUSH1 0x1F NOT PUSH1 0x1F DUP3 ADD AND DUP3 ADD DUP1 PUSH1 0x40 MSTORE POP DUP2 ADD SWAP1 PUSH2 0x20FF SWAP2 SWAP1 PUSH2 0x41E2 JUMP JUMPDEST POP DUP3 PUSH1 0x1 PUSH1 0x1 PUSH1 0xA0 SHL SUB AND PUSH32 0x896E034966EAAF1ADC54ACC0F257056FEBBD300C9E47182CF761982CF1F5E430 DUP3 PUSH1 0x40 MLOAD PUSH2 0x213B SWAP2 DUP2 MSTORE PUSH1 0x20 ADD SWAP1 JUMP JUMPDEST PUSH1 0x40 MLOAD DUP1 SWAP2 SUB SWAP1 LOG2 JUMPDEST POP JUMPDEST POP POP PUSH1 0x1 ADD PUSH2 0x1FFD JUMP JUMPDEST PUSH2 0x2158 PUSH2 0x3255 JUMP JUMPDEST PUSH1 0x7F SWAP2 SWAP1 SWAP2 SSTORE PUSH1 0x80 SSTORE JUMP JUMPDEST PUSH2 0x216B PUSH2 0x3255 JUMP JUMPDEST DUP3 DUP3 GT ISZERO PUSH2 0x21BB JUMPI PUSH1 0x40 MLOAD PUSH3 0x461BCD PUSH1 0xE5 SHL DUP2 MSTORE PUSH1 0x20 PUSH1 0x4 DUP3 ADD MSTORE PUSH1 0x1B PUSH1 0x24 DUP3 ADD MSTORE PUSH32 0x496E76616C696420636C69666620636F6E66696775726174696F6E0000000000 PUSH1 0x44 DUP3 ADD MSTORE PUSH1 0x64 ADD PUSH2 0xD6B JUMP JUMPDEST PUSH1 0x64 DUP2 GT ISZERO PUSH2 0x2207 JUMPI PUSH1 0x40 MLOAD PUSH3 0x461BCD PUSH1 0xE5 SHL DUP2 MSTORE PUSH1 0x20 PUSH1 0x4 DUP3 ADD MSTORE PUSH1 0x18 PUSH1 0x24 DUP3 ADD MSTORE PUSH24 0x496E76616C696420636C6966662070657263656E74616765 PUSH1 0x40 SHL PUSH1 0x44 DUP3 ADD MSTORE PUSH1 0x64 ADD PUSH2 0xD6B JUMP JUMPDEST PUSH1 0x79 SWAP3 SWAP1 SWAP3 SSTORE PUSH1 0x7A SSTORE PUSH1 0x7B SSTORE JUMP JUMPDEST PUSH2 0x221D PUSH2 0x3255 JUMP JUMPDEST PUSH1 0x68 SWAP5 SWAP1 SWAP5 SSTORE PUSH1 0x69 DUP1 SLOAD SWAP3 ISZERO ISZERO PUSH1 0x1 PUSH1 0xA0 SHL MUL PUSH1 0x1 PUSH1 0x1 PUSH1 0xA8 SHL SUB NOT SWAP1 SWAP4 AND PUSH1 0x1 PUSH1 0x1 PUSH1 0xA0 SHL SUB SWAP1 SWAP5 AND SWAP4 SWAP1 SWAP4 OR SWAP2 SWAP1 SWAP2 OR SWAP1 SWAP2 SSTORE PUSH1 0x6A SSTORE PUSH1 0x6B DUP1 SLOAD SWAP2 ISZERO ISZERO PUSH1 0xFF NOT SWAP1 SWAP3 AND SWAP2 SWAP1 SWAP2 OR SWAP1 SSTORE JUMP JUMPDEST PUSH2 0x2272 PUSH2 0x3255 JUMP JUMPDEST DUP3 DUP3 GT ISZERO PUSH2 0x22C2 JUMPI PUSH1 0x40 MLOAD PUSH3 0x461BCD PUSH1 0xE5 SHL DUP2 MSTORE PUSH1 0x20 PUSH1 0x4 DUP3 ADD MSTORE PUSH1 0x1B PUSH1 0x24 DUP3 ADD MSTORE PUSH32 0x496E76616C696420636C69666620636F6E66696775726174696F6E0000000000 PUSH1 0x44 DUP3 ADD MSTORE PUSH1 0x64 ADD PUSH2 0xD6B JUMP JUMPDEST PUSH1 0x64 DUP2 GT ISZERO PUSH2 0x230E JUMPI PUSH1 0x40 MLOAD PUSH3 0x461BCD PUSH1 0xE5 SHL DUP2 MSTORE PUSH1 0x20 PUSH1 0x4 DUP3 ADD MSTORE PUSH1 0x18 PUSH1 0x24 DUP3 ADD MSTORE PUSH24 0x496E76616C696420636C6966662070657263656E74616765 PUSH1 0x40 SHL PUSH1 0x44 DUP3 ADD MSTORE PUSH1 0x64 ADD PUSH2 0xD6B JUMP JUMPDEST PUSH1 0x7C SWAP3 SWAP1 SWAP3 SSTORE PUSH1 0x7D SSTORE PUSH1 0x7E SSTORE JUMP JUMPDEST CALLER PUSH0 SWAP1 DUP2 MSTORE PUSH1 0x89 PUSH1 0x20 MSTORE PUSH1 0x40 SWAP1 KECCAK256 SLOAD PUSH32 0x731281DF435FB3AC8209B35DD5BF0581E52A20E6ACEB30AA1CF328306D7EC220 SWAP1 PUSH1 0xFF AND PUSH2 0x239C JUMPI PUSH1 0x40 MLOAD PUSH3 0x461BCD PUSH1 0xE5 SHL DUP2 MSTORE PUSH1 0x20 PUSH1 0x4 DUP3 ADD MSTORE PUSH1 0x1E PUSH1 0x24 DUP3 ADD MSTORE PUSH32 0x4E6F7420617574686F72697A6564206D756C7469736967207369676E65720000 PUSH1 0x44 DUP3 ADD MSTORE PUSH1 0x64 ADD PUSH2 0xD6B JUMP JUMPDEST PUSH0 DUP2 DUP2 MSTORE PUSH1 0x8A PUSH1 0x20 MSTORE PUSH1 0x40 DUP2 KECCAK256 DUP1 SLOAD SWAP2 PUSH2 0x23B5 DUP4 PUSH2 0x4181 JUMP JUMPDEST SWAP1 SWAP2 SSTORE POP POP PUSH1 0x77 SLOAD PUSH0 DUP3 DUP2 MSTORE PUSH1 0x8A PUSH1 0x20 MSTORE PUSH1 0x40 SWAP1 KECCAK256 SLOAD LT ISZERO PUSH2 0x2419 JUMPI PUSH1 0x40 MLOAD PUSH3 0x461BCD PUSH1 0xE5 SHL DUP2 MSTORE PUSH1 0x20 PUSH1 0x4 DUP3 ADD MSTORE PUSH1 0x1F PUSH1 0x24 DUP3 ADD MSTORE PUSH32 0x496E73756666696369656E74206D756C746973696720617070726F76616C7300 PUSH1 0x44 DUP3 ADD MSTORE PUSH1 0x64 ADD PUSH2 0xD6B JUMP JUMPDEST PUSH0 DUP2 DUP2 MSTORE PUSH1 0x8A PUSH1 0x20 MSTORE PUSH1 0x40 DUP2 KECCAK256 SSTORE PUSH1 0x74 SLOAD PUSH1 0xFF AND PUSH2 0x246E JUMPI PUSH1 0x40 MLOAD PUSH3 0x461BCD PUSH1 0xE5 SHL DUP2 MSTORE PUSH1 0x20 PUSH1 0x4 DUP3 ADD MSTORE PUSH1 0x12 PUSH1 0x24 DUP3 ADD MSTORE PUSH18 0x14D85B19481B9BDD08199A5B985B1A5E9959 PUSH1 0x72 SHL PUSH1 0x44 DUP3 ADD MSTORE PUSH1 0x64 ADD PUSH2 0xD6B JUMP JUMPDEST PUSH1 0x64 SLOAD PUSH1 0x40 MLOAD PUSH4 0x70A08231 PUSH1 0xE0 SHL DUP2 MSTORE ADDRESS PUSH1 0x4 DUP3 ADD MSTORE PUSH0 SWAP2 PUSH1 0x1 PUSH1 0x1 PUSH1 0xA0 SHL SUB AND SWAP1 PUSH4 0x70A08231 SWAP1 PUSH1 0x24 ADD PUSH1 0x20 PUSH1 0x40 MLOAD DUP1 DUP4 SUB DUP2 DUP7 GAS STATICCALL ISZERO DUP1 ISZERO PUSH2 0x24B4 JUMPI RETURNDATASIZE PUSH0 PUSH0 RETURNDATACOPY RETURNDATASIZE PUSH0 REVERT JUMPDEST POP POP POP POP PUSH1 0x40 MLOAD RETURNDATASIZE PUSH1 0x1F NOT PUSH1 0x1F DUP3 ADD AND DUP3 ADD DUP1 PUSH1 0x40 MSTORE POP DUP2 ADD SWAP1 PUSH2 0x24D8 SWAP2 SWAP1 PUSH2 0x41FD JUMP JUMPDEST SWAP1 POP DUP1 ISZERO PUSH2 0x1A4B JUMPI PUSH1 0x64 SLOAD PUSH1 0x65 SLOAD PUSH1 0x40 MLOAD PUSH4 0xA9059CBB PUSH1 0xE0 SHL DUP2 MSTORE PUSH1 0x1 PUSH1 0x1 PUSH1 0xA0 SHL SUB SWAP2 DUP3 AND PUSH1 0x4 DUP3 ADD MSTORE PUSH1 0x24 DUP2 ADD DUP5 SWAP1 MSTORE SWAP2 AND SWAP1 PUSH4 0xA9059CBB SWAP1 PUSH1 0x44 ADD PUSH1 0x20 PUSH1 0x40 MLOAD DUP1 DUP4 SUB DUP2 PUSH0 DUP8 GAS CALL ISZERO DUP1 ISZERO PUSH2 0x2532 JUMPI RETURNDATASIZE PUSH0 PUSH0 RETURNDATACOPY RETURNDATASIZE PUSH0 REVERT JUMPDEST POP POP POP POP PUSH1 0x40 MLOAD RETURNDATASIZE PUSH1 0x1F NOT PUSH1 0x1F DUP3 ADD AND DUP3 ADD DUP1 PUSH1 0x40 MSTORE POP DUP2 ADD SWAP1 PUSH2 0x1DB1 SWAP2 SWAP1 PUSH2 0x41E2 JUMP JUMPDEST PUSH0 PUSH2 0x255F PUSH2 0x35DF JUMP JUMPDEST DUP1 SLOAD SWAP1 SWAP2 POP PUSH1 0xFF PUSH1 0x1 PUSH1 0x40 SHL DUP3 DIV AND ISZERO SWAP1 PUSH1 0x1 PUSH1 0x1 PUSH1 0x40 SHL SUB AND PUSH0 DUP2 ISZERO DUP1 ISZERO PUSH2 0x2585 JUMPI POP DUP3 JUMPDEST SWAP1 POP PUSH0 DUP3 PUSH1 0x1 PUSH1 0x1 PUSH1 0x40 SHL SUB AND PUSH1 0x1 EQ DUP1 ISZERO PUSH2 0x25A0 JUMPI POP ADDRESS EXTCODESIZE ISZERO JUMPDEST SWAP1 POP DUP2 ISZERO DUP1 ISZERO PUSH2 0x25AE JUMPI POP DUP1 ISZERO JUMPDEST ISZERO PUSH2 0x25CC JUMPI PUSH1 0x40 MLOAD PUSH4 0xF92EE8A9 PUSH1 0xE0 SHL DUP2 MSTORE PUSH1 0x4 ADD PUSH1 0x40 MLOAD DUP1 SWAP2 SUB SWAP1 REVERT JUMPDEST DUP5 SLOAD PUSH8 0xFFFFFFFFFFFFFFFF NOT AND PUSH1 0x1 OR DUP6 SSTORE DUP4 ISZERO PUSH2 0x25F6 JUMPI DUP5 SLOAD PUSH1 0xFF PUSH1 0x40 SHL NOT AND PUSH1 0x1 PUSH1 0x40 SHL OR DUP6 SSTORE JUMPDEST PUSH1 0x1 PUSH1 0x1 PUSH1 0xA0 SHL SUB DUP10 AND PUSH2 0x2644 JUMPI PUSH1 0x40 MLOAD PUSH3 0x461BCD PUSH1 0xE5 SHL DUP2 MSTORE PUSH1 0x20 PUSH1 0x4 DUP3 ADD MSTORE PUSH1 0x15 PUSH1 0x24 DUP3 ADD MSTORE PUSH21 0x496E76616C696420746F6B656E2061646472657373 PUSH1 0x58 SHL PUSH1 0x44 DUP3 ADD MSTORE PUSH1 0x64 ADD PUSH2 0xD6B JUMP JUMPDEST PUSH1 0x1 PUSH1 0x1 PUSH1 0xA0 SHL SUB DUP9 AND PUSH2 0x2690 JUMPI PUSH1 0x40 MLOAD PUSH3 0x461BCD PUSH1 0xE5 SHL DUP2 MSTORE PUSH1 0x20 PUSH1 0x4 DUP3 ADD MSTORE PUSH1 0x13 PUSH1 0x24 DUP3 ADD MSTORE PUSH19 0x125B9D985B1A5908199D5B99081DD85B1B195D PUSH1 0x6A SHL PUSH1 0x44 DUP3 ADD MSTORE PUSH1 0x64 ADD PUSH2 0xD6B JUMP JUMPDEST PUSH1 0x1 PUSH1 0x1 PUSH1 0xA0 SHL SUB DUP8 AND PUSH2 0x26DB JUMPI PUSH1 0x40 MLOAD PUSH3 0x461BCD PUSH1 0xE5 SHL DUP2 MSTORE PUSH1 0x20 PUSH1 0x4 DUP3 ADD MSTORE PUSH1 0x12 PUSH1 0x24 DUP3 ADD MSTORE PUSH18 0x125B9D985B1A5908199959481DD85B1B195D PUSH1 0x72 SHL PUSH1 0x44 DUP3 ADD MSTORE PUSH1 0x64 ADD PUSH2 0xD6B JUMP JUMPDEST PUSH2 0x3E8 DUP7 GT ISZERO PUSH2 0x272D JUMPI PUSH1 0x40 MLOAD PUSH3 0x461BCD PUSH1 0xE5 SHL DUP2 MSTORE PUSH1 0x20 PUSH1 0x4 DUP3 ADD MSTORE PUSH1 0x17 PUSH1 0x24 DUP3 ADD MSTORE PUSH32 0x4665652070657263656E7461676520746F6F2068696768000000000000000000 PUSH1 0x44 DUP3 ADD MSTORE PUSH1 0x64 ADD PUSH2 0xD6B JUMP JUMPDEST PUSH2 0x2736 CALLER PUSH2 0x3607 JUMP JUMPDEST PUSH2 0x273E PUSH2 0x3618 JUMP JUMPDEST PUSH2 0x2746 PUSH2 0x3620 JUMP JUMPDEST PUSH2 0x274E PUSH2 0x3630 JUMP JUMPDEST PUSH1 0x64 DUP1 SLOAD PUSH1 0x1 PUSH1 0x1 PUSH1 0xA0 SHL SUB DUP12 DUP2 AND PUSH1 0x1 PUSH1 0x1 PUSH1 0xA0 SHL SUB NOT SWAP3 DUP4 AND DUP2 OR SWAP1 SWAP4 SSTORE PUSH1 0x65 DUP1 SLOAD DUP13 DUP4 AND SWAP1 DUP5 AND DUP2 OR SWAP1 SWAP2 SSTORE PUSH1 0x66 DUP1 SLOAD SWAP3 DUP13 AND SWAP3 SWAP1 SWAP4 AND DUP3 OR SWAP1 SWAP3 SSTORE PUSH1 0x67 DUP10 SWAP1 SSTORE PUSH1 0x74 DUP1 SLOAD PUSH2 0xFF00 NOT AND PUSH2 0x100 OR SWAP1 SSTORE PUSH1 0x1 PUSH1 0x77 SSTORE PUSH1 0x40 DUP1 MLOAD SWAP4 DUP5 MSTORE PUSH1 0x20 DUP5 ADD SWAP3 SWAP1 SWAP3 MSTORE SWAP1 DUP3 ADD MSTORE PUSH32 0xB6CA29B69E5E9E082AE73A4C1D0DEF95D12B340D9C2C19DA843FB5687286BFE6 SWAP1 PUSH1 0x60 ADD PUSH1 0x40 MLOAD DUP1 SWAP2 SUB SWAP1 LOG1 DUP4 ISZERO PUSH2 0x282C JUMPI DUP5 SLOAD PUSH1 0xFF PUSH1 0x40 SHL NOT AND DUP6 SSTORE PUSH1 0x40 MLOAD PUSH1 0x1 DUP2 MSTORE PUSH32 0xC7F505B2F371AE2175EE4913F4499E1F2633A7B5936321EED1CDAEB6115181D2 SWAP1 PUSH1 0x20 ADD PUSH1 0x40 MLOAD DUP1 SWAP2 SUB SWAP1 LOG1 JUMPDEST POP POP POP POP POP POP POP POP POP JUMP JUMPDEST PUSH2 0x283F PUSH2 0x2E03 JUMP JUMPDEST PUSH1 0x74 SLOAD PUSH2 0x100 SWAP1 DIV PUSH1 0xFF AND PUSH2 0x288C JUMPI PUSH1 0x40 MLOAD PUSH3 0x461BCD PUSH1 0xE5 SHL DUP2 MSTORE PUSH1 0x20 PUSH1 0x4 DUP3 ADD MSTORE PUSH1 0x13 PUSH1 0x24 DUP3 ADD MSTORE PUSH19 0x1499599D5B991CC81B9BDD08195B98589B1959 PUSH1 0x6A SHL PUSH1 0x44 DUP3 ADD MSTORE PUSH1 0x64 ADD PUSH2 0xD6B JUMP JUMPDEST PUSH1 0x6D SLOAD TIMESTAMP GT DUP1 ISZERO PUSH2 0x28A0 JUMPI POP PUSH1 0x70 SLOAD PUSH1 0x73 SLOAD LT JUMPDEST PUSH2 0x28EC JUMPI PUSH1 0x40 MLOAD PUSH3 0x461BCD PUSH1 0xE5 SHL DUP2 MSTORE PUSH1 0x20 PUSH1 0x4 DUP3 ADD MSTORE PUSH1 0x19 PUSH1 0x24 DUP3 ADD MSTORE PUSH32 0x526566756E6420636F6E646974696F6E73206E6F74206D657400000000000000 PUSH1 0x44 DUP3 ADD MSTORE PUSH1 0x64 ADD PUSH2 0xD6B JUMP JUMPDEST CALLER PUSH0 SWAP1 DUP2 MSTORE PUSH1 0x84 PUSH1 0x20 MSTORE PUSH1 0x40 SWAP1 KECCAK256 SLOAD DUP1 PUSH2 0x293E JUMPI PUSH1 0x40 MLOAD PUSH3 0x461BCD PUSH1 0xE5 SHL DUP2 MSTORE PUSH1 0x20 PUSH1 0x4 DUP3 ADD MSTORE PUSH1 0x13 PUSH1 0x24 DUP3 ADD MSTORE PUSH19 0x4E6F20726566756E6420617661696C61626C65 PUSH1 0x68 SHL PUSH1 0x44 DUP3 ADD MSTORE PUSH1 0x64 ADD PUSH2 0xD6B JUMP JUMPDEST CALLER PUSH0 DUP2 DUP2 MSTORE PUSH1 0x84 PUSH1 0x20 MSTORE PUSH1 0x40 DUP1 DUP3 KECCAK256 DUP3 SWAP1 SSTORE MLOAD DUP4 ISZERO PUSH2 0x8FC MUL SWAP2 DUP5 SWAP2 SWAP1 DUP2 DUP2 DUP2 DUP6 DUP9 DUP9 CALL SWAP4 POP POP POP POP ISZERO DUP1 ISZERO PUSH2 0x2976 JUMPI RETURNDATASIZE PUSH0 PUSH0 RETURNDATACOPY RETURNDATASIZE PUSH0 REVERT JUMPDEST POP PUSH1 0x40 MLOAD DUP2 DUP2 MSTORE CALLER SWAP1 PUSH32 0x3367BEFD2B2F39615CD79917C2153263C4AF1D3945EC003E5D5BFC13A8D85833 SWAP1 PUSH1 0x20 ADD PUSH1 0x40 MLOAD DUP1 SWAP2 SUB SWAP1 LOG2 POP PUSH2 0x1009 PUSH1 0x1 PUSH1 0x32 SSTORE JUMP JUMPDEST PUSH2 0x29BF PUSH2 0x3255 JUMP JUMPDEST DUP9 DUP8 EQ DUP1 ISZERO PUSH2 0x29CD JUMPI POP DUP7 DUP6 EQ JUMPDEST DUP1 ISZERO PUSH2 0x29D8 JUMPI POP DUP5 DUP4 EQ JUMPDEST DUP1 ISZERO PUSH2 0x29E3 JUMPI POP DUP3 DUP2 EQ JUMPDEST PUSH2 0x29FF JUMPI PUSH1 0x40 MLOAD PUSH3 0x461BCD PUSH1 0xE5 SHL DUP2 MSTORE PUSH1 0x4 ADD PUSH2 0xD6B SWAP1 PUSH2 0x40A9 JUMP JUMPDEST PUSH0 JUMPDEST DUP10 DUP2 LT ISZERO PUSH2 0x2AA4 JUMPI PUSH2 0x2A9C DUP12 DUP12 DUP4 DUP2 DUP2 LT PUSH2 0x2A1E JUMPI PUSH2 0x2A1E PUSH2 0x40D8 JUMP JUMPDEST SWAP1 POP PUSH1 0x20 MUL ADD PUSH1 0x20 DUP2 ADD SWAP1 PUSH2 0x2A33 SWAP2 SWAP1 PUSH2 0x3BBC JUMP JUMPDEST DUP11 DUP11 DUP5 DUP2 DUP2 LT PUSH2 0x2A45 JUMPI PUSH2 0x2A45 PUSH2 0x40D8 JUMP JUMPDEST SWAP1 POP PUSH1 0x20 MUL ADD CALLDATALOAD DUP10 DUP10 DUP6 DUP2 DUP2 LT PUSH2 0x2A5E JUMPI PUSH2 0x2A5E PUSH2 0x40D8 JUMP JUMPDEST SWAP1 POP PUSH1 0x20 MUL ADD CALLDATALOAD DUP9 DUP9 DUP7 DUP2 DUP2 LT PUSH2 0x2A77 JUMPI PUSH2 0x2A77 PUSH2 0x40D8 JUMP JUMPDEST SWAP1 POP PUSH1 0x20 MUL ADD CALLDATALOAD DUP8 DUP8 DUP8 DUP2 DUP2 LT PUSH2 0x2A90 JUMPI PUSH2 0x2A90 PUSH2 0x40D8 JUMP JUMPDEST SWAP1 POP PUSH1 0x20 MUL ADD CALLDATALOAD PUSH2 0x314F JUMP JUMPDEST PUSH1 0x1 ADD PUSH2 0x2A01 JUMP JUMPDEST POP PUSH32 0x80ECA6AD465C07F90192B0CD05C75DC1C6738CE23048480F6454B595E71D923A DUP11 DUP11 DUP11 DUP11 PUSH1 0x40 MLOAD PUSH2 0x2ADA SWAP5 SWAP4 SWAP3 SWAP2 SWAP1 PUSH2 0x4214 JUMP JUMPDEST PUSH1 0x40 MLOAD DUP1 SWAP2 SUB SWAP1 LOG1 POP POP POP POP POP POP POP POP POP POP JUMP JUMPDEST PUSH2 0x2AF6 PUSH2 0x2E03 JUMP JUMPDEST CALLER PUSH0 SWAP1 DUP2 MSTORE PUSH1 0x8B PUSH1 0x20 MSTORE PUSH1 0x40 SWAP1 KECCAK256 PUSH1 0x6 DUP2 ADD SLOAD PUSH1 0xFF AND PUSH2 0x2B58 JUMPI PUSH1 0x40 MLOAD PUSH3 0x461BCD PUSH1 0xE5 SHL DUP2 MSTORE PUSH1 0x20 PUSH1 0x4 DUP3 ADD MSTORE PUSH1 0x1A PUSH1 0x24 DUP3 ADD MSTORE PUSH32 0x4E6F206163746976652076657374696E67207363686564756C65000000000000 PUSH1 0x44 DUP3 ADD MSTORE PUSH1 0x64 ADD PUSH2 0xD6B JUMP JUMPDEST DUP1 SLOAD PUSH2 0x2B9B JUMPI PUSH1 0x40 MLOAD PUSH3 0x461BCD PUSH1 0xE5 SHL DUP2 MSTORE PUSH1 0x20 PUSH1 0x4 DUP3 ADD MSTORE PUSH1 0x12 PUSH1 0x24 DUP3 ADD MSTORE PUSH18 0x4E6F20746F6B656E7320746F20636C61696D PUSH1 0x70 SHL PUSH1 0x44 DUP3 ADD MSTORE PUSH1 0x64 ADD PUSH2 0xD6B JUMP JUMPDEST PUSH0 PUSH2 0x2BA5 CALLER PUSH2 0x1DC7 JUMP JUMPDEST SWAP1 POP PUSH0 DUP2 GT PUSH2 0x2BF6 JUMPI PUSH1 0x40 MLOAD PUSH3 0x461BCD PUSH1 0xE5 SHL DUP2 MSTORE PUSH1 0x20 PUSH1 0x4 DUP3 ADD MSTORE PUSH1 0x1D PUSH1 0x24 DUP3 ADD MSTORE PUSH32 0x4E6F20746F6B656E7320617661696C61626C6520666F7220636C61696D000000 PUSH1 0x44 DUP3 ADD MSTORE PUSH1 0x64 ADD PUSH2 0xD6B JUMP JUMPDEST DUP1 DUP3 PUSH1 0x1 ADD PUSH0 DUP3 DUP3 SLOAD PUSH2 0x2C09 SWAP2 SWAP1 PUSH2 0x4096 JUMP JUMPDEST SWAP1 SWAP2 SSTORE POP POP PUSH1 0x64 SLOAD PUSH1 0x40 MLOAD PUSH4 0xA9059CBB PUSH1 0xE0 SHL DUP2 MSTORE CALLER PUSH1 0x4 DUP3 ADD MSTORE PUSH1 0x24 DUP2 ADD DUP4 SWAP1 MSTORE PUSH1 0x1 PUSH1 0x1 PUSH1 0xA0 SHL SUB SWAP1 SWAP2 AND SWAP1 PUSH4 0xA9059CBB SWAP1 PUSH1 0x44 ADD PUSH1 0x20 PUSH1 0x40 MLOAD DUP1 DUP4 SUB DUP2 PUSH0 DUP8 GAS CALL ISZERO DUP1 ISZERO PUSH2 0x2C5C JUMPI RETURNDATASIZE PUSH0 PUSH0 RETURNDATACOPY RETURNDATASIZE PUSH0 REVERT JUMPDEST POP POP POP POP PUSH1 0x40 MLOAD RETURNDATASIZE PUSH1 0x1F NOT PUSH1 0x1F DUP3 ADD AND DUP3 ADD DUP1 PUSH1 0x40 MSTORE POP DUP2 ADD SWAP1 PUSH2 0x2C80 SWAP2 SWAP1 PUSH2 0x41E2 JUMP JUMPDEST POP PUSH1 0x40 MLOAD DUP2 DUP2 MSTORE CALLER SWAP1 PUSH32 0x896E034966EAAF1ADC54ACC0F257056FEBBD300C9E47182CF761982CF1F5E430 SWAP1 PUSH1 0x20 ADD PUSH2 0xFF5 JUMP JUMPDEST PUSH2 0x2CBB PUSH2 0x3255 JUMP JUMPDEST PUSH1 0x1 PUSH1 0x1 PUSH1 0xA0 SHL SUB DUP2 AND PUSH2 0x2CE4 JUMPI PUSH1 0x40 MLOAD PUSH4 0x1E4FBDF7 PUSH1 0xE0 SHL DUP2 MSTORE PUSH0 PUSH1 0x4 DUP3 ADD MSTORE PUSH1 0x24 ADD PUSH2 0xD6B JUMP JUMPDEST PUSH2 0x2CED DUP2 PUSH2 0x3533 JUMP JUMPDEST POP JUMP JUMPDEST PUSH2 0x2CF8 PUSH2 0x3255 JUMP JUMPDEST PUSH1 0x1 PUSH1 0x1 PUSH1 0xA0 SHL SUB SWAP1 SWAP2 AND PUSH0 SWAP1 DUP2 MSTORE PUSH1 0x83 PUSH1 0x20 MSTORE PUSH1 0x40 SWAP1 KECCAK256 SSTORE JUMP JUMPDEST PUSH2 0x2D4E PUSH1 0x40 MLOAD DUP1 PUSH1 0xE0 ADD PUSH1 0x40 MSTORE DUP1 PUSH0 DUP2 MSTORE PUSH1 0x20 ADD PUSH0 DUP2 MSTORE PUSH1 0x20 ADD PUSH0 DUP2 MSTORE PUSH1 0x20 ADD PUSH0 DUP2 MSTORE PUSH1 0x20 ADD PUSH0 DUP2 MSTORE PUSH1 0x20 ADD PUSH0 DUP2 MSTORE PUSH1 0x20 ADD PUSH0 ISZERO ISZERO DUP2 MSTORE POP SWAP1 JUMP JUMPDEST POP PUSH1 0x1 PUSH1 0x1 PUSH1 0xA0 SHL SUB AND PUSH0 SWAP1 DUP2 MSTORE PUSH1 0x8B PUSH1 0x20 SWAP1 DUP2 MSTORE PUSH1 0x40 SWAP2 DUP3 SWAP1 KECCAK256 DUP3 MLOAD PUSH1 0xE0 DUP2 ADD DUP5 MSTORE DUP2 SLOAD DUP2 MSTORE PUSH1 0x1 DUP3 ADD SLOAD SWAP3 DUP2 ADD SWAP3 SWAP1 SWAP3 MSTORE PUSH1 0x2 DUP2 ADD SLOAD SWAP3 DUP3 ADD SWAP3 SWAP1 SWAP3 MSTORE PUSH1 0x3 DUP3 ADD SLOAD PUSH1 0x60 DUP3 ADD MSTORE PUSH1 0x4 DUP3 ADD SLOAD PUSH1 0x80 DUP3 ADD MSTORE PUSH1 0x5 DUP3 ADD SLOAD PUSH1 0xA0 DUP3 ADD MSTORE PUSH1 0x6 SWAP1 SWAP2 ADD SLOAD PUSH1 0xFF AND ISZERO ISZERO PUSH1 0xC0 DUP3 ADD MSTORE SWAP1 JUMP JUMPDEST PUSH0 SLOAD PUSH1 0xFF AND ISZERO PUSH2 0x1009 JUMPI PUSH1 0x40 MLOAD PUSH3 0x461BCD PUSH1 0xE5 SHL DUP2 MSTORE PUSH1 0x20 PUSH1 0x4 DUP3 ADD MSTORE PUSH1 0x10 PUSH1 0x24 DUP3 ADD MSTORE PUSH16 0x14185D5CD8589B194E881C185D5CD959 PUSH1 0x82 SHL PUSH1 0x44 DUP3 ADD MSTORE PUSH1 0x64 ADD PUSH2 0xD6B JUMP JUMPDEST PUSH1 0x2 PUSH1 0x32 SLOAD SUB PUSH2 0x2E55 JUMPI PUSH1 0x40 MLOAD PUSH3 0x461BCD PUSH1 0xE5 SHL DUP2 MSTORE PUSH1 0x20 PUSH1 0x4 DUP3 ADD MSTORE PUSH1 0x1F PUSH1 0x24 DUP3 ADD MSTORE PUSH32 0x5265656E7472616E637947756172643A207265656E7472616E742063616C6C00 PUSH1 0x44 DUP3 ADD MSTORE PUSH1 0x64 ADD PUSH2 0xD6B JUMP JUMPDEST PUSH1 0x2 PUSH1 0x32 SSTORE JUMP JUMPDEST PUSH0 PUSH0 PUSH2 0x2E67 DUP4 PUSH2 0x3640 JUMP JUMPDEST SWAP1 POP PUSH1 0x68 SLOAD DUP2 PUSH2 0x2E77 SWAP2 SWAP1 PUSH2 0x41AC JUMP JUMPDEST SWAP4 SWAP3 POP POP POP JUMP JUMPDEST PUSH1 0x6E SLOAD DUP2 GT ISZERO PUSH2 0x2ED0 JUMPI PUSH1 0x40 MLOAD PUSH3 0x461BCD PUSH1 0xE5 SHL DUP2 MSTORE PUSH1 0x20 PUSH1 0x4 DUP3 ADD MSTORE PUSH1 0x1B PUSH1 0x24 DUP3 ADD MSTORE PUSH32 0x45786365656473206D617820706572207472616E73616374696F6E0000000000 PUSH1 0x44 DUP3 ADD MSTORE PUSH1 0x64 ADD PUSH2 0xD6B JUMP JUMPDEST PUSH1 0x75 SLOAD DUP2 GT ISZERO PUSH2 0x2F22 JUMPI PUSH1 0x40 MLOAD PUSH3 0x461BCD PUSH1 0xE5 SHL DUP2 MSTORE PUSH1 0x20 PUSH1 0x4 DUP3 ADD MSTORE PUSH1 0x18 PUSH1 0x24 DUP3 ADD MSTORE PUSH32 0x4578636565647320616E74692D7768616C65206C696D69740000000000000000 PUSH1 0x44 DUP3 ADD MSTORE PUSH1 0x64 ADD PUSH2 0xD6B JUMP JUMPDEST PUSH1 0x6F SLOAD PUSH1 0x1 PUSH1 0x1 PUSH1 0xA0 SHL SUB DUP4 AND PUSH0 SWAP1 DUP2 MSTORE PUSH1 0x82 PUSH1 0x20 MSTORE PUSH1 0x40 SWAP1 KECCAK256 SLOAD PUSH2 0x2F48 SWAP1 DUP4 SWAP1 PUSH2 0x4096 JUMP JUMPDEST GT ISZERO PUSH2 0x2F8D JUMPI PUSH1 0x40 MLOAD PUSH3 0x461BCD PUSH1 0xE5 SHL DUP2 MSTORE PUSH1 0x20 PUSH1 0x4 DUP3 ADD MSTORE PUSH1 0x14 PUSH1 0x24 DUP3 ADD MSTORE PUSH20 0x115E18D959591CC81DD85B1B195D081B1A5B5A5D PUSH1 0x62 SHL PUSH1 0x44 DUP3 ADD MSTORE PUSH1 0x64 ADD PUSH2 0xD6B JUMP JUMPDEST PUSH1 0x71 SLOAD PUSH1 0x73 SLOAD PUSH2 0x2F9E SWAP1 DUP4 SWAP1 PUSH2 0x4096 JUMP JUMPDEST GT ISZERO PUSH2 0x2FDF JUMPI PUSH1 0x40 MLOAD PUSH3 0x461BCD PUSH1 0xE5 SHL DUP2 MSTORE PUSH1 0x20 PUSH1 0x4 DUP3 ADD MSTORE PUSH1 0x10 PUSH1 0x24 DUP3 ADD MSTORE PUSH16 0x4578636565647320686172642063617 PUSH1 0x84 SHL PUSH1 0x44 DUP3 ADD MSTORE PUSH1 0x64 ADD PUSH2 0xD6B JUMP JUMPDEST PUSH1 0x72 SLOAD PUSH1 0x73 SLOAD PUSH2 0x2FF0 SWAP1 DUP4 SWAP1 PUSH2 0x4096 JUMP JUMPDEST GT ISZERO PUSH2 0x1A4B JUMPI PUSH1 0x40 MLOAD PUSH3 0x461BCD PUSH1 0xE5 SHL DUP2 MSTORE PUSH1 0x4 ADD PUSH2 0xD6B SWAP1 PUSH2 0x40EC JUMP JUMPDEST PUSH1 0x1 PUSH1 0x1 PUSH1 0xA0 SHL SUB DUP4 AND PUSH0 SWAP1 DUP2 MSTORE PUSH1 0x82 PUSH1 0x20 MSTORE PUSH1 0x40 DUP2 KECCAK256 DUP1 SLOAD DUP5 SWAP3 SWAP1 PUSH2 0x3035 SWAP1 DUP5 SWAP1 PUSH2 0x4096 JUMP JUMPDEST SWAP1 SWAP2 SSTORE POP POP PUSH1 0x73 DUP1 SLOAD DUP4 SWAP2 SWAP1 PUSH0 SWAP1 PUSH2 0x304E SWAP1 DUP5 SWAP1 PUSH2 0x4096 JUMP JUMPDEST SWAP1 SWAP2 SSTORE POP POP PUSH1 0x1 PUSH1 0x1 PUSH1 0xA0 SHL SUB DUP4 AND PUSH0 SWAP1 DUP2 MSTORE PUSH1 0x84 PUSH1 0x20 MSTORE PUSH1 0x40 DUP2 KECCAK256 DUP1 SLOAD DUP4 SWAP3 SWAP1 PUSH2 0x307A SWAP1 DUP5 SWAP1 PUSH2 0x4096 JUMP JUMPDEST SWAP1 SWAP2 SSTORE POP POP PUSH1 0x1 PUSH1 0x1 PUSH1 0xA0 SHL SUB DUP4 AND PUSH0 SWAP1 DUP2 MSTORE PUSH1 0x85 PUSH1 0x20 MSTORE PUSH1 0x40 SWAP1 KECCAK256 TIMESTAMP SWAP1 SSTORE PUSH1 0x67 SLOAD ISZERO PUSH2 0x1DB1 JUMPI PUSH0 PUSH2 0x2710 PUSH1 0x67 SLOAD DUP4 PUSH2 0x30B3 SWAP2 SWAP1 PUSH2 0x41AC JUMP JUMPDEST PUSH2 0x30BD SWAP2 SWAP1 PUSH2 0x41C3 JUMP JUMPDEST SWAP1 POP DUP1 PUSH1 0x75 PUSH1 0x3 ADD PUSH0 DUP3 DUP3 SLOAD PUSH2 0x30D3 SWAP2 SWAP1 PUSH2 0x4096 JUMP JUMPDEST SWAP1 SWAP2 SSTORE POP POP PUSH1 0x66 SLOAD PUSH1 0x40 MLOAD PUSH1 0x1 PUSH1 0x1 PUSH1 0xA0 SHL SUB SWAP1 SWAP2 AND SWAP1 DUP3 ISZERO PUSH2 0x8FC MUL SWAP1 DUP4 SWAP1 PUSH0 DUP2 DUP2 DUP2 DUP6 DUP9 DUP9 CALL SWAP4 POP POP POP POP ISZERO DUP1 ISZERO PUSH2 0x310F JUMPI RETURNDATASIZE PUSH0 PUSH0 RETURNDATACOPY RETURNDATASIZE PUSH0 REVERT JUMPDEST POP PUSH1 0x66 SLOAD PUSH1 0x40 MLOAD DUP3 DUP2 MSTORE PUSH1 0x1 PUSH1 0x1 PUSH1 0xA0 SHL SUB SWAP1 SWAP2 AND SWAP1 PUSH32 0x34E8A84E537ED93D93DDF39A78816DCBC74DF8397C635838B8CC973D4FA943F8 SWAP1 PUSH1 0x20 ADD PUSH2 0x172F JUMP JUMPDEST PUSH1 0x40 MLOAD DUP1 PUSH1 0xE0 ADD PUSH1 0x40 MSTORE DUP1 DUP6 DUP2 MSTORE PUSH1 0x20 ADD PUSH0 DUP2 MSTORE PUSH1 0x20 ADD TIMESTAMP DUP2 MSTORE PUSH1 0x20 ADD DUP5 DUP2 MSTORE PUSH1 0x20 ADD DUP4 DUP2 MSTORE PUSH1 0x20 ADD DUP3 DUP2 MSTORE PUSH1 0x20 ADD PUSH1 0x1 ISZERO ISZERO DUP2 MSTORE POP PUSH1 0x8B PUSH0 DUP8 PUSH1 0x1 PUSH1 0x1 PUSH1 0xA0 SHL SUB AND PUSH1 0x1 PUSH1 0x1 PUSH1 0xA0 SHL SUB AND DUP2 MSTORE PUSH1 0x20 ADD SWAP1 DUP2 MSTORE PUSH1 0x20 ADD PUSH0 KECCAK256 PUSH0 DUP3 ADD MLOAD DUP2 PUSH0 ADD SSTORE PUSH1 0x20 DUP3 ADD MLOAD DUP2 PUSH1 0x1 ADD SSTORE PUSH1 0x40 DUP3 ADD MLOAD DUP2 PUSH1 0x2 ADD SSTORE PUSH1 0x60 DUP3 ADD MLOAD DUP2 PUSH1 0x3 ADD SSTORE PUSH1 0x80 DUP3 ADD MLOAD DUP2 PUSH1 0x4 ADD SSTORE PUSH1 0xA0 DUP3 ADD MLOAD DUP2 PUSH1 0x5 ADD SSTORE PUSH1 0xC0 DUP3 ADD MLOAD DUP2 PUSH1 0x6 ADD PUSH0 PUSH2 0x100 EXP DUP2 SLOAD DUP2 PUSH1 0xFF MUL NOT AND SWAP1 DUP4 ISZERO ISZERO MUL OR SWAP1 SSTORE POP SWAP1 POP POP DUP5 PUSH1 0x1 PUSH1 0x1 PUSH1 0xA0 SHL SUB AND PUSH32 0x969705509595726740FE60CC30769BBD53C883EFFF4D8E70108A82817E0392A9 DUP6 PUSH1 0x40 MLOAD PUSH2 0x323F SWAP2 DUP2 MSTORE PUSH1 0x20 ADD SWAP1 JUMP JUMPDEST PUSH1 0x40 MLOAD DUP1 SWAP2 SUB SWAP1 LOG2 POP POP POP POP POP JUMP JUMPDEST PUSH1 0x1 PUSH1 0x32 SSTORE JUMP JUMPDEST CALLER PUSH2 0x3287 PUSH32 0x9016D09D72D40FDAE2FD8CEAC6B6234C7706214FD39C1CD1E609A0528C199300 SLOAD PUSH1 0x1 PUSH1 0x1 PUSH1 0xA0 SHL SUB AND SWAP1 JUMP JUMPDEST PUSH1 0x1 PUSH1 0x1 PUSH1 0xA0 SHL SUB AND EQ PUSH2 0x1009 JUMPI PUSH1 0x40 MLOAD PUSH4 0x118CDAA7 PUSH1 0xE0 SHL DUP2 MSTORE CALLER PUSH1 0x4 DUP3 ADD MSTORE PUSH1 0x24 ADD PUSH2 0xD6B JUMP JUMPDEST PUSH1 0x1 PUSH1 0x1 PUSH1 0xA0 SHL SUB DUP2 AND PUSH0 SWAP1 DUP2 MSTORE PUSH1 0x83 PUSH1 0x20 MSTORE PUSH1 0x40 DUP2 KECCAK256 SLOAD PUSH1 0x1 AND ISZERO ISZERO DUP1 ISZERO PUSH2 0x32F2 JUMPI POP PUSH1 0x1 PUSH1 0x1 PUSH1 0xA0 SHL SUB DUP3 AND PUSH0 SWAP1 DUP2 MSTORE PUSH1 0x83 PUSH1 0x20 MSTORE PUSH1 0x40 SWAP1 KECCAK256 SLOAD PUSH1 0x2 AND ISZERO ISZERO JUMPDEST DUP1 ISZERO PUSH2 0x3316 JUMPI POP PUSH1 0x1 PUSH1 0x1 PUSH1 0xA0 SHL SUB DUP3 AND PUSH0 SWAP1 DUP2 MSTORE PUSH1 0x83 PUSH1 0x20 MSTORE PUSH1 0x40 SWAP1 KECCAK256 SLOAD PUSH1 0x4 AND ISZERO JUMPDEST SWAP3 SWAP2 POP POP JUMP JUMPDEST PUSH0 DUP3 PUSH2 0x3328 DUP6 DUP5 PUSH2 0x37B8 JUMP JUMPDEST EQ SWAP5 SWAP4 POP POP POP POP JUMP JUMPDEST PUSH2 0x3339 PUSH2 0x37FA JUMP JUMPDEST PUSH0 DUP1 SLOAD PUSH1 0xFF NOT AND SWAP1 SSTORE PUSH32 0x5DB9EE0A495BF2E6FF9C91A7834C1BA4FDD244A5E8AA4E537BD38AEAE4B073AA CALLER JUMPDEST PUSH1 0x40 MLOAD PUSH1 0x1 PUSH1 0x1 PUSH1 0xA0 SHL SUB SWAP1 SWAP2 AND DUP2 MSTORE PUSH1 0x20 ADD PUSH1 0x40 MLOAD DUP1 SWAP2 SUB SWAP1 LOG1 JUMP JUMPDEST ADDRESS PUSH1 0x1 PUSH1 0x1 PUSH1 0xA0 SHL SUB PUSH32 0x0 AND EQ DUP1 PUSH2 0x3408 JUMPI POP PUSH32 0x0 PUSH1 0x1 PUSH1 0x1 PUSH1 0xA0 SHL SUB AND PUSH2 0x33FC PUSH0 MLOAD PUSH1 0x20 PUSH2 0x42A5 PUSH0 CODECOPY PUSH0 MLOAD SWAP1 PUSH0 MSTORE SLOAD PUSH1 0x1 PUSH1 0x1 PUSH1 0xA0 SHL SUB AND SWAP1 JUMP JUMPDEST PUSH1 0x1 PUSH1 0x1 PUSH1 0xA0 SHL SUB AND EQ ISZERO JUMPDEST ISZERO PUSH2 0x1009 JUMPI PUSH1 0x40 MLOAD PUSH4 0x703E46DD PUSH1 0xE1 SHL DUP2 MSTORE PUSH1 0x4 ADD PUSH1 0x40 MLOAD DUP1 SWAP2 SUB SWAP1 REVERT JUMPDEST PUSH2 0x2CED PUSH2 0x3255 JUMP JUMPDEST DUP2 PUSH1 0x1 PUSH1 0x1 PUSH1 0xA0 SHL SUB AND PUSH4 0x52D1902D PUSH1 0x40 MLOAD DUP2 PUSH4 0xFFFFFFFF AND PUSH1 0xE0 SHL DUP2 MSTORE PUSH1 0x4 ADD PUSH1 0x20 PUSH1 0x40 MLOAD DUP1 DUP4 SUB DUP2 DUP7 GAS STATICCALL SWAP3 POP POP POP DUP1 ISZERO PUSH2 0x3488 JUMPI POP PUSH1 0x40 DUP1 MLOAD PUSH1 0x1F RETURNDATASIZE SWAP1 DUP2 ADD PUSH1 0x1F NOT AND DUP3 ADD SWAP1 SWAP3 MSTORE PUSH2 0x3485 SWAP2 DUP2 ADD SWAP1 PUSH2 0x41FD JUMP JUMPDEST PUSH1 0x1 JUMPDEST PUSH2 0x34B0 JUMPI PUSH1 0x40 MLOAD PUSH4 0x4C9C8CE3 PUSH1 0xE0 SHL DUP2 MSTORE PUSH1 0x1 PUSH1 0x1 PUSH1 0xA0 SHL SUB DUP4 AND PUSH1 0x4 DUP3 ADD MSTORE PUSH1 0x24 ADD PUSH2 0xD6B JUMP JUMPDEST PUSH0 MLOAD PUSH1 0x20 PUSH2 0x42A5 PUSH0 CODECOPY PUSH0 MLOAD SWAP1 PUSH0 MSTORE DUP2 EQ PUSH2 0x34E0 JUMPI PUSH1 0x40 MLOAD PUSH4 0x2A875269 PUSH1 0xE2 SHL DUP2 MSTORE PUSH1 0x4 DUP2 ADD DUP3 SWAP1 MSTORE PUSH1 0x24 ADD PUSH2 0xD6B JUMP JUMPDEST PUSH2 0x1DB1 DUP4 DUP4 PUSH2 0x3842 JUMP JUMPDEST ADDRESS PUSH1 0x1 PUSH1 0x1 PUSH1 0xA0 SHL SUB PUSH32 0x0 AND EQ PUSH2 0x1009 JUMPI PUSH1 0x40 MLOAD PUSH4 0x703E46DD PUSH1 0xE1 SHL DUP2 MSTORE PUSH1 0x4 ADD PUSH1 0x40 MLOAD DUP1 SWAP2 SUB SWAP1 REVERT JUMPDEST PUSH32 0x9016D09D72D40FDAE2FD8CEAC6B6234C7706214FD39C1CD1E609A0528C199300 DUP1 SLOAD PUSH1 0x1 PUSH1 0x1 PUSH1 0xA0 SHL SUB NOT DUP2 AND PUSH1 0x1 PUSH1 0x1 PUSH1 0xA0 SHL SUB DUP5 DUP2 AND SWAP2 DUP3 OR DUP5 SSTORE PUSH1 0x40 MLOAD SWAP3 AND SWAP2 DUP3 SWAP1 PUSH32 0x8BE0079C531659141344CD1FD0A4F28419497F9722A3DAAFE3B4186F6B6457E0 SWAP1 PUSH0 SWAP1 LOG3 POP POP POP JUMP JUMPDEST PUSH2 0x35AB PUSH2 0x2DBE JUMP JUMPDEST PUSH0 DUP1 SLOAD PUSH1 0xFF NOT AND PUSH1 0x1 OR SWAP1 SSTORE PUSH32 0x62E78CEA01BEE320CD4E420270B5EA74000D11B0C9F74754EBDBFC544B05A258 PUSH2 0x3365 CALLER SWAP1 JUMP JUMPDEST PUSH0 DUP1 PUSH32 0xF0C57E16840DF040F15088DC2F81FE391C3923BEC73E23A9662EFC9C229C6A00 PUSH2 0x3316 JUMP JUMPDEST PUSH2 0x360F PUSH2 0x3897 JUMP JUMPDEST PUSH2 0x2CED DUP2 PUSH2 0x38BC JUMP JUMPDEST PUSH2 0x1009 PUSH2 0x3897 JUMP JUMPDEST PUSH2 0x3628 PUSH2 0x3897 JUMP JUMPDEST PUSH2 0x1009 PUSH2 0x38C4 JUMP JUMPDEST PUSH2 0x3638 PUSH2 0x3897 JUMP JUMPDEST PUSH2 0x1009 PUSH2 0x38D7 JUMP JUMPDEST PUSH1 0x6B SLOAD PUSH0 SWAP1 PUSH1 0xFF AND ISZERO PUSH2 0x366E JUMPI PUSH8 0xDE0B6B3A7640000 PUSH1 0x6A SLOAD DUP4 PUSH2 0x3664 SWAP2 SWAP1 PUSH2 0x41AC JUMP JUMPDEST PUSH2 0x3316 SWAP2 SWAP1 PUSH2 0x41C3 JUMP JUMPDEST PUSH1 0x69 SLOAD PUSH1 0x1 PUSH1 0xA0 SHL SWAP1 DIV PUSH1 0xFF AND ISZERO PUSH2 0x37A7 JUMPI PUSH1 0x69 SLOAD PUSH1 0x1 PUSH1 0x1 PUSH1 0xA0 SHL SUB AND PUSH2 0x36D0 JUMPI PUSH1 0x40 MLOAD PUSH3 0x461BCD PUSH1 0xE5 SHL DUP2 MSTORE PUSH1 0x20 PUSH1 0x4 DUP3 ADD MSTORE PUSH1 0x15 PUSH1 0x24 DUP3 ADD MSTORE PUSH21 0x13DC9858DB19481B9BDD0818DBDB999A59DD5C9959 PUSH1 0x5A SHL PUSH1 0x44 DUP3 ADD MSTORE PUSH1 0x64 ADD PUSH2 0xD6B JUMP JUMPDEST PUSH1 0x69 SLOAD PUSH1 0x40 DUP1 MLOAD PUSH4 0x3FABE5A3 PUSH1 0xE2 SHL DUP2 MSTORE SWAP1 MLOAD PUSH0 SWAP3 PUSH1 0x1 PUSH1 0x1 PUSH1 0xA0 SHL SUB AND SWAP2 PUSH4 0xFEAF968C SWAP2 PUSH1 0x4 DUP1 DUP4 ADD SWAP3 PUSH1 0xA0 SWAP3 SWAP2 SWAP1 DUP3 SWAP1 SUB ADD DUP2 DUP7 GAS STATICCALL ISZERO DUP1 ISZERO PUSH2 0x3717 JUMPI RETURNDATASIZE PUSH0 PUSH0 RETURNDATACOPY RETURNDATASIZE PUSH0 REVERT JUMPDEST POP POP POP POP PUSH1 0x40 MLOAD RETURNDATASIZE PUSH1 0x1F NOT PUSH1 0x1F DUP3 ADD AND DUP3 ADD DUP1 PUSH1 0x40 MSTORE POP DUP2 ADD SWAP1 PUSH2 0x373B SWAP2 SWAP1 PUSH2 0x4133 JUMP JUMPDEST POP POP POP SWAP2 POP POP PUSH0 DUP2 SGT PUSH2 0x3787 JUMPI PUSH1 0x40 MLOAD PUSH3 0x461BCD PUSH1 0xE5 SHL DUP2 MSTORE PUSH1 0x20 PUSH1 0x4 DUP3 ADD MSTORE PUSH1 0x14 PUSH1 0x24 DUP3 ADD MSTORE PUSH20 0x496E76616C6964206F7261636C65207072696365 PUSH1 0x60 SHL PUSH1 0x44 DUP3 ADD MSTORE PUSH1 0x64 ADD PUSH2 0xD6B JUMP JUMPDEST PUSH11 0x52B7D2DCC80CD2E4000000 PUSH2 0x379D DUP3 DUP6 PUSH2 0x41AC JUMP JUMPDEST PUSH2 0x2E77 SWAP2 SWAP1 PUSH2 0x41C3 JUMP JUMPDEST PUSH2 0x3316 PUSH7 0x38D7EA4C68000 DUP4 PUSH2 0x41C3 JUMP JUMPDEST PUSH0 DUP2 DUP2 JUMPDEST DUP5 MLOAD DUP2 LT ISZERO PUSH2 0x37F2 JUMPI PUSH2 0x37E8 DUP3 DUP7 DUP4 DUP2 MLOAD DUP2 LT PUSH2 0x37DB JUMPI PUSH2 0x37DB PUSH2 0x40D8 JUMP JUMPDEST PUSH1 0x20 MUL PUSH1 0x20 ADD ADD MLOAD PUSH2 0x38DF JUMP JUMPDEST SWAP2 POP PUSH1 0x1 ADD PUSH2 0x37BC JUMP JUMPDEST POP SWAP4 SWAP3 POP POP POP JUMP JUMPDEST PUSH0 SLOAD PUSH1 0xFF AND PUSH2 0x1009 JUMPI PUSH1 0x40 MLOAD PUSH3 0x461BCD PUSH1 0xE5 SHL DUP2 MSTORE PUSH1 0x20 PUSH1 0x4 DUP3 ADD MSTORE PUSH1 0x14 PUSH1 0x24 DUP3 ADD MSTORE PUSH20 0x14185D5CD8589B194E881B9BDD081C185D5CD959 PUSH1 0x62 SHL PUSH1 0x44 DUP3 ADD MSTORE PUSH1 0x64 ADD PUSH2 0xD6B JUMP JUMPDEST PUSH2 0x384B DUP3 PUSH2 0x3908 JUMP JUMPDEST PUSH1 0x40 MLOAD PUSH1 0x1 PUSH1 0x1 PUSH1 0xA0 SHL SUB DUP4 AND SWAP1 PUSH32 0xBC7CD75A20EE27FD9ADEBAB32041F755214DBC6BFFA90CC0225B39DA2E5C2D3B SWAP1 PUSH0 SWAP1 LOG2 DUP1 MLOAD ISZERO PUSH2 0x388F JUMPI PUSH2 0x1DB1 DUP3 DUP3 PUSH2 0x396B JUMP JUMPDEST PUSH2 0x1A4B PUSH2 0x39DD JUMP JUMPDEST PUSH2 0x389F PUSH2 0x39FC JUMP JUMPDEST PUSH2 0x1009 JUMPI PUSH1 0x40 MLOAD PUSH4 0x1AFCD79F PUSH1 0xE3 SHL DUP2 MSTORE PUSH1 0x4 ADD PUSH1 0x40 MLOAD DUP1 SWAP2 SUB SWAP1 REVERT JUMPDEST PUSH2 0x2CBB PUSH2 0x3897 JUMP JUMPDEST PUSH2 0x38CC PUSH2 0x3897 JUMP JUMPDEST PUSH0 DUP1 SLOAD PUSH1 0xFF NOT AND SWAP1 SSTORE JUMP JUMPDEST PUSH2 0x324E PUSH2 0x3897 JUMP JUMPDEST PUSH0 DUP2 DUP4 LT PUSH2 0x38F9 JUMPI PUSH0 DUP3 DUP2 MSTORE PUSH1 0x20 DUP5 SWAP1 MSTORE PUSH1 0x40 SWAP1 KECCAK256 PUSH2 0x2E77 JUMP JUMPDEST POP PUSH0 SWAP2 DUP3 MSTORE PUSH1 0x20 MSTORE PUSH1 0x40 SWAP1 KECCAK256 SWAP1 JUMP JUMPDEST DUP1 PUSH1 0x1 PUSH1 0x1 PUSH1 0xA0 SHL SUB AND EXTCODESIZE PUSH0 SUB PUSH2 0x393D JUMPI PUSH1 0x40 MLOAD PUSH4 0x4C9C8CE3 PUSH1 0xE0 SHL DUP2 MSTORE PUSH1 0x1 PUSH1 0x1 PUSH1 0xA0 SHL SUB DUP3 AND PUSH1 0x4 DUP3 ADD MSTORE PUSH1 0x24 ADD PUSH2 0xD6B JUMP JUMPDEST PUSH0 MLOAD PUSH1 0x20 PUSH2 0x42A5 PUSH0 CODECOPY PUSH0 MLOAD SWAP1 PUSH0 MSTORE DUP1 SLOAD PUSH1 0x1 PUSH1 0x1 PUSH1 0xA0 SHL SUB NOT AND PUSH1 0x1 PUSH1 0x1 PUSH1 0xA0 SHL SUB SWAP3 SWAP1 SWAP3 AND SWAP2 SWAP1 SWAP2 OR SWAP1 SSTORE JUMP JUMPDEST PUSH1 0x60 PUSH0 PUSH0 DUP5 PUSH1 0x1 PUSH1 0x1 PUSH1 0xA0 SHL SUB AND DUP5 PUSH1 0x40 MLOAD PUSH2 0x3987 SWAP2 SWAP1 PUSH2 0x428E JUMP JUMPDEST PUSH0 PUSH1 0x40 MLOAD DUP1 DUP4 SUB DUP2 DUP6 GAS DELEGATECALL SWAP2 POP POP RETURNDATASIZE DUP1 PUSH0 DUP2 EQ PUSH2 0x39BF JUMPI PUSH1 0x40 MLOAD SWAP2 POP PUSH1 0x1F NOT PUSH1 0x3F RETURNDATASIZE ADD AND DUP3 ADD PUSH1 0x40 MSTORE RETURNDATASIZE DUP3 MSTORE RETURNDATASIZE PUSH0 PUSH1 0x20 DUP5 ADD RETURNDATACOPY PUSH2 0x39C4 JUMP JUMPDEST PUSH1 0x60 SWAP2 POP JUMPDEST POP SWAP2 POP SWAP2 POP PUSH2 0x39D4 DUP6 DUP4 DUP4 PUSH2 0x3A15 JUMP JUMPDEST SWAP6 SWAP5 POP POP POP POP POP JUMP JUMPDEST CALLVALUE ISZERO PUSH2 0x1009 JUMPI PUSH1 0x40 MLOAD PUSH4 0xB398979F PUSH1 0xE0 SHL DUP2 MSTORE PUSH1 0x4 ADD PUSH1 0x40 MLOAD DUP1 SWAP2 SUB SWAP1 REVERT JUMPDEST PUSH0 PUSH2 0x3A05 PUSH2 0x35DF JUMP JUMPDEST SLOAD PUSH1 0x1 PUSH1 0x40 SHL SWAP1 DIV PUSH1 0xFF AND SWAP2 SWAP1 POP JUMP JUMPDEST PUSH1 0x60 DUP3 PUSH2 0x3A2A JUMPI PUSH2 0x3A25 DUP3 PUSH2 0x3A71 JUMP JUMPDEST PUSH2 0x2E77 JUMP JUMPDEST DUP2 MLOAD ISZERO DUP1 ISZERO PUSH2 0x3A41 JUMPI POP PUSH1 0x1 PUSH1 0x1 PUSH1 0xA0 SHL SUB DUP5 AND EXTCODESIZE ISZERO JUMPDEST ISZERO PUSH2 0x3A6A JUMPI PUSH1 0x40 MLOAD PUSH4 0x9996B315 PUSH1 0xE0 SHL DUP2 MSTORE PUSH1 0x1 PUSH1 0x1 PUSH1 0xA0 SHL SUB DUP6 AND PUSH1 0x4 DUP3 ADD MSTORE PUSH1 0x24 ADD PUSH2 0xD6B JUMP JUMPDEST POP DUP1 PUSH2 0x2E77 JUMP JUMPDEST DUP1 MLOAD ISZERO PUSH2 0x3A81 JUMPI DUP1 MLOAD DUP1 DUP3 PUSH1 0x20 ADD REVERT JUMPDEST PUSH1 0x40 MLOAD PUSH4 0xD6BDA275 PUSH1 0xE0 SHL DUP2 MSTORE PUSH1 0x4 ADD PUSH1 0x40 MLOAD DUP1 SWAP2 SUB SWAP1 REVERT JUMPDEST PUSH0 PUSH0 DUP4 PUSH1 0x1F DUP5 ADD SLT PUSH2 0x3AAA JUMPI PUSH0 PUSH0 REVERT JUMPDEST POP DUP2 CALLDATALOAD PUSH1 0x1 PUSH1 0x1 PUSH1 0x40 SHL SUB DUP2 GT ISZERO PUSH2 0x3AC0 JUMPI PUSH0 PUSH0 REVERT JUMPDEST PUSH1 0x20 DUP4 ADD SWAP2 POP DUP4 PUSH1 0x20 DUP3 PUSH1 0x5 SHL DUP6 ADD ADD GT ISZERO PUSH2 0x3ADA JUMPI PUSH0 PUSH0 REVERT JUMPDEST SWAP3 POP SWAP3 SWAP1 POP JUMP JUMPDEST PUSH0 PUSH0 PUSH0 PUSH0 PUSH0 PUSH0 PUSH1 0x60 DUP8 DUP10 SUB SLT ISZERO PUSH2 0x3AF6 JUMPI PUSH0 PUSH0 REVERT JUMPDEST DUP7 CALLDATALOAD PUSH1 0x1 PUSH1 0x1 PUSH1 0x40 SHL SUB DUP2 GT ISZERO PUSH2 0x3B0B JUMPI PUSH0 PUSH0 REVERT JUMPDEST PUSH2 0x3B17 DUP10 DUP3 DUP11 ADD PUSH2 0x3A9A JUMP JUMPDEST SWAP1 SWAP8 POP SWAP6 POP POP PUSH1 0x20 DUP8 ADD CALLDATALOAD PUSH1 0x1 PUSH1 0x1 PUSH1 0x40 SHL SUB DUP2 GT ISZERO PUSH2 0x3B35 JUMPI PUSH0 PUSH0 REVERT JUMPDEST PUSH2 0x3B41 DUP10 DUP3 DUP11 ADD PUSH2 0x3A9A JUMP JUMPDEST SWAP1 SWAP6 POP SWAP4 POP POP PUSH1 0x40 DUP8 ADD CALLDATALOAD PUSH1 0x1 PUSH1 0x1 PUSH1 0x40 SHL SUB DUP2 GT ISZERO PUSH2 0x3B5F JUMPI PUSH0 PUSH0 REVERT JUMPDEST PUSH2 0x3B6B DUP10 DUP3 DUP11 ADD PUSH2 0x3A9A JUMP JUMPDEST SWAP8 SWAP11 SWAP7 SWAP10 POP SWAP5 SWAP8 POP SWAP3 SWAP6 SWAP4 SWAP5 SWAP3 POP POP POP JUMP JUMPDEST PUSH0 PUSH0 PUSH0 PUSH1 0x60 DUP5 DUP7 SUB SLT ISZERO PUSH2 0x3B8F JUMPI PUSH0 PUSH0 REVERT JUMPDEST POP POP DUP2 CALLDATALOAD SWAP4 PUSH1 0x20 DUP4 ADD CALLDATALOAD SWAP4 POP PUSH1 0x40 SWAP1 SWAP3 ADD CALLDATALOAD SWAP2 SWAP1 POP JUMP JUMPDEST DUP1 CALLDATALOAD PUSH1 0x1 PUSH1 0x1 PUSH1 0xA0 SHL SUB DUP2 AND DUP2 EQ PUSH2 0x154A JUMPI PUSH0 PUSH0 REVERT JUMPDEST PUSH0 PUSH1 0x20 DUP3 DUP5 SUB SLT ISZERO PUSH2 0x3BCC JUMPI PUSH0 PUSH0 REVERT JUMPDEST PUSH2 0x2E77 DUP3 PUSH2 0x3BA6 JUMP JUMPDEST PUSH0 PUSH0 PUSH0 PUSH1 0x40 DUP5 DUP7 SUB SLT ISZERO PUSH2 0x3BE7 JUMPI PUSH0 PUSH0 REVERT JUMPDEST DUP4 CALLDATALOAD PUSH1 0x1 PUSH1 0x1 PUSH1 0x40 SHL SUB DUP2 GT ISZERO PUSH2 0x3BFC JUMPI PUSH0 PUSH0 REVERT JUMPDEST PUSH2 0x3C08 DUP7 DUP3 DUP8 ADD PUSH2 0x3A9A JUMP JUMPDEST SWAP1 SWAP8 SWAP1 SWAP7 POP PUSH1 0x20 SWAP6 SWAP1 SWAP6 ADD CALLDATALOAD SWAP5 SWAP4 POP POP POP POP JUMP JUMPDEST PUSH0 PUSH0 PUSH0 PUSH1 0x60 DUP5 DUP7 SUB SLT ISZERO PUSH2 0x3C2E JUMPI PUSH0 PUSH0 REVERT JUMPDEST PUSH2 0x3C37 DUP5 PUSH2 0x3BA6 JUMP JUMPDEST SWAP6 PUSH1 0x20 DUP6 ADD CALLDATALOAD SWAP6 POP PUSH1 0x40 SWAP1 SWAP5 ADD CALLDATALOAD SWAP4 SWAP3 POP POP POP JUMP JUMPDEST DUP1 ISZERO ISZERO DUP2 EQ PUSH2 0x2CED JUMPI PUSH0 PUSH0 REVERT JUMPDEST PUSH0 PUSH0 PUSH1 0x40 DUP4 DUP6 SUB SLT ISZERO PUSH2 0x3C6A JUMPI PUSH0 PUSH0 REVERT JUMPDEST PUSH2 0x3C73 DUP4 PUSH2 0x3BA6 JUMP JUMPDEST SWAP2 POP PUSH1 0x20 DUP4 ADD CALLDATALOAD PUSH2 0x3C83 DUP2 PUSH2 0x3C4C JUMP JUMPDEST DUP1 SWAP2 POP POP SWAP3 POP SWAP3 SWAP1 POP JUMP JUMPDEST PUSH4 0x4E487B71 PUSH1 0xE0 SHL PUSH0 MSTORE PUSH1 0x41 PUSH1 0x4 MSTORE PUSH1 0x24 PUSH0 REVERT JUMPDEST PUSH0 PUSH0 PUSH1 0x40 DUP4 DUP6 SUB SLT ISZERO PUSH2 0x3CB3 JUMPI PUSH0 PUSH0 REVERT JUMPDEST PUSH2 0x3CBC DUP4 PUSH2 0x3BA6 JUMP JUMPDEST SWAP2 POP PUSH1 0x20 DUP4 ADD CALLDATALOAD PUSH1 0x1 PUSH1 0x1 PUSH1 0x40 SHL SUB DUP2 GT ISZERO PUSH2 0x3CD6 JUMPI PUSH0 PUSH0 REVERT JUMPDEST DUP4 ADD PUSH1 0x1F DUP2 ADD DUP6 SGT PUSH2 0x3CE6 JUMPI PUSH0 PUSH0 REVERT JUMPDEST DUP1 CALLDATALOAD PUSH1 0x1 PUSH1 0x1 PUSH1 0x40 SHL SUB DUP2 GT ISZERO PUSH2 0x3CFF JUMPI PUSH2 0x3CFF PUSH2 0x3C8E JUMP JUMPDEST PUSH1 0x40 MLOAD PUSH1 0x1F DUP3 ADD PUSH1 0x1F NOT SWAP1 DUP2 AND PUSH1 0x3F ADD AND DUP2 ADD PUSH1 0x1 PUSH1 0x1 PUSH1 0x40 SHL SUB DUP2 GT DUP3 DUP3 LT OR ISZERO PUSH2 0x3D2D JUMPI PUSH2 0x3D2D PUSH2 0x3C8E JUMP JUMPDEST PUSH1 0x40 MSTORE DUP2 DUP2 MSTORE DUP3 DUP3 ADD PUSH1 0x20 ADD DUP8 LT ISZERO PUSH2 0x3D44 JUMPI PUSH0 PUSH0 REVERT JUMPDEST DUP2 PUSH1 0x20 DUP5 ADD PUSH1 0x20 DUP4 ADD CALLDATACOPY PUSH0 PUSH1 0x20 DUP4 DUP4 ADD ADD MSTORE DUP1 SWAP4 POP POP POP POP SWAP3 POP SWAP3 SWAP1 POP JUMP JUMPDEST PUSH0 PUSH0 PUSH0 PUSH0 PUSH1 0x40 DUP6 DUP8 SUB SLT ISZERO PUSH2 0x3D76 JUMPI PUSH0 PUSH0 REVERT JUMPDEST DUP5 CALLDATALOAD PUSH1 0x1 PUSH1 0x1 PUSH1 0x40 SHL SUB DUP2 GT ISZERO PUSH2 0x3D8B JUMPI PUSH0 PUSH0 REVERT JUMPDEST PUSH2 0x3D97 DUP8 DUP3 DUP9 ADD PUSH2 0x3A9A JUMP JUMPDEST SWAP1 SWAP6 POP SWAP4 POP POP PUSH1 0x20 DUP6 ADD CALLDATALOAD PUSH1 0x1 PUSH1 0x1 PUSH1 0x40 SHL SUB DUP2 GT ISZERO PUSH2 0x3DB5 JUMPI PUSH0 PUSH0 REVERT JUMPDEST PUSH2 0x3DC1 DUP8 DUP3 DUP9 ADD PUSH2 0x3A9A JUMP JUMPDEST SWAP6 SWAP9 SWAP5 SWAP8 POP SWAP6 POP POP POP POP JUMP JUMPDEST PUSH0 PUSH1 0x20 DUP3 DUP5 SUB SLT ISZERO PUSH2 0x3DDD JUMPI PUSH0 PUSH0 REVERT JUMPDEST POP CALLDATALOAD SWAP2 SWAP1 POP JUMP JUMPDEST PUSH0 PUSH0 PUSH0 PUSH0 PUSH0 PUSH0 PUSH0 PUSH1 0xE0 DUP9 DUP11 SUB SLT ISZERO PUSH2 0x3DFA JUMPI PUSH0 PUSH0 REVERT JUMPDEST POP POP DUP6 CALLDATALOAD SWAP8 PUSH1 0x20 DUP8 ADD CALLDATALOAD SWAP8 POP PUSH1 0x40 DUP8 ADD CALLDATALOAD SWAP7 PUSH1 0x60 DUP2 ADD CALLDATALOAD SWAP7 POP PUSH1 0x80 DUP2 ADD CALLDATALOAD SWAP6 POP PUSH1 0xA0 DUP2 ADD CALLDATALOAD SWAP5 POP PUSH1 0xC0 ADD CALLDATALOAD SWAP3 POP SWAP1 POP JUMP JUMPDEST PUSH0 PUSH0 PUSH1 0x20 DUP4 DUP6 SUB SLT ISZERO PUSH2 0x3E3C JUMPI PUSH0 PUSH0 REVERT JUMPDEST DUP3 CALLDATALOAD PUSH1 0x1 PUSH1 0x1 PUSH1 0x40 SHL SUB DUP2 GT ISZERO PUSH2 0x3E51 JUMPI PUSH0 PUSH0 REVERT JUMPDEST PUSH2 0x3E5D DUP6 DUP3 DUP7 ADD PUSH2 0x3A9A JUMP JUMPDEST SWAP1 SWAP7 SWAP1 SWAP6 POP SWAP4 POP POP POP POP JUMP JUMPDEST PUSH0 PUSH0 PUSH1 0x40 DUP4 DUP6 SUB SLT ISZERO PUSH2 0x3E7A JUMPI PUSH0 PUSH0 REVERT JUMPDEST POP POP DUP1 CALLDATALOAD SWAP3 PUSH1 0x20 SWAP1 SWAP2 ADD CALLDATALOAD SWAP2 POP JUMP JUMPDEST PUSH1 0x20 DUP2 MSTORE PUSH0 DUP3 MLOAD DUP1 PUSH1 0x20 DUP5 ADD MSTORE DUP1 PUSH1 0x20 DUP6 ADD PUSH1 0x40 DUP6 ADD MCOPY PUSH0 PUSH1 0x40 DUP3 DUP6 ADD ADD MSTORE PUSH1 0x40 PUSH1 0x1F NOT PUSH1 0x1F DUP4 ADD AND DUP5 ADD ADD SWAP2 POP POP SWAP3 SWAP2 POP POP JUMP JUMPDEST PUSH0 PUSH0 PUSH0 PUSH0 PUSH0 PUSH1 0xA0 DUP7 DUP9 SUB SLT ISZERO PUSH2 0x3ED2 JUMPI PUSH0 PUSH0 REVERT JUMPDEST DUP6 CALLDATALOAD SWAP5 POP PUSH2 0x3EE2 PUSH1 0x20 DUP8 ADD PUSH2 0x3BA6 JUMP JUMPDEST SWAP4 POP PUSH1 0x40 DUP7 ADD CALLDATALOAD PUSH2 0x3EF2 DUP2 PUSH2 0x3C4C JUMP JUMPDEST SWAP3 POP PUSH1 0x60 DUP7 ADD CALLDATALOAD SWAP2 POP PUSH1 0x80 DUP7 ADD CALLDATALOAD PUSH2 0x3F09 DUP2 PUSH2 0x3C4C JUMP JUMPDEST DUP1 SWAP2 POP POP SWAP3 SWAP6 POP SWAP3 SWAP6 SWAP1 SWAP4 POP JUMP JUMPDEST PUSH0 PUSH0 PUSH0 PUSH0 PUSH1 0x80 DUP6 DUP8 SUB SLT ISZERO PUSH2 0x3F2A JUMPI PUSH0 PUSH0 REVERT JUMPDEST PUSH2 0x3F33 DUP6 PUSH2 0x3BA6 JUMP JUMPDEST SWAP4 POP PUSH2 0x3F41 PUSH1 0x20 DUP7 ADD PUSH2 0x3BA6 JUMP JUMPDEST SWAP3 POP PUSH2 0x3F4F PUSH1 0x40 DUP7 ADD PUSH2 0x3BA6 JUMP JUMPDEST SWAP4 SWAP7 SWAP3 SWAP6 POP SWAP3 SWAP4 PUSH1 0x60 ADD CALLDATALOAD SWAP3 POP POP JUMP JUMPDEST PUSH0 PUSH0 PUSH0 PUSH0 PUSH0 PUSH0 PUSH0 PUSH0 PUSH0 PUSH0 PUSH1 0xA0 DUP12 DUP14 SUB SLT ISZERO PUSH2 0x3F78 JUMPI PUSH0 PUSH0 REVERT JUMPDEST DUP11 CALLDATALOAD PUSH1 0x1 PUSH1 0x1 PUSH1 0x40 SHL SUB DUP2 GT ISZERO PUSH2 0x3F8D JUMPI PUSH0 PUSH0 REVERT JUMPDEST PUSH2 0x3F99 DUP14 DUP3 DUP15 ADD PUSH2 0x3A9A JUMP JUMPDEST SWAP1 SWAP12 POP SWAP10 POP POP PUSH1 0x20 DUP12 ADD CALLDATALOAD PUSH1 0x1 PUSH1 0x1 PUSH1 0x40 SHL SUB DUP2 GT ISZERO PUSH2 0x3FB7 JUMPI PUSH0 PUSH0 REVERT JUMPDEST PUSH2 0x3FC3 DUP14 DUP3 DUP15 ADD PUSH2 0x3A9A JUMP JUMPDEST SWAP1 SWAP10 POP SWAP8 POP POP PUSH1 0x40 DUP12 ADD CALLDATALOAD PUSH1 0x1 PUSH1 0x1 PUSH1 0x40 SHL SUB DUP2 GT ISZERO PUSH2 0x3FE1 JUMPI PUSH0 PUSH0 REVERT JUMPDEST PUSH2 0x3FED DUP14 DUP3 DUP15 ADD PUSH2 0x3A9A JUMP JUMPDEST SWAP1 SWAP8 POP SWAP6 POP POP PUSH1 0x60 DUP12 ADD CALLDATALOAD PUSH1 0x1 PUSH1 0x1 PUSH1 0x40 SHL SUB DUP2 GT ISZERO PUSH2 0x400B JUMPI PUSH0 PUSH0 REVERT JUMPDEST PUSH2 0x4017 DUP14 DUP3 DUP15 ADD PUSH2 0x3A9A JUMP JUMPDEST SWAP1 SWAP6 POP SWAP4 POP POP PUSH1 0x80 DUP12 ADD CALLDATALOAD PUSH1 0x1 PUSH1 0x1 PUSH1 0x40 SHL SUB DUP2 GT ISZERO PUSH2 0x4035 JUMPI PUSH0 PUSH0 REVERT JUMPDEST PUSH2 0x4041 DUP14 DUP3 DUP15 ADD PUSH2 0x3A9A JUMP JUMPDEST SWAP2 POP DUP1 SWAP4 POP POP DUP1 SWAP2 POP POP SWAP3 SWAP6 SWAP9 SWAP12 SWAP2 SWAP5 SWAP8 SWAP11 POP SWAP3 SWAP6 SWAP9 POP JUMP JUMPDEST PUSH0 PUSH0 PUSH1 0x40 DUP4 DUP6 SUB SLT ISZERO PUSH2 0x406B JUMPI PUSH0 PUSH0 REVERT JUMPDEST PUSH2 0x4074 DUP4 PUSH2 0x3BA6 JUMP JUMPDEST SWAP5 PUSH1 0x20 SWAP4 SWAP1 SWAP4 ADD CALLDATALOAD SWAP4 POP POP POP JUMP JUMPDEST PUSH4 0x4E487B71 PUSH1 0xE0 SHL PUSH0 MSTORE PUSH1 0x11 PUSH1 0x4 MSTORE PUSH1 0x24 PUSH0 REVERT JUMPDEST DUP1 DUP3 ADD DUP1 DUP3 GT ISZERO PUSH2 0x3316 JUMPI PUSH2 0x3316 PUSH2 0x4082 JUMP JUMPDEST PUSH1 0x20 DUP1 DUP3 MSTORE PUSH1 0x15 SWAP1 DUP3 ADD MSTORE PUSH21 0x82E4E4C2F240D8CADCCEE8D040DAD2E6DAC2E8C6D PUSH1 0x5B SHL PUSH1 0x40 DUP3 ADD MSTORE PUSH1 0x60 ADD SWAP1 JUMP JUMPDEST PUSH4 0x4E487B71 PUSH1 0xE0 SHL PUSH0 MSTORE PUSH1 0x32 PUSH1 0x4 MSTORE PUSH1 0x24 PUSH0 REVERT JUMPDEST PUSH1 0x20 DUP1 DUP3 MSTORE PUSH1 0x14 SWAP1 DUP3 ADD MSTORE PUSH20 0x4578636565647320746F74616C20737570706C79 PUSH1 0x60 SHL PUSH1 0x40 DUP3 ADD MSTORE PUSH1 0x60 ADD SWAP1 JUMP JUMPDEST DUP1 MLOAD PUSH10 0xFFFFFFFFFFFFFFFFFFFF DUP2 AND DUP2 EQ PUSH2 0x154A JUMPI PUSH0 PUSH0 REVERT JUMPDEST PUSH0 PUSH0 PUSH0 PUSH0 PUSH0 PUSH1 0xA0 DUP7 DUP9 SUB SLT ISZERO PUSH2 0x4147 JUMPI PUSH0 PUSH0 REVERT JUMPDEST PUSH2 0x4150 DUP7 PUSH2 0x411A JUMP JUMPDEST PUSH1 0x20 DUP8 ADD MLOAD PUSH1 0x40 DUP9 ADD MLOAD PUSH1 0x60 DUP10 ADD MLOAD SWAP3 SWAP8 POP SWAP1 SWAP6 POP SWAP4 POP SWAP2 POP PUSH2 0x4175 PUSH1 0x80 DUP8 ADD PUSH2 0x411A JUMP JUMPDEST SWAP1 POP SWAP3 SWAP6 POP SWAP3 SWAP6 SWAP1 SWAP4 POP JUMP JUMPDEST PUSH0 PUSH1 0x1 DUP3 ADD PUSH2 0x4192 JUMPI PUSH2 0x4192 PUSH2 0x4082 JUMP JUMPDEST POP PUSH1 0x1 ADD SWAP1 JUMP JUMPDEST DUP2 DUP2 SUB DUP2 DUP2 GT ISZERO PUSH2 0x3316 JUMPI PUSH2 0x3316 PUSH2 0x4082 JUMP JUMPDEST DUP1 DUP3 MUL DUP2 ISZERO DUP3 DUP3 DIV DUP5 EQ OR PUSH2 0x3316 JUMPI PUSH2 0x3316 PUSH2 0x4082 JUMP JUMPDEST PUSH0 DUP3 PUSH2 0x41DD JUMPI PUSH4 0x4E487B71 PUSH1 0xE0 SHL PUSH0 MSTORE PUSH1 0x12 PUSH1 0x4 MSTORE PUSH1 0x24 PUSH0 REVERT JUMPDEST POP DIV SWAP1 JUMP JUMPDEST PUSH0 PUSH1 0x20 DUP3 DUP5 SUB SLT ISZERO PUSH2 0x41F2 JUMPI PUSH0 PUSH0 REVERT JUMPDEST DUP2 MLOAD PUSH2 0x2E77 DUP2 PUSH2 0x3C4C JUMP JUMPDEST PUSH0 PUSH1 0x20 DUP3 DUP5 SUB SLT ISZERO PUSH2 0x420D JUMPI PUSH0 PUSH0 REVERT JUMPDEST POP MLOAD SWAP2 SWAP1 POP JUMP JUMPDEST PUSH1 0x40 DUP1 DUP3 MSTORE DUP2 ADD DUP5 SWAP1 MSTORE PUSH0 DUP6 PUSH1 0x60 DUP4 ADD DUP3 JUMPDEST DUP8 DUP2 LT ISZERO PUSH2 0x4254 JUMPI PUSH1 0x1 PUSH1 0x1 PUSH1 0xA0 SHL SUB PUSH2 0x423F DUP5 PUSH2 0x3BA6 JUMP JUMPDEST AND DUP3 MSTORE PUSH1 0x20 SWAP3 DUP4 ADD SWAP3 SWAP1 SWAP2 ADD SWAP1 PUSH1 0x1 ADD PUSH2 0x4226 JUMP JUMPDEST POP DUP4 DUP2 SUB PUSH1 0x20 DUP6 ADD MSTORE DUP5 DUP2 MSTORE PUSH1 0x1 PUSH1 0x1 PUSH1 0xFB SHL SUB DUP6 GT ISZERO PUSH2 0x4273 JUMPI PUSH0 PUSH0 REVERT JUMPDEST DUP5 PUSH1 0x5 SHL SWAP2 POP DUP2 DUP7 PUSH1 0x20 DUP4 ADD CALLDATACOPY ADD PUSH1 0x20 ADD SWAP7 SWAP6 POP POP POP POP POP POP JUMP JUMPDEST PUSH0 DUP3 MLOAD DUP1 PUSH1 0x20 DUP6 ADD DUP5 MCOPY PUSH0 SWAP3 ADD SWAP2 DUP3 MSTORE POP SWAP2 SWAP1 POP JUMP INVALID CALLDATASIZE ADDMOD SWAP5 LOG1 EXTCODESIZE LOG1 LOG3 0x21 MOD PUSH8 0xC828492DB98DCA3E KECCAK256 PUSH23 0xCC3735A920A3CA505D382BBCA264697066735822122060 XOR PUSH11 0x12E007DCABE1A022F84D5D PC DUP12 PUSH20 0x97D1E13B2ADC2D8B439EB0040F3BD064736F6C63 NUMBER STOP ADDMOD 0x1E STOP CALLER "
		},
		"gasEstimates": {
			"creation": {
				"codeDepositCost": "3429200",
				"executionCost": "infinite",
				"totalCost": "infinite"
			},
			"external": {
				"UPGRADE_INTERFACE_VERSION()": "infinite",
				"airdropClaimed(address)": "2618",
				"airdropConfig()": "6654",
				"airdropVesting()": "6610",
				"batchClaimTokens(address[])": "infinite",
				"batchCreateVesting(address[],uint256[],uint256[],uint256[],uint256[])": "infinite",
				"batchProcessFiatPayments(address[],uint256[],bytes32[])": "infinite",
				"batchSetUserStatus(address[],uint256[])": "infinite",
				"calculateClaimableAmount(address)": "infinite",
				"claimAirdrop(bytes32[],uint256)": "infinite",
				"claimVestedTokens()": "infinite",
				"configureAirdrop(bytes32,uint256)": "46787",
				"configureAirdropVesting(uint256,uint256,uint256)": "68919",
				"configurePricing(uint256,address,bool,uint256,bool)": "infinite",
				"configureSale(uint256,uint256,uint256,uint256,uint256,uint256,uint256)": "157418",
				"configureSecurity(uint256,uint256,uint256)": "70196",
				"configureVesting(uint256,uint256,uint256)": "68898",
				"defaultVesting()": "6607",
				"emergencyWithdraw(address)": "infinite",
				"feePercentage()": "2362",
				"feeWallet()": "2403",
				"finalizeSale()": "63542",
				"fundWallet()": "2404",
				"getCurrentBnbPrice()": "infinite",
				"getSaleInfo()": "17258",
				"getUserInfo(address)": "infinite",
				"getVestingInfo(address)": "15816",
				"initialize(address,address,address,uint256)": "infinite",
				"lastPurchaseBlock(address)": "2605",
				"lastPurchaseTime(address)": "2629",
				"manualBnbPrice()": "2407",
				"multisigApprovals(bytes32)": "2546",
				"multisigSigners(address)": "2662",
				"owner()": "2463",
				"pause()": "infinite",
				"paused()": "2392",
				"priceOracle()": "2471",
				"processFiatPayment(address,uint256,bytes32)": "infinite",
				"processRefund()": "infinite",
				"processedPayments(bytes32)": "2558",
				"proxiableUUID()": "infinite",
				"purchaseTokens()": "infinite",
				"refundableAmounts(address)": "2649",
				"renounceOwnership()": "infinite",
				"saleConfig()": "19429",
				"securityConfig()": "8783",
				"setMultisigSigner(address,bool)": "27050",
				"setUserStatus(address,uint256)": "24775",
				"token()": "2446",
				"tokenPerUsd()": "2384",
				"transferOwnership(address)": "28454",
				"unpause()": "infinite",
				"upgradeToAndCall(address,bytes)": "infinite",
				"useManualPrice()": "2442",
				"useOracle()": "2395",
				"userPurchases(address)": "2606",
				"userStatus(address)": "2607",
				"vestingSchedules(address)": "15473",
				"withdrawUnsoldTokens()": "infinite"
			},
			"internal": {
				"_authorizeUpgrade(address)": "infinite",
				"_calculateTokenAmount(uint256)": "infinite",
				"_createVestingSchedule(address,uint256,uint256,uint256,uint256)": "infinite",
				"_getBnbToUsdAmount(uint256)": "infinite",
				"_isBlacklisted(address)": "infinite",
				"_isKYCVerified(address)": "infinite",
				"_isValidUser(address)": "6669",
				"_isWhitelisted(address)": "infinite",
				"_processPurchase(address,uint256,uint256)": "infinite",
				"_validatePurchase(address,uint256)": "infinite"
			}
		},
		"methodIdentifiers": {
			"UPGRADE_INTERFACE_VERSION()": "ad3cb1cc",
			"airdropClaimed(address)": "d1b6dd30",
			"airdropConfig()": "0cb0d5f8",
			"airdropVesting()": "09ce871c",
			"batchClaimTokens(address[])": "a281c0ce",
			"batchCreateVesting(address[],uint256[],uint256[],uint256[],uint256[])": "defa27f9",
			"batchProcessFiatPayments(address[],uint256[],bytes32[])": "0c38d039",
			"batchSetUserStatus(address[],uint256[])": "624253d6",
			"calculateClaimableAmount(address)": "7274f7fd",
			"claimAirdrop(bytes32[],uint256)": "3335252b",
			"claimVestedTokens()": "e74f3fbb",
			"configureAirdrop(bytes32,uint256)": "a4369a6f",
			"configureAirdropVesting(uint256,uint256,uint256)": "ba3586f0",
			"configurePricing(uint256,address,bool,uint256,bool)": "b2cfd4b7",
			"configureSale(uint256,uint256,uint256,uint256,uint256,uint256,uint256)": "997f5070",
			"configureSecurity(uint256,uint256,uint256)": "20d8c796",
			"configureVesting(uint256,uint256,uint256)": "a59989ac",
			"defaultVesting()": "b9edb3a5",
			"emergencyWithdraw(address)": "6ff1c9bc",
			"feePercentage()": "a001ecdd",
			"feeWallet()": "f25f4b56",
			"finalizeSale()": "58a687ec",
			"fundWallet()": "664a1ad6",
			"getCurrentBnbPrice()": "2a246139",
			"getSaleInfo()": "db83694c",
			"getUserInfo(address)": "6386c1c7",
			"getVestingInfo(address)": "fb897ce4",
			"initialize(address,address,address,uint256)": "cf756fdf",
			"lastPurchaseBlock(address)": "86cbf53a",
			"lastPurchaseTime(address)": "227a14c1",
			"manualBnbPrice()": "9f8ed38d",
			"multisigApprovals(bytes32)": "891b591b",
			"multisigSigners(address)": "b4519398",
			"owner()": "8da5cb5b",
			"pause()": "8456cb59",
			"paused()": "5c975abb",
			"priceOracle()": "2630c12f",
			"processFiatPayment(address,uint256,bytes32)": "398348e5",
			"processRefund()": "dae80521",
			"processedPayments(bytes32)": "f3f247eb",
			"proxiableUUID()": "52d1902d",
			"purchaseTokens()": "3290ce29",
			"refundableAmounts(address)": "f43b05e9",
			"renounceOwnership()": "715018a6",
			"saleConfig()": "90aa0b0f",
			"securityConfig()": "be11b1d0",
			"setMultisigSigner(address,bool)": "4357c013",
			"setUserStatus(address,uint256)": "f71cc3a5",
			"token()": "fc0c546a",
			"tokenPerUsd()": "a1e98a6d",
			"transferOwnership(address)": "f2fde38b",
			"unpause()": "3f4ba83a",
			"upgradeToAndCall(address,bytes)": "4f1ef286",
			"useManualPrice()": "e82ba406",
			"useOracle()": "44878724",
			"userPurchases(address)": "39f65c09",
			"userStatus(address)": "225d29a1",
			"vestingSchedules(address)": "fdb20ccb",
			"withdrawUnsoldTokens()": "c8bdbfb6"
		}
	},
	"abi": [
		{
			"inputs": [
				{
					"internalType": "address",
					"name": "target",
					"type": "address"
				}
			],
			"name": "AddressEmptyCode",
			"type": "error"
		},
		{
			"inputs": [
				{
					"internalType": "address",
					"name": "implementation",
					"type": "address"
				}
			],
			"name": "ERC1967InvalidImplementation",
			"type": "error"
		},
		{
			"inputs": [],
			"name": "ERC1967NonPayable",
			"type": "error"
		},
		{
			"inputs": [],
			"name": "FailedCall",
			"type": "error"
		},
		{
			"inputs": [],
			"name": "InvalidInitialization",
			"type": "error"
		},
		{
			"inputs": [],
			"name": "NotInitializing",
			"type": "error"
		},
		{
			"inputs": [
				{
					"internalType": "address",
					"name": "owner",
					"type": "address"
				}
			],
			"name": "OwnableInvalidOwner",
			"type": "error"
		},
		{
			"inputs": [
				{
					"internalType": "address",
					"name": "account",
					"type": "address"
				}
			],
			"name": "OwnableUnauthorizedAccount",
			"type": "error"
		},
		{
			"inputs": [],
			"name": "UUPSUnauthorizedCallContext",
			"type": "error"
		},
		{
			"inputs": [
				{
					"internalType": "bytes32",
					"name": "slot",
					"type": "bytes32"
				}
			],
			"name": "UUPSUnsupportedProxiableUUID",
			"type": "error"
		},
		{
			"anonymous": false,
			"inputs": [
				{
					"indexed": true,
					"internalType": "address",
					"name": "user",
					"type": "address"
				},
				{
					"indexed": false,
					"internalType": "uint256",
					"name": "amount",
					"type": "uint256"
				}
			],
			"name": "AirdropClaimed",
			"type": "event"
		},
		{
			"anonymous": false,
			"inputs": [
				{
					"indexed": false,
					"internalType": "address[]",
					"name": "users",
					"type": "address[]"
				},
				{
					"indexed": false,
					"internalType": "uint256[]",
					"name": "amounts",
					"type": "uint256[]"
				}
			],
			"name": "BatchVestingCreated",
			"type": "event"
		},
		{
			"anonymous": false,
			"inputs": [
				{
					"indexed": true,
					"internalType": "string",
					"name": "configType",
					"type": "string"
				},
				{
					"indexed": false,
					"internalType": "uint256",
					"name": "value",
					"type": "uint256"
				}
			],
			"name": "ConfigurationUpdated",
			"type": "event"
		},
		{
			"anonymous": false,
			"inputs": [
				{
					"indexed": true,
					"internalType": "address",
					"name": "feeWallet",
					"type": "address"
				},
				{
					"indexed": false,
					"internalType": "uint256",
					"name": "amount",
					"type": "uint256"
				}
			],
			"name": "FeeTransferred",
			"type": "event"
		},
		{
			"anonymous": false,
			"inputs": [
				{
					"indexed": true,
					"internalType": "address",
					"name": "recipient",
					"type": "address"
				},
				{
					"indexed": false,
					"internalType": "uint256",
					"name": "amount",
					"type": "uint256"
				},
				{
					"indexed": true,
					"internalType": "bytes32",
					"name": "paymentId",
					"type": "bytes32"
				}
			],
			"name": "FiatPaymentProcessed",
			"type": "event"
		},
		{
			"anonymous": false,
			"inputs": [
				{
					"indexed": false,
					"internalType": "uint64",
					"name": "version",
					"type": "uint64"
				}
			],
			"name": "Initialized",
			"type": "event"
		},
		{
			"anonymous": false,
			"inputs": [
				{
					"indexed": true,
					"internalType": "address",
					"name": "previousOwner",
					"type": "address"
				},
				{
					"indexed": true,
					"internalType": "address",
					"name": "newOwner",
					"type": "address"
				}
			],
			"name": "OwnershipTransferred",
			"type": "event"
		},
		{
			"anonymous": false,
			"inputs": [
				{
					"indexed": false,
					"internalType": "address",
					"name": "account",
					"type": "address"
				}
			],
			"name": "Paused",
			"type": "event"
		},
		{
			"anonymous": false,
			"inputs": [
				{
					"indexed": true,
					"internalType": "address",
					"name": "user",
					"type": "address"
				},
				{
					"indexed": false,
					"internalType": "uint256",
					"name": "amount",
					"type": "uint256"
				}
			],
			"name": "RefundProcessed",
			"type": "event"
		},
		{
			"anonymous": false,
			"inputs": [
				{
					"indexed": false,
					"internalType": "uint256",
					"name": "totalRaised",
					"type": "uint256"
				}
			],
			"name": "SaleFinalized",
			"type": "event"
		},
		{
			"anonymous": false,
			"inputs": [
				{
					"indexed": false,
					"internalType": "uint256",
					"name": "antiWhaleLimit",
					"type": "uint256"
				},
				{
					"indexed": false,
					"internalType": "uint256",
					"name": "cooldown",
					"type": "uint256"
				}
			],
			"name": "SecurityParametersUpdated",
			"type": "event"
		},
		{
			"anonymous": false,
			"inputs": [
				{
					"indexed": true,
					"internalType": "address",
					"name": "user",
					"type": "address"
				},
				{
					"indexed": false,
					"internalType": "uint256",
					"name": "amount",
					"type": "uint256"
				}
			],
			"name": "TokensClaimed",
			"type": "event"
		},
		{
			"anonymous": false,
			"inputs": [
				{
					"indexed": true,
					"internalType": "address",
					"name": "buyer",
					"type": "address"
				},
				{
					"indexed": false,
					"internalType": "uint256",
					"name": "tokenAmount",
					"type": "uint256"
				},
				{
					"indexed": false,
					"internalType": "uint256",
					"name": "bnbPaid",
					"type": "uint256"
				}
			],
			"name": "TokensPurchased",
			"type": "event"
		},
		{
			"anonymous": false,
			"inputs": [
				{
					"indexed": false,
					"internalType": "address",
					"name": "account",
					"type": "address"
				}
			],
			"name": "Unpaused",
			"type": "event"
		},
		{
			"anonymous": false,
			"inputs": [
				{
					"indexed": true,
					"internalType": "address",
					"name": "implementation",
					"type": "address"
				}
			],
			"name": "Upgraded",
			"type": "event"
		},
		{
			"anonymous": false,
			"inputs": [
				{
					"indexed": true,
					"internalType": "address",
					"name": "user",
					"type": "address"
				},
				{
					"indexed": false,
					"internalType": "uint256",
					"name": "amount",
					"type": "uint256"
				}
			],
			"name": "VestingScheduleCreated",
			"type": "event"
		},
		{
			"anonymous": false,
			"inputs": [
				{
					"indexed": false,
					"internalType": "address",
					"name": "token",
					"type": "address"
				},
				{
					"indexed": false,
					"internalType": "address",
					"name": "fundWallet",
					"type": "address"
				},
				{
					"indexed": false,
					"internalType": "address",
					"name": "feeWallet",
					"type": "address"
				}
			],
			"name": "ZarfixCrowdsaleInitialized",
			"type": "event"
		},
		{
			"inputs": [],
			"name": "UPGRADE_INTERFACE_VERSION",
			"outputs": [
				{
					"internalType": "string",
					"name": "",
					"type": "string"
				}
			],
			"stateMutability": "view",
			"type": "function"
		},
		{
			"inputs": [
				{
					"internalType": "address",
					"name": "",
					"type": "address"
				}
			],
			"name": "airdropClaimed",
			"outputs": [
				{
					"internalType": "bool",
					"name": "",
					"type": "bool"
				}
			],
			"stateMutability": "view",
			"type": "function"
		},
		{
			"inputs": [],
			"name": "airdropConfig",
			"outputs": [
				{
					"internalType": "bytes32",
					"name": "merkleRoot",
					"type": "bytes32"
				},
				{
					"internalType": "uint256",
					"name": "deadline",
					"type": "uint256"
				},
				{
					"internalType": "uint256",
					"name": "totalSupply",
					"type": "uint256"
				}
			],
			"stateMutability": "view",
			"type": "function"
		},
		{
			"inputs": [],
			"name": "airdropVesting",
			"outputs": [
				{
					"internalType": "uint256",
					"name": "duration",
					"type": "uint256"
				},
				{
					"internalType": "uint256",
					"name": "cliffPeriod",
					"type": "uint256"
				},
				{
					"internalType": "uint256",
					"name": "cliffPercentage",
					"type": "uint256"
				}
			],
			"stateMutability": "view",
			"type": "function"
		},
		{
			"inputs": [
				{
					"internalType": "address[]",
					"name": "users",
					"type": "address[]"
				}
			],
			"name": "batchClaimTokens",
			"outputs": [],
			"stateMutability": "nonpayable",
			"type": "function"
		},
		{
			"inputs": [
				{
					"internalType": "address[]",
					"name": "users",
					"type": "address[]"
				},
				{
					"internalType": "uint256[]",
					"name": "amounts",
					"type": "uint256[]"
				},
				{
					"internalType": "uint256[]",
					"name": "durations",
					"type": "uint256[]"
				},
				{
					"internalType": "uint256[]",
					"name": "cliffPeriods",
					"type": "uint256[]"
				},
				{
					"internalType": "uint256[]",
					"name": "cliffPercentages",
					"type": "uint256[]"
				}
			],
			"name": "batchCreateVesting",
			"outputs": [],
			"stateMutability": "nonpayable",
			"type": "function"
		},
		{
			"inputs": [
				{
					"internalType": "address[]",
					"name": "recipients",
					"type": "address[]"
				},
				{
					"internalType": "uint256[]",
					"name": "amounts",
					"type": "uint256[]"
				},
				{
					"internalType": "bytes32[]",
					"name": "paymentIds",
					"type": "bytes32[]"
				}
			],
			"name": "batchProcessFiatPayments",
			"outputs": [],
			"stateMutability": "nonpayable",
			"type": "function"
		},
		{
			"inputs": [
				{
					"internalType": "address[]",
					"name": "users",
					"type": "address[]"
				},
				{
					"internalType": "uint256[]",
					"name": "statuses",
					"type": "uint256[]"
				}
			],
			"name": "batchSetUserStatus",
			"outputs": [],
			"stateMutability": "nonpayable",
			"type": "function"
		},
		{
			"inputs": [
				{
					"internalType": "address",
					"name": "user",
					"type": "address"
				}
			],
			"name": "calculateClaimableAmount",
			"outputs": [
				{
					"internalType": "uint256",
					"name": "",
					"type": "uint256"
				}
			],
			"stateMutability": "view",
			"type": "function"
		},
		{
			"inputs": [
				{
					"internalType": "bytes32[]",
					"name": "proof",
					"type": "bytes32[]"
				},
				{
					"internalType": "uint256",
					"name": "amount",
					"type": "uint256"
				}
			],
			"name": "claimAirdrop",
			"outputs": [],
			"stateMutability": "nonpayable",
			"type": "function"
		},
		{
			"inputs": [],
			"name": "claimVestedTokens",
			"outputs": [],
			"stateMutability": "nonpayable",
			"type": "function"
		},
		{
			"inputs": [
				{
					"internalType": "bytes32",
					"name": "merkleRoot",
					"type": "bytes32"
				},
				{
					"internalType": "uint256",
					"name": "deadline",
					"type": "uint256"
				}
			],
			"name": "configureAirdrop",
			"outputs": [],
			"stateMutability": "nonpayable",
			"type": "function"
		},
		{
			"inputs": [
				{
					"internalType": "uint256",
					"name": "duration",
					"type": "uint256"
				},
				{
					"internalType": "uint256",
					"name": "cliffPeriod",
					"type": "uint256"
				},
				{
					"internalType": "uint256",
					"name": "cliffPercentage",
					"type": "uint256"
				}
			],
			"name": "configureAirdropVesting",
			"outputs": [],
			"stateMutability": "nonpayable",
			"type": "function"
		},
		{
			"inputs": [
				{
					"internalType": "uint256",
					"name": "_tokenPerUsd",
					"type": "uint256"
				},
				{
					"internalType": "address",
					"name": "_oracle",
					"type": "address"
				},
				{
					"internalType": "bool",
					"name": "_useOracle",
					"type": "bool"
				},
				{
					"internalType": "uint256",
					"name": "_manualPrice",
					"type": "uint256"
				},
				{
					"internalType": "bool",
					"name": "_useManualPrice",
					"type": "bool"
				}
			],
			"name": "configurePricing",
			"outputs": [],
			"stateMutability": "nonpayable",
			"type": "function"
		},
		{
			"inputs": [
				{
					"internalType": "uint256",
					"name": "startTime",
					"type": "uint256"
				},
				{
					"internalType": "uint256",
					"name": "endTime",
					"type": "uint256"
				},
				{
					"internalType": "uint256",
					"name": "maxPerTx",
					"type": "uint256"
				},
				{
					"internalType": "uint256",
					"name": "maxPerWallet",
					"type": "uint256"
				},
				{
					"internalType": "uint256",
					"name": "softCap",
					"type": "uint256"
				},
				{
					"internalType": "uint256",
					"name": "hardCap",
					"type": "uint256"
				},
				{
					"internalType": "uint256",
					"name": "totalSupply",
					"type": "uint256"
				}
			],
			"name": "configureSale",
			"outputs": [],
			"stateMutability": "nonpayable",
			"type": "function"
		},
		{
			"inputs": [
				{
					"internalType": "uint256",
					"name": "antiWhaleLimit",
					"type": "uint256"
				},
				{
					"internalType": "uint256",
					"name": "cooldownPeriod",
					"type": "uint256"
				},
				{
					"internalType": "uint256",
					"name": "multisigThreshold",
					"type": "uint256"
				}
			],
			"name": "configureSecurity",
			"outputs": [],
			"stateMutability": "nonpayable",
			"type": "function"
		},
		{
			"inputs": [
				{
					"internalType": "uint256",
					"name": "duration",
					"type": "uint256"
				},
				{
					"internalType": "uint256",
					"name": "cliffPeriod",
					"type": "uint256"
				},
				{
					"internalType": "uint256",
					"name": "cliffPercentage",
					"type": "uint256"
				}
			],
			"name": "configureVesting",
			"outputs": [],
			"stateMutability": "nonpayable",
			"type": "function"
		},
		{
			"inputs": [],
			"name": "defaultVesting",
			"outputs": [
				{
					"internalType": "uint256",
					"name": "duration",
					"type": "uint256"
				},
				{
					"internalType": "uint256",
					"name": "cliffPeriod",
					"type": "uint256"
				},
				{
					"internalType": "uint256",
					"name": "cliffPercentage",
					"type": "uint256"
				}
			],
			"stateMutability": "view",
			"type": "function"
		},
		{
			"inputs": [
				{
					"internalType": "address",
					"name": "recipient",
					"type": "address"
				}
			],
			"name": "emergencyWithdraw",
			"outputs": [],
			"stateMutability": "nonpayable",
			"type": "function"
		},
		{
			"inputs": [],
			"name": "feePercentage",
			"outputs": [
				{
					"internalType": "uint256",
					"name": "",
					"type": "uint256"
				}
			],
			"stateMutability": "view",
			"type": "function"
		},
		{
			"inputs": [],
			"name": "feeWallet",
			"outputs": [
				{
					"internalType": "address",
					"name": "",
					"type": "address"
				}
			],
			"stateMutability": "view",
			"type": "function"
		},
		{
			"inputs": [],
			"name": "finalizeSale",
			"outputs": [],
			"stateMutability": "nonpayable",
			"type": "function"
		},
		{
			"inputs": [],
			"name": "fundWallet",
			"outputs": [
				{
					"internalType": "address",
					"name": "",
					"type": "address"
				}
			],
			"stateMutability": "view",
			"type": "function"
		},
		{
			"inputs": [],
			"name": "getCurrentBnbPrice",
			"outputs": [
				{
					"internalType": "uint256",
					"name": "",
					"type": "uint256"
				}
			],
			"stateMutability": "view",
			"type": "function"
		},
		{
			"inputs": [],
			"name": "getSaleInfo",
			"outputs": [
				{
					"internalType": "uint256",
					"name": "startTime",
					"type": "uint256"
				},
				{
					"internalType": "uint256",
					"name": "endTime",
					"type": "uint256"
				},
				{
					"internalType": "uint256",
					"name": "totalSold",
					"type": "uint256"
				},
				{
					"internalType": "uint256",
					"name": "totalSupply",
					"type": "uint256"
				},
				{
					"internalType": "uint256",
					"name": "softCap",
					"type": "uint256"
				},
				{
					"internalType": "uint256",
					"name": "hardCap",
					"type": "uint256"
				},
				{
					"internalType": "bool",
					"name": "finalized",
					"type": "bool"
				},
				{
					"internalType": "bool",
					"name": "refundEnabled",
					"type": "bool"
				},
				{
					"internalType": "uint256",
					"name": "currentPrice",
					"type": "uint256"
				}
			],
			"stateMutability": "view",
			"type": "function"
		},
		{
			"inputs": [
				{
					"internalType": "address",
					"name": "user",
					"type": "address"
				}
			],
			"name": "getUserInfo",
			"outputs": [
				{
					"internalType": "uint256",
					"name": "totalPurchased",
					"type": "uint256"
				},
				{
					"internalType": "uint256",
					"name": "claimableAmount",
					"type": "uint256"
				},
				{
					"internalType": "uint256",
					"name": "claimedAmount",
					"type": "uint256"
				},
				{
					"internalType": "uint256",
					"name": "refundableAmount",
					"type": "uint256"
				},
				{
					"internalType": "bool",
					"name": "isWhitelisted",
					"type": "bool"
				},
				{
					"internalType": "bool",
					"name": "isKYCVerified",
					"type": "bool"
				},
				{
					"internalType": "bool",
					"name": "isBlacklisted",
					"type": "bool"
				}
			],
			"stateMutability": "view",
			"type": "function"
		},
		{
			"inputs": [
				{
					"internalType": "address",
					"name": "user",
					"type": "address"
				}
			],
			"name": "getVestingInfo",
			"outputs": [
				{
					"components": [
						{
							"internalType": "uint256",
							"name": "totalAmount",
							"type": "uint256"
						},
						{
							"internalType": "uint256",
							"name": "claimedAmount",
							"type": "uint256"
						},
						{
							"internalType": "uint256",
							"name": "startTime",
							"type": "uint256"
						},
						{
							"internalType": "uint256",
							"name": "duration",
							"type": "uint256"
						},
						{
							"internalType": "uint256",
							"name": "cliffPeriod",
							"type": "uint256"
						},
						{
							"internalType": "uint256",
							"name": "cliffPercentage",
							"type": "uint256"
						},
						{
							"internalType": "bool",
							"name": "isActive",
							"type": "bool"
						}
					],
					"internalType": "struct ZarfixCrowdsale.VestingInfo",
					"name": "",
					"type": "tuple"
				}
			],
			"stateMutability": "view",
			"type": "function"
		},
		{
			"inputs": [
				{
					"internalType": "address",
					"name": "_token",
					"type": "address"
				},
				{
					"internalType": "address",
					"name": "_fundWallet",
					"type": "address"
				},
				{
					"internalType": "address",
					"name": "_feeWallet",
					"type": "address"
				},
				{
					"internalType": "uint256",
					"name": "_feePercentage",
					"type": "uint256"
				}
			],
			"name": "initialize",
			"outputs": [],
			"stateMutability": "nonpayable",
			"type": "function"
		},
		{
			"inputs": [
				{
					"internalType": "address",
					"name": "",
					"type": "address"
				}
			],
			"name": "lastPurchaseBlock",
			"outputs": [
				{
					"internalType": "uint256",
					"name": "",
					"type": "uint256"
				}
			],
			"stateMutability": "view",
			"type": "function"
		},
		{
			"inputs": [
				{
					"internalType": "address",
					"name": "",
					"type": "address"
				}
			],
			"name": "lastPurchaseTime",
			"outputs": [
				{
					"internalType": "uint256",
					"name": "",
					"type": "uint256"
				}
			],
			"stateMutability": "view",
			"type": "function"
		},
		{
			"inputs": [],
			"name": "manualBnbPrice",
			"outputs": [
				{
					"internalType": "uint256",
					"name": "",
					"type": "uint256"
				}
			],
			"stateMutability": "view",
			"type": "function"
		},
		{
			"inputs": [
				{
					"internalType": "bytes32",
					"name": "",
					"type": "bytes32"
				}
			],
			"name": "multisigApprovals",
			"outputs": [
				{
					"internalType": "uint256",
					"name": "",
					"type": "uint256"
				}
			],
			"stateMutability": "view",
			"type": "function"
		},
		{
			"inputs": [
				{
					"internalType": "address",
					"name": "",
					"type": "address"
				}
			],
			"name": "multisigSigners",
			"outputs": [
				{
					"internalType": "bool",
					"name": "",
					"type": "bool"
				}
			],
			"stateMutability": "view",
			"type": "function"
		},
		{
			"inputs": [],
			"name": "owner",
			"outputs": [
				{
					"internalType": "address",
					"name": "",
					"type": "address"
				}
			],
			"stateMutability": "view",
			"type": "function"
		},
		{
			"inputs": [],
			"name": "pause",
			"outputs": [],
			"stateMutability": "nonpayable",
			"type": "function"
		},
		{
			"inputs": [],
			"name": "paused",
			"outputs": [
				{
					"internalType": "bool",
					"name": "",
					"type": "bool"
				}
			],
			"stateMutability": "view",
			"type": "function"
		},
		{
			"inputs": [],
			"name": "priceOracle",
			"outputs": [
				{
					"internalType": "contract AggregatorV3Interface",
					"name": "",
					"type": "address"
				}
			],
			"stateMutability": "view",
			"type": "function"
		},
		{
			"inputs": [
				{
					"internalType": "address",
					"name": "recipient",
					"type": "address"
				},
				{
					"internalType": "uint256",
					"name": "tokenAmount",
					"type": "uint256"
				},
				{
					"internalType": "bytes32",
					"name": "paymentId",
					"type": "bytes32"
				}
			],
			"name": "processFiatPayment",
			"outputs": [],
			"stateMutability": "nonpayable",
			"type": "function"
		},
		{
			"inputs": [],
			"name": "processRefund",
			"outputs": [],
			"stateMutability": "nonpayable",
			"type": "function"
		},
		{
			"inputs": [
				{
					"internalType": "bytes32",
					"name": "",
					"type": "bytes32"
				}
			],
			"name": "processedPayments",
			"outputs": [
				{
					"internalType": "bool",
					"name": "",
					"type": "bool"
				}
			],
			"stateMutability": "view",
			"type": "function"
		},
		{
			"inputs": [],
			"name": "proxiableUUID",
			"outputs": [
				{
					"internalType": "bytes32",
					"name": "",
					"type": "bytes32"
				}
			],
			"stateMutability": "view",
			"type": "function"
		},
		{
			"inputs": [],
			"name": "purchaseTokens",
			"outputs": [],
			"stateMutability": "payable",
			"type": "function"
		},
		{
			"inputs": [
				{
					"internalType": "address",
					"name": "",
					"type": "address"
				}
			],
			"name": "refundableAmounts",
			"outputs": [
				{
					"internalType": "uint256",
					"name": "",
					"type": "uint256"
				}
			],
			"stateMutability": "view",
			"type": "function"
		},
		{
			"inputs": [],
			"name": "renounceOwnership",
			"outputs": [],
			"stateMutability": "nonpayable",
			"type": "function"
		},
		{
			"inputs": [],
			"name": "saleConfig",
			"outputs": [
				{
					"internalType": "uint256",
					"name": "startTime",
					"type": "uint256"
				},
				{
					"internalType": "uint256",
					"name": "endTime",
					"type": "uint256"
				},
				{
					"internalType": "uint256",
					"name": "maxPerTransaction",
					"type": "uint256"
				},
				{
					"internalType": "uint256",
					"name": "maxPerWallet",
					"type": "uint256"
				},
				{
					"internalType": "uint256",
					"name": "softCap",
					"type": "uint256"
				},
				{
					"internalType": "uint256",
					"name": "hardCap",
					"type": "uint256"
				},
				{
					"internalType": "uint256",
					"name": "totalSupply",
					"type": "uint256"
				},
				{
					"internalType": "uint256",
					"name": "totalSold",
					"type": "uint256"
				},
				{
					"internalType": "bool",
					"name": "finalized",
					"type": "bool"
				},
				{
					"internalType": "bool",
					"name": "refundEnabled",
					"type": "bool"
				}
			],
			"stateMutability": "view",
			"type": "function"
		},
		{
			"inputs": [],
			"name": "securityConfig",
			"outputs": [
				{
					"internalType": "uint256",
					"name": "antiWhaleTxLimit",
					"type": "uint256"
				},
				{
					"internalType": "uint256",
					"name": "cooldownPeriod",
					"type": "uint256"
				},
				{
					"internalType": "uint256",
					"name": "multisigThreshold",
					"type": "uint256"
				},
				{
					"internalType": "uint256",
					"name": "totalFeeCollected",
					"type": "uint256"
				}
			],
			"stateMutability": "view",
			"type": "function"
		},
		{
			"inputs": [
				{
					"internalType": "address",
					"name": "signer",
					"type": "address"
				},
				{
					"internalType": "bool",
					"name": "status",
					"type": "bool"
				}
			],
			"name": "setMultisigSigner",
			"outputs": [],
			"stateMutability": "nonpayable",
			"type": "function"
		},
		{
			"inputs": [
				{
					"internalType": "address",
					"name": "user",
					"type": "address"
				},
				{
					"internalType": "uint256",
					"name": "status",
					"type": "uint256"
				}
			],
			"name": "setUserStatus",
			"outputs": [],
			"stateMutability": "nonpayable",
			"type": "function"
		},
		{
			"inputs": [],
			"name": "token",
			"outputs": [
				{
					"internalType": "contract IERC20Upgradeable",
					"name": "",
					"type": "address"
				}
			],
			"stateMutability": "view",
			"type": "function"
		},
		{
			"inputs": [],
			"name": "tokenPerUsd",
			"outputs": [
				{
					"internalType": "uint256",
					"name": "",
					"type": "uint256"
				}
			],
			"stateMutability": "view",
			"type": "function"
		},
		{
			"inputs": [
				{
					"internalType": "address",
					"name": "newOwner",
					"type": "address"
				}
			],
			"name": "transferOwnership",
			"outputs": [],
			"stateMutability": "nonpayable",
			"type": "function"
		},
		{
			"inputs": [],
			"name": "unpause",
			"outputs": [],
			"stateMutability": "nonpayable",
			"type": "function"
		},
		{
			"inputs": [
				{
					"internalType": "address",
					"name": "newImplementation",
					"type": "address"
				},
				{
					"internalType": "bytes",
					"name": "data",
					"type": "bytes"
				}
			],
			"name": "upgradeToAndCall",
			"outputs": [],
			"stateMutability": "payable",
			"type": "function"
		},
		{
			"inputs": [],
			"name": "useManualPrice",
			"outputs": [
				{
					"internalType": "bool",
					"name": "",
					"type": "bool"
				}
			],
			"stateMutability": "view",
			"type": "function"
		},
		{
			"inputs": [],
			"name": "useOracle",
			"outputs": [
				{
					"internalType": "bool",
					"name": "",
					"type": "bool"
				}
			],
			"stateMutability": "view",
			"type": "function"
		},
		{
			"inputs": [
				{
					"internalType": "address",
					"name": "",
					"type": "address"
				}
			],
			"name": "userPurchases",
			"outputs": [
				{
					"internalType": "uint256",
					"name": "",
					"type": "uint256"
				}
			],
			"stateMutability": "view",
			"type": "function"
		},
		{
			"inputs": [
				{
					"internalType": "address",
					"name": "",
					"type": "address"
				}
			],
			"name": "userStatus",
			"outputs": [
				{
					"internalType": "uint256",
					"name": "",
					"type": "uint256"
				}
			],
			"stateMutability": "view",
			"type": "function"
		},
		{
			"inputs": [
				{
					"internalType": "address",
					"name": "",
					"type": "address"
				}
			],
			"name": "vestingSchedules",
			"outputs": [
				{
					"internalType": "uint256",
					"name": "totalAmount",
					"type": "uint256"
				},
				{
					"internalType": "uint256",
					"name": "claimedAmount",
					"type": "uint256"
				},
				{
					"internalType": "uint256",
					"name": "startTime",
					"type": "uint256"
				},
				{
					"internalType": "uint256",
					"name": "duration",
					"type": "uint256"
				},
				{
					"internalType": "uint256",
					"name": "cliffPeriod",
					"type": "uint256"
				},
				{
					"internalType": "uint256",
					"name": "cliffPercentage",
					"type": "uint256"
				},
				{
					"internalType": "bool",
					"name": "isActive",
					"type": "bool"
				}
			],
			"stateMutability": "view",
			"type": "function"
		},
		{
			"inputs": [],
			"name": "withdrawUnsoldTokens",
			"outputs": [],
			"stateMutability": "nonpayable",
			"type": "function"
		},
		{
			"stateMutability": "payable",
			"type": "receive"
		}
	]
}