{
	"data": {
		"bytecode": {
			"linkReferences": {},
			"object": "60a0604052306080523480156012575f5ffd5b5060805161532e6100395f395f8181613d9101528181613dba0152613f08015261532e5ff3fe608060405260043610610617575f3560e01c80637dc0d1d01161031b578063b9b2b5cd116101ae578063e328400c116100fd578063f7d13a1f1161009d578063f968adbe11610078578063f968adbe146112c9578063fb5f749f146112de578063fc0c546a146112fd578063fff960051461131c575f5ffd5b8063f7d13a1f14611276578063f89be59314611295578063f8c8765e146112aa575f5ffd5b8063eef09bad116100d8578063eef09bad14611204578063f25f4b5614611219578063f71cc3a514611238578063f71ec2f514611257575f5ffd5b8063e328400c14611192578063e63ab1e9146111c5578063ea2b95a3146111e5575f5ffd5b8063d1b6dd3011610168578063d96a094a11610143578063d96a094a146110bb578063daf49863146110ce578063ddbba7751461115e578063de3c1b1b14611173575f5ffd5b8063d1b6dd3014611059578063d547741f14611087578063d9082962146110a6575f5ffd5b8063b9b2b5cd14610f8c578063bc063e1a14610fa1578063bf7c213114610fb6578063bf89662d14610fe1578063c1adf7bc14611000578063c1f0808a1461102b575f5ffd5b80639f81aed71161026a578063a583024b11610224578063af267f8f116101ff578063af267f8f14610f23578063b071cbe614610f42578063b3f05b9714610f57578063b602688114610f77575f5ffd5b8063a583024b14610e9c578063acde5d2814610ebb578063ad3cb1cc14610ee6575f5ffd5b80639f81aed714610e0c578063a075b7c714610e21578063a1e98a6d14610e40578063a217fddf14610e55578063a2c9d63014610e68578063a3f2ad5b14610e7d575f5ffd5b80638c75ec80116102d5578063950bff9f116102b0578063950bff9f14610d99578063952ca92c14610dad5780639605330b14610dd8578063960bfe0414610ded575f5ffd5b80638c75ec8014610d505780639106d7ba14610d6557806391d1485414610d7a575f5ffd5b80637dc0d1d014610cb05780637ed1c99014610ccf5780637fd6f15c14610ce45780638456cb5914610cf9578063856734c414610d0d5780638805aaa814610d2e575f5ffd5b80634e71d92d116104ad57806363285436116103fc5780636a61e5fc1161039c578063758ee74811610377578063758ee74814610c4757806375b238fc14610c66578063787a08a614610c8657806378e9792514610c9b575f5ffd5b80636a61e5fc14610bf057806371aa60fd14610c0f578063756a24e414610c2e575f5ffd5b806365d67339116103d757806365d6733914610b4d5780636623c5bc14610b6c578063664a1ad614610b8b578063668f6ace14610bc2575f5ffd5b80636328543614610ad05780636386c1c714610aef5780636536084314610b2e575f5ffd5b8063590e1ae3116104675780635c975abb116104425780635c975abb14610a4e5780635d54322d14610a645780635da05f3714610a9157806361d6d38514610abc575f5ffd5b8063590e1ae3146109fa5780635c16e15e14610a0e5780635c8e79e814610a39575f5ffd5b80634e71d92d146109605780634f1ef28614610974578063522fe98e1461098757806352d1902d146109b2578063551512de146109c657806356448d4c146109e5575f5ffd5b80632e455a741161056957806333b5b62e116105235780633f4ba83a116104fe5780633f4ba83a14610904578063453c23101461091857806348dfcac71461092d5780634bb278f31461094c575f5ffd5b806333b5b62e146108b157806336568abe146108c65780633b4c4b25146108e5575f5ffd5b80632e455a74146108165780632eb4a7ab146108345780632f2ff15d146108495780633197cbb614610868578063324536eb1461087d5780633335252b14610892575f5ffd5b806316bfe25c116105d4578063225d29a1116105af578063225d29a114610739578063248a9ca3146107645780632af7e2ea146107835780632d37e6dc14610798575f5ffd5b806316bfe25c146106db5780631936a383146106fb57806320a692a31461071a575f5ffd5b806301ffc9a71461061b57806303c5b1dc1461064f578063059d969d146106705780631234f8681461069357806314bc6ea3146106a857806315aaec0b146106c7575b5f5ffd5b348015610626575f5ffd5b5061063a610635366004614a2d565b61133b565b60405190151581526020015b60405180910390f35b34801561065a575f5ffd5b5061066e610669366004614a54565b611371565b005b34801561067b575f5ffd5b5061068560775481565b604051908152602001610646565b34801561069e575f5ffd5b50610685607b5481565b3480156106b3575f5ffd5b5061066e6106c2366004614a9c565b6113e4565b3480156106d2575f5ffd5b5061066e611426565b3480156106e6575f5ffd5b5060825461063a90600160301b900460ff1681565b348015610706575f5ffd5b5061066e610715366004614ad1565b6114e9565b348015610725575f5ffd5b5061066e610734366004614b08565b6115a9565b348015610744575f5ffd5b50610685610753366004614b42565b60856020525f908152604090205481565b34801561076f575f5ffd5b5061068561077e366004614b5b565b611673565b34801561078e575f5ffd5b5061068560735481565b3480156107a3575f5ffd5b506107d5606b54606c54608254606f5460725460705460715460ff630100000086048116956201000090041694959697565b604080519889526020890197909752941515958701959095529115156060860152608085015260a084015260c083019190915260e082015261010001610646565b348015610821575f5ffd5b5060825461063a90610100900460ff1681565b34801561083f575f5ffd5b5061068560835481565b348015610854575f5ffd5b5061066e610863366004614b72565b611693565b348015610873575f5ffd5b50610685606c5481565b348015610888575f5ffd5b5061068560725481565b34801561089d575f5ffd5b5061066e6108ac366004614bdc565b6116b5565b3480156108bc575f5ffd5b50610685607c5481565b3480156108d1575f5ffd5b5061066e6108e0366004614b72565b6118ce565b3480156108f0575f5ffd5b5061066e6108ff366004614b5b565b611901565b34801561090f575f5ffd5b5061066e611961565b348015610923575f5ffd5b50610685606e5481565b348015610938575f5ffd5b5061066e610947366004614c23565b611983565b348015610957575f5ffd5b5061066e6119bb565b34801561096b575f5ffd5b5061066e611ab8565b61066e610982366004614c5a565b611cf4565b348015610992575f5ffd5b506106856109a1366004614b42565b60846020525f908152604090205481565b3480156109bd575f5ffd5b50610685611d13565b3480156109d1575f5ffd5b5061066e6109e0366004614d1b565b611d2e565b3480156109f0575f5ffd5b5061068560765481565b348015610a05575f5ffd5b5061066e611f58565b348015610a19575f5ffd5b50610685610a28366004614b42565b60896020525f908152604090205481565b348015610a44575f5ffd5b5061068560745481565b348015610a59575f5ffd5b505f5460ff1661063a565b348015610a6f575f5ffd5b50610a83610a7e366004614d54565b612117565b604051610646929190614daa565b348015610a9c575f5ffd5b50610685610aab366004614b5b565b608f6020525f908152604090205481565b348015610ac7575f5ffd5b5061066e612486565b348015610adb575f5ffd5b5061066e610aea366004614b5b565b612678565b348015610afa575f5ffd5b50610b0e610b09366004614b42565b6126a0565b604080519485526020850193909352918301526060820152608001610646565b348015610b39575f5ffd5b5061066e610b48366004614a9c565b6126fd565b348015610b58575f5ffd5b5061066e610b67366004614dc4565b612749565b348015610b77575f5ffd5b5061066e610b86366004614e2e565b612822565b348015610b96575f5ffd5b50606554610baa906001600160a01b031681565b6040516001600160a01b039091168152602001610646565b348015610bcd575f5ffd5b5061063a610bdc366004614b42565b608b6020525f908152604090205460ff1681565b348015610bfb575f5ffd5b5061066e610c0a366004614b5b565b612874565b348015610c1a575f5ffd5b50610685610c29366004614b5b565b6128d0565b348015610c39575f5ffd5b5060825461063a9060ff1681565b348015610c52575f5ffd5b5061066e610c61366004614b42565b6128da565b348015610c71575f5ffd5b506106855f5160206152d95f395f51905f5281565b348015610c91575f5ffd5b50610685607a5481565b348015610ca6575f5ffd5b50610685606b5481565b348015610cbb575f5ffd5b50606754610baa906001600160a01b031681565b348015610cda575f5ffd5b5061068560785481565b348015610cef575f5ffd5b5061068560685481565b348015610d04575f5ffd5b5061066e612915565b348015610d18575f5ffd5b5060825461063a90640100000000900460ff1681565b348015610d39575f5ffd5b5060825461063a9065010000000000900460ff1681565b348015610d5b575f5ffd5b50610685607e5481565b348015610d70575f5ffd5b50610685606f5481565b348015610d85575f5ffd5b5061063a610d94366004614b72565b612934565b348015610da4575f5ffd5b50610685606481565b348015610db8575f5ffd5b50610685610dc7366004614b42565b60886020525f908152604090205481565b348015610de3575f5ffd5b5061068560815481565b348015610df8575f5ffd5b5061066e610e07366004614b5b565b61296a565b348015610e17575f5ffd5b5061068561012c81565b348015610e2c575f5ffd5b5061066e610e3b366004614e4a565b6129ca565b348015610e4b575f5ffd5b5061068560695481565b348015610e60575f5ffd5b506106855f81565b348015610e73575f5ffd5b50610685606a5481565b348015610e88575f5ffd5b5061066e610e97366004614b5b565b612a7c565b348015610ea7575f5ffd5b50610685610eb6366004614b42565b612ab5565b348015610ec6575f5ffd5b50610685610ed5366004614b42565b60866020525f908152604090205481565b348015610ef1575f5ffd5b50610f16604051806040016040528060058152602001640352e302e360dc1b81525081565b6040516106469190614e79565b348015610f2e575f5ffd5b5061066e610f3d366004614b5b565b612abf565b348015610f4d575f5ffd5b5061068560715481565b348015610f62575f5ffd5b5060825461063a906301000000900460ff1681565b348015610f82575f5ffd5b5061068560795481565b348015610f97575f5ffd5b50610685607f5481565b348015610fac575f5ffd5b506106856103e881565b348015610fc1575f5ffd5b50610685610fd0366004614b5b565b608e6020525f908152604090205481565b348015610fec575f5ffd5b5060825461063a9062010000900460ff1681565b34801561100b575f5ffd5b5061068561101a366004614b42565b60876020525f908152604090205481565b348015611036575f5ffd5b5061063a611045366004614b5b565b608d6020525f908152604090205460ff1681565b348015611064575f5ffd5b5061063a611073366004614b42565b608a6020525f908152604090205460ff1681565b348015611092575f5ffd5b5061066e6110a1366004614b72565b612bcc565b3480156110b1575f5ffd5b5061068560805481565b61066e6110c9366004614b5b565b612be8565b3480156110d9575f5ffd5b506111276110e8366004614b42565b608c6020525f90815260409020805460018201546002830154600384015460048501546005860154600690960154949593949293919290919060ff1687565b604080519788526020880196909652948601939093526060850191909152608084015260a0830152151560c082015260e001610646565b348015611169575f5ffd5b5061068560755481565b34801561117e575f5ffd5b5061066e61118d366004614e8b565b612f71565b34801561119d575f5ffd5b506106857fa5a0b70b385ff7611cd3840916bd08b10829e5bf9e6637cf79dd9a427fc0e2ab81565b3480156111d0575f5ffd5b506106855f5160206152995f395f51905f5281565b3480156111f0575f5ffd5b5061066e6111ff366004614eb4565b612f97565b34801561120f575f5ffd5b50610685607d5481565b348015611224575f5ffd5b50606654610baa906001600160a01b031681565b348015611243575f5ffd5b5061066e611252366004614d54565b612fc1565b348015611262575f5ffd5b5061066e611271366004614e8b565b612ff4565b348015611281575f5ffd5b5061066e611290366004614ee4565b613069565b3480156112a0575f5ffd5b5061068560705481565b3480156112b5575f5ffd5b5061066e6112c4366004614f80565b613172565b3480156112d4575f5ffd5b50610685606d5481565b3480156112e9575f5ffd5b5061066e6112f8366004614fd1565b61339a565b348015611308575f5ffd5b50606454610baa906001600160a01b031681565b348015611327575f5ffd5b5061066e611336366004614fd1565b61367e565b5f6001600160e01b03198216637965db0b60e01b148061136b57506301ffc9a760e01b6001600160e01b03198316145b92915050565b5f5160206152d95f395f51905f52611388816138f7565b818310801561139657504282115b6113d85760405162461bcd60e51b815260206004820152600e60248201526d125b9d985b1a59081c195c9a5bd960921b60448201526064015b60405180910390fd5b50606b91909155606c55565b5f5160206152d95f395f51905f526113fb816138f7565b506001600160a01b03919091165f908152608b60205260409020805460ff1916911515919091179055565b335f908152608b60205260409020547f495f576338f29b7ed61c48feccc012bc96878fcd88352464569bacf4c57f32019060ff166114765760405162461bcd60e51b81526004016113cf9061500f565b5f818152608e6020526040812080549161148f83615049565b9091555050607e545f828152608e602052604090205410156114c35760405162461bcd60e51b81526004016113cf90615061565b5f908152608e60205260408120556082805466ff0000000000001916600160301b179055565b5f5160206152d95f395f51905f52611500816138f7565b4285116115425760405162461bcd60e51b815260206004820152601060248201526f496e76616c696420646561646c696e6560801b60448201526064016113cf565b838311158015611553575060648211155b6115915760405162461bcd60e51b815260206004820152600f60248201526e496e76616c69642076657374696e6760881b60448201526064016113cf565b50608394909455607692909255607755607855607955565b5f5160206152d95f395f51905f526115c0816138f7565b6001600160a01b038416158015906115e057506001600160a01b03831615155b6115fc5760405162461bcd60e51b81526004016113cf9061508e565b6103e882111561163d5760405162461bcd60e51b815260206004820152600c60248201526b08ccaca40e8dede40d0d2ced60a31b60448201526064016113cf565b50606580546001600160a01b039485166001600160a01b0319918216179091556066805493909416921691909117909155606855565b5f9081525f5160206152b95f395f51905f52602052604090206001015490565b61169c82611673565b6116a5816138f7565b6116af8383613901565b50505050565b6116bd6139a2565b6116c56139e7565b6076544211156117095760405162461bcd60e51b815260206004820152600f60248201526e111958591b1a5b99481c185cdcd959608a1b60448201526064016113cf565b335f908152608a602052604090205460ff161561175a5760405162461bcd60e51b815260206004820152600f60248201526e105b1c9958591e4818db185a5b5959608a1b60448201526064016113cf565b335f90815260856020526040902054600416156117895760405162461bcd60e51b81526004016113cf906150b4565b6040516bffffffffffffffffffffffff193360601b166020820152603481018290525f906054016040516020818303038152906040528051906020012090506118088484808060200260200160405190810160405280939291908181526020018383602002808284375f92019190915250506083549150849050613a40565b6118445760405162461bcd60e51b815260206004820152600d60248201526c24b73b30b634b210383937b7b360991b60448201526064016113cf565b335f908152608a60205260408120805460ff191660011790556081805484929061186f9084906150d9565b925050819055506118893383607754607854607954613a57565b60405182815233907f8c32c568416fcf97be35ce5b27844cfddcd63a67a1a602c3595ba5dac38f303a9060200160405180910390a2506118c96001603255565b505050565b6001600160a01b03811633146118f75760405163334bd91960e11b815260040160405180910390fd5b6118c98282613b5d565b5f5160206152d95f395f51905f52611918816138f7565b606f5482101561195b5760405162461bcd60e51b815260206004820152600e60248201526d537570706c7920746f6f206c6f7760901b60448201526064016113cf565b50607255565b5f5160206152995f395f51905f52611978816138f7565b611980613bd6565b50565b5f5160206152d95f395f51905f5261199a816138f7565b50606a91909155608280549115156101000261ff0019909216919091179055565b335f908152608b60205260409020547f0d206d717b9c0cf07101160e78b6a66831b45fe0347b5760e6aff637204df9fe9060ff16611a0b5760405162461bcd60e51b81526004016113cf9061500f565b5f818152608e60205260408120805491611a2483615049565b9091555050607e545f828152608e60205260409020541015611a585760405162461bcd60e51b81526004016113cf90615061565b5f818152608e6020526040808220919091556082805463ffff000019166301000000179055517f839cf22e1ba87ce2f5b9bbf46cf0175a09eed52febdfaac8852478e68203c76390611aad9047815260200190565b60405180910390a150565b611ac06139a2565b611ac86139e7565b335f908152608c60205260409020600681015460ff168015611aea5750805415155b611b235760405162461bcd60e51b815260206004820152600a6024820152694e6f2076657374696e6760b01b60448201526064016113cf565b5f611b2d33613c27565b90505f8111611b715760405162461bcd60e51b815260206004820152601060248201526f4e6f7468696e6720746f20636c61696d60801b60448201526064016113cf565b6064546040516370a0823160e01b815230600482015282916001600160a01b0316906370a0823190602401602060405180830381865afa158015611bb7573d5f5f3e3d5ffd5b505050506040513d601f19601f82011682018060405250810190611bdb91906150ec565b1015611bf95760405162461bcd60e51b81526004016113cf90615103565b80826001015f828254611c0c91906150d9565b9091555050335f8181526089602052604090819020429055606454905163a9059cbb60e01b81526004810192909252602482018390526001600160a01b03169063a9059cbb906044016020604051808303815f875af1158015611c71573d5f5f3e3d5ffd5b505050506040513d601f19601f82011682018060405250810190611c959190615131565b611cb15760405162461bcd60e51b81526004016113cf9061514c565b60405181815233907f47cee97cb7acd717b3c0aa1435d004cd5b3c8c57d70dbceb4e4458bbd60e39d49060200160405180910390a25050611cf26001603255565b565b611cfc613d86565b611d0582613e2a565b611d0f8282613e41565b5050565b5f611d1c613efd565b505f5160206152795f395f51905f5290565b335f908152608b60205260409020547fe5a31645935587b4a5c783b64ab89f9fb6558bf985184df9e5bf815f41c7f65b9060ff16611d7e5760405162461bcd60e51b81526004016113cf9061500f565b5f818152608e60205260408120805491611d9783615049565b9091555050607e545f828152608e60205260409020541015611dcb5760405162461bcd60e51b81526004016113cf90615061565b5f818152608e60205260408120556001600160a01b038216611dff5760405162461bcd60e51b81526004016113cf9061508e565b6001600160a01b038416611e3d5782471015611e2d5760405162461bcd60e51b81526004016113cf90615103565b611e378284613f46565b506116af565b6040516370a0823160e01b8152306004820152849084906001600160a01b038316906370a0823190602401602060405180830381865afa158015611e83573d5f5f3e3d5ffd5b505050506040513d601f19601f82011682018060405250810190611ea791906150ec565b1015611ec55760405162461bcd60e51b81526004016113cf90615103565b60405163a9059cbb60e01b81526001600160a01b0384811660048301526024820186905282169063a9059cbb906044016020604051808303815f875af1158015611f11573d5f5f3e3d5ffd5b505050506040513d601f19601f82011682018060405250810190611f359190615131565b611f515760405162461bcd60e51b81526004016113cf9061514c565b5050505050565b611f606139a2565b611f686139e7565b60825462010000900460ff1680611f885750608254600160301b900460ff165b611fcb5760405162461bcd60e51b8152602060048201526014602482015273526566756e64206e6f7420617661696c61626c6560601b60448201526064016113cf565b608254600160301b900460ff1661203157606c5442118015611ff05750607054606f54105b6120315760405162461bcd60e51b815260206004820152601260248201527110dbdb991a5d1a5bdb9cc81b9bdd081b595d60721b60448201526064016113cf565b335f90815260866020526040902054806120835760405162461bcd60e51b81526020600482015260136024820152724e6f20726566756e6420617661696c61626c6560681b60448201526064016113cf565b804710156120a35760405162461bcd60e51b81526004016113cf90615103565b335f908152608660205260408120819055608080548392906120c69084906150d9565b909155506120d690503382613f46565b5060405181815233907fbb28353e4598c3b9199101a66e0989549b659a59a54d2c27fbb183f1932c8e6d9060200160405180910390a250611cf26001603255565b5f60606121255f5460ff1690565b1561215057505060408051808201909152600681526514185d5cd95960d21b60208201525f9061247f565b606b544210806121615750606c5442115b1561219257505060408051808201909152600c81526b496e76616c69642074696d6560a01b60208201525f9061247f565b6001600160a01b0384165f90815260856020526040902054600416156121dd57505060408051808201909152600b81526a109b1858dadb1a5cdd195960aa1b60208201525f9061247f565b6121e684613fa0565b61221957505060408051808201909152600f81526e139bdd081dda1a5d195b1a5cdd1959608a1b60208201525f9061247f565b61222284613fd7565b61224c5750506040805180820190915260068152654e6f204b594360d01b60208201525f9061247f565b607c5483101561228357505060408051808201909152600d81526c42656c6f77206d696e696d756d60981b60208201525f9061247f565b607a546001600160a01b0385165f908152608760205260409020546122a891906150d9565b4210156122d757505060408051808201909152600881526721b7b7b63237bbb760c11b60208201525f9061247f565b5f6122e18461400f565b90505f606d541180156122f55750606d5481115b1561232957505060408051808201909152600e81526d08af0c6cacac8e640dac2f040e8f60931b60208201525f915061247f565b5f607b5411801561233b5750607b5481115b1561237157505060408051808201909152601081526f105b9d1a4b5dda185b19481b1a5b5a5d60821b60208201525f915061247f565b5f606e541180156123a55750606e546001600160a01b0386165f908152608460205260409020546123a39083906150d9565b115b156123dd575050604080518082019091526012815271115e18d959591cc81b585e081dd85b1b195d60721b60208201525f915061247f565b60715481606f546123ee91906150d9565b111561242457505060408051808201909152600f81526e045786365656473206861726463617608c1b60208201525f915061247f565b60725481606f5461243591906150d9565b111561246a57505060408051808201909152600e81526d4578636565647320737570706c7960901b60208201525f915061247f565b505060408051602081019091525f8152600191505b9250929050565b335f908152608b60205260409020547f1f1e70fd19224c03dd3e8d32da32900560cd2d6cdacae45c5a0cf6f6ffcb421b9060ff166124d65760405162461bcd60e51b81526004016113cf9061500f565b5f818152608e602052604081208054916124ef83615049565b9091555050607e545f828152608e602052604090205410156125235760405162461bcd60e51b81526004016113cf90615061565b5f818152608e60205260408120556082546301000000900460ff1661257a5760405162461bcd60e51b815260206004820152600d60248201526c139bdd08199a5b985b1a5e9959609a1b60448201526064016113cf565b6064546040516370a0823160e01b81523060048201525f916001600160a01b0316906370a0823190602401602060405180830381865afa1580156125c0573d5f5f3e3d5ffd5b505050506040513d601f19601f820116820180604052508101906125e491906150ec565b60645460655460405163a9059cbb60e01b81526001600160a01b03918216600482015260248101849052929350169063a9059cbb906044016020604051808303815f875af1158015612638573d5f5f3e3d5ffd5b505050506040513d601f19601f8201168201806040525081019061265c9190615131565b611d0f5760405162461bcd60e51b81526004016113cf9061514c565b5f5160206152d95f395f51905f5261268f816138f7565b505f908152608f6020526040812055565b6001600160a01b0381165f908152608460205260408120548190819081906126c786613c27565b6001600160a01b03969096165f908152608c60209081526040808320600101546086909252909120549197909550909350915050565b5f5160206152d95f395f51905f52612714816138f7565b50606780546001600160a01b0319166001600160a01b0393909316929092179091556082805460ff1916911515919091179055565b5f5160206152d95f395f51905f52612760816138f7565b8382148015612770575060648411155b6127ac5760405162461bcd60e51b815260206004820152600d60248201526c092dcecc2d8d2c840c4c2e8c6d609b1b60448201526064016113cf565b5f5b8481101561281a578383828181106127c8576127c8615175565b9050602002013560855f8888858181106127e4576127e4615175565b90506020020160208101906127f99190614b42565b6001600160a01b0316815260208101919091526040015f20556001016127ae565b505050505050565b5f5160206152d95f395f51905f52612839816138f7565b506082805465ffff0000000019166401000000009315159390930265ff00000000001916929092176501000000000091151591909102179055565b5f5160206152d95f395f51905f5261288b816138f7565b5f82116128ca5760405162461bcd60e51b815260206004820152600d60248201526c496e76616c696420707269636560981b60448201526064016113cf565b50606955565b5f61136b8261400f565b5f5160206152d95f395f51905f526128f1816138f7565b506001600160a01b03165f908152608c60205260409020600601805460ff19169055565b5f5160206152995f395f51905f5261292c816138f7565b6119806141b9565b5f9182525f5160206152b95f395f51905f52602090815260408084206001600160a01b0393909316845291905290205460ff1690565b5f5160206152d95f395f51905f52612981816138f7565b5f82116129c45760405162461bcd60e51b8152602060048201526011602482015270125b9d985b1a59081d1a1c995cda1bdb19607a1b60448201526064016113cf565b50607e55565b5f5160206152d95f395f51905f526129e1816138f7565b81831115612a205760405162461bcd60e51b815260206004820152600c60248201526b496e76616c6964206361707360a01b60448201526064016113cf565b8315612a675783851115612a675760405162461bcd60e51b815260206004820152600e60248201526d496e76616c6964206c696d69747360901b60448201526064016113cf565b50606d93909355606e91909155607055607155565b5f5160206152d95f395f51905f52612a93816138f7565b607d54612aa090426150d9565b5f928352608f60205260409092209190915550565b5f61136b82613c27565b5f5160206152d95f395f51905f52612ad6816138f7565b7f21bdcfecfc968befcc9f167bb8476c3f66d82f8a8fd2d06d70978b1cca9a0ad45f819052608f6020527f07c1dc80be300bed967ab0fa2e960e51d8db308b1a05f7014cdd470fa950df3a548015801590612b315750804210155b612b725760405162461bcd60e51b815260206004820152601260248201527154696d656c6f636b206e6f7420726561647960701b60448201526064016113cf565b5f828152608f602052604081205561012c841015612bc45760405162461bcd60e51b815260206004820152600f60248201526e11195b185e481d1bdbc81cda1bdc9d608a1b60448201526064016113cf565b505050607d55565b612bd582611673565b612bde816138f7565b6116af8383613b5d565b612bf06139a2565b612bf86139e7565b335f908152608860205260409020544311612c485760405162461bcd60e51b815260206004820152601060248201526f4f6e652074782070657220626c6f636b60801b60448201526064016113cf565b335f908152608860205260409020439055606b544210801590612c6d5750606c544211155b612ca85760405162461bcd60e51b815260206004820152600c60248201526b496e76616c69642074696d6560a01b60448201526064016113cf565b335f8181526085602052604090205460041615612cd75760405162461bcd60e51b81526004016113cf906150b4565b612ce081613fa0565b612d1e5760405162461bcd60e51b815260206004820152600f60248201526e139bdd081dda1a5d195b1a5cdd1959608a1b60448201526064016113cf565b612d2781613fd7565b612d665760405162461bcd60e51b815260206004820152601060248201526f139bdd0812d650c81d995c9a599a595960821b60448201526064016113cf565b813414612da75760405162461bcd60e51b815260206004820152600f60248201526e082dadeeadce840dad2e6dac2e8c6d608b1b60448201526064016113cf565b607c54341015612de95760405162461bcd60e51b815260206004820152600d60248201526c42656c6f77206d696e696d756d60981b60448201526064016113cf565b607a54335f90815260876020526040902054612e0591906150d9565b421015612e465760405162461bcd60e51b815260206004820152600f60248201526e436f6f6c646f776e2061637469766560881b60448201526064016113cf565b5f612e503461400f565b9050612e5c33826141f5565b335f9081526084602052604081208054839290612e7a9084906150d9565b9250508190555080606f5f828254612e9291906150d9565b9091555050335f9081526086602052604081208054349290612eb59084906150d9565b9091555050335f90815260876020526040902042905560685415612f21575f61271060685434612ee59190615189565b612eef91906151a0565b606654909150612f08906001600160a01b031682613f46565b5080607f5f828254612f1a91906150d9565b9091555050505b612f2b33826143dc565b6040805182815234602082015233917f12cb4648cf3058b17ceeb33e579f8b0bc269fe0843f3900b8e24b6c54871703c910160405180910390a250506119806001603255565b5f5160206152d95f395f51905f52612f88816138f7565b50607a92909255607b55607c55565b5f5160206152d95f395f51905f52612fae816138f7565b612fb66139a2565b6116af84848461446b565b5f5160206152d95f395f51905f52612fd8816138f7565b506001600160a01b039091165f90815260856020526040902055565b5f5160206152d95f395f51905f5261300b816138f7565b83831115801561301c575060648211155b61305a5760405162461bcd60e51b815260206004820152600f60248201526e496e76616c69642076657374696e6760881b60448201526064016113cf565b50607392909255607455607555565b5f5160206152d95f395f51905f52613080816138f7565b6130886139a2565b858414801561309657508382145b6130d45760405162461bcd60e51b815260206004820152600f60248201526e098cadccee8d040dad2e6dac2e8c6d608b1b60448201526064016113cf565b60648611156130f55760405162461bcd60e51b81526004016113cf906151bf565b5f5b868110156131685761316088888381811061311457613114615175565b90506020020160208101906131299190614b42565b87878481811061313b5761313b615175565b9050602002013586868581811061315457613154615175565b9050602002013561446b565b6001016130f7565b5050505050505050565b5f61317b6146ca565b805490915060ff600160401b82041615906001600160401b03165f811580156131a15750825b90505f826001600160401b031660011480156131bc5750303b155b9050811580156131ca575080155b156131e85760405163f92ee8a960e01b815260040160405180910390fd5b845467ffffffffffffffff19166001178555831561321257845460ff60401b1916600160401b1785555b6001600160a01b0389161580159061323257506001600160a01b03881615155b801561324657506001600160a01b03871615155b801561325a57506001600160a01b03861615155b6132765760405162461bcd60e51b81526004016113cf9061508e565b61327e6146f2565b6132866146f2565b61328e6146fa565b61329661470a565b6132a05f87613901565b506132b85f5160206152d95f395f51905f5287613901565b506132d05f5160206152995f395f51905f5287613901565b50606480546001600160a01b03808c166001600160a01b031992831617909255606580548b841690831617905560668054928a16929091169190911790556101f46068556082805462ff000019166201000017905561012c607d556301e1338060735562278d00607455600a607555603c607a556001607e55831561338f57845460ff60401b19168555604051600181527fc7f505b2f371ae2175ee4913f4499e1f2633a7b5936321eed1cdaeb6115181d29060200160405180910390a15b505050505050505050565b5f5160206152d95f395f51905f526133b1816138f7565b6133b96139a2565b6133c16139e7565b60648211156133e25760405162461bcd60e51b81526004016113cf906151bf565b5f5b82811015613673575f608c5f86868581811061340257613402615175565b90506020020160208101906134179190614b42565b6001600160a01b0316815260208101919091526040015f20600681015490915060ff1680156134465750805415155b1561366a575f61347b86868581811061346157613461615175565b90506020020160208101906134769190614b42565b613c27565b90505f811180156134f457506064546040516370a0823160e01b815230600482015282916001600160a01b0316906370a0823190602401602060405180830381865afa1580156134cd573d5f5f3e3d5ffd5b505050506040513d601f19601f820116820180604052508101906134f191906150ec565b10155b156136685780826001015f82825461350c91906150d9565b9091555042905060895f88888781811061352857613528615175565b905060200201602081019061353d9190614b42565b6001600160a01b03908116825260208201929092526040015f20919091556064541663a9059cbb87878681811061357657613576615175565b905060200201602081019061358b9190614b42565b6040516001600160e01b031960e084901b1681526001600160a01b039091166004820152602481018490526044016020604051808303815f875af11580156135d5573d5f5f3e3d5ffd5b505050506040513d601f19601f820116820180604052508101906135f99190615131565b156136685785858481811061361057613610615175565b90506020020160208101906136259190614b42565b6001600160a01b03167f47cee97cb7acd717b3c0aa1435d004cd5b3c8c57d70dbceb4e4458bbd60e39d48260405161365f91815260200190565b60405180910390a25b505b506001016133e4565b506118c96001603255565b5f5160206152d95f395f51905f52613695816138f7565b60825462010000900460ff16806136b55750608254600160301b900460ff165b6136f85760405162461bcd60e51b8152602060048201526014602482015273526566756e64206e6f7420617661696c61626c6560601b60448201526064016113cf565b60648211156137195760405162461bcd60e51b81526004016113cf906151bf565b608254600160301b900460ff1661377f57606c544211801561373e5750607054606f54105b61377f5760405162461bcd60e51b815260206004820152601260248201527110dbdb991a5d1a5bdb9cc81b9bdd081b595d60721b60448201526064016113cf565b5f5b828110156116af575f60865f86868581811061379f5761379f615175565b90506020020160208101906137b49190614b42565b6001600160a01b03166001600160a01b031681526020019081526020015f205490505f811180156137e55750804710155b156138ee575f60865f87878681811061380057613800615175565b90506020020160208101906138159190614b42565b6001600160a01b03166001600160a01b031681526020019081526020015f20819055508060805f82825461384991906150d9565b9091555061387f905085858481811061386457613864615175565b90506020020160208101906138799190614b42565b82613f46565b156138ee5784848381811061389657613896615175565b90506020020160208101906138ab9190614b42565b6001600160a01b03167fbb28353e4598c3b9199101a66e0989549b659a59a54d2c27fbb183f1932c8e6d826040516138e591815260200190565b60405180910390a25b50600101613781565b611980813361471a565b5f5f5160206152b95f395f51905f5261391a8484612934565b613999575f848152602082815260408083206001600160a01b03871684529091529020805460ff1916600117905561394f3390565b6001600160a01b0316836001600160a01b0316857f2f8788117e7eff1d82e926ec794901d17c78024a50270940304540a733656f0d60405160405180910390a4600191505061136b565b5f91505061136b565b5f5460ff1615611cf25760405162461bcd60e51b815260206004820152601060248201526f14185d5cd8589b194e881c185d5cd95960821b60448201526064016113cf565b600260325403613a395760405162461bcd60e51b815260206004820152601f60248201527f5265656e7472616e637947756172643a207265656e7472616e742063616c6c0060448201526064016113cf565b6002603255565b5f82613a4c8584614753565b1490505b9392505050565b6040518060e001604052808581526020015f815260200142815260200184815260200183815260200182815260200160011515815250608c5f876001600160a01b03166001600160a01b031681526020019081526020015f205f820151815f01556020820151816001015560408201518160020155606082015181600301556080820151816004015560a0820151816005015560c0820151816006015f6101000a81548160ff021916908315150217905550905050846001600160a01b03167f2f5488c5b0350655053f3d00e1693b26a49ecd0242b2c0df881ccda054490d3085604051613b4791815260200190565b60405180910390a25050505050565b6001603255565b5f5f5160206152b95f395f51905f52613b768484612934565b15613999575f848152602082815260408083206001600160a01b0387168085529252808320805460ff1916905551339287917ff6391f5c32d9c69d2a47ea670b442974b53935d1edc7fd64eb21e047a839171b9190a4600191505061136b565b613bde614795565b5f805460ff191690557f5db9ee0a495bf2e6ff9c91a7834c1ba4fdd244a5e8aa4e537bd38aeae4b073aa335b6040516001600160a01b03909116815260200160405180910390a1565b6001600160a01b0381165f908152608c60209081526040808320815160e081018352815481526001820154938101939093526002810154918301919091526003810154606083015260048101546080830152600581015460a08301526006015460ff1615801560c083015280613caf575080608001518160400151613cac91906150d9565b42105b15613cbc57505f92915050565b5f816040015142613ccd91906151e8565b905081606001518110613cf35760208201518251613ceb91906151e8565b949350505050565b5f60648360a00151845f0151613d099190615189565b613d1391906151a0565b90505f81845f0151613d2591906151e8565b90505f84608001518560600151613d3c91906151e8565b6080860151613d4b90866151e8565b613d559084615189565b613d5f91906151a0565b6020860151909150613d7182856150d9565b613d7b91906151e8565b979650505050505050565b306001600160a01b037f0000000000000000000000000000000000000000000000000000000000000000161480613e0c57507f00000000000000000000000000000000000000000000000000000000000000006001600160a01b0316613e005f5160206152795f395f51905f52546001600160a01b031690565b6001600160a01b031614155b15611cf25760405163703e46dd60e11b815260040160405180910390fd5b5f5160206152d95f395f51905f52611d0f816138f7565b816001600160a01b03166352d1902d6040518163ffffffff1660e01b8152600401602060405180830381865afa925050508015613e9b575060408051601f3d908101601f19168201909252613e98918101906150ec565b60015b613ec357604051634c9c8ce360e01b81526001600160a01b03831660048201526024016113cf565b5f5160206152795f395f51905f528114613ef357604051632a87526960e21b8152600481018290526024016113cf565b6118c983836147dd565b306001600160a01b037f00000000000000000000000000000000000000000000000000000000000000001614611cf25760405163703e46dd60e11b815260040160405180910390fd5b5f5f836001600160a01b0316836040515f6040518083038185875af1925050503d805f8114613f90576040519150601f19603f3d011682016040523d82523d5f602084013e613f95565b606091505b509095945050505050565b6082545f90640100000000900460ff16158061136b5750506001600160a01b03165f90815260856020526040902054600116151590565b6082545f9065010000000000900460ff16158061136b5750506001600160a01b03165f90815260856020526040902054600216151590565b5f5f606954116140515760405162461bcd60e51b815260206004820152600d60248201526c141c9a58d9481b9bdd081cd95d609a1b60448201526064016113cf565b6082545f9060ff16801561406f57506067546001600160a01b031615155b156141315760675f9054906101000a90046001600160a01b03166001600160a01b031663feaf968c6040518163ffffffff1660e01b815260040160a060405180830381865afa9250505080156140e2575060408051601f3d908101601f191682019092526140df91810190615214565b60015b15614131575f84131561412b576a52b7d2dcc80cd2e4000000614105858a615189565b61410f91906151a0565b95506069548661411f9190615189565b98975050505050505050565b50505050505b608254610100900460ff16801561414957505f606a54115b1561417f57670de0b6b3a7640000606a54846141659190615189565b61416f91906151a0565b905060695481613a509190615189565b60405162461bcd60e51b815260206004820152600f60248201526e4e6f20707269636520736f7572636560881b60448201526064016113cf565b6141c16139a2565b5f805460ff191660011790557f62e78cea01bee320cd4e420270b5ea74000d11b0c9f74754ebdbfc544b05a258613c0a3390565b5f81116142325760405162461bcd60e51b815260206004820152600b60248201526a5a65726f20746f6b656e7360a81b60448201526064016113cf565b606d541561427d57606d5481111561427d5760405162461bcd60e51b815260206004820152600e60248201526d08af0c6cacac8e640dac2f040e8f60931b60448201526064016113cf565b607b54156142ca57607b548111156142ca5760405162461bcd60e51b815260206004820152601060248201526f105b9d1a4b5dda185b19481b1a5b5a5d60821b60448201526064016113cf565b606e541561433b57606e546001600160a01b0383165f908152608460205260409020546142f89083906150d9565b111561433b5760405162461bcd60e51b8152602060048201526012602482015271115e18d959591cc81b585e081dd85b1b195d60721b60448201526064016113cf565b60715481606f5461434c91906150d9565b111561438c5760405162461bcd60e51b815260206004820152600f60248201526e045786365656473206861726463617608c1b60448201526064016113cf565b60725481606f5461439d91906150d9565b1115611d0f5760405162461bcd60e51b815260206004820152600e60248201526d4578636565647320737570706c7960901b60448201526064016113cf565b6001600160a01b0382165f908152608c60205260408120805490910361440f576118c98383607354607454607554613a57565b81815f015f82825461442191906150d9565b909155505080546040519081526001600160a01b038416907fe85844ca2c3e2785bea012532bceb8435e58637d4430f1bd131a88a55dad398e9060200160405180910390a2505050565b8261448f816001600160a01b03165f90815260856020526040902054600416151590565b156144ac5760405162461bcd60e51b81526004016113cf906150b4565b6144b581613fa0565b6144f35760405162461bcd60e51b815260206004820152600f60248201526e139bdd081dda1a5d195b1a5cdd1959608a1b60448201526064016113cf565b6144fc81613fd7565b61453b5760405162461bcd60e51b815260206004820152601060248201526f139bdd0812d650c81d995c9a599a595960821b60448201526064016113cf565b5f828152608d602052604090205460ff161561458d5760405162461bcd60e51b8152602060048201526011602482015270105b1c9958591e481c1c9bd8d95cdcd959607a1b60448201526064016113cf565b5f83116145ca5760405162461bcd60e51b815260206004820152600b60248201526a16995c9bc8185b5bdd5b9d60aa1b60448201526064016113cf565b60725483606f546145db91906150d9565b111561461a5760405162461bcd60e51b815260206004820152600e60248201526d4578636565647320737570706c7960901b60448201526064016113cf565b5f828152608d60209081526040808320805460ff191660011790556001600160a01b03871683526084909152812080548592906146589084906150d9565b9250508190555082606f5f82825461467091906150d9565b90915550614680905084846143dc565b60408051848152602081018490526001600160a01b038616917f77a0ab7b0831ae91c89e45e4f7e8d20fb16bc32a261f11192906656a8ecea655910160405180910390a250505050565b5f807ff0c57e16840df040f15088dc2f81fe391c3923bec73e23a9662efc9c229c6a0061136b565b611cf2614832565b614702614832565b611cf2614857565b614712614832565b611cf261486a565b6147248282612934565b611d0f5760405163e2517d3f60e01b81526001600160a01b0382166004820152602481018390526044016113cf565b5f81815b845181101561478d576147838286838151811061477657614776615175565b6020026020010151614872565b9150600101614757565b509392505050565b5f5460ff16611cf25760405162461bcd60e51b815260206004820152601460248201527314185d5cd8589b194e881b9bdd081c185d5cd95960621b60448201526064016113cf565b6147e68261489b565b6040516001600160a01b038316907fbc7cd75a20ee27fd9adebab32041f755214dbc6bffa90cc0225b39da2e5c2d3b905f90a280511561482a576118c982826148fe565b611d0f614970565b61483a61498f565b611cf257604051631afcd79f60e31b815260040160405180910390fd5b61485f614832565b5f805460ff19169055565b613b56614832565b5f81831061488c575f828152602084905260409020613a50565b505f9182526020526040902090565b806001600160a01b03163b5f036148d057604051634c9c8ce360e01b81526001600160a01b03821660048201526024016113cf565b5f5160206152795f395f51905f5280546001600160a01b0319166001600160a01b0392909216919091179055565b60605f5f846001600160a01b03168460405161491a9190615262565b5f60405180830381855af49150503d805f8114614952576040519150601f19603f3d011682016040523d82523d5f602084013e614957565b606091505b50915091506149678583836149a8565b95945050505050565b3415611cf25760405163b398979f60e01b815260040160405180910390fd5b5f6149986146ca565b54600160401b900460ff16919050565b6060826149bd576149b882614a04565b613a50565b81511580156149d457506001600160a01b0384163b155b156149fd57604051639996b31560e01b81526001600160a01b03851660048201526024016113cf565b5080613a50565b805115614a145780518082602001fd5b60405163d6bda27560e01b815260040160405180910390fd5b5f60208284031215614a3d575f5ffd5b81356001600160e01b031981168114613a50575f5ffd5b5f5f60408385031215614a65575f5ffd5b50508035926020909101359150565b80356001600160a01b0381168114614a8a575f5ffd5b919050565b8015158114611980575f5ffd5b5f5f60408385031215614aad575f5ffd5b614ab683614a74565b91506020830135614ac681614a8f565b809150509250929050565b5f5f5f5f5f60a08688031215614ae5575f5ffd5b505083359560208501359550604085013594606081013594506080013592509050565b5f5f5f60608486031215614b1a575f5ffd5b614b2384614a74565b9250614b3160208501614a74565b929592945050506040919091013590565b5f60208284031215614b52575f5ffd5b613a5082614a74565b5f60208284031215614b6b575f5ffd5b5035919050565b5f5f60408385031215614b83575f5ffd5b82359150614b9360208401614a74565b90509250929050565b5f5f83601f840112614bac575f5ffd5b5081356001600160401b03811115614bc2575f5ffd5b6020830191508360208260051b850101111561247f575f5ffd5b5f5f5f60408486031215614bee575f5ffd5b83356001600160401b03811115614c03575f5ffd5b614c0f86828701614b9c565b909790965060209590950135949350505050565b5f5f60408385031215614c34575f5ffd5b823591506020830135614ac681614a8f565b634e487b7160e01b5f52604160045260245ffd5b5f5f60408385031215614c6b575f5ffd5b614c7483614a74565b915060208301356001600160401b03811115614c8e575f5ffd5b8301601f81018513614c9e575f5ffd5b80356001600160401b03811115614cb757614cb7614c46565b604051601f8201601f19908116603f011681016001600160401b0381118282101715614ce557614ce5614c46565b604052818152828201602001871015614cfc575f5ffd5b816020840160208301375f602083830101528093505050509250929050565b5f5f5f60608486031215614d2d575f5ffd5b614d3684614a74565b925060208401359150614d4b60408501614a74565b90509250925092565b5f5f60408385031215614d65575f5ffd5b614d6e83614a74565b946020939093013593505050565b5f81518084528060208401602086015e5f602082860101526020601f19601f83011685010191505092915050565b8215158152604060208201525f613ceb6040830184614d7c565b5f5f5f5f60408587031215614dd7575f5ffd5b84356001600160401b03811115614dec575f5ffd5b614df887828801614b9c565b90955093505060208501356001600160401b03811115614e16575f5ffd5b614e2287828801614b9c565b95989497509550505050565b5f5f60408385031215614e3f575f5ffd5b8235614ab681614a8f565b5f5f5f5f60808587031215614e5d575f5ffd5b5050823594602084013594506040840135936060013592509050565b602081525f613a506020830184614d7c565b5f5f5f60608486031215614e9d575f5ffd5b505081359360208301359350604090920135919050565b5f5f5f60608486031215614ec6575f5ffd5b614ecf84614a74565b95602085013595506040909401359392505050565b5f5f5f5f5f5f60608789031215614ef9575f5ffd5b86356001600160401b03811115614f0e575f5ffd5b614f1a89828a01614b9c565b90975095505060208701356001600160401b03811115614f38575f5ffd5b614f4489828a01614b9c565b90955093505060408701356001600160401b03811115614f62575f5ffd5b614f6e89828a01614b9c565b979a9699509497509295939492505050565b5f5f5f5f60808587031215614f93575f5ffd5b614f9c85614a74565b9350614faa60208601614a74565b9250614fb860408601614a74565b9150614fc660608601614a74565b905092959194509250565b5f5f60208385031215614fe2575f5ffd5b82356001600160401b03811115614ff7575f5ffd5b61500385828601614b9c565b90969095509350505050565b6020808252600c908201526b4e6f74206d756c746973696760a01b604082015260600190565b634e487b7160e01b5f52601160045260245ffd5b5f6001820161505a5761505a615035565b5060010190565b6020808252601390820152724e656564206d6f726520617070726f76616c7360681b604082015260600190565b6020808252600c908201526b5a65726f206164647265737360a01b604082015260600190565b6020808252600b908201526a109b1858dadb1a5cdd195960aa1b604082015260600190565b8082018082111561136b5761136b615035565b5f602082840312156150fc575f5ffd5b5051919050565b602080825260149082015273496e73756666696369656e742062616c616e636560601b604082015260600190565b5f60208284031215615141575f5ffd5b8151613a5081614a8f565b6020808252600f908201526e151c985b9cd9995c8819985a5b1959608a1b604082015260600190565b634e487b7160e01b5f52603260045260245ffd5b808202811582820484141761136b5761136b615035565b5f826151ba57634e487b7160e01b5f52601260045260245ffd5b500490565b6020808252600f908201526e426174636820746f6f206c6172676560881b604082015260600190565b8181038181111561136b5761136b615035565b805169ffffffffffffffffffff81168114614a8a575f5ffd5b5f5f5f5f5f60a08688031215615228575f5ffd5b615231866151fb565b60208701516040880151606089015192975090955093509150615256608087016151fb565b90509295509295909350565b5f82518060208501845e5f92019182525091905056fe360894a13ba1a3210667c828492db98dca3e2076cc3735a920a3ca505d382bbc65d7a28e3265b37a6474929f336521b332c1681b933f6cb9f3376673440d862a02dd7bc7dec4dceedda775e58dd541e08a116c6c53815c0bd028192f7b626800a49807205ce4d355092ef5a8a18f56e8913cf4a201fbe287825b095693c21775a26469706673582212205641cb00af2bb44daa9315489718397cc2ff1aa2c847424df184e28dacc3857d64736f6c634300081d0033",
			"opcodes": "PUSH1 0xA0 PUSH1 0x40 MSTORE ADDRESS PUSH1 0x80 MSTORE CALLVALUE DUP1 ISZERO PUSH1 0x12 JUMPI PUSH0 PUSH0 REVERT JUMPDEST POP PUSH1 0x80 MLOAD PUSH2 0x532E PUSH2 0x39 PUSH0 CODECOPY PUSH0 DUP2 DUP2 PUSH2 0x3D91 ADD MSTORE DUP2 DUP2 PUSH2 0x3DBA ADD MSTORE PUSH2 0x3F08 ADD MSTORE PUSH2 0x532E PUSH0 RETURN INVALID PUSH1 0x80 PUSH1 0x40 MSTORE PUSH1 0x4 CALLDATASIZE LT PUSH2 0x617 JUMPI PUSH0 CALLDATALOAD PUSH1 0xE0 SHR DUP1 PUSH4 0x7DC0D1D0 GT PUSH2 0x31B JUMPI DUP1 PUSH4 0xB9B2B5CD GT PUSH2 0x1AE JUMPI DUP1 PUSH4 0xE328400C GT PUSH2 0xFD JUMPI DUP1 PUSH4 0xF7D13A1F GT PUSH2 0x9D JUMPI DUP1 PUSH4 0xF968ADBE GT PUSH2 0x78 JUMPI DUP1 PUSH4 0xF968ADBE EQ PUSH2 0x12C9 JUMPI DUP1 PUSH4 0xFB5F749F EQ PUSH2 0x12DE JUMPI DUP1 PUSH4 0xFC0C546A EQ PUSH2 0x12FD JUMPI DUP1 PUSH4 0xFFF96005 EQ PUSH2 0x131C JUMPI PUSH0 PUSH0 REVERT JUMPDEST DUP1 PUSH4 0xF7D13A1F EQ PUSH2 0x1276 JUMPI DUP1 PUSH4 0xF89BE593 EQ PUSH2 0x1295 JUMPI DUP1 PUSH4 0xF8C8765E EQ PUSH2 0x12AA JUMPI PUSH0 PUSH0 REVERT JUMPDEST DUP1 PUSH4 0xEEF09BAD GT PUSH2 0xD8 JUMPI DUP1 PUSH4 0xEEF09BAD EQ PUSH2 0x1204 JUMPI DUP1 PUSH4 0xF25F4B56 EQ PUSH2 0x1219 JUMPI DUP1 PUSH4 0xF71CC3A5 EQ PUSH2 0x1238 JUMPI DUP1 PUSH4 0xF71EC2F5 EQ PUSH2 0x1257 JUMPI PUSH0 PUSH0 REVERT JUMPDEST DUP1 PUSH4 0xE328400C EQ PUSH2 0x1192 JUMPI DUP1 PUSH4 0xE63AB1E9 EQ PUSH2 0x11C5 JUMPI DUP1 PUSH4 0xEA2B95A3 EQ PUSH2 0x11E5 JUMPI PUSH0 PUSH0 REVERT JUMPDEST DUP1 PUSH4 0xD1B6DD30 GT PUSH2 0x168 JUMPI DUP1 PUSH4 0xD96A094A GT PUSH2 0x143 JUMPI DUP1 PUSH4 0xD96A094A EQ PUSH2 0x10BB JUMPI DUP1 PUSH4 0xDAF49863 EQ PUSH2 0x10CE JUMPI DUP1 PUSH4 0xDDBBA775 EQ PUSH2 0x115E JUMPI DUP1 PUSH4 0xDE3C1B1B EQ PUSH2 0x1173 JUMPI PUSH0 PUSH0 REVERT JUMPDEST DUP1 PUSH4 0xD1B6DD30 EQ PUSH2 0x1059 JUMPI DUP1 PUSH4 0xD547741F EQ PUSH2 0x1087 JUMPI DUP1 PUSH4 0xD9082962 EQ PUSH2 0x10A6 JUMPI PUSH0 PUSH0 REVERT JUMPDEST DUP1 PUSH4 0xB9B2B5CD EQ PUSH2 0xF8C JUMPI DUP1 PUSH4 0xBC063E1A EQ PUSH2 0xFA1 JUMPI DUP1 PUSH4 0xBF7C2131 EQ PUSH2 0xFB6 JUMPI DUP1 PUSH4 0xBF89662D EQ PUSH2 0xFE1 JUMPI DUP1 PUSH4 0xC1ADF7BC EQ PUSH2 0x1000 JUMPI DUP1 PUSH4 0xC1F0808A EQ PUSH2 0x102B JUMPI PUSH0 PUSH0 REVERT JUMPDEST DUP1 PUSH4 0x9F81AED7 GT PUSH2 0x26A JUMPI DUP1 PUSH4 0xA583024B GT PUSH2 0x224 JUMPI DUP1 PUSH4 0xAF267F8F GT PUSH2 0x1FF JUMPI DUP1 PUSH4 0xAF267F8F EQ PUSH2 0xF23 JUMPI DUP1 PUSH4 0xB071CBE6 EQ PUSH2 0xF42 JUMPI DUP1 PUSH4 0xB3F05B97 EQ PUSH2 0xF57 JUMPI DUP1 PUSH4 0xB6026881 EQ PUSH2 0xF77 JUMPI PUSH0 PUSH0 REVERT JUMPDEST DUP1 PUSH4 0xA583024B EQ PUSH2 0xE9C JUMPI DUP1 PUSH4 0xACDE5D28 EQ PUSH2 0xEBB JUMPI DUP1 PUSH4 0xAD3CB1CC EQ PUSH2 0xEE6 JUMPI PUSH0 PUSH0 REVERT JUMPDEST DUP1 PUSH4 0x9F81AED7 EQ PUSH2 0xE0C JUMPI DUP1 PUSH4 0xA075B7C7 EQ PUSH2 0xE21 JUMPI DUP1 PUSH4 0xA1E98A6D EQ PUSH2 0xE40 JUMPI DUP1 PUSH4 0xA217FDDF EQ PUSH2 0xE55 JUMPI DUP1 PUSH4 0xA2C9D630 EQ PUSH2 0xE68 JUMPI DUP1 PUSH4 0xA3F2AD5B EQ PUSH2 0xE7D JUMPI PUSH0 PUSH0 REVERT JUMPDEST DUP1 PUSH4 0x8C75EC80 GT PUSH2 0x2D5 JUMPI DUP1 PUSH4 0x950BFF9F GT PUSH2 0x2B0 JUMPI DUP1 PUSH4 0x950BFF9F EQ PUSH2 0xD99 JUMPI DUP1 PUSH4 0x952CA92C EQ PUSH2 0xDAD JUMPI DUP1 PUSH4 0x9605330B EQ PUSH2 0xDD8 JUMPI DUP1 PUSH4 0x960BFE04 EQ PUSH2 0xDED JUMPI PUSH0 PUSH0 REVERT JUMPDEST DUP1 PUSH4 0x8C75EC80 EQ PUSH2 0xD50 JUMPI DUP1 PUSH4 0x9106D7BA EQ PUSH2 0xD65 JUMPI DUP1 PUSH4 0x91D14854 EQ PUSH2 0xD7A JUMPI PUSH0 PUSH0 REVERT JUMPDEST DUP1 PUSH4 0x7DC0D1D0 EQ PUSH2 0xCB0 JUMPI DUP1 PUSH4 0x7ED1C990 EQ PUSH2 0xCCF JUMPI DUP1 PUSH4 0x7FD6F15C EQ PUSH2 0xCE4 JUMPI DUP1 PUSH4 0x8456CB59 EQ PUSH2 0xCF9 JUMPI DUP1 PUSH4 0x856734C4 EQ PUSH2 0xD0D JUMPI DUP1 PUSH4 0x8805AAA8 EQ PUSH2 0xD2E JUMPI PUSH0 PUSH0 REVERT JUMPDEST DUP1 PUSH4 0x4E71D92D GT PUSH2 0x4AD JUMPI DUP1 PUSH4 0x63285436 GT PUSH2 0x3FC JUMPI DUP1 PUSH4 0x6A61E5FC GT PUSH2 0x39C JUMPI DUP1 PUSH4 0x758EE748 GT PUSH2 0x377 JUMPI DUP1 PUSH4 0x758EE748 EQ PUSH2 0xC47 JUMPI DUP1 PUSH4 0x75B238FC EQ PUSH2 0xC66 JUMPI DUP1 PUSH4 0x787A08A6 EQ PUSH2 0xC86 JUMPI DUP1 PUSH4 0x78E97925 EQ PUSH2 0xC9B JUMPI PUSH0 PUSH0 REVERT JUMPDEST DUP1 PUSH4 0x6A61E5FC EQ PUSH2 0xBF0 JUMPI DUP1 PUSH4 0x71AA60FD EQ PUSH2 0xC0F JUMPI DUP1 PUSH4 0x756A24E4 EQ PUSH2 0xC2E JUMPI PUSH0 PUSH0 REVERT JUMPDEST DUP1 PUSH4 0x65D67339 GT PUSH2 0x3D7 JUMPI DUP1 PUSH4 0x65D67339 EQ PUSH2 0xB4D JUMPI DUP1 PUSH4 0x6623C5BC EQ PUSH2 0xB6C JUMPI DUP1 PUSH4 0x664A1AD6 EQ PUSH2 0xB8B JUMPI DUP1 PUSH4 0x668F6ACE EQ PUSH2 0xBC2 JUMPI PUSH0 PUSH0 REVERT JUMPDEST DUP1 PUSH4 0x63285436 EQ PUSH2 0xAD0 JUMPI DUP1 PUSH4 0x6386C1C7 EQ PUSH2 0xAEF JUMPI DUP1 PUSH4 0x65360843 EQ PUSH2 0xB2E JUMPI PUSH0 PUSH0 REVERT JUMPDEST DUP1 PUSH4 0x590E1AE3 GT PUSH2 0x467 JUMPI DUP1 PUSH4 0x5C975ABB GT PUSH2 0x442 JUMPI DUP1 PUSH4 0x5C975ABB EQ PUSH2 0xA4E JUMPI DUP1 PUSH4 0x5D54322D EQ PUSH2 0xA64 JUMPI DUP1 PUSH4 0x5DA05F37 EQ PUSH2 0xA91 JUMPI DUP1 PUSH4 0x61D6D385 EQ PUSH2 0xABC JUMPI PUSH0 PUSH0 REVERT JUMPDEST DUP1 PUSH4 0x590E1AE3 EQ PUSH2 0x9FA JUMPI DUP1 PUSH4 0x5C16E15E EQ PUSH2 0xA0E JUMPI DUP1 PUSH4 0x5C8E79E8 EQ PUSH2 0xA39 JUMPI PUSH0 PUSH0 REVERT JUMPDEST DUP1 PUSH4 0x4E71D92D EQ PUSH2 0x960 JUMPI DUP1 PUSH4 0x4F1EF286 EQ PUSH2 0x974 JUMPI DUP1 PUSH4 0x522FE98E EQ PUSH2 0x987 JUMPI DUP1 PUSH4 0x52D1902D EQ PUSH2 0x9B2 JUMPI DUP1 PUSH4 0x551512DE EQ PUSH2 0x9C6 JUMPI DUP1 PUSH4 0x56448D4C EQ PUSH2 0x9E5 JUMPI PUSH0 PUSH0 REVERT JUMPDEST DUP1 PUSH4 0x2E455A74 GT PUSH2 0x569 JUMPI DUP1 PUSH4 0x33B5B62E GT PUSH2 0x523 JUMPI DUP1 PUSH4 0x3F4BA83A GT PUSH2 0x4FE JUMPI DUP1 PUSH4 0x3F4BA83A EQ PUSH2 0x904 JUMPI DUP1 PUSH4 0x453C2310 EQ PUSH2 0x918 JUMPI DUP1 PUSH4 0x48DFCAC7 EQ PUSH2 0x92D JUMPI DUP1 PUSH4 0x4BB278F3 EQ PUSH2 0x94C JUMPI PUSH0 PUSH0 REVERT JUMPDEST DUP1 PUSH4 0x33B5B62E EQ PUSH2 0x8B1 JUMPI DUP1 PUSH4 0x36568ABE EQ PUSH2 0x8C6 JUMPI DUP1 PUSH4 0x3B4C4B25 EQ PUSH2 0x8E5 JUMPI PUSH0 PUSH0 REVERT JUMPDEST DUP1 PUSH4 0x2E455A74 EQ PUSH2 0x816 JUMPI DUP1 PUSH4 0x2EB4A7AB EQ PUSH2 0x834 JUMPI DUP1 PUSH4 0x2F2FF15D EQ PUSH2 0x849 JUMPI DUP1 PUSH4 0x3197CBB6 EQ PUSH2 0x868 JUMPI DUP1 PUSH4 0x324536EB EQ PUSH2 0x87D JUMPI DUP1 PUSH4 0x3335252B EQ PUSH2 0x892 JUMPI PUSH0 PUSH0 REVERT JUMPDEST DUP1 PUSH4 0x16BFE25C GT PUSH2 0x5D4 JUMPI DUP1 PUSH4 0x225D29A1 GT PUSH2 0x5AF JUMPI DUP1 PUSH4 0x225D29A1 EQ PUSH2 0x739 JUMPI DUP1 PUSH4 0x248A9CA3 EQ PUSH2 0x764 JUMPI DUP1 PUSH4 0x2AF7E2EA EQ PUSH2 0x783 JUMPI DUP1 PUSH4 0x2D37E6DC EQ PUSH2 0x798 JUMPI PUSH0 PUSH0 REVERT JUMPDEST DUP1 PUSH4 0x16BFE25C EQ PUSH2 0x6DB JUMPI DUP1 PUSH4 0x1936A383 EQ PUSH2 0x6FB JUMPI DUP1 PUSH4 0x20A692A3 EQ PUSH2 0x71A JUMPI PUSH0 PUSH0 REVERT JUMPDEST DUP1 PUSH4 0x1FFC9A7 EQ PUSH2 0x61B JUMPI DUP1 PUSH4 0x3C5B1DC EQ PUSH2 0x64F JUMPI DUP1 PUSH4 0x59D969D EQ PUSH2 0x670 JUMPI DUP1 PUSH4 0x1234F868 EQ PUSH2 0x693 JUMPI DUP1 PUSH4 0x14BC6EA3 EQ PUSH2 0x6A8 JUMPI DUP1 PUSH4 0x15AAEC0B EQ PUSH2 0x6C7 JUMPI JUMPDEST PUSH0 PUSH0 REVERT JUMPDEST CALLVALUE DUP1 ISZERO PUSH2 0x626 JUMPI PUSH0 PUSH0 REVERT JUMPDEST POP PUSH2 0x63A PUSH2 0x635 CALLDATASIZE PUSH1 0x4 PUSH2 0x4A2D JUMP JUMPDEST PUSH2 0x133B JUMP JUMPDEST PUSH1 0x40 MLOAD SWAP1 ISZERO ISZERO DUP2 MSTORE PUSH1 0x20 ADD JUMPDEST PUSH1 0x40 MLOAD DUP1 SWAP2 SUB SWAP1 RETURN JUMPDEST CALLVALUE DUP1 ISZERO PUSH2 0x65A JUMPI PUSH0 PUSH0 REVERT JUMPDEST POP PUSH2 0x66E PUSH2 0x669 CALLDATASIZE PUSH1 0x4 PUSH2 0x4A54 JUMP JUMPDEST PUSH2 0x1371 JUMP JUMPDEST STOP JUMPDEST CALLVALUE DUP1 ISZERO PUSH2 0x67B JUMPI PUSH0 PUSH0 REVERT JUMPDEST POP PUSH2 0x685 PUSH1 0x77 SLOAD DUP2 JUMP JUMPDEST PUSH1 0x40 MLOAD SWAP1 DUP2 MSTORE PUSH1 0x20 ADD PUSH2 0x646 JUMP JUMPDEST CALLVALUE DUP1 ISZERO PUSH2 0x69E JUMPI PUSH0 PUSH0 REVERT JUMPDEST POP PUSH2 0x685 PUSH1 0x7B SLOAD DUP2 JUMP JUMPDEST CALLVALUE DUP1 ISZERO PUSH2 0x6B3 JUMPI PUSH0 PUSH0 REVERT JUMPDEST POP PUSH2 0x66E PUSH2 0x6C2 CALLDATASIZE PUSH1 0x4 PUSH2 0x4A9C JUMP JUMPDEST PUSH2 0x13E4 JUMP JUMPDEST CALLVALUE DUP1 ISZERO PUSH2 0x6D2 JUMPI PUSH0 PUSH0 REVERT JUMPDEST POP PUSH2 0x66E PUSH2 0x1426 JUMP JUMPDEST CALLVALUE DUP1 ISZERO PUSH2 0x6E6 JUMPI PUSH0 PUSH0 REVERT JUMPDEST POP PUSH1 0x82 SLOAD PUSH2 0x63A SWAP1 PUSH1 0x1 PUSH1 0x30 SHL SWAP1 DIV PUSH1 0xFF AND DUP2 JUMP JUMPDEST CALLVALUE DUP1 ISZERO PUSH2 0x706 JUMPI PUSH0 PUSH0 REVERT JUMPDEST POP PUSH2 0x66E PUSH2 0x715 CALLDATASIZE PUSH1 0x4 PUSH2 0x4AD1 JUMP JUMPDEST PUSH2 0x14E9 JUMP JUMPDEST CALLVALUE DUP1 ISZERO PUSH2 0x725 JUMPI PUSH0 PUSH0 REVERT JUMPDEST POP PUSH2 0x66E PUSH2 0x734 CALLDATASIZE PUSH1 0x4 PUSH2 0x4B08 JUMP JUMPDEST PUSH2 0x15A9 JUMP JUMPDEST CALLVALUE DUP1 ISZERO PUSH2 0x744 JUMPI PUSH0 PUSH0 REVERT JUMPDEST POP PUSH2 0x685 PUSH2 0x753 CALLDATASIZE PUSH1 0x4 PUSH2 0x4B42 JUMP JUMPDEST PUSH1 0x85 PUSH1 0x20 MSTORE PUSH0 SWAP1 DUP2 MSTORE PUSH1 0x40 SWAP1 KECCAK256 SLOAD DUP2 JUMP JUMPDEST CALLVALUE DUP1 ISZERO PUSH2 0x76F JUMPI PUSH0 PUSH0 REVERT JUMPDEST POP PUSH2 0x685 PUSH2 0x77E CALLDATASIZE PUSH1 0x4 PUSH2 0x4B5B JUMP JUMPDEST PUSH2 0x1673 JUMP JUMPDEST CALLVALUE DUP1 ISZERO PUSH2 0x78E JUMPI PUSH0 PUSH0 REVERT JUMPDEST POP PUSH2 0x685 PUSH1 0x73 SLOAD DUP2 JUMP JUMPDEST CALLVALUE DUP1 ISZERO PUSH2 0x7A3 JUMPI PUSH0 PUSH0 REVERT JUMPDEST POP PUSH2 0x7D5 PUSH1 0x6B SLOAD PUSH1 0x6C SLOAD PUSH1 0x82 SLOAD PUSH1 0x6F SLOAD PUSH1 0x72 SLOAD PUSH1 0x70 SLOAD PUSH1 0x71 SLOAD PUSH1 0xFF PUSH4 0x1000000 DUP7 DIV DUP2 AND SWAP6 PUSH3 0x10000 SWAP1 DIV AND SWAP5 SWAP6 SWAP7 SWAP8 JUMP JUMPDEST PUSH1 0x40 DUP1 MLOAD SWAP9 DUP10 MSTORE PUSH1 0x20 DUP10 ADD SWAP8 SWAP1 SWAP8 MSTORE SWAP5 ISZERO ISZERO SWAP6 DUP8 ADD SWAP6 SWAP1 SWAP6 MSTORE SWAP2 ISZERO ISZERO PUSH1 0x60 DUP7 ADD MSTORE PUSH1 0x80 DUP6 ADD MSTORE PUSH1 0xA0 DUP5 ADD MSTORE PUSH1 0xC0 DUP4 ADD SWAP2 SWAP1 SWAP2 MSTORE PUSH1 0xE0 DUP3 ADD MSTORE PUSH2 0x100 ADD PUSH2 0x646 JUMP JUMPDEST CALLVALUE DUP1 ISZERO PUSH2 0x821 JUMPI PUSH0 PUSH0 REVERT JUMPDEST POP PUSH1 0x82 SLOAD PUSH2 0x63A SWAP1 PUSH2 0x100 SWAP1 DIV PUSH1 0xFF AND DUP2 JUMP JUMPDEST CALLVALUE DUP1 ISZERO PUSH2 0x83F JUMPI PUSH0 PUSH0 REVERT JUMPDEST POP PUSH2 0x685 PUSH1 0x83 SLOAD DUP2 JUMP JUMPDEST CALLVALUE DUP1 ISZERO PUSH2 0x854 JUMPI PUSH0 PUSH0 REVERT JUMPDEST POP PUSH2 0x66E PUSH2 0x863 CALLDATASIZE PUSH1 0x4 PUSH2 0x4B72 JUMP JUMPDEST PUSH2 0x1693 JUMP JUMPDEST CALLVALUE DUP1 ISZERO PUSH2 0x873 JUMPI PUSH0 PUSH0 REVERT JUMPDEST POP PUSH2 0x685 PUSH1 0x6C SLOAD DUP2 JUMP JUMPDEST CALLVALUE DUP1 ISZERO PUSH2 0x888 JUMPI PUSH0 PUSH0 REVERT JUMPDEST POP PUSH2 0x685 PUSH1 0x72 SLOAD DUP2 JUMP JUMPDEST CALLVALUE DUP1 ISZERO PUSH2 0x89D JUMPI PUSH0 PUSH0 REVERT JUMPDEST POP PUSH2 0x66E PUSH2 0x8AC CALLDATASIZE PUSH1 0x4 PUSH2 0x4BDC JUMP JUMPDEST PUSH2 0x16B5 JUMP JUMPDEST CALLVALUE DUP1 ISZERO PUSH2 0x8BC JUMPI PUSH0 PUSH0 REVERT JUMPDEST POP PUSH2 0x685 PUSH1 0x7C SLOAD DUP2 JUMP JUMPDEST CALLVALUE DUP1 ISZERO PUSH2 0x8D1 JUMPI PUSH0 PUSH0 REVERT JUMPDEST POP PUSH2 0x66E PUSH2 0x8E0 CALLDATASIZE PUSH1 0x4 PUSH2 0x4B72 JUMP JUMPDEST PUSH2 0x18CE JUMP JUMPDEST CALLVALUE DUP1 ISZERO PUSH2 0x8F0 JUMPI PUSH0 PUSH0 REVERT JUMPDEST POP PUSH2 0x66E PUSH2 0x8FF CALLDATASIZE PUSH1 0x4 PUSH2 0x4B5B JUMP JUMPDEST PUSH2 0x1901 JUMP JUMPDEST CALLVALUE DUP1 ISZERO PUSH2 0x90F JUMPI PUSH0 PUSH0 REVERT JUMPDEST POP PUSH2 0x66E PUSH2 0x1961 JUMP JUMPDEST CALLVALUE DUP1 ISZERO PUSH2 0x923 JUMPI PUSH0 PUSH0 REVERT JUMPDEST POP PUSH2 0x685 PUSH1 0x6E SLOAD DUP2 JUMP JUMPDEST CALLVALUE DUP1 ISZERO PUSH2 0x938 JUMPI PUSH0 PUSH0 REVERT JUMPDEST POP PUSH2 0x66E PUSH2 0x947 CALLDATASIZE PUSH1 0x4 PUSH2 0x4C23 JUMP JUMPDEST PUSH2 0x1983 JUMP JUMPDEST CALLVALUE DUP1 ISZERO PUSH2 0x957 JUMPI PUSH0 PUSH0 REVERT JUMPDEST POP PUSH2 0x66E PUSH2 0x19BB JUMP JUMPDEST CALLVALUE DUP1 ISZERO PUSH2 0x96B JUMPI PUSH0 PUSH0 REVERT JUMPDEST POP PUSH2 0x66E PUSH2 0x1AB8 JUMP JUMPDEST PUSH2 0x66E PUSH2 0x982 CALLDATASIZE PUSH1 0x4 PUSH2 0x4C5A JUMP JUMPDEST PUSH2 0x1CF4 JUMP JUMPDEST CALLVALUE DUP1 ISZERO PUSH2 0x992 JUMPI PUSH0 PUSH0 REVERT JUMPDEST POP PUSH2 0x685 PUSH2 0x9A1 CALLDATASIZE PUSH1 0x4 PUSH2 0x4B42 JUMP JUMPDEST PUSH1 0x84 PUSH1 0x20 MSTORE PUSH0 SWAP1 DUP2 MSTORE PUSH1 0x40 SWAP1 KECCAK256 SLOAD DUP2 JUMP JUMPDEST CALLVALUE DUP1 ISZERO PUSH2 0x9BD JUMPI PUSH0 PUSH0 REVERT JUMPDEST POP PUSH2 0x685 PUSH2 0x1D13 JUMP JUMPDEST CALLVALUE DUP1 ISZERO PUSH2 0x9D1 JUMPI PUSH0 PUSH0 REVERT JUMPDEST POP PUSH2 0x66E PUSH2 0x9E0 CALLDATASIZE PUSH1 0x4 PUSH2 0x4D1B JUMP JUMPDEST PUSH2 0x1D2E JUMP JUMPDEST CALLVALUE DUP1 ISZERO PUSH2 0x9F0 JUMPI PUSH0 PUSH0 REVERT JUMPDEST POP PUSH2 0x685 PUSH1 0x76 SLOAD DUP2 JUMP JUMPDEST CALLVALUE DUP1 ISZERO PUSH2 0xA05 JUMPI PUSH0 PUSH0 REVERT JUMPDEST POP PUSH2 0x66E PUSH2 0x1F58 JUMP JUMPDEST CALLVALUE DUP1 ISZERO PUSH2 0xA19 JUMPI PUSH0 PUSH0 REVERT JUMPDEST POP PUSH2 0x685 PUSH2 0xA28 CALLDATASIZE PUSH1 0x4 PUSH2 0x4B42 JUMP JUMPDEST PUSH1 0x89 PUSH1 0x20 MSTORE PUSH0 SWAP1 DUP2 MSTORE PUSH1 0x40 SWAP1 KECCAK256 SLOAD DUP2 JUMP JUMPDEST CALLVALUE DUP1 ISZERO PUSH2 0xA44 JUMPI PUSH0 PUSH0 REVERT JUMPDEST POP PUSH2 0x685 PUSH1 0x74 SLOAD DUP2 JUMP JUMPDEST CALLVALUE DUP1 ISZERO PUSH2 0xA59 JUMPI PUSH0 PUSH0 REVERT JUMPDEST POP PUSH0 SLOAD PUSH1 0xFF AND PUSH2 0x63A JUMP JUMPDEST CALLVALUE DUP1 ISZERO PUSH2 0xA6F JUMPI PUSH0 PUSH0 REVERT JUMPDEST POP PUSH2 0xA83 PUSH2 0xA7E CALLDATASIZE PUSH1 0x4 PUSH2 0x4D54 JUMP JUMPDEST PUSH2 0x2117 JUMP JUMPDEST PUSH1 0x40 MLOAD PUSH2 0x646 SWAP3 SWAP2 SWAP1 PUSH2 0x4DAA JUMP JUMPDEST CALLVALUE DUP1 ISZERO PUSH2 0xA9C JUMPI PUSH0 PUSH0 REVERT JUMPDEST POP PUSH2 0x685 PUSH2 0xAAB CALLDATASIZE PUSH1 0x4 PUSH2 0x4B5B JUMP JUMPDEST PUSH1 0x8F PUSH1 0x20 MSTORE PUSH0 SWAP1 DUP2 MSTORE PUSH1 0x40 SWAP1 KECCAK256 SLOAD DUP2 JUMP JUMPDEST CALLVALUE DUP1 ISZERO PUSH2 0xAC7 JUMPI PUSH0 PUSH0 REVERT JUMPDEST POP PUSH2 0x66E PUSH2 0x2486 JUMP JUMPDEST CALLVALUE DUP1 ISZERO PUSH2 0xADB JUMPI PUSH0 PUSH0 REVERT JUMPDEST POP PUSH2 0x66E PUSH2 0xAEA CALLDATASIZE PUSH1 0x4 PUSH2 0x4B5B JUMP JUMPDEST PUSH2 0x2678 JUMP JUMPDEST CALLVALUE DUP1 ISZERO PUSH2 0xAFA JUMPI PUSH0 PUSH0 REVERT JUMPDEST POP PUSH2 0xB0E PUSH2 0xB09 CALLDATASIZE PUSH1 0x4 PUSH2 0x4B42 JUMP JUMPDEST PUSH2 0x26A0 JUMP JUMPDEST PUSH1 0x40 DUP1 MLOAD SWAP5 DUP6 MSTORE PUSH1 0x20 DUP6 ADD SWAP4 SWAP1 SWAP4 MSTORE SWAP2 DUP4 ADD MSTORE PUSH1 0x60 DUP3 ADD MSTORE PUSH1 0x80 ADD PUSH2 0x646 JUMP JUMPDEST CALLVALUE DUP1 ISZERO PUSH2 0xB39 JUMPI PUSH0 PUSH0 REVERT JUMPDEST POP PUSH2 0x66E PUSH2 0xB48 CALLDATASIZE PUSH1 0x4 PUSH2 0x4A9C JUMP JUMPDEST PUSH2 0x26FD JUMP JUMPDEST CALLVALUE DUP1 ISZERO PUSH2 0xB58 JUMPI PUSH0 PUSH0 REVERT JUMPDEST POP PUSH2 0x66E PUSH2 0xB67 CALLDATASIZE PUSH1 0x4 PUSH2 0x4DC4 JUMP JUMPDEST PUSH2 0x2749 JUMP JUMPDEST CALLVALUE DUP1 ISZERO PUSH2 0xB77 JUMPI PUSH0 PUSH0 REVERT JUMPDEST POP PUSH2 0x66E PUSH2 0xB86 CALLDATASIZE PUSH1 0x4 PUSH2 0x4E2E JUMP JUMPDEST PUSH2 0x2822 JUMP JUMPDEST CALLVALUE DUP1 ISZERO PUSH2 0xB96 JUMPI PUSH0 PUSH0 REVERT JUMPDEST POP PUSH1 0x65 SLOAD PUSH2 0xBAA SWAP1 PUSH1 0x1 PUSH1 0x1 PUSH1 0xA0 SHL SUB AND DUP2 JUMP JUMPDEST PUSH1 0x40 MLOAD PUSH1 0x1 PUSH1 0x1 PUSH1 0xA0 SHL SUB SWAP1 SWAP2 AND DUP2 MSTORE PUSH1 0x20 ADD PUSH2 0x646 JUMP JUMPDEST CALLVALUE DUP1 ISZERO PUSH2 0xBCD JUMPI PUSH0 PUSH0 REVERT JUMPDEST POP PUSH2 0x63A PUSH2 0xBDC CALLDATASIZE PUSH1 0x4 PUSH2 0x4B42 JUMP JUMPDEST PUSH1 0x8B PUSH1 0x20 MSTORE PUSH0 SWAP1 DUP2 MSTORE PUSH1 0x40 SWAP1 KECCAK256 SLOAD PUSH1 0xFF AND DUP2 JUMP JUMPDEST CALLVALUE DUP1 ISZERO PUSH2 0xBFB JUMPI PUSH0 PUSH0 REVERT JUMPDEST POP PUSH2 0x66E PUSH2 0xC0A CALLDATASIZE PUSH1 0x4 PUSH2 0x4B5B JUMP JUMPDEST PUSH2 0x2874 JUMP JUMPDEST CALLVALUE DUP1 ISZERO PUSH2 0xC1A JUMPI PUSH0 PUSH0 REVERT JUMPDEST POP PUSH2 0x685 PUSH2 0xC29 CALLDATASIZE PUSH1 0x4 PUSH2 0x4B5B JUMP JUMPDEST PUSH2 0x28D0 JUMP JUMPDEST CALLVALUE DUP1 ISZERO PUSH2 0xC39 JUMPI PUSH0 PUSH0 REVERT JUMPDEST POP PUSH1 0x82 SLOAD PUSH2 0x63A SWAP1 PUSH1 0xFF AND DUP2 JUMP JUMPDEST CALLVALUE DUP1 ISZERO PUSH2 0xC52 JUMPI PUSH0 PUSH0 REVERT JUMPDEST POP PUSH2 0x66E PUSH2 0xC61 CALLDATASIZE PUSH1 0x4 PUSH2 0x4B42 JUMP JUMPDEST PUSH2 0x28DA JUMP JUMPDEST CALLVALUE DUP1 ISZERO PUSH2 0xC71 JUMPI PUSH0 PUSH0 REVERT JUMPDEST POP PUSH2 0x685 PUSH0 MLOAD PUSH1 0x20 PUSH2 0x52D9 PUSH0 CODECOPY PUSH0 MLOAD SWAP1 PUSH0 MSTORE DUP2 JUMP JUMPDEST CALLVALUE DUP1 ISZERO PUSH2 0xC91 JUMPI PUSH0 PUSH0 REVERT JUMPDEST POP PUSH2 0x685 PUSH1 0x7A SLOAD DUP2 JUMP JUMPDEST CALLVALUE DUP1 ISZERO PUSH2 0xCA6 JUMPI PUSH0 PUSH0 REVERT JUMPDEST POP PUSH2 0x685 PUSH1 0x6B SLOAD DUP2 JUMP JUMPDEST CALLVALUE DUP1 ISZERO PUSH2 0xCBB JUMPI PUSH0 PUSH0 REVERT JUMPDEST POP PUSH1 0x67 SLOAD PUSH2 0xBAA SWAP1 PUSH1 0x1 PUSH1 0x1 PUSH1 0xA0 SHL SUB AND DUP2 JUMP JUMPDEST CALLVALUE DUP1 ISZERO PUSH2 0xCDA JUMPI PUSH0 PUSH0 REVERT JUMPDEST POP PUSH2 0x685 PUSH1 0x78 SLOAD DUP2 JUMP JUMPDEST CALLVALUE DUP1 ISZERO PUSH2 0xCEF JUMPI PUSH0 PUSH0 REVERT JUMPDEST POP PUSH2 0x685 PUSH1 0x68 SLOAD DUP2 JUMP JUMPDEST CALLVALUE DUP1 ISZERO PUSH2 0xD04 JUMPI PUSH0 PUSH0 REVERT JUMPDEST POP PUSH2 0x66E PUSH2 0x2915 JUMP JUMPDEST CALLVALUE DUP1 ISZERO PUSH2 0xD18 JUMPI PUSH0 PUSH0 REVERT JUMPDEST POP PUSH1 0x82 SLOAD PUSH2 0x63A SWAP1 PUSH5 0x100000000 SWAP1 DIV PUSH1 0xFF AND DUP2 JUMP JUMPDEST CALLVALUE DUP1 ISZERO PUSH2 0xD39 JUMPI PUSH0 PUSH0 REVERT JUMPDEST POP PUSH1 0x82 SLOAD PUSH2 0x63A SWAP1 PUSH6 0x10000000000 SWAP1 DIV PUSH1 0xFF AND DUP2 JUMP JUMPDEST CALLVALUE DUP1 ISZERO PUSH2 0xD5B JUMPI PUSH0 PUSH0 REVERT JUMPDEST POP PUSH2 0x685 PUSH1 0x7E SLOAD DUP2 JUMP JUMPDEST CALLVALUE DUP1 ISZERO PUSH2 0xD70 JUMPI PUSH0 PUSH0 REVERT JUMPDEST POP PUSH2 0x685 PUSH1 0x6F SLOAD DUP2 JUMP JUMPDEST CALLVALUE DUP1 ISZERO PUSH2 0xD85 JUMPI PUSH0 PUSH0 REVERT JUMPDEST POP PUSH2 0x63A PUSH2 0xD94 CALLDATASIZE PUSH1 0x4 PUSH2 0x4B72 JUMP JUMPDEST PUSH2 0x2934 JUMP JUMPDEST CALLVALUE DUP1 ISZERO PUSH2 0xDA4 JUMPI PUSH0 PUSH0 REVERT JUMPDEST POP PUSH2 0x685 PUSH1 0x64 DUP2 JUMP JUMPDEST CALLVALUE DUP1 ISZERO PUSH2 0xDB8 JUMPI PUSH0 PUSH0 REVERT JUMPDEST POP PUSH2 0x685 PUSH2 0xDC7 CALLDATASIZE PUSH1 0x4 PUSH2 0x4B42 JUMP JUMPDEST PUSH1 0x88 PUSH1 0x20 MSTORE PUSH0 SWAP1 DUP2 MSTORE PUSH1 0x40 SWAP1 KECCAK256 SLOAD DUP2 JUMP JUMPDEST CALLVALUE DUP1 ISZERO PUSH2 0xDE3 JUMPI PUSH0 PUSH0 REVERT JUMPDEST POP PUSH2 0x685 PUSH1 0x81 SLOAD DUP2 JUMP JUMPDEST CALLVALUE DUP1 ISZERO PUSH2 0xDF8 JUMPI PUSH0 PUSH0 REVERT JUMPDEST POP PUSH2 0x66E PUSH2 0xE07 CALLDATASIZE PUSH1 0x4 PUSH2 0x4B5B JUMP JUMPDEST PUSH2 0x296A JUMP JUMPDEST CALLVALUE DUP1 ISZERO PUSH2 0xE17 JUMPI PUSH0 PUSH0 REVERT JUMPDEST POP PUSH2 0x685 PUSH2 0x12C DUP2 JUMP JUMPDEST CALLVALUE DUP1 ISZERO PUSH2 0xE2C JUMPI PUSH0 PUSH0 REVERT JUMPDEST POP PUSH2 0x66E PUSH2 0xE3B CALLDATASIZE PUSH1 0x4 PUSH2 0x4E4A JUMP JUMPDEST PUSH2 0x29CA JUMP JUMPDEST CALLVALUE DUP1 ISZERO PUSH2 0xE4B JUMPI PUSH0 PUSH0 REVERT JUMPDEST POP PUSH2 0x685 PUSH1 0x69 SLOAD DUP2 JUMP JUMPDEST CALLVALUE DUP1 ISZERO PUSH2 0xE60 JUMPI PUSH0 PUSH0 REVERT JUMPDEST POP PUSH2 0x685 PUSH0 DUP2 JUMP JUMPDEST CALLVALUE DUP1 ISZERO PUSH2 0xE73 JUMPI PUSH0 PUSH0 REVERT JUMPDEST POP PUSH2 0x685 PUSH1 0x6A SLOAD DUP2 JUMP JUMPDEST CALLVALUE DUP1 ISZERO PUSH2 0xE88 JUMPI PUSH0 PUSH0 REVERT JUMPDEST POP PUSH2 0x66E PUSH2 0xE97 CALLDATASIZE PUSH1 0x4 PUSH2 0x4B5B JUMP JUMPDEST PUSH2 0x2A7C JUMP JUMPDEST CALLVALUE DUP1 ISZERO PUSH2 0xEA7 JUMPI PUSH0 PUSH0 REVERT JUMPDEST POP PUSH2 0x685 PUSH2 0xEB6 CALLDATASIZE PUSH1 0x4 PUSH2 0x4B42 JUMP JUMPDEST PUSH2 0x2AB5 JUMP JUMPDEST CALLVALUE DUP1 ISZERO PUSH2 0xEC6 JUMPI PUSH0 PUSH0 REVERT JUMPDEST POP PUSH2 0x685 PUSH2 0xED5 CALLDATASIZE PUSH1 0x4 PUSH2 0x4B42 JUMP JUMPDEST PUSH1 0x86 PUSH1 0x20 MSTORE PUSH0 SWAP1 DUP2 MSTORE PUSH1 0x40 SWAP1 KECCAK256 SLOAD DUP2 JUMP JUMPDEST CALLVALUE DUP1 ISZERO PUSH2 0xEF1 JUMPI PUSH0 PUSH0 REVERT JUMPDEST POP PUSH2 0xF16 PUSH1 0x40 MLOAD DUP1 PUSH1 0x40 ADD PUSH1 0x40 MSTORE DUP1 PUSH1 0x5 DUP2 MSTORE PUSH1 0x20 ADD PUSH5 0x352E302E3 PUSH1 0xDC SHL DUP2 MSTORE POP DUP2 JUMP JUMPDEST PUSH1 0x40 MLOAD PUSH2 0x646 SWAP2 SWAP1 PUSH2 0x4E79 JUMP JUMPDEST CALLVALUE DUP1 ISZERO PUSH2 0xF2E JUMPI PUSH0 PUSH0 REVERT JUMPDEST POP PUSH2 0x66E PUSH2 0xF3D CALLDATASIZE PUSH1 0x4 PUSH2 0x4B5B JUMP JUMPDEST PUSH2 0x2ABF JUMP JUMPDEST CALLVALUE DUP1 ISZERO PUSH2 0xF4D JUMPI PUSH0 PUSH0 REVERT JUMPDEST POP PUSH2 0x685 PUSH1 0x71 SLOAD DUP2 JUMP JUMPDEST CALLVALUE DUP1 ISZERO PUSH2 0xF62 JUMPI PUSH0 PUSH0 REVERT JUMPDEST POP PUSH1 0x82 SLOAD PUSH2 0x63A SWAP1 PUSH4 0x1000000 SWAP1 DIV PUSH1 0xFF AND DUP2 JUMP JUMPDEST CALLVALUE DUP1 ISZERO PUSH2 0xF82 JUMPI PUSH0 PUSH0 REVERT JUMPDEST POP PUSH2 0x685 PUSH1 0x79 SLOAD DUP2 JUMP JUMPDEST CALLVALUE DUP1 ISZERO PUSH2 0xF97 JUMPI PUSH0 PUSH0 REVERT JUMPDEST POP PUSH2 0x685 PUSH1 0x7F SLOAD DUP2 JUMP JUMPDEST CALLVALUE DUP1 ISZERO PUSH2 0xFAC JUMPI PUSH0 PUSH0 REVERT JUMPDEST POP PUSH2 0x685 PUSH2 0x3E8 DUP2 JUMP JUMPDEST CALLVALUE DUP1 ISZERO PUSH2 0xFC1 JUMPI PUSH0 PUSH0 REVERT JUMPDEST POP PUSH2 0x685 PUSH2 0xFD0 CALLDATASIZE PUSH1 0x4 PUSH2 0x4B5B JUMP JUMPDEST PUSH1 0x8E PUSH1 0x20 MSTORE PUSH0 SWAP1 DUP2 MSTORE PUSH1 0x40 SWAP1 KECCAK256 SLOAD DUP2 JUMP JUMPDEST CALLVALUE DUP1 ISZERO PUSH2 0xFEC JUMPI PUSH0 PUSH0 REVERT JUMPDEST POP PUSH1 0x82 SLOAD PUSH2 0x63A SWAP1 PUSH3 0x10000 SWAP1 DIV PUSH1 0xFF AND DUP2 JUMP JUMPDEST CALLVALUE DUP1 ISZERO PUSH2 0x100B JUMPI PUSH0 PUSH0 REVERT JUMPDEST POP PUSH2 0x685 PUSH2 0x101A CALLDATASIZE PUSH1 0x4 PUSH2 0x4B42 JUMP JUMPDEST PUSH1 0x87 PUSH1 0x20 MSTORE PUSH0 SWAP1 DUP2 MSTORE PUSH1 0x40 SWAP1 KECCAK256 SLOAD DUP2 JUMP JUMPDEST CALLVALUE DUP1 ISZERO PUSH2 0x1036 JUMPI PUSH0 PUSH0 REVERT JUMPDEST POP PUSH2 0x63A PUSH2 0x1045 CALLDATASIZE PUSH1 0x4 PUSH2 0x4B5B JUMP JUMPDEST PUSH1 0x8D PUSH1 0x20 MSTORE PUSH0 SWAP1 DUP2 MSTORE PUSH1 0x40 SWAP1 KECCAK256 SLOAD PUSH1 0xFF AND DUP2 JUMP JUMPDEST CALLVALUE DUP1 ISZERO PUSH2 0x1064 JUMPI PUSH0 PUSH0 REVERT JUMPDEST POP PUSH2 0x63A PUSH2 0x1073 CALLDATASIZE PUSH1 0x4 PUSH2 0x4B42 JUMP JUMPDEST PUSH1 0x8A PUSH1 0x20 MSTORE PUSH0 SWAP1 DUP2 MSTORE PUSH1 0x40 SWAP1 KECCAK256 SLOAD PUSH1 0xFF AND DUP2 JUMP JUMPDEST CALLVALUE DUP1 ISZERO PUSH2 0x1092 JUMPI PUSH0 PUSH0 REVERT JUMPDEST POP PUSH2 0x66E PUSH2 0x10A1 CALLDATASIZE PUSH1 0x4 PUSH2 0x4B72 JUMP JUMPDEST PUSH2 0x2BCC JUMP JUMPDEST CALLVALUE DUP1 ISZERO PUSH2 0x10B1 JUMPI PUSH0 PUSH0 REVERT JUMPDEST POP PUSH2 0x685 PUSH1 0x80 SLOAD DUP2 JUMP JUMPDEST PUSH2 0x66E PUSH2 0x10C9 CALLDATASIZE PUSH1 0x4 PUSH2 0x4B5B JUMP JUMPDEST PUSH2 0x2BE8 JUMP JUMPDEST CALLVALUE DUP1 ISZERO PUSH2 0x10D9 JUMPI PUSH0 PUSH0 REVERT JUMPDEST POP PUSH2 0x1127 PUSH2 0x10E8 CALLDATASIZE PUSH1 0x4 PUSH2 0x4B42 JUMP JUMPDEST PUSH1 0x8C PUSH1 0x20 MSTORE PUSH0 SWAP1 DUP2 MSTORE PUSH1 0x40 SWAP1 KECCAK256 DUP1 SLOAD PUSH1 0x1 DUP3 ADD SLOAD PUSH1 0x2 DUP4 ADD SLOAD PUSH1 0x3 DUP5 ADD SLOAD PUSH1 0x4 DUP6 ADD SLOAD PUSH1 0x5 DUP7 ADD SLOAD PUSH1 0x6 SWAP1 SWAP7 ADD SLOAD SWAP5 SWAP6 SWAP4 SWAP5 SWAP3 SWAP4 SWAP2 SWAP3 SWAP1 SWAP2 SWAP1 PUSH1 0xFF AND DUP8 JUMP JUMPDEST PUSH1 0x40 DUP1 MLOAD SWAP8 DUP9 MSTORE PUSH1 0x20 DUP9 ADD SWAP7 SWAP1 SWAP7 MSTORE SWAP5 DUP7 ADD SWAP4 SWAP1 SWAP4 MSTORE PUSH1 0x60 DUP6 ADD SWAP2 SWAP1 SWAP2 MSTORE PUSH1 0x80 DUP5 ADD MSTORE PUSH1 0xA0 DUP4 ADD MSTORE ISZERO ISZERO PUSH1 0xC0 DUP3 ADD MSTORE PUSH1 0xE0 ADD PUSH2 0x646 JUMP JUMPDEST CALLVALUE DUP1 ISZERO PUSH2 0x1169 JUMPI PUSH0 PUSH0 REVERT JUMPDEST POP PUSH2 0x685 PUSH1 0x75 SLOAD DUP2 JUMP JUMPDEST CALLVALUE DUP1 ISZERO PUSH2 0x117E JUMPI PUSH0 PUSH0 REVERT JUMPDEST POP PUSH2 0x66E PUSH2 0x118D CALLDATASIZE PUSH1 0x4 PUSH2 0x4E8B JUMP JUMPDEST PUSH2 0x2F71 JUMP JUMPDEST CALLVALUE DUP1 ISZERO PUSH2 0x119D JUMPI PUSH0 PUSH0 REVERT JUMPDEST POP PUSH2 0x685 PUSH32 0xA5A0B70B385FF7611CD3840916BD08B10829E5BF9E6637CF79DD9A427FC0E2AB DUP2 JUMP JUMPDEST CALLVALUE DUP1 ISZERO PUSH2 0x11D0 JUMPI PUSH0 PUSH0 REVERT JUMPDEST POP PUSH2 0x685 PUSH0 MLOAD PUSH1 0x20 PUSH2 0x5299 PUSH0 CODECOPY PUSH0 MLOAD SWAP1 PUSH0 MSTORE DUP2 JUMP JUMPDEST CALLVALUE DUP1 ISZERO PUSH2 0x11F0 JUMPI PUSH0 PUSH0 REVERT JUMPDEST POP PUSH2 0x66E PUSH2 0x11FF CALLDATASIZE PUSH1 0x4 PUSH2 0x4EB4 JUMP JUMPDEST PUSH2 0x2F97 JUMP JUMPDEST CALLVALUE DUP1 ISZERO PUSH2 0x120F JUMPI PUSH0 PUSH0 REVERT JUMPDEST POP PUSH2 0x685 PUSH1 0x7D SLOAD DUP2 JUMP JUMPDEST CALLVALUE DUP1 ISZERO PUSH2 0x1224 JUMPI PUSH0 PUSH0 REVERT JUMPDEST POP PUSH1 0x66 SLOAD PUSH2 0xBAA SWAP1 PUSH1 0x1 PUSH1 0x1 PUSH1 0xA0 SHL SUB AND DUP2 JUMP JUMPDEST CALLVALUE DUP1 ISZERO PUSH2 0x1243 JUMPI PUSH0 PUSH0 REVERT JUMPDEST POP PUSH2 0x66E PUSH2 0x1252 CALLDATASIZE PUSH1 0x4 PUSH2 0x4D54 JUMP JUMPDEST PUSH2 0x2FC1 JUMP JUMPDEST CALLVALUE DUP1 ISZERO PUSH2 0x1262 JUMPI PUSH0 PUSH0 REVERT JUMPDEST POP PUSH2 0x66E PUSH2 0x1271 CALLDATASIZE PUSH1 0x4 PUSH2 0x4E8B JUMP JUMPDEST PUSH2 0x2FF4 JUMP JUMPDEST CALLVALUE DUP1 ISZERO PUSH2 0x1281 JUMPI PUSH0 PUSH0 REVERT JUMPDEST POP PUSH2 0x66E PUSH2 0x1290 CALLDATASIZE PUSH1 0x4 PUSH2 0x4EE4 JUMP JUMPDEST PUSH2 0x3069 JUMP JUMPDEST CALLVALUE DUP1 ISZERO PUSH2 0x12A0 JUMPI PUSH0 PUSH0 REVERT JUMPDEST POP PUSH2 0x685 PUSH1 0x70 SLOAD DUP2 JUMP JUMPDEST CALLVALUE DUP1 ISZERO PUSH2 0x12B5 JUMPI PUSH0 PUSH0 REVERT JUMPDEST POP PUSH2 0x66E PUSH2 0x12C4 CALLDATASIZE PUSH1 0x4 PUSH2 0x4F80 JUMP JUMPDEST PUSH2 0x3172 JUMP JUMPDEST CALLVALUE DUP1 ISZERO PUSH2 0x12D4 JUMPI PUSH0 PUSH0 REVERT JUMPDEST POP PUSH2 0x685 PUSH1 0x6D SLOAD DUP2 JUMP JUMPDEST CALLVALUE DUP1 ISZERO PUSH2 0x12E9 JUMPI PUSH0 PUSH0 REVERT JUMPDEST POP PUSH2 0x66E PUSH2 0x12F8 CALLDATASIZE PUSH1 0x4 PUSH2 0x4FD1 JUMP JUMPDEST PUSH2 0x339A JUMP JUMPDEST CALLVALUE DUP1 ISZERO PUSH2 0x1308 JUMPI PUSH0 PUSH0 REVERT JUMPDEST POP PUSH1 0x64 SLOAD PUSH2 0xBAA SWAP1 PUSH1 0x1 PUSH1 0x1 PUSH1 0xA0 SHL SUB AND DUP2 JUMP JUMPDEST CALLVALUE DUP1 ISZERO PUSH2 0x1327 JUMPI PUSH0 PUSH0 REVERT JUMPDEST POP PUSH2 0x66E PUSH2 0x1336 CALLDATASIZE PUSH1 0x4 PUSH2 0x4FD1 JUMP JUMPDEST PUSH2 0x367E JUMP JUMPDEST PUSH0 PUSH1 0x1 PUSH1 0x1 PUSH1 0xE0 SHL SUB NOT DUP3 AND PUSH4 0x7965DB0B PUSH1 0xE0 SHL EQ DUP1 PUSH2 0x136B JUMPI POP PUSH4 0x1FFC9A7 PUSH1 0xE0 SHL PUSH1 0x1 PUSH1 0x1 PUSH1 0xE0 SHL SUB NOT DUP4 AND EQ JUMPDEST SWAP3 SWAP2 POP POP JUMP JUMPDEST PUSH0 MLOAD PUSH1 0x20 PUSH2 0x52D9 PUSH0 CODECOPY PUSH0 MLOAD SWAP1 PUSH0 MSTORE PUSH2 0x1388 DUP2 PUSH2 0x38F7 JUMP JUMPDEST DUP2 DUP4 LT DUP1 ISZERO PUSH2 0x1396 JUMPI POP TIMESTAMP DUP3 GT JUMPDEST PUSH2 0x13D8 JUMPI PUSH1 0x40 MLOAD PUSH3 0x461BCD PUSH1 0xE5 SHL DUP2 MSTORE PUSH1 0x20 PUSH1 0x4 DUP3 ADD MSTORE PUSH1 0xE PUSH1 0x24 DUP3 ADD MSTORE PUSH14 0x125B9D985B1A59081C195C9A5BD9 PUSH1 0x92 SHL PUSH1 0x44 DUP3 ADD MSTORE PUSH1 0x64 ADD JUMPDEST PUSH1 0x40 MLOAD DUP1 SWAP2 SUB SWAP1 REVERT JUMPDEST POP PUSH1 0x6B SWAP2 SWAP1 SWAP2 SSTORE PUSH1 0x6C SSTORE JUMP JUMPDEST PUSH0 MLOAD PUSH1 0x20 PUSH2 0x52D9 PUSH0 CODECOPY PUSH0 MLOAD SWAP1 PUSH0 MSTORE PUSH2 0x13FB DUP2 PUSH2 0x38F7 JUMP JUMPDEST POP PUSH1 0x1 PUSH1 0x1 PUSH1 0xA0 SHL SUB SWAP2 SWAP1 SWAP2 AND PUSH0 SWAP1 DUP2 MSTORE PUSH1 0x8B PUSH1 0x20 MSTORE PUSH1 0x40 SWAP1 KECCAK256 DUP1 SLOAD PUSH1 0xFF NOT AND SWAP2 ISZERO ISZERO SWAP2 SWAP1 SWAP2 OR SWAP1 SSTORE JUMP JUMPDEST CALLER PUSH0 SWAP1 DUP2 MSTORE PUSH1 0x8B PUSH1 0x20 MSTORE PUSH1 0x40 SWAP1 KECCAK256 SLOAD PUSH32 0x495F576338F29B7ED61C48FECCC012BC96878FCD88352464569BACF4C57F3201 SWAP1 PUSH1 0xFF AND PUSH2 0x1476 JUMPI PUSH1 0x40 MLOAD PUSH3 0x461BCD PUSH1 0xE5 SHL DUP2 MSTORE PUSH1 0x4 ADD PUSH2 0x13CF SWAP1 PUSH2 0x500F JUMP JUMPDEST PUSH0 DUP2 DUP2 MSTORE PUSH1 0x8E PUSH1 0x20 MSTORE PUSH1 0x40 DUP2 KECCAK256 DUP1 SLOAD SWAP2 PUSH2 0x148F DUP4 PUSH2 0x5049 JUMP JUMPDEST SWAP1 SWAP2 SSTORE POP POP PUSH1 0x7E SLOAD PUSH0 DUP3 DUP2 MSTORE PUSH1 0x8E PUSH1 0x20 MSTORE PUSH1 0x40 SWAP1 KECCAK256 SLOAD LT ISZERO PUSH2 0x14C3 JUMPI PUSH1 0x40 MLOAD PUSH3 0x461BCD PUSH1 0xE5 SHL DUP2 MSTORE PUSH1 0x4 ADD PUSH2 0x13CF SWAP1 PUSH2 0x5061 JUMP JUMPDEST PUSH0 SWAP1 DUP2 MSTORE PUSH1 0x8E PUSH1 0x20 MSTORE PUSH1 0x40 DUP2 KECCAK256 SSTORE PUSH1 0x82 DUP1 SLOAD PUSH7 0xFF000000000000 NOT AND PUSH1 0x1 PUSH1 0x30 SHL OR SWAP1 SSTORE JUMP JUMPDEST PUSH0 MLOAD PUSH1 0x20 PUSH2 0x52D9 PUSH0 CODECOPY PUSH0 MLOAD SWAP1 PUSH0 MSTORE PUSH2 0x1500 DUP2 PUSH2 0x38F7 JUMP JUMPDEST TIMESTAMP DUP6 GT PUSH2 0x1542 JUMPI PUSH1 0x40 MLOAD PUSH3 0x461BCD PUSH1 0xE5 SHL DUP2 MSTORE PUSH1 0x20 PUSH1 0x4 DUP3 ADD MSTORE PUSH1 0x10 PUSH1 0x24 DUP3 ADD MSTORE PUSH16 0x496E76616C696420646561646C696E65 PUSH1 0x80 SHL PUSH1 0x44 DUP3 ADD MSTORE PUSH1 0x64 ADD PUSH2 0x13CF JUMP JUMPDEST DUP4 DUP4 GT ISZERO DUP1 ISZERO PUSH2 0x1553 JUMPI POP PUSH1 0x64 DUP3 GT ISZERO JUMPDEST PUSH2 0x1591 JUMPI PUSH1 0x40 MLOAD PUSH3 0x461BCD PUSH1 0xE5 SHL DUP2 MSTORE PUSH1 0x20 PUSH1 0x4 DUP3 ADD MSTORE PUSH1 0xF PUSH1 0x24 DUP3 ADD MSTORE PUSH15 0x496E76616C69642076657374696E67 PUSH1 0x88 SHL PUSH1 0x44 DUP3 ADD MSTORE PUSH1 0x64 ADD PUSH2 0x13CF JUMP JUMPDEST POP PUSH1 0x83 SWAP5 SWAP1 SWAP5 SSTORE PUSH1 0x76 SWAP3 SWAP1 SWAP3 SSTORE PUSH1 0x77 SSTORE PUSH1 0x78 SSTORE PUSH1 0x79 SSTORE JUMP JUMPDEST PUSH0 MLOAD PUSH1 0x20 PUSH2 0x52D9 PUSH0 CODECOPY PUSH0 MLOAD SWAP1 PUSH0 MSTORE PUSH2 0x15C0 DUP2 PUSH2 0x38F7 JUMP JUMPDEST PUSH1 0x1 PUSH1 0x1 PUSH1 0xA0 SHL SUB DUP5 AND ISZERO DUP1 ISZERO SWAP1 PUSH2 0x15E0 JUMPI POP PUSH1 0x1 PUSH1 0x1 PUSH1 0xA0 SHL SUB DUP4 AND ISZERO ISZERO JUMPDEST PUSH2 0x15FC JUMPI PUSH1 0x40 MLOAD PUSH3 0x461BCD PUSH1 0xE5 SHL DUP2 MSTORE PUSH1 0x4 ADD PUSH2 0x13CF SWAP1 PUSH2 0x508E JUMP JUMPDEST PUSH2 0x3E8 DUP3 GT ISZERO PUSH2 0x163D JUMPI PUSH1 0x40 MLOAD PUSH3 0x461BCD PUSH1 0xE5 SHL DUP2 MSTORE PUSH1 0x20 PUSH1 0x4 DUP3 ADD MSTORE PUSH1 0xC PUSH1 0x24 DUP3 ADD MSTORE PUSH12 0x8CCACA40E8DEDE40D0D2CED PUSH1 0xA3 SHL PUSH1 0x44 DUP3 ADD MSTORE PUSH1 0x64 ADD PUSH2 0x13CF JUMP JUMPDEST POP PUSH1 0x65 DUP1 SLOAD PUSH1 0x1 PUSH1 0x1 PUSH1 0xA0 SHL SUB SWAP5 DUP6 AND PUSH1 0x1 PUSH1 0x1 PUSH1 0xA0 SHL SUB NOT SWAP2 DUP3 AND OR SWAP1 SWAP2 SSTORE PUSH1 0x66 DUP1 SLOAD SWAP4 SWAP1 SWAP5 AND SWAP3 AND SWAP2 SWAP1 SWAP2 OR SWAP1 SWAP2 SSTORE PUSH1 0x68 SSTORE JUMP JUMPDEST PUSH0 SWAP1 DUP2 MSTORE PUSH0 MLOAD PUSH1 0x20 PUSH2 0x52B9 PUSH0 CODECOPY PUSH0 MLOAD SWAP1 PUSH0 MSTORE PUSH1 0x20 MSTORE PUSH1 0x40 SWAP1 KECCAK256 PUSH1 0x1 ADD SLOAD SWAP1 JUMP JUMPDEST PUSH2 0x169C DUP3 PUSH2 0x1673 JUMP JUMPDEST PUSH2 0x16A5 DUP2 PUSH2 0x38F7 JUMP JUMPDEST PUSH2 0x16AF DUP4 DUP4 PUSH2 0x3901 JUMP JUMPDEST POP POP POP POP JUMP JUMPDEST PUSH2 0x16BD PUSH2 0x39A2 JUMP JUMPDEST PUSH2 0x16C5 PUSH2 0x39E7 JUMP JUMPDEST PUSH1 0x76 SLOAD TIMESTAMP GT ISZERO PUSH2 0x1709 JUMPI PUSH1 0x40 MLOAD PUSH3 0x461BCD PUSH1 0xE5 SHL DUP2 MSTORE PUSH1 0x20 PUSH1 0x4 DUP3 ADD MSTORE PUSH1 0xF PUSH1 0x24 DUP3 ADD MSTORE PUSH15 0x111958591B1A5B99481C185CDCD959 PUSH1 0x8A SHL PUSH1 0x44 DUP3 ADD MSTORE PUSH1 0x64 ADD PUSH2 0x13CF JUMP JUMPDEST CALLER PUSH0 SWAP1 DUP2 MSTORE PUSH1 0x8A PUSH1 0x20 MSTORE PUSH1 0x40 SWAP1 KECCAK256 SLOAD PUSH1 0xFF AND ISZERO PUSH2 0x175A JUMPI PUSH1 0x40 MLOAD PUSH3 0x461BCD PUSH1 0xE5 SHL DUP2 MSTORE PUSH1 0x20 PUSH1 0x4 DUP3 ADD MSTORE PUSH1 0xF PUSH1 0x24 DUP3 ADD MSTORE PUSH15 0x105B1C9958591E4818DB185A5B5959 PUSH1 0x8A SHL PUSH1 0x44 DUP3 ADD MSTORE PUSH1 0x64 ADD PUSH2 0x13CF JUMP JUMPDEST CALLER PUSH0 SWAP1 DUP2 MSTORE PUSH1 0x85 PUSH1 0x20 MSTORE PUSH1 0x40 SWAP1 KECCAK256 SLOAD PUSH1 0x4 AND ISZERO PUSH2 0x1789 JUMPI PUSH1 0x40 MLOAD PUSH3 0x461BCD PUSH1 0xE5 SHL DUP2 MSTORE PUSH1 0x4 ADD PUSH2 0x13CF SWAP1 PUSH2 0x50B4 JUMP JUMPDEST PUSH1 0x40 MLOAD PUSH12 0xFFFFFFFFFFFFFFFFFFFFFFFF NOT CALLER PUSH1 0x60 SHL AND PUSH1 0x20 DUP3 ADD MSTORE PUSH1 0x34 DUP2 ADD DUP3 SWAP1 MSTORE PUSH0 SWAP1 PUSH1 0x54 ADD PUSH1 0x40 MLOAD PUSH1 0x20 DUP2 DUP4 SUB SUB DUP2 MSTORE SWAP1 PUSH1 0x40 MSTORE DUP1 MLOAD SWAP1 PUSH1 0x20 ADD KECCAK256 SWAP1 POP PUSH2 0x1808 DUP5 DUP5 DUP1 DUP1 PUSH1 0x20 MUL PUSH1 0x20 ADD PUSH1 0x40 MLOAD SWAP1 DUP2 ADD PUSH1 0x40 MSTORE DUP1 SWAP4 SWAP3 SWAP2 SWAP1 DUP2 DUP2 MSTORE PUSH1 0x20 ADD DUP4 DUP4 PUSH1 0x20 MUL DUP1 DUP3 DUP5 CALLDATACOPY PUSH0 SWAP3 ADD SWAP2 SWAP1 SWAP2 MSTORE POP POP PUSH1 0x83 SLOAD SWAP2 POP DUP5 SWAP1 POP PUSH2 0x3A40 JUMP JUMPDEST PUSH2 0x1844 JUMPI PUSH1 0x40 MLOAD PUSH3 0x461BCD PUSH1 0xE5 SHL DUP2 MSTORE PUSH1 0x20 PUSH1 0x4 DUP3 ADD MSTORE PUSH1 0xD PUSH1 0x24 DUP3 ADD MSTORE PUSH13 0x24B73B30B634B210383937B7B3 PUSH1 0x99 SHL PUSH1 0x44 DUP3 ADD MSTORE PUSH1 0x64 ADD PUSH2 0x13CF JUMP JUMPDEST CALLER PUSH0 SWAP1 DUP2 MSTORE PUSH1 0x8A PUSH1 0x20 MSTORE PUSH1 0x40 DUP2 KECCAK256 DUP1 SLOAD PUSH1 0xFF NOT AND PUSH1 0x1 OR SWAP1 SSTORE PUSH1 0x81 DUP1 SLOAD DUP5 SWAP3 SWAP1 PUSH2 0x186F SWAP1 DUP5 SWAP1 PUSH2 0x50D9 JUMP JUMPDEST SWAP3 POP POP DUP2 SWAP1 SSTORE POP PUSH2 0x1889 CALLER DUP4 PUSH1 0x77 SLOAD PUSH1 0x78 SLOAD PUSH1 0x79 SLOAD PUSH2 0x3A57 JUMP JUMPDEST PUSH1 0x40 MLOAD DUP3 DUP2 MSTORE CALLER SWAP1 PUSH32 0x8C32C568416FCF97BE35CE5B27844CFDDCD63A67A1A602C3595BA5DAC38F303A SWAP1 PUSH1 0x20 ADD PUSH1 0x40 MLOAD DUP1 SWAP2 SUB SWAP1 LOG2 POP PUSH2 0x18C9 PUSH1 0x1 PUSH1 0x32 SSTORE JUMP JUMPDEST POP POP POP JUMP JUMPDEST PUSH1 0x1 PUSH1 0x1 PUSH1 0xA0 SHL SUB DUP2 AND CALLER EQ PUSH2 0x18F7 JUMPI PUSH1 0x40 MLOAD PUSH4 0x334BD919 PUSH1 0xE1 SHL DUP2 MSTORE PUSH1 0x4 ADD PUSH1 0x40 MLOAD DUP1 SWAP2 SUB SWAP1 REVERT JUMPDEST PUSH2 0x18C9 DUP3 DUP3 PUSH2 0x3B5D JUMP JUMPDEST PUSH0 MLOAD PUSH1 0x20 PUSH2 0x52D9 PUSH0 CODECOPY PUSH0 MLOAD SWAP1 PUSH0 MSTORE PUSH2 0x1918 DUP2 PUSH2 0x38F7 JUMP JUMPDEST PUSH1 0x6F SLOAD DUP3 LT ISZERO PUSH2 0x195B JUMPI PUSH1 0x40 MLOAD PUSH3 0x461BCD PUSH1 0xE5 SHL DUP2 MSTORE PUSH1 0x20 PUSH1 0x4 DUP3 ADD MSTORE PUSH1 0xE PUSH1 0x24 DUP3 ADD MSTORE PUSH14 0x537570706C7920746F6F206C6F77 PUSH1 0x90 SHL PUSH1 0x44 DUP3 ADD MSTORE PUSH1 0x64 ADD PUSH2 0x13CF JUMP JUMPDEST POP PUSH1 0x72 SSTORE JUMP JUMPDEST PUSH0 MLOAD PUSH1 0x20 PUSH2 0x5299 PUSH0 CODECOPY PUSH0 MLOAD SWAP1 PUSH0 MSTORE PUSH2 0x1978 DUP2 PUSH2 0x38F7 JUMP JUMPDEST PUSH2 0x1980 PUSH2 0x3BD6 JUMP JUMPDEST POP JUMP JUMPDEST PUSH0 MLOAD PUSH1 0x20 PUSH2 0x52D9 PUSH0 CODECOPY PUSH0 MLOAD SWAP1 PUSH0 MSTORE PUSH2 0x199A DUP2 PUSH2 0x38F7 JUMP JUMPDEST POP PUSH1 0x6A SWAP2 SWAP1 SWAP2 SSTORE PUSH1 0x82 DUP1 SLOAD SWAP2 ISZERO ISZERO PUSH2 0x100 MUL PUSH2 0xFF00 NOT SWAP1 SWAP3 AND SWAP2 SWAP1 SWAP2 OR SWAP1 SSTORE JUMP JUMPDEST CALLER PUSH0 SWAP1 DUP2 MSTORE PUSH1 0x8B PUSH1 0x20 MSTORE PUSH1 0x40 SWAP1 KECCAK256 SLOAD PUSH32 0xD206D717B9C0CF07101160E78B6A66831B45FE0347B5760E6AFF637204DF9FE SWAP1 PUSH1 0xFF AND PUSH2 0x1A0B JUMPI PUSH1 0x40 MLOAD PUSH3 0x461BCD PUSH1 0xE5 SHL DUP2 MSTORE PUSH1 0x4 ADD PUSH2 0x13CF SWAP1 PUSH2 0x500F JUMP JUMPDEST PUSH0 DUP2 DUP2 MSTORE PUSH1 0x8E PUSH1 0x20 MSTORE PUSH1 0x40 DUP2 KECCAK256 DUP1 SLOAD SWAP2 PUSH2 0x1A24 DUP4 PUSH2 0x5049 JUMP JUMPDEST SWAP1 SWAP2 SSTORE POP POP PUSH1 0x7E SLOAD PUSH0 DUP3 DUP2 MSTORE PUSH1 0x8E PUSH1 0x20 MSTORE PUSH1 0x40 SWAP1 KECCAK256 SLOAD LT ISZERO PUSH2 0x1A58 JUMPI PUSH1 0x40 MLOAD PUSH3 0x461BCD PUSH1 0xE5 SHL DUP2 MSTORE PUSH1 0x4 ADD PUSH2 0x13CF SWAP1 PUSH2 0x5061 JUMP JUMPDEST PUSH0 DUP2 DUP2 MSTORE PUSH1 0x8E PUSH1 0x20 MSTORE PUSH1 0x40 DUP1 DUP3 KECCAK256 SWAP2 SWAP1 SWAP2 SSTORE PUSH1 0x82 DUP1 SLOAD PUSH4 0xFFFF0000 NOT AND PUSH4 0x1000000 OR SWAP1 SSTORE MLOAD PUSH32 0x839CF22E1BA87CE2F5B9BBF46CF0175A09EED52FEBDFAAC8852478E68203C763 SWAP1 PUSH2 0x1AAD SWAP1 SELFBALANCE DUP2 MSTORE PUSH1 0x20 ADD SWAP1 JUMP JUMPDEST PUSH1 0x40 MLOAD DUP1 SWAP2 SUB SWAP1 LOG1 POP JUMP JUMPDEST PUSH2 0x1AC0 PUSH2 0x39A2 JUMP JUMPDEST PUSH2 0x1AC8 PUSH2 0x39E7 JUMP JUMPDEST CALLER PUSH0 SWAP1 DUP2 MSTORE PUSH1 0x8C PUSH1 0x20 MSTORE PUSH1 0x40 SWAP1 KECCAK256 PUSH1 0x6 DUP2 ADD SLOAD PUSH1 0xFF AND DUP1 ISZERO PUSH2 0x1AEA JUMPI POP DUP1 SLOAD ISZERO ISZERO JUMPDEST PUSH2 0x1B23 JUMPI PUSH1 0x40 MLOAD PUSH3 0x461BCD PUSH1 0xE5 SHL DUP2 MSTORE PUSH1 0x20 PUSH1 0x4 DUP3 ADD MSTORE PUSH1 0xA PUSH1 0x24 DUP3 ADD MSTORE PUSH10 0x4E6F2076657374696E67 PUSH1 0xB0 SHL PUSH1 0x44 DUP3 ADD MSTORE PUSH1 0x64 ADD PUSH2 0x13CF JUMP JUMPDEST PUSH0 PUSH2 0x1B2D CALLER PUSH2 0x3C27 JUMP JUMPDEST SWAP1 POP PUSH0 DUP2 GT PUSH2 0x1B71 JUMPI PUSH1 0x40 MLOAD PUSH3 0x461BCD PUSH1 0xE5 SHL DUP2 MSTORE PUSH1 0x20 PUSH1 0x4 DUP3 ADD MSTORE PUSH1 0x10 PUSH1 0x24 DUP3 ADD MSTORE PUSH16 0x4E6F7468696E6720746F20636C61696D PUSH1 0x80 SHL PUSH1 0x44 DUP3 ADD MSTORE PUSH1 0x64 ADD PUSH2 0x13CF JUMP JUMPDEST PUSH1 0x64 SLOAD PUSH1 0x40 MLOAD PUSH4 0x70A08231 PUSH1 0xE0 SHL DUP2 MSTORE ADDRESS PUSH1 0x4 DUP3 ADD MSTORE DUP3 SWAP2 PUSH1 0x1 PUSH1 0x1 PUSH1 0xA0 SHL SUB AND SWAP1 PUSH4 0x70A08231 SWAP1 PUSH1 0x24 ADD PUSH1 0x20 PUSH1 0x40 MLOAD DUP1 DUP4 SUB DUP2 DUP7 GAS STATICCALL ISZERO DUP1 ISZERO PUSH2 0x1BB7 JUMPI RETURNDATASIZE PUSH0 PUSH0 RETURNDATACOPY RETURNDATASIZE PUSH0 REVERT JUMPDEST POP POP POP POP PUSH1 0x40 MLOAD RETURNDATASIZE PUSH1 0x1F NOT PUSH1 0x1F DUP3 ADD AND DUP3 ADD DUP1 PUSH1 0x40 MSTORE POP DUP2 ADD SWAP1 PUSH2 0x1BDB SWAP2 SWAP1 PUSH2 0x50EC JUMP JUMPDEST LT ISZERO PUSH2 0x1BF9 JUMPI PUSH1 0x40 MLOAD PUSH3 0x461BCD PUSH1 0xE5 SHL DUP2 MSTORE PUSH1 0x4 ADD PUSH2 0x13CF SWAP1 PUSH2 0x5103 JUMP JUMPDEST DUP1 DUP3 PUSH1 0x1 ADD PUSH0 DUP3 DUP3 SLOAD PUSH2 0x1C0C SWAP2 SWAP1 PUSH2 0x50D9 JUMP JUMPDEST SWAP1 SWAP2 SSTORE POP POP CALLER PUSH0 DUP2 DUP2 MSTORE PUSH1 0x89 PUSH1 0x20 MSTORE PUSH1 0x40 SWAP1 DUP2 SWAP1 KECCAK256 TIMESTAMP SWAP1 SSTORE PUSH1 0x64 SLOAD SWAP1 MLOAD PUSH4 0xA9059CBB PUSH1 0xE0 SHL DUP2 MSTORE PUSH1 0x4 DUP2 ADD SWAP3 SWAP1 SWAP3 MSTORE PUSH1 0x24 DUP3 ADD DUP4 SWAP1 MSTORE PUSH1 0x1 PUSH1 0x1 PUSH1 0xA0 SHL SUB AND SWAP1 PUSH4 0xA9059CBB SWAP1 PUSH1 0x44 ADD PUSH1 0x20 PUSH1 0x40 MLOAD DUP1 DUP4 SUB DUP2 PUSH0 DUP8 GAS CALL ISZERO DUP1 ISZERO PUSH2 0x1C71 JUMPI RETURNDATASIZE PUSH0 PUSH0 RETURNDATACOPY RETURNDATASIZE PUSH0 REVERT JUMPDEST POP POP POP POP PUSH1 0x40 MLOAD RETURNDATASIZE PUSH1 0x1F NOT PUSH1 0x1F DUP3 ADD AND DUP3 ADD DUP1 PUSH1 0x40 MSTORE POP DUP2 ADD SWAP1 PUSH2 0x1C95 SWAP2 SWAP1 PUSH2 0x5131 JUMP JUMPDEST PUSH2 0x1CB1 JUMPI PUSH1 0x40 MLOAD PUSH3 0x461BCD PUSH1 0xE5 SHL DUP2 MSTORE PUSH1 0x4 ADD PUSH2 0x13CF SWAP1 PUSH2 0x514C JUMP JUMPDEST PUSH1 0x40 MLOAD DUP2 DUP2 MSTORE CALLER SWAP1 PUSH32 0x47CEE97CB7ACD717B3C0AA1435D004CD5B3C8C57D70DBCEB4E4458BBD60E39D4 SWAP1 PUSH1 0x20 ADD PUSH1 0x40 MLOAD DUP1 SWAP2 SUB SWAP1 LOG2 POP POP PUSH2 0x1CF2 PUSH1 0x1 PUSH1 0x32 SSTORE JUMP JUMPDEST JUMP JUMPDEST PUSH2 0x1CFC PUSH2 0x3D86 JUMP JUMPDEST PUSH2 0x1D05 DUP3 PUSH2 0x3E2A JUMP JUMPDEST PUSH2 0x1D0F DUP3 DUP3 PUSH2 0x3E41 JUMP JUMPDEST POP POP JUMP JUMPDEST PUSH0 PUSH2 0x1D1C PUSH2 0x3EFD JUMP JUMPDEST POP PUSH0 MLOAD PUSH1 0x20 PUSH2 0x5279 PUSH0 CODECOPY PUSH0 MLOAD SWAP1 PUSH0 MSTORE SWAP1 JUMP JUMPDEST CALLER PUSH0 SWAP1 DUP2 MSTORE PUSH1 0x8B PUSH1 0x20 MSTORE PUSH1 0x40 SWAP1 KECCAK256 SLOAD PUSH32 0xE5A31645935587B4A5C783B64AB89F9FB6558BF985184DF9E5BF815F41C7F65B SWAP1 PUSH1 0xFF AND PUSH2 0x1D7E JUMPI PUSH1 0x40 MLOAD PUSH3 0x461BCD PUSH1 0xE5 SHL DUP2 MSTORE PUSH1 0x4 ADD PUSH2 0x13CF SWAP1 PUSH2 0x500F JUMP JUMPDEST PUSH0 DUP2 DUP2 MSTORE PUSH1 0x8E PUSH1 0x20 MSTORE PUSH1 0x40 DUP2 KECCAK256 DUP1 SLOAD SWAP2 PUSH2 0x1D97 DUP4 PUSH2 0x5049 JUMP JUMPDEST SWAP1 SWAP2 SSTORE POP POP PUSH1 0x7E SLOAD PUSH0 DUP3 DUP2 MSTORE PUSH1 0x8E PUSH1 0x20 MSTORE PUSH1 0x40 SWAP1 KECCAK256 SLOAD LT ISZERO PUSH2 0x1DCB JUMPI PUSH1 0x40 MLOAD PUSH3 0x461BCD PUSH1 0xE5 SHL DUP2 MSTORE PUSH1 0x4 ADD PUSH2 0x13CF SWAP1 PUSH2 0x5061 JUMP JUMPDEST PUSH0 DUP2 DUP2 MSTORE PUSH1 0x8E PUSH1 0x20 MSTORE PUSH1 0x40 DUP2 KECCAK256 SSTORE PUSH1 0x1 PUSH1 0x1 PUSH1 0xA0 SHL SUB DUP3 AND PUSH2 0x1DFF JUMPI PUSH1 0x40 MLOAD PUSH3 0x461BCD PUSH1 0xE5 SHL DUP2 MSTORE PUSH1 0x4 ADD PUSH2 0x13CF SWAP1 PUSH2 0x508E JUMP JUMPDEST PUSH1 0x1 PUSH1 0x1 PUSH1 0xA0 SHL SUB DUP5 AND PUSH2 0x1E3D JUMPI DUP3 SELFBALANCE LT ISZERO PUSH2 0x1E2D JUMPI PUSH1 0x40 MLOAD PUSH3 0x461BCD PUSH1 0xE5 SHL DUP2 MSTORE PUSH1 0x4 ADD PUSH2 0x13CF SWAP1 PUSH2 0x5103 JUMP JUMPDEST PUSH2 0x1E37 DUP3 DUP5 PUSH2 0x3F46 JUMP JUMPDEST POP PUSH2 0x16AF JUMP JUMPDEST PUSH1 0x40 MLOAD PUSH4 0x70A08231 PUSH1 0xE0 SHL DUP2 MSTORE ADDRESS PUSH1 0x4 DUP3 ADD MSTORE DUP5 SWAP1 DUP5 SWAP1 PUSH1 0x1 PUSH1 0x1 PUSH1 0xA0 SHL SUB DUP4 AND SWAP1 PUSH4 0x70A08231 SWAP1 PUSH1 0x24 ADD PUSH1 0x20 PUSH1 0x40 MLOAD DUP1 DUP4 SUB DUP2 DUP7 GAS STATICCALL ISZERO DUP1 ISZERO PUSH2 0x1E83 JUMPI RETURNDATASIZE PUSH0 PUSH0 RETURNDATACOPY RETURNDATASIZE PUSH0 REVERT JUMPDEST POP POP POP POP PUSH1 0x40 MLOAD RETURNDATASIZE PUSH1 0x1F NOT PUSH1 0x1F DUP3 ADD AND DUP3 ADD DUP1 PUSH1 0x40 MSTORE POP DUP2 ADD SWAP1 PUSH2 0x1EA7 SWAP2 SWAP1 PUSH2 0x50EC JUMP JUMPDEST LT ISZERO PUSH2 0x1EC5 JUMPI PUSH1 0x40 MLOAD PUSH3 0x461BCD PUSH1 0xE5 SHL DUP2 MSTORE PUSH1 0x4 ADD PUSH2 0x13CF SWAP1 PUSH2 0x5103 JUMP JUMPDEST PUSH1 0x40 MLOAD PUSH4 0xA9059CBB PUSH1 0xE0 SHL DUP2 MSTORE PUSH1 0x1 PUSH1 0x1 PUSH1 0xA0 SHL SUB DUP5 DUP2 AND PUSH1 0x4 DUP4 ADD MSTORE PUSH1 0x24 DUP3 ADD DUP7 SWAP1 MSTORE DUP3 AND SWAP1 PUSH4 0xA9059CBB SWAP1 PUSH1 0x44 ADD PUSH1 0x20 PUSH1 0x40 MLOAD DUP1 DUP4 SUB DUP2 PUSH0 DUP8 GAS CALL ISZERO DUP1 ISZERO PUSH2 0x1F11 JUMPI RETURNDATASIZE PUSH0 PUSH0 RETURNDATACOPY RETURNDATASIZE PUSH0 REVERT JUMPDEST POP POP POP POP PUSH1 0x40 MLOAD RETURNDATASIZE PUSH1 0x1F NOT PUSH1 0x1F DUP3 ADD AND DUP3 ADD DUP1 PUSH1 0x40 MSTORE POP DUP2 ADD SWAP1 PUSH2 0x1F35 SWAP2 SWAP1 PUSH2 0x5131 JUMP JUMPDEST PUSH2 0x1F51 JUMPI PUSH1 0x40 MLOAD PUSH3 0x461BCD PUSH1 0xE5 SHL DUP2 MSTORE PUSH1 0x4 ADD PUSH2 0x13CF SWAP1 PUSH2 0x514C JUMP JUMPDEST POP POP POP POP POP JUMP JUMPDEST PUSH2 0x1F60 PUSH2 0x39A2 JUMP JUMPDEST PUSH2 0x1F68 PUSH2 0x39E7 JUMP JUMPDEST PUSH1 0x82 SLOAD PUSH3 0x10000 SWAP1 DIV PUSH1 0xFF AND DUP1 PUSH2 0x1F88 JUMPI POP PUSH1 0x82 SLOAD PUSH1 0x1 PUSH1 0x30 SHL SWAP1 DIV PUSH1 0xFF AND JUMPDEST PUSH2 0x1FCB JUMPI PUSH1 0x40 MLOAD PUSH3 0x461BCD PUSH1 0xE5 SHL DUP2 MSTORE PUSH1 0x20 PUSH1 0x4 DUP3 ADD MSTORE PUSH1 0x14 PUSH1 0x24 DUP3 ADD MSTORE PUSH20 0x526566756E64206E6F7420617661696C61626C65 PUSH1 0x60 SHL PUSH1 0x44 DUP3 ADD MSTORE PUSH1 0x64 ADD PUSH2 0x13CF JUMP JUMPDEST PUSH1 0x82 SLOAD PUSH1 0x1 PUSH1 0x30 SHL SWAP1 DIV PUSH1 0xFF AND PUSH2 0x2031 JUMPI PUSH1 0x6C SLOAD TIMESTAMP GT DUP1 ISZERO PUSH2 0x1FF0 JUMPI POP PUSH1 0x70 SLOAD PUSH1 0x6F SLOAD LT JUMPDEST PUSH2 0x2031 JUMPI PUSH1 0x40 MLOAD PUSH3 0x461BCD PUSH1 0xE5 SHL DUP2 MSTORE PUSH1 0x20 PUSH1 0x4 DUP3 ADD MSTORE PUSH1 0x12 PUSH1 0x24 DUP3 ADD MSTORE PUSH18 0x10DBDB991A5D1A5BDB9CC81B9BDD081B595D PUSH1 0x72 SHL PUSH1 0x44 DUP3 ADD MSTORE PUSH1 0x64 ADD PUSH2 0x13CF JUMP JUMPDEST CALLER PUSH0 SWAP1 DUP2 MSTORE PUSH1 0x86 PUSH1 0x20 MSTORE PUSH1 0x40 SWAP1 KECCAK256 SLOAD DUP1 PUSH2 0x2083 JUMPI PUSH1 0x40 MLOAD PUSH3 0x461BCD PUSH1 0xE5 SHL DUP2 MSTORE PUSH1 0x20 PUSH1 0x4 DUP3 ADD MSTORE PUSH1 0x13 PUSH1 0x24 DUP3 ADD MSTORE PUSH19 0x4E6F20726566756E6420617661696C61626C65 PUSH1 0x68 SHL PUSH1 0x44 DUP3 ADD MSTORE PUSH1 0x64 ADD PUSH2 0x13CF JUMP JUMPDEST DUP1 SELFBALANCE LT ISZERO PUSH2 0x20A3 JUMPI PUSH1 0x40 MLOAD PUSH3 0x461BCD PUSH1 0xE5 SHL DUP2 MSTORE PUSH1 0x4 ADD PUSH2 0x13CF SWAP1 PUSH2 0x5103 JUMP JUMPDEST CALLER PUSH0 SWAP1 DUP2 MSTORE PUSH1 0x86 PUSH1 0x20 MSTORE PUSH1 0x40 DUP2 KECCAK256 DUP2 SWAP1 SSTORE PUSH1 0x80 DUP1 SLOAD DUP4 SWAP3 SWAP1 PUSH2 0x20C6 SWAP1 DUP5 SWAP1 PUSH2 0x50D9 JUMP JUMPDEST SWAP1 SWAP2 SSTORE POP PUSH2 0x20D6 SWAP1 POP CALLER DUP3 PUSH2 0x3F46 JUMP JUMPDEST POP PUSH1 0x40 MLOAD DUP2 DUP2 MSTORE CALLER SWAP1 PUSH32 0xBB28353E4598C3B9199101A66E0989549B659A59A54D2C27FBB183F1932C8E6D SWAP1 PUSH1 0x20 ADD PUSH1 0x40 MLOAD DUP1 SWAP2 SUB SWAP1 LOG2 POP PUSH2 0x1CF2 PUSH1 0x1 PUSH1 0x32 SSTORE JUMP JUMPDEST PUSH0 PUSH1 0x60 PUSH2 0x2125 PUSH0 SLOAD PUSH1 0xFF AND SWAP1 JUMP JUMPDEST ISZERO PUSH2 0x2150 JUMPI POP POP PUSH1 0x40 DUP1 MLOAD DUP1 DUP3 ADD SWAP1 SWAP2 MSTORE PUSH1 0x6 DUP2 MSTORE PUSH6 0x14185D5CD959 PUSH1 0xD2 SHL PUSH1 0x20 DUP3 ADD MSTORE PUSH0 SWAP1 PUSH2 0x247F JUMP JUMPDEST PUSH1 0x6B SLOAD TIMESTAMP LT DUP1 PUSH2 0x2161 JUMPI POP PUSH1 0x6C SLOAD TIMESTAMP GT JUMPDEST ISZERO PUSH2 0x2192 JUMPI POP POP PUSH1 0x40 DUP1 MLOAD DUP1 DUP3 ADD SWAP1 SWAP2 MSTORE PUSH1 0xC DUP2 MSTORE PUSH12 0x496E76616C69642074696D65 PUSH1 0xA0 SHL PUSH1 0x20 DUP3 ADD MSTORE PUSH0 SWAP1 PUSH2 0x247F JUMP JUMPDEST PUSH1 0x1 PUSH1 0x1 PUSH1 0xA0 SHL SUB DUP5 AND PUSH0 SWAP1 DUP2 MSTORE PUSH1 0x85 PUSH1 0x20 MSTORE PUSH1 0x40 SWAP1 KECCAK256 SLOAD PUSH1 0x4 AND ISZERO PUSH2 0x21DD JUMPI POP POP PUSH1 0x40 DUP1 MLOAD DUP1 DUP3 ADD SWAP1 SWAP2 MSTORE PUSH1 0xB DUP2 MSTORE PUSH11 0x109B1858DADB1A5CDD1959 PUSH1 0xAA SHL PUSH1 0x20 DUP3 ADD MSTORE PUSH0 SWAP1 PUSH2 0x247F JUMP JUMPDEST PUSH2 0x21E6 DUP5 PUSH2 0x3FA0 JUMP JUMPDEST PUSH2 0x2219 JUMPI POP POP PUSH1 0x40 DUP1 MLOAD DUP1 DUP3 ADD SWAP1 SWAP2 MSTORE PUSH1 0xF DUP2 MSTORE PUSH15 0x139BDD081DDA1A5D195B1A5CDD1959 PUSH1 0x8A SHL PUSH1 0x20 DUP3 ADD MSTORE PUSH0 SWAP1 PUSH2 0x247F JUMP JUMPDEST PUSH2 0x2222 DUP5 PUSH2 0x3FD7 JUMP JUMPDEST PUSH2 0x224C JUMPI POP POP PUSH1 0x40 DUP1 MLOAD DUP1 DUP3 ADD SWAP1 SWAP2 MSTORE PUSH1 0x6 DUP2 MSTORE PUSH6 0x4E6F204B5943 PUSH1 0xD0 SHL PUSH1 0x20 DUP3 ADD MSTORE PUSH0 SWAP1 PUSH2 0x247F JUMP JUMPDEST PUSH1 0x7C SLOAD DUP4 LT ISZERO PUSH2 0x2283 JUMPI POP POP PUSH1 0x40 DUP1 MLOAD DUP1 DUP3 ADD SWAP1 SWAP2 MSTORE PUSH1 0xD DUP2 MSTORE PUSH13 0x42656C6F77206D696E696D756D PUSH1 0x98 SHL PUSH1 0x20 DUP3 ADD MSTORE PUSH0 SWAP1 PUSH2 0x247F JUMP JUMPDEST PUSH1 0x7A SLOAD PUSH1 0x1 PUSH1 0x1 PUSH1 0xA0 SHL SUB DUP6 AND PUSH0 SWAP1 DUP2 MSTORE PUSH1 0x87 PUSH1 0x20 MSTORE PUSH1 0x40 SWAP1 KECCAK256 SLOAD PUSH2 0x22A8 SWAP2 SWAP1 PUSH2 0x50D9 JUMP JUMPDEST TIMESTAMP LT ISZERO PUSH2 0x22D7 JUMPI POP POP PUSH1 0x40 DUP1 MLOAD DUP1 DUP3 ADD SWAP1 SWAP2 MSTORE PUSH1 0x8 DUP2 MSTORE PUSH8 0x21B7B7B63237BBB7 PUSH1 0xC1 SHL PUSH1 0x20 DUP3 ADD MSTORE PUSH0 SWAP1 PUSH2 0x247F JUMP JUMPDEST PUSH0 PUSH2 0x22E1 DUP5 PUSH2 0x400F JUMP JUMPDEST SWAP1 POP PUSH0 PUSH1 0x6D SLOAD GT DUP1 ISZERO PUSH2 0x22F5 JUMPI POP PUSH1 0x6D SLOAD DUP2 GT JUMPDEST ISZERO PUSH2 0x2329 JUMPI POP POP PUSH1 0x40 DUP1 MLOAD DUP1 DUP3 ADD SWAP1 SWAP2 MSTORE PUSH1 0xE DUP2 MSTORE PUSH14 0x8AF0C6CACAC8E640DAC2F040E8F PUSH1 0x93 SHL PUSH1 0x20 DUP3 ADD MSTORE PUSH0 SWAP2 POP PUSH2 0x247F JUMP JUMPDEST PUSH0 PUSH1 0x7B SLOAD GT DUP1 ISZERO PUSH2 0x233B JUMPI POP PUSH1 0x7B SLOAD DUP2 GT JUMPDEST ISZERO PUSH2 0x2371 JUMPI POP POP PUSH1 0x40 DUP1 MLOAD DUP1 DUP3 ADD SWAP1 SWAP2 MSTORE PUSH1 0x10 DUP2 MSTORE PUSH16 0x105B9D1A4B5DDA185B19481B1A5B5A5D PUSH1 0x82 SHL PUSH1 0x20 DUP3 ADD MSTORE PUSH0 SWAP2 POP PUSH2 0x247F JUMP JUMPDEST PUSH0 PUSH1 0x6E SLOAD GT DUP1 ISZERO PUSH2 0x23A5 JUMPI POP PUSH1 0x6E SLOAD PUSH1 0x1 PUSH1 0x1 PUSH1 0xA0 SHL SUB DUP7 AND PUSH0 SWAP1 DUP2 MSTORE PUSH1 0x84 PUSH1 0x20 MSTORE PUSH1 0x40 SWAP1 KECCAK256 SLOAD PUSH2 0x23A3 SWAP1 DUP4 SWAP1 PUSH2 0x50D9 JUMP JUMPDEST GT JUMPDEST ISZERO PUSH2 0x23DD JUMPI POP POP PUSH1 0x40 DUP1 MLOAD DUP1 DUP3 ADD SWAP1 SWAP2 MSTORE PUSH1 0x12 DUP2 MSTORE PUSH18 0x115E18D959591CC81B585E081DD85B1B195D PUSH1 0x72 SHL PUSH1 0x20 DUP3 ADD MSTORE PUSH0 SWAP2 POP PUSH2 0x247F JUMP JUMPDEST PUSH1 0x71 SLOAD DUP2 PUSH1 0x6F SLOAD PUSH2 0x23EE SWAP2 SWAP1 PUSH2 0x50D9 JUMP JUMPDEST GT ISZERO PUSH2 0x2424 JUMPI POP POP PUSH1 0x40 DUP1 MLOAD DUP1 DUP3 ADD SWAP1 SWAP2 MSTORE PUSH1 0xF DUP2 MSTORE PUSH15 0x45786365656473206861726463617 PUSH1 0x8C SHL PUSH1 0x20 DUP3 ADD MSTORE PUSH0 SWAP2 POP PUSH2 0x247F JUMP JUMPDEST PUSH1 0x72 SLOAD DUP2 PUSH1 0x6F SLOAD PUSH2 0x2435 SWAP2 SWAP1 PUSH2 0x50D9 JUMP JUMPDEST GT ISZERO PUSH2 0x246A JUMPI POP POP PUSH1 0x40 DUP1 MLOAD DUP1 DUP3 ADD SWAP1 SWAP2 MSTORE PUSH1 0xE DUP2 MSTORE PUSH14 0x4578636565647320737570706C79 PUSH1 0x90 SHL PUSH1 0x20 DUP3 ADD MSTORE PUSH0 SWAP2 POP PUSH2 0x247F JUMP JUMPDEST POP POP PUSH1 0x40 DUP1 MLOAD PUSH1 0x20 DUP2 ADD SWAP1 SWAP2 MSTORE PUSH0 DUP2 MSTORE PUSH1 0x1 SWAP2 POP JUMPDEST SWAP3 POP SWAP3 SWAP1 POP JUMP JUMPDEST CALLER PUSH0 SWAP1 DUP2 MSTORE PUSH1 0x8B PUSH1 0x20 MSTORE PUSH1 0x40 SWAP1 KECCAK256 SLOAD PUSH32 0x1F1E70FD19224C03DD3E8D32DA32900560CD2D6CDACAE45C5A0CF6F6FFCB421B SWAP1 PUSH1 0xFF AND PUSH2 0x24D6 JUMPI PUSH1 0x40 MLOAD PUSH3 0x461BCD PUSH1 0xE5 SHL DUP2 MSTORE PUSH1 0x4 ADD PUSH2 0x13CF SWAP1 PUSH2 0x500F JUMP JUMPDEST PUSH0 DUP2 DUP2 MSTORE PUSH1 0x8E PUSH1 0x20 MSTORE PUSH1 0x40 DUP2 KECCAK256 DUP1 SLOAD SWAP2 PUSH2 0x24EF DUP4 PUSH2 0x5049 JUMP JUMPDEST SWAP1 SWAP2 SSTORE POP POP PUSH1 0x7E SLOAD PUSH0 DUP3 DUP2 MSTORE PUSH1 0x8E PUSH1 0x20 MSTORE PUSH1 0x40 SWAP1 KECCAK256 SLOAD LT ISZERO PUSH2 0x2523 JUMPI PUSH1 0x40 MLOAD PUSH3 0x461BCD PUSH1 0xE5 SHL DUP2 MSTORE PUSH1 0x4 ADD PUSH2 0x13CF SWAP1 PUSH2 0x5061 JUMP JUMPDEST PUSH0 DUP2 DUP2 MSTORE PUSH1 0x8E PUSH1 0x20 MSTORE PUSH1 0x40 DUP2 KECCAK256 SSTORE PUSH1 0x82 SLOAD PUSH4 0x1000000 SWAP1 DIV PUSH1 0xFF AND PUSH2 0x257A JUMPI PUSH1 0x40 MLOAD PUSH3 0x461BCD PUSH1 0xE5 SHL DUP2 MSTORE PUSH1 0x20 PUSH1 0x4 DUP3 ADD MSTORE PUSH1 0xD PUSH1 0x24 DUP3 ADD MSTORE PUSH13 0x139BDD08199A5B985B1A5E9959 PUSH1 0x9A SHL PUSH1 0x44 DUP3 ADD MSTORE PUSH1 0x64 ADD PUSH2 0x13CF JUMP JUMPDEST PUSH1 0x64 SLOAD PUSH1 0x40 MLOAD PUSH4 0x70A08231 PUSH1 0xE0 SHL DUP2 MSTORE ADDRESS PUSH1 0x4 DUP3 ADD MSTORE PUSH0 SWAP2 PUSH1 0x1 PUSH1 0x1 PUSH1 0xA0 SHL SUB AND SWAP1 PUSH4 0x70A08231 SWAP1 PUSH1 0x24 ADD PUSH1 0x20 PUSH1 0x40 MLOAD DUP1 DUP4 SUB DUP2 DUP7 GAS STATICCALL ISZERO DUP1 ISZERO PUSH2 0x25C0 JUMPI RETURNDATASIZE PUSH0 PUSH0 RETURNDATACOPY RETURNDATASIZE PUSH0 REVERT JUMPDEST POP POP POP POP PUSH1 0x40 MLOAD RETURNDATASIZE PUSH1 0x1F NOT PUSH1 0x1F DUP3 ADD AND DUP3 ADD DUP1 PUSH1 0x40 MSTORE POP DUP2 ADD SWAP1 PUSH2 0x25E4 SWAP2 SWAP1 PUSH2 0x50EC JUMP JUMPDEST PUSH1 0x64 SLOAD PUSH1 0x65 SLOAD PUSH1 0x40 MLOAD PUSH4 0xA9059CBB PUSH1 0xE0 SHL DUP2 MSTORE PUSH1 0x1 PUSH1 0x1 PUSH1 0xA0 SHL SUB SWAP2 DUP3 AND PUSH1 0x4 DUP3 ADD MSTORE PUSH1 0x24 DUP2 ADD DUP5 SWAP1 MSTORE SWAP3 SWAP4 POP AND SWAP1 PUSH4 0xA9059CBB SWAP1 PUSH1 0x44 ADD PUSH1 0x20 PUSH1 0x40 MLOAD DUP1 DUP4 SUB DUP2 PUSH0 DUP8 GAS CALL ISZERO DUP1 ISZERO PUSH2 0x2638 JUMPI RETURNDATASIZE PUSH0 PUSH0 RETURNDATACOPY RETURNDATASIZE PUSH0 REVERT JUMPDEST POP POP POP POP PUSH1 0x40 MLOAD RETURNDATASIZE PUSH1 0x1F NOT PUSH1 0x1F DUP3 ADD AND DUP3 ADD DUP1 PUSH1 0x40 MSTORE POP DUP2 ADD SWAP1 PUSH2 0x265C SWAP2 SWAP1 PUSH2 0x5131 JUMP JUMPDEST PUSH2 0x1D0F JUMPI PUSH1 0x40 MLOAD PUSH3 0x461BCD PUSH1 0xE5 SHL DUP2 MSTORE PUSH1 0x4 ADD PUSH2 0x13CF SWAP1 PUSH2 0x514C JUMP JUMPDEST PUSH0 MLOAD PUSH1 0x20 PUSH2 0x52D9 PUSH0 CODECOPY PUSH0 MLOAD SWAP1 PUSH0 MSTORE PUSH2 0x268F DUP2 PUSH2 0x38F7 JUMP JUMPDEST POP PUSH0 SWAP1 DUP2 MSTORE PUSH1 0x8F PUSH1 0x20 MSTORE PUSH1 0x40 DUP2 KECCAK256 SSTORE JUMP JUMPDEST PUSH1 0x1 PUSH1 0x1 PUSH1 0xA0 SHL SUB DUP2 AND PUSH0 SWAP1 DUP2 MSTORE PUSH1 0x84 PUSH1 0x20 MSTORE PUSH1 0x40 DUP2 KECCAK256 SLOAD DUP2 SWAP1 DUP2 SWAP1 DUP2 SWAP1 PUSH2 0x26C7 DUP7 PUSH2 0x3C27 JUMP JUMPDEST PUSH1 0x1 PUSH1 0x1 PUSH1 0xA0 SHL SUB SWAP7 SWAP1 SWAP7 AND PUSH0 SWAP1 DUP2 MSTORE PUSH1 0x8C PUSH1 0x20 SWAP1 DUP2 MSTORE PUSH1 0x40 DUP1 DUP4 KECCAK256 PUSH1 0x1 ADD SLOAD PUSH1 0x86 SWAP1 SWAP3 MSTORE SWAP1 SWAP2 KECCAK256 SLOAD SWAP2 SWAP8 SWAP1 SWAP6 POP SWAP1 SWAP4 POP SWAP2 POP POP JUMP JUMPDEST PUSH0 MLOAD PUSH1 0x20 PUSH2 0x52D9 PUSH0 CODECOPY PUSH0 MLOAD SWAP1 PUSH0 MSTORE PUSH2 0x2714 DUP2 PUSH2 0x38F7 JUMP JUMPDEST POP PUSH1 0x67 DUP1 SLOAD PUSH1 0x1 PUSH1 0x1 PUSH1 0xA0 SHL SUB NOT AND PUSH1 0x1 PUSH1 0x1 PUSH1 0xA0 SHL SUB SWAP4 SWAP1 SWAP4 AND SWAP3 SWAP1 SWAP3 OR SWAP1 SWAP2 SSTORE PUSH1 0x82 DUP1 SLOAD PUSH1 0xFF NOT AND SWAP2 ISZERO ISZERO SWAP2 SWAP1 SWAP2 OR SWAP1 SSTORE JUMP JUMPDEST PUSH0 MLOAD PUSH1 0x20 PUSH2 0x52D9 PUSH0 CODECOPY PUSH0 MLOAD SWAP1 PUSH0 MSTORE PUSH2 0x2760 DUP2 PUSH2 0x38F7 JUMP JUMPDEST DUP4 DUP3 EQ DUP1 ISZERO PUSH2 0x2770 JUMPI POP PUSH1 0x64 DUP5 GT ISZERO JUMPDEST PUSH2 0x27AC JUMPI PUSH1 0x40 MLOAD PUSH3 0x461BCD PUSH1 0xE5 SHL DUP2 MSTORE PUSH1 0x20 PUSH1 0x4 DUP3 ADD MSTORE PUSH1 0xD PUSH1 0x24 DUP3 ADD MSTORE PUSH13 0x92DCECC2D8D2C840C4C2E8C6D PUSH1 0x9B SHL PUSH1 0x44 DUP3 ADD MSTORE PUSH1 0x64 ADD PUSH2 0x13CF JUMP JUMPDEST PUSH0 JUMPDEST DUP5 DUP2 LT ISZERO PUSH2 0x281A JUMPI DUP4 DUP4 DUP3 DUP2 DUP2 LT PUSH2 0x27C8 JUMPI PUSH2 0x27C8 PUSH2 0x5175 JUMP JUMPDEST SWAP1 POP PUSH1 0x20 MUL ADD CALLDATALOAD PUSH1 0x85 PUSH0 DUP9 DUP9 DUP6 DUP2 DUP2 LT PUSH2 0x27E4 JUMPI PUSH2 0x27E4 PUSH2 0x5175 JUMP JUMPDEST SWAP1 POP PUSH1 0x20 MUL ADD PUSH1 0x20 DUP2 ADD SWAP1 PUSH2 0x27F9 SWAP2 SWAP1 PUSH2 0x4B42 JUMP JUMPDEST PUSH1 0x1 PUSH1 0x1 PUSH1 0xA0 SHL SUB AND DUP2 MSTORE PUSH1 0x20 DUP2 ADD SWAP2 SWAP1 SWAP2 MSTORE PUSH1 0x40 ADD PUSH0 KECCAK256 SSTORE PUSH1 0x1 ADD PUSH2 0x27AE JUMP JUMPDEST POP POP POP POP POP POP JUMP JUMPDEST PUSH0 MLOAD PUSH1 0x20 PUSH2 0x52D9 PUSH0 CODECOPY PUSH0 MLOAD SWAP1 PUSH0 MSTORE PUSH2 0x2839 DUP2 PUSH2 0x38F7 JUMP JUMPDEST POP PUSH1 0x82 DUP1 SLOAD PUSH6 0xFFFF00000000 NOT AND PUSH5 0x100000000 SWAP4 ISZERO ISZERO SWAP4 SWAP1 SWAP4 MUL PUSH6 0xFF0000000000 NOT AND SWAP3 SWAP1 SWAP3 OR PUSH6 0x10000000000 SWAP2 ISZERO ISZERO SWAP2 SWAP1 SWAP2 MUL OR SWAP1 SSTORE JUMP JUMPDEST PUSH0 MLOAD PUSH1 0x20 PUSH2 0x52D9 PUSH0 CODECOPY PUSH0 MLOAD SWAP1 PUSH0 MSTORE PUSH2 0x288B DUP2 PUSH2 0x38F7 JUMP JUMPDEST PUSH0 DUP3 GT PUSH2 0x28CA JUMPI PUSH1 0x40 MLOAD PUSH3 0x461BCD PUSH1 0xE5 SHL DUP2 MSTORE PUSH1 0x20 PUSH1 0x4 DUP3 ADD MSTORE PUSH1 0xD PUSH1 0x24 DUP3 ADD MSTORE PUSH13 0x496E76616C6964207072696365 PUSH1 0x98 SHL PUSH1 0x44 DUP3 ADD MSTORE PUSH1 0x64 ADD PUSH2 0x13CF JUMP JUMPDEST POP PUSH1 0x69 SSTORE JUMP JUMPDEST PUSH0 PUSH2 0x136B DUP3 PUSH2 0x400F JUMP JUMPDEST PUSH0 MLOAD PUSH1 0x20 PUSH2 0x52D9 PUSH0 CODECOPY PUSH0 MLOAD SWAP1 PUSH0 MSTORE PUSH2 0x28F1 DUP2 PUSH2 0x38F7 JUMP JUMPDEST POP PUSH1 0x1 PUSH1 0x1 PUSH1 0xA0 SHL SUB AND PUSH0 SWAP1 DUP2 MSTORE PUSH1 0x8C PUSH1 0x20 MSTORE PUSH1 0x40 SWAP1 KECCAK256 PUSH1 0x6 ADD DUP1 SLOAD PUSH1 0xFF NOT AND SWAP1 SSTORE JUMP JUMPDEST PUSH0 MLOAD PUSH1 0x20 PUSH2 0x5299 PUSH0 CODECOPY PUSH0 MLOAD SWAP1 PUSH0 MSTORE PUSH2 0x292C DUP2 PUSH2 0x38F7 JUMP JUMPDEST PUSH2 0x1980 PUSH2 0x41B9 JUMP JUMPDEST PUSH0 SWAP2 DUP3 MSTORE PUSH0 MLOAD PUSH1 0x20 PUSH2 0x52B9 PUSH0 CODECOPY PUSH0 MLOAD SWAP1 PUSH0 MSTORE PUSH1 0x20 SWAP1 DUP2 MSTORE PUSH1 0x40 DUP1 DUP5 KECCAK256 PUSH1 0x1 PUSH1 0x1 PUSH1 0xA0 SHL SUB SWAP4 SWAP1 SWAP4 AND DUP5 MSTORE SWAP2 SWAP1 MSTORE SWAP1 KECCAK256 SLOAD PUSH1 0xFF AND SWAP1 JUMP JUMPDEST PUSH0 MLOAD PUSH1 0x20 PUSH2 0x52D9 PUSH0 CODECOPY PUSH0 MLOAD SWAP1 PUSH0 MSTORE PUSH2 0x2981 DUP2 PUSH2 0x38F7 JUMP JUMPDEST PUSH0 DUP3 GT PUSH2 0x29C4 JUMPI PUSH1 0x40 MLOAD PUSH3 0x461BCD PUSH1 0xE5 SHL DUP2 MSTORE PUSH1 0x20 PUSH1 0x4 DUP3 ADD MSTORE PUSH1 0x11 PUSH1 0x24 DUP3 ADD MSTORE PUSH17 0x125B9D985B1A59081D1A1C995CDA1BDB19 PUSH1 0x7A SHL PUSH1 0x44 DUP3 ADD MSTORE PUSH1 0x64 ADD PUSH2 0x13CF JUMP JUMPDEST POP PUSH1 0x7E SSTORE JUMP JUMPDEST PUSH0 MLOAD PUSH1 0x20 PUSH2 0x52D9 PUSH0 CODECOPY PUSH0 MLOAD SWAP1 PUSH0 MSTORE PUSH2 0x29E1 DUP2 PUSH2 0x38F7 JUMP JUMPDEST DUP2 DUP4 GT ISZERO PUSH2 0x2A20 JUMPI PUSH1 0x40 MLOAD PUSH3 0x461BCD PUSH1 0xE5 SHL DUP2 MSTORE PUSH1 0x20 PUSH1 0x4 DUP3 ADD MSTORE PUSH1 0xC PUSH1 0x24 DUP3 ADD MSTORE PUSH12 0x496E76616C69642063617073 PUSH1 0xA0 SHL PUSH1 0x44 DUP3 ADD MSTORE PUSH1 0x64 ADD PUSH2 0x13CF JUMP JUMPDEST DUP4 ISZERO PUSH2 0x2A67 JUMPI DUP4 DUP6 GT ISZERO PUSH2 0x2A67 JUMPI PUSH1 0x40 MLOAD PUSH3 0x461BCD PUSH1 0xE5 SHL DUP2 MSTORE PUSH1 0x20 PUSH1 0x4 DUP3 ADD MSTORE PUSH1 0xE PUSH1 0x24 DUP3 ADD MSTORE PUSH14 0x496E76616C6964206C696D697473 PUSH1 0x90 SHL PUSH1 0x44 DUP3 ADD MSTORE PUSH1 0x64 ADD PUSH2 0x13CF JUMP JUMPDEST POP PUSH1 0x6D SWAP4 SWAP1 SWAP4 SSTORE PUSH1 0x6E SWAP2 SWAP1 SWAP2 SSTORE PUSH1 0x70 SSTORE PUSH1 0x71 SSTORE JUMP JUMPDEST PUSH0 MLOAD PUSH1 0x20 PUSH2 0x52D9 PUSH0 CODECOPY PUSH0 MLOAD SWAP1 PUSH0 MSTORE PUSH2 0x2A93 DUP2 PUSH2 0x38F7 JUMP JUMPDEST PUSH1 0x7D SLOAD PUSH2 0x2AA0 SWAP1 TIMESTAMP PUSH2 0x50D9 JUMP JUMPDEST PUSH0 SWAP3 DUP4 MSTORE PUSH1 0x8F PUSH1 0x20 MSTORE PUSH1 0x40 SWAP1 SWAP3 KECCAK256 SWAP2 SWAP1 SWAP2 SSTORE POP JUMP JUMPDEST PUSH0 PUSH2 0x136B DUP3 PUSH2 0x3C27 JUMP JUMPDEST PUSH0 MLOAD PUSH1 0x20 PUSH2 0x52D9 PUSH0 CODECOPY PUSH0 MLOAD SWAP1 PUSH0 MSTORE PUSH2 0x2AD6 DUP2 PUSH2 0x38F7 JUMP JUMPDEST PUSH32 0x21BDCFECFC968BEFCC9F167BB8476C3F66D82F8A8FD2D06D70978B1CCA9A0AD4 PUSH0 DUP2 SWAP1 MSTORE PUSH1 0x8F PUSH1 0x20 MSTORE PUSH32 0x7C1DC80BE300BED967AB0FA2E960E51D8DB308B1A05F7014CDD470FA950DF3A SLOAD DUP1 ISZERO DUP1 ISZERO SWAP1 PUSH2 0x2B31 JUMPI POP DUP1 TIMESTAMP LT ISZERO JUMPDEST PUSH2 0x2B72 JUMPI PUSH1 0x40 MLOAD PUSH3 0x461BCD PUSH1 0xE5 SHL DUP2 MSTORE PUSH1 0x20 PUSH1 0x4 DUP3 ADD MSTORE PUSH1 0x12 PUSH1 0x24 DUP3 ADD MSTORE PUSH18 0x54696D656C6F636B206E6F74207265616479 PUSH1 0x70 SHL PUSH1 0x44 DUP3 ADD MSTORE PUSH1 0x64 ADD PUSH2 0x13CF JUMP JUMPDEST PUSH0 DUP3 DUP2 MSTORE PUSH1 0x8F PUSH1 0x20 MSTORE PUSH1 0x40 DUP2 KECCAK256 SSTORE PUSH2 0x12C DUP5 LT ISZERO PUSH2 0x2BC4 JUMPI PUSH1 0x40 MLOAD PUSH3 0x461BCD PUSH1 0xE5 SHL DUP2 MSTORE PUSH1 0x20 PUSH1 0x4 DUP3 ADD MSTORE PUSH1 0xF PUSH1 0x24 DUP3 ADD MSTORE PUSH15 0x11195B185E481D1BDBC81CDA1BDC9D PUSH1 0x8A SHL PUSH1 0x44 DUP3 ADD MSTORE PUSH1 0x64 ADD PUSH2 0x13CF JUMP JUMPDEST POP POP POP PUSH1 0x7D SSTORE JUMP JUMPDEST PUSH2 0x2BD5 DUP3 PUSH2 0x1673 JUMP JUMPDEST PUSH2 0x2BDE DUP2 PUSH2 0x38F7 JUMP JUMPDEST PUSH2 0x16AF DUP4 DUP4 PUSH2 0x3B5D JUMP JUMPDEST PUSH2 0x2BF0 PUSH2 0x39A2 JUMP JUMPDEST PUSH2 0x2BF8 PUSH2 0x39E7 JUMP JUMPDEST CALLER PUSH0 SWAP1 DUP2 MSTORE PUSH1 0x88 PUSH1 0x20 MSTORE PUSH1 0x40 SWAP1 KECCAK256 SLOAD NUMBER GT PUSH2 0x2C48 JUMPI PUSH1 0x40 MLOAD PUSH3 0x461BCD PUSH1 0xE5 SHL DUP2 MSTORE PUSH1 0x20 PUSH1 0x4 DUP3 ADD MSTORE PUSH1 0x10 PUSH1 0x24 DUP3 ADD MSTORE PUSH16 0x4F6E652074782070657220626C6F636B PUSH1 0x80 SHL PUSH1 0x44 DUP3 ADD MSTORE PUSH1 0x64 ADD PUSH2 0x13CF JUMP JUMPDEST CALLER PUSH0 SWAP1 DUP2 MSTORE PUSH1 0x88 PUSH1 0x20 MSTORE PUSH1 0x40 SWAP1 KECCAK256 NUMBER SWAP1 SSTORE PUSH1 0x6B SLOAD TIMESTAMP LT DUP1 ISZERO SWAP1 PUSH2 0x2C6D JUMPI POP PUSH1 0x6C SLOAD TIMESTAMP GT ISZERO JUMPDEST PUSH2 0x2CA8 JUMPI PUSH1 0x40 MLOAD PUSH3 0x461BCD PUSH1 0xE5 SHL DUP2 MSTORE PUSH1 0x20 PUSH1 0x4 DUP3 ADD MSTORE PUSH1 0xC PUSH1 0x24 DUP3 ADD MSTORE PUSH12 0x496E76616C69642074696D65 PUSH1 0xA0 SHL PUSH1 0x44 DUP3 ADD MSTORE PUSH1 0x64 ADD PUSH2 0x13CF JUMP JUMPDEST CALLER PUSH0 DUP2 DUP2 MSTORE PUSH1 0x85 PUSH1 0x20 MSTORE PUSH1 0x40 SWAP1 KECCAK256 SLOAD PUSH1 0x4 AND ISZERO PUSH2 0x2CD7 JUMPI PUSH1 0x40 MLOAD PUSH3 0x461BCD PUSH1 0xE5 SHL DUP2 MSTORE PUSH1 0x4 ADD PUSH2 0x13CF SWAP1 PUSH2 0x50B4 JUMP JUMPDEST PUSH2 0x2CE0 DUP2 PUSH2 0x3FA0 JUMP JUMPDEST PUSH2 0x2D1E JUMPI PUSH1 0x40 MLOAD PUSH3 0x461BCD PUSH1 0xE5 SHL DUP2 MSTORE PUSH1 0x20 PUSH1 0x4 DUP3 ADD MSTORE PUSH1 0xF PUSH1 0x24 DUP3 ADD MSTORE PUSH15 0x139BDD081DDA1A5D195B1A5CDD1959 PUSH1 0x8A SHL PUSH1 0x44 DUP3 ADD MSTORE PUSH1 0x64 ADD PUSH2 0x13CF JUMP JUMPDEST PUSH2 0x2D27 DUP2 PUSH2 0x3FD7 JUMP JUMPDEST PUSH2 0x2D66 JUMPI PUSH1 0x40 MLOAD PUSH3 0x461BCD PUSH1 0xE5 SHL DUP2 MSTORE PUSH1 0x20 PUSH1 0x4 DUP3 ADD MSTORE PUSH1 0x10 PUSH1 0x24 DUP3 ADD MSTORE PUSH16 0x139BDD0812D650C81D995C9A599A5959 PUSH1 0x82 SHL PUSH1 0x44 DUP3 ADD MSTORE PUSH1 0x64 ADD PUSH2 0x13CF JUMP JUMPDEST DUP2 CALLVALUE EQ PUSH2 0x2DA7 JUMPI PUSH1 0x40 MLOAD PUSH3 0x461BCD PUSH1 0xE5 SHL DUP2 MSTORE PUSH1 0x20 PUSH1 0x4 DUP3 ADD MSTORE PUSH1 0xF PUSH1 0x24 DUP3 ADD MSTORE PUSH15 0x82DADEEADCE840DAD2E6DAC2E8C6D PUSH1 0x8B SHL PUSH1 0x44 DUP3 ADD MSTORE PUSH1 0x64 ADD PUSH2 0x13CF JUMP JUMPDEST PUSH1 0x7C SLOAD CALLVALUE LT ISZERO PUSH2 0x2DE9 JUMPI PUSH1 0x40 MLOAD PUSH3 0x461BCD PUSH1 0xE5 SHL DUP2 MSTORE PUSH1 0x20 PUSH1 0x4 DUP3 ADD MSTORE PUSH1 0xD PUSH1 0x24 DUP3 ADD MSTORE PUSH13 0x42656C6F77206D696E696D756D PUSH1 0x98 SHL PUSH1 0x44 DUP3 ADD MSTORE PUSH1 0x64 ADD PUSH2 0x13CF JUMP JUMPDEST PUSH1 0x7A SLOAD CALLER PUSH0 SWAP1 DUP2 MSTORE PUSH1 0x87 PUSH1 0x20 MSTORE PUSH1 0x40 SWAP1 KECCAK256 SLOAD PUSH2 0x2E05 SWAP2 SWAP1 PUSH2 0x50D9 JUMP JUMPDEST TIMESTAMP LT ISZERO PUSH2 0x2E46 JUMPI PUSH1 0x40 MLOAD PUSH3 0x461BCD PUSH1 0xE5 SHL DUP2 MSTORE PUSH1 0x20 PUSH1 0x4 DUP3 ADD MSTORE PUSH1 0xF PUSH1 0x24 DUP3 ADD MSTORE PUSH15 0x436F6F6C646F776E20616374697665 PUSH1 0x88 SHL PUSH1 0x44 DUP3 ADD MSTORE PUSH1 0x64 ADD PUSH2 0x13CF JUMP JUMPDEST PUSH0 PUSH2 0x2E50 CALLVALUE PUSH2 0x400F JUMP JUMPDEST SWAP1 POP PUSH2 0x2E5C CALLER DUP3 PUSH2 0x41F5 JUMP JUMPDEST CALLER PUSH0 SWAP1 DUP2 MSTORE PUSH1 0x84 PUSH1 0x20 MSTORE PUSH1 0x40 DUP2 KECCAK256 DUP1 SLOAD DUP4 SWAP3 SWAP1 PUSH2 0x2E7A SWAP1 DUP5 SWAP1 PUSH2 0x50D9 JUMP JUMPDEST SWAP3 POP POP DUP2 SWAP1 SSTORE POP DUP1 PUSH1 0x6F PUSH0 DUP3 DUP3 SLOAD PUSH2 0x2E92 SWAP2 SWAP1 PUSH2 0x50D9 JUMP JUMPDEST SWAP1 SWAP2 SSTORE POP POP CALLER PUSH0 SWAP1 DUP2 MSTORE PUSH1 0x86 PUSH1 0x20 MSTORE PUSH1 0x40 DUP2 KECCAK256 DUP1 SLOAD CALLVALUE SWAP3 SWAP1 PUSH2 0x2EB5 SWAP1 DUP5 SWAP1 PUSH2 0x50D9 JUMP JUMPDEST SWAP1 SWAP2 SSTORE POP POP CALLER PUSH0 SWAP1 DUP2 MSTORE PUSH1 0x87 PUSH1 0x20 MSTORE PUSH1 0x40 SWAP1 KECCAK256 TIMESTAMP SWAP1 SSTORE PUSH1 0x68 SLOAD ISZERO PUSH2 0x2F21 JUMPI PUSH0 PUSH2 0x2710 PUSH1 0x68 SLOAD CALLVALUE PUSH2 0x2EE5 SWAP2 SWAP1 PUSH2 0x5189 JUMP JUMPDEST PUSH2 0x2EEF SWAP2 SWAP1 PUSH2 0x51A0 JUMP JUMPDEST PUSH1 0x66 SLOAD SWAP1 SWAP2 POP PUSH2 0x2F08 SWAP1 PUSH1 0x1 PUSH1 0x1 PUSH1 0xA0 SHL SUB AND DUP3 PUSH2 0x3F46 JUMP JUMPDEST POP DUP1 PUSH1 0x7F PUSH0 DUP3 DUP3 SLOAD PUSH2 0x2F1A SWAP2 SWAP1 PUSH2 0x50D9 JUMP JUMPDEST SWAP1 SWAP2 SSTORE POP POP POP JUMPDEST PUSH2 0x2F2B CALLER DUP3 PUSH2 0x43DC JUMP JUMPDEST PUSH1 0x40 DUP1 MLOAD DUP3 DUP2 MSTORE CALLVALUE PUSH1 0x20 DUP3 ADD MSTORE CALLER SWAP2 PUSH32 0x12CB4648CF3058B17CEEB33E579F8B0BC269FE0843F3900B8E24B6C54871703C SWAP2 ADD PUSH1 0x40 MLOAD DUP1 SWAP2 SUB SWAP1 LOG2 POP POP PUSH2 0x1980 PUSH1 0x1 PUSH1 0x32 SSTORE JUMP JUMPDEST PUSH0 MLOAD PUSH1 0x20 PUSH2 0x52D9 PUSH0 CODECOPY PUSH0 MLOAD SWAP1 PUSH0 MSTORE PUSH2 0x2F88 DUP2 PUSH2 0x38F7 JUMP JUMPDEST POP PUSH1 0x7A SWAP3 SWAP1 SWAP3 SSTORE PUSH1 0x7B SSTORE PUSH1 0x7C SSTORE JUMP JUMPDEST PUSH0 MLOAD PUSH1 0x20 PUSH2 0x52D9 PUSH0 CODECOPY PUSH0 MLOAD SWAP1 PUSH0 MSTORE PUSH2 0x2FAE DUP2 PUSH2 0x38F7 JUMP JUMPDEST PUSH2 0x2FB6 PUSH2 0x39A2 JUMP JUMPDEST PUSH2 0x16AF DUP5 DUP5 DUP5 PUSH2 0x446B JUMP JUMPDEST PUSH0 MLOAD PUSH1 0x20 PUSH2 0x52D9 PUSH0 CODECOPY PUSH0 MLOAD SWAP1 PUSH0 MSTORE PUSH2 0x2FD8 DUP2 PUSH2 0x38F7 JUMP JUMPDEST POP PUSH1 0x1 PUSH1 0x1 PUSH1 0xA0 SHL SUB SWAP1 SWAP2 AND PUSH0 SWAP1 DUP2 MSTORE PUSH1 0x85 PUSH1 0x20 MSTORE PUSH1 0x40 SWAP1 KECCAK256 SSTORE JUMP JUMPDEST PUSH0 MLOAD PUSH1 0x20 PUSH2 0x52D9 PUSH0 CODECOPY PUSH0 MLOAD SWAP1 PUSH0 MSTORE PUSH2 0x300B DUP2 PUSH2 0x38F7 JUMP JUMPDEST DUP4 DUP4 GT ISZERO DUP1 ISZERO PUSH2 0x301C JUMPI POP PUSH1 0x64 DUP3 GT ISZERO JUMPDEST PUSH2 0x305A JUMPI PUSH1 0x40 MLOAD PUSH3 0x461BCD PUSH1 0xE5 SHL DUP2 MSTORE PUSH1 0x20 PUSH1 0x4 DUP3 ADD MSTORE PUSH1 0xF PUSH1 0x24 DUP3 ADD MSTORE PUSH15 0x496E76616C69642076657374696E67 PUSH1 0x88 SHL PUSH1 0x44 DUP3 ADD MSTORE PUSH1 0x64 ADD PUSH2 0x13CF JUMP JUMPDEST POP PUSH1 0x73 SWAP3 SWAP1 SWAP3 SSTORE PUSH1 0x74 SSTORE PUSH1 0x75 SSTORE JUMP JUMPDEST PUSH0 MLOAD PUSH1 0x20 PUSH2 0x52D9 PUSH0 CODECOPY PUSH0 MLOAD SWAP1 PUSH0 MSTORE PUSH2 0x3080 DUP2 PUSH2 0x38F7 JUMP JUMPDEST PUSH2 0x3088 PUSH2 0x39A2 JUMP JUMPDEST DUP6 DUP5 EQ DUP1 ISZERO PUSH2 0x3096 JUMPI POP DUP4 DUP3 EQ JUMPDEST PUSH2 0x30D4 JUMPI PUSH1 0x40 MLOAD PUSH3 0x461BCD PUSH1 0xE5 SHL DUP2 MSTORE PUSH1 0x20 PUSH1 0x4 DUP3 ADD MSTORE PUSH1 0xF PUSH1 0x24 DUP3 ADD MSTORE PUSH15 0x98CADCCEE8D040DAD2E6DAC2E8C6D PUSH1 0x8B SHL PUSH1 0x44 DUP3 ADD MSTORE PUSH1 0x64 ADD PUSH2 0x13CF JUMP JUMPDEST PUSH1 0x64 DUP7 GT ISZERO PUSH2 0x30F5 JUMPI PUSH1 0x40 MLOAD PUSH3 0x461BCD PUSH1 0xE5 SHL DUP2 MSTORE PUSH1 0x4 ADD PUSH2 0x13CF SWAP1 PUSH2 0x51BF JUMP JUMPDEST PUSH0 JUMPDEST DUP7 DUP2 LT ISZERO PUSH2 0x3168 JUMPI PUSH2 0x3160 DUP9 DUP9 DUP4 DUP2 DUP2 LT PUSH2 0x3114 JUMPI PUSH2 0x3114 PUSH2 0x5175 JUMP JUMPDEST SWAP1 POP PUSH1 0x20 MUL ADD PUSH1 0x20 DUP2 ADD SWAP1 PUSH2 0x3129 SWAP2 SWAP1 PUSH2 0x4B42 JUMP JUMPDEST DUP8 DUP8 DUP5 DUP2 DUP2 LT PUSH2 0x313B JUMPI PUSH2 0x313B PUSH2 0x5175 JUMP JUMPDEST SWAP1 POP PUSH1 0x20 MUL ADD CALLDATALOAD DUP7 DUP7 DUP6 DUP2 DUP2 LT PUSH2 0x3154 JUMPI PUSH2 0x3154 PUSH2 0x5175 JUMP JUMPDEST SWAP1 POP PUSH1 0x20 MUL ADD CALLDATALOAD PUSH2 0x446B JUMP JUMPDEST PUSH1 0x1 ADD PUSH2 0x30F7 JUMP JUMPDEST POP POP POP POP POP POP POP POP JUMP JUMPDEST PUSH0 PUSH2 0x317B PUSH2 0x46CA JUMP JUMPDEST DUP1 SLOAD SWAP1 SWAP2 POP PUSH1 0xFF PUSH1 0x1 PUSH1 0x40 SHL DUP3 DIV AND ISZERO SWAP1 PUSH1 0x1 PUSH1 0x1 PUSH1 0x40 SHL SUB AND PUSH0 DUP2 ISZERO DUP1 ISZERO PUSH2 0x31A1 JUMPI POP DUP3 JUMPDEST SWAP1 POP PUSH0 DUP3 PUSH1 0x1 PUSH1 0x1 PUSH1 0x40 SHL SUB AND PUSH1 0x1 EQ DUP1 ISZERO PUSH2 0x31BC JUMPI POP ADDRESS EXTCODESIZE ISZERO JUMPDEST SWAP1 POP DUP2 ISZERO DUP1 ISZERO PUSH2 0x31CA JUMPI POP DUP1 ISZERO JUMPDEST ISZERO PUSH2 0x31E8 JUMPI PUSH1 0x40 MLOAD PUSH4 0xF92EE8A9 PUSH1 0xE0 SHL DUP2 MSTORE PUSH1 0x4 ADD PUSH1 0x40 MLOAD DUP1 SWAP2 SUB SWAP1 REVERT JUMPDEST DUP5 SLOAD PUSH8 0xFFFFFFFFFFFFFFFF NOT AND PUSH1 0x1 OR DUP6 SSTORE DUP4 ISZERO PUSH2 0x3212 JUMPI DUP5 SLOAD PUSH1 0xFF PUSH1 0x40 SHL NOT AND PUSH1 0x1 PUSH1 0x40 SHL OR DUP6 SSTORE JUMPDEST PUSH1 0x1 PUSH1 0x1 PUSH1 0xA0 SHL SUB DUP10 AND ISZERO DUP1 ISZERO SWAP1 PUSH2 0x3232 JUMPI POP PUSH1 0x1 PUSH1 0x1 PUSH1 0xA0 SHL SUB DUP9 AND ISZERO ISZERO JUMPDEST DUP1 ISZERO PUSH2 0x3246 JUMPI POP PUSH1 0x1 PUSH1 0x1 PUSH1 0xA0 SHL SUB DUP8 AND ISZERO ISZERO JUMPDEST DUP1 ISZERO PUSH2 0x325A JUMPI POP PUSH1 0x1 PUSH1 0x1 PUSH1 0xA0 SHL SUB DUP7 AND ISZERO ISZERO JUMPDEST PUSH2 0x3276 JUMPI PUSH1 0x40 MLOAD PUSH3 0x461BCD PUSH1 0xE5 SHL DUP2 MSTORE PUSH1 0x4 ADD PUSH2 0x13CF SWAP1 PUSH2 0x508E JUMP JUMPDEST PUSH2 0x327E PUSH2 0x46F2 JUMP JUMPDEST PUSH2 0x3286 PUSH2 0x46F2 JUMP JUMPDEST PUSH2 0x328E PUSH2 0x46FA JUMP JUMPDEST PUSH2 0x3296 PUSH2 0x470A JUMP JUMPDEST PUSH2 0x32A0 PUSH0 DUP8 PUSH2 0x3901 JUMP JUMPDEST POP PUSH2 0x32B8 PUSH0 MLOAD PUSH1 0x20 PUSH2 0x52D9 PUSH0 CODECOPY PUSH0 MLOAD SWAP1 PUSH0 MSTORE DUP8 PUSH2 0x3901 JUMP JUMPDEST POP PUSH2 0x32D0 PUSH0 MLOAD PUSH1 0x20 PUSH2 0x5299 PUSH0 CODECOPY PUSH0 MLOAD SWAP1 PUSH0 MSTORE DUP8 PUSH2 0x3901 JUMP JUMPDEST POP PUSH1 0x64 DUP1 SLOAD PUSH1 0x1 PUSH1 0x1 PUSH1 0xA0 SHL SUB DUP1 DUP13 AND PUSH1 0x1 PUSH1 0x1 PUSH1 0xA0 SHL SUB NOT SWAP3 DUP4 AND OR SWAP1 SWAP3 SSTORE PUSH1 0x65 DUP1 SLOAD DUP12 DUP5 AND SWAP1 DUP4 AND OR SWAP1 SSTORE PUSH1 0x66 DUP1 SLOAD SWAP3 DUP11 AND SWAP3 SWAP1 SWAP2 AND SWAP2 SWAP1 SWAP2 OR SWAP1 SSTORE PUSH2 0x1F4 PUSH1 0x68 SSTORE PUSH1 0x82 DUP1 SLOAD PUSH3 0xFF0000 NOT AND PUSH3 0x10000 OR SWAP1 SSTORE PUSH2 0x12C PUSH1 0x7D SSTORE PUSH4 0x1E13380 PUSH1 0x73 SSTORE PUSH3 0x278D00 PUSH1 0x74 SSTORE PUSH1 0xA PUSH1 0x75 SSTORE PUSH1 0x3C PUSH1 0x7A SSTORE PUSH1 0x1 PUSH1 0x7E SSTORE DUP4 ISZERO PUSH2 0x338F JUMPI DUP5 SLOAD PUSH1 0xFF PUSH1 0x40 SHL NOT AND DUP6 SSTORE PUSH1 0x40 MLOAD PUSH1 0x1 DUP2 MSTORE PUSH32 0xC7F505B2F371AE2175EE4913F4499E1F2633A7B5936321EED1CDAEB6115181D2 SWAP1 PUSH1 0x20 ADD PUSH1 0x40 MLOAD DUP1 SWAP2 SUB SWAP1 LOG1 JUMPDEST POP POP POP POP POP POP POP POP POP JUMP JUMPDEST PUSH0 MLOAD PUSH1 0x20 PUSH2 0x52D9 PUSH0 CODECOPY PUSH0 MLOAD SWAP1 PUSH0 MSTORE PUSH2 0x33B1 DUP2 PUSH2 0x38F7 JUMP JUMPDEST PUSH2 0x33B9 PUSH2 0x39A2 JUMP JUMPDEST PUSH2 0x33C1 PUSH2 0x39E7 JUMP JUMPDEST PUSH1 0x64 DUP3 GT ISZERO PUSH2 0x33E2 JUMPI PUSH1 0x40 MLOAD PUSH3 0x461BCD PUSH1 0xE5 SHL DUP2 MSTORE PUSH1 0x4 ADD PUSH2 0x13CF SWAP1 PUSH2 0x51BF JUMP JUMPDEST PUSH0 JUMPDEST DUP3 DUP2 LT ISZERO PUSH2 0x3673 JUMPI PUSH0 PUSH1 0x8C PUSH0 DUP7 DUP7 DUP6 DUP2 DUP2 LT PUSH2 0x3402 JUMPI PUSH2 0x3402 PUSH2 0x5175 JUMP JUMPDEST SWAP1 POP PUSH1 0x20 MUL ADD PUSH1 0x20 DUP2 ADD SWAP1 PUSH2 0x3417 SWAP2 SWAP1 PUSH2 0x4B42 JUMP JUMPDEST PUSH1 0x1 PUSH1 0x1 PUSH1 0xA0 SHL SUB AND DUP2 MSTORE PUSH1 0x20 DUP2 ADD SWAP2 SWAP1 SWAP2 MSTORE PUSH1 0x40 ADD PUSH0 KECCAK256 PUSH1 0x6 DUP2 ADD SLOAD SWAP1 SWAP2 POP PUSH1 0xFF AND DUP1 ISZERO PUSH2 0x3446 JUMPI POP DUP1 SLOAD ISZERO ISZERO JUMPDEST ISZERO PUSH2 0x366A JUMPI PUSH0 PUSH2 0x347B DUP7 DUP7 DUP6 DUP2 DUP2 LT PUSH2 0x3461 JUMPI PUSH2 0x3461 PUSH2 0x5175 JUMP JUMPDEST SWAP1 POP PUSH1 0x20 MUL ADD PUSH1 0x20 DUP2 ADD SWAP1 PUSH2 0x3476 SWAP2 SWAP1 PUSH2 0x4B42 JUMP JUMPDEST PUSH2 0x3C27 JUMP JUMPDEST SWAP1 POP PUSH0 DUP2 GT DUP1 ISZERO PUSH2 0x34F4 JUMPI POP PUSH1 0x64 SLOAD PUSH1 0x40 MLOAD PUSH4 0x70A08231 PUSH1 0xE0 SHL DUP2 MSTORE ADDRESS PUSH1 0x4 DUP3 ADD MSTORE DUP3 SWAP2 PUSH1 0x1 PUSH1 0x1 PUSH1 0xA0 SHL SUB AND SWAP1 PUSH4 0x70A08231 SWAP1 PUSH1 0x24 ADD PUSH1 0x20 PUSH1 0x40 MLOAD DUP1 DUP4 SUB DUP2 DUP7 GAS STATICCALL ISZERO DUP1 ISZERO PUSH2 0x34CD JUMPI RETURNDATASIZE PUSH0 PUSH0 RETURNDATACOPY RETURNDATASIZE PUSH0 REVERT JUMPDEST POP POP POP POP PUSH1 0x40 MLOAD RETURNDATASIZE PUSH1 0x1F NOT PUSH1 0x1F DUP3 ADD AND DUP3 ADD DUP1 PUSH1 0x40 MSTORE POP DUP2 ADD SWAP1 PUSH2 0x34F1 SWAP2 SWAP1 PUSH2 0x50EC JUMP JUMPDEST LT ISZERO JUMPDEST ISZERO PUSH2 0x3668 JUMPI DUP1 DUP3 PUSH1 0x1 ADD PUSH0 DUP3 DUP3 SLOAD PUSH2 0x350C SWAP2 SWAP1 PUSH2 0x50D9 JUMP JUMPDEST SWAP1 SWAP2 SSTORE POP TIMESTAMP SWAP1 POP PUSH1 0x89 PUSH0 DUP9 DUP9 DUP8 DUP2 DUP2 LT PUSH2 0x3528 JUMPI PUSH2 0x3528 PUSH2 0x5175 JUMP JUMPDEST SWAP1 POP PUSH1 0x20 MUL ADD PUSH1 0x20 DUP2 ADD SWAP1 PUSH2 0x353D SWAP2 SWAP1 PUSH2 0x4B42 JUMP JUMPDEST PUSH1 0x1 PUSH1 0x1 PUSH1 0xA0 SHL SUB SWAP1 DUP2 AND DUP3 MSTORE PUSH1 0x20 DUP3 ADD SWAP3 SWAP1 SWAP3 MSTORE PUSH1 0x40 ADD PUSH0 KECCAK256 SWAP2 SWAP1 SWAP2 SSTORE PUSH1 0x64 SLOAD AND PUSH4 0xA9059CBB DUP8 DUP8 DUP7 DUP2 DUP2 LT PUSH2 0x3576 JUMPI PUSH2 0x3576 PUSH2 0x5175 JUMP JUMPDEST SWAP1 POP PUSH1 0x20 MUL ADD PUSH1 0x20 DUP2 ADD SWAP1 PUSH2 0x358B SWAP2 SWAP1 PUSH2 0x4B42 JUMP JUMPDEST PUSH1 0x40 MLOAD PUSH1 0x1 PUSH1 0x1 PUSH1 0xE0 SHL SUB NOT PUSH1 0xE0 DUP5 SWAP1 SHL AND DUP2 MSTORE PUSH1 0x1 PUSH1 0x1 PUSH1 0xA0 SHL SUB SWAP1 SWAP2 AND PUSH1 0x4 DUP3 ADD MSTORE PUSH1 0x24 DUP2 ADD DUP5 SWAP1 MSTORE PUSH1 0x44 ADD PUSH1 0x20 PUSH1 0x40 MLOAD DUP1 DUP4 SUB DUP2 PUSH0 DUP8 GAS CALL ISZERO DUP1 ISZERO PUSH2 0x35D5 JUMPI RETURNDATASIZE PUSH0 PUSH0 RETURNDATACOPY RETURNDATASIZE PUSH0 REVERT JUMPDEST POP POP POP POP PUSH1 0x40 MLOAD RETURNDATASIZE PUSH1 0x1F NOT PUSH1 0x1F DUP3 ADD AND DUP3 ADD DUP1 PUSH1 0x40 MSTORE POP DUP2 ADD SWAP1 PUSH2 0x35F9 SWAP2 SWAP1 PUSH2 0x5131 JUMP JUMPDEST ISZERO PUSH2 0x3668 JUMPI DUP6 DUP6 DUP5 DUP2 DUP2 LT PUSH2 0x3610 JUMPI PUSH2 0x3610 PUSH2 0x5175 JUMP JUMPDEST SWAP1 POP PUSH1 0x20 MUL ADD PUSH1 0x20 DUP2 ADD SWAP1 PUSH2 0x3625 SWAP2 SWAP1 PUSH2 0x4B42 JUMP JUMPDEST PUSH1 0x1 PUSH1 0x1 PUSH1 0xA0 SHL SUB AND PUSH32 0x47CEE97CB7ACD717B3C0AA1435D004CD5B3C8C57D70DBCEB4E4458BBD60E39D4 DUP3 PUSH1 0x40 MLOAD PUSH2 0x365F SWAP2 DUP2 MSTORE PUSH1 0x20 ADD SWAP1 JUMP JUMPDEST PUSH1 0x40 MLOAD DUP1 SWAP2 SUB SWAP1 LOG2 JUMPDEST POP JUMPDEST POP PUSH1 0x1 ADD PUSH2 0x33E4 JUMP JUMPDEST POP PUSH2 0x18C9 PUSH1 0x1 PUSH1 0x32 SSTORE JUMP JUMPDEST PUSH0 MLOAD PUSH1 0x20 PUSH2 0x52D9 PUSH0 CODECOPY PUSH0 MLOAD SWAP1 PUSH0 MSTORE PUSH2 0x3695 DUP2 PUSH2 0x38F7 JUMP JUMPDEST PUSH1 0x82 SLOAD PUSH3 0x10000 SWAP1 DIV PUSH1 0xFF AND DUP1 PUSH2 0x36B5 JUMPI POP PUSH1 0x82 SLOAD PUSH1 0x1 PUSH1 0x30 SHL SWAP1 DIV PUSH1 0xFF AND JUMPDEST PUSH2 0x36F8 JUMPI PUSH1 0x40 MLOAD PUSH3 0x461BCD PUSH1 0xE5 SHL DUP2 MSTORE PUSH1 0x20 PUSH1 0x4 DUP3 ADD MSTORE PUSH1 0x14 PUSH1 0x24 DUP3 ADD MSTORE PUSH20 0x526566756E64206E6F7420617661696C61626C65 PUSH1 0x60 SHL PUSH1 0x44 DUP3 ADD MSTORE PUSH1 0x64 ADD PUSH2 0x13CF JUMP JUMPDEST PUSH1 0x64 DUP3 GT ISZERO PUSH2 0x3719 JUMPI PUSH1 0x40 MLOAD PUSH3 0x461BCD PUSH1 0xE5 SHL DUP2 MSTORE PUSH1 0x4 ADD PUSH2 0x13CF SWAP1 PUSH2 0x51BF JUMP JUMPDEST PUSH1 0x82 SLOAD PUSH1 0x1 PUSH1 0x30 SHL SWAP1 DIV PUSH1 0xFF AND PUSH2 0x377F JUMPI PUSH1 0x6C SLOAD TIMESTAMP GT DUP1 ISZERO PUSH2 0x373E JUMPI POP PUSH1 0x70 SLOAD PUSH1 0x6F SLOAD LT JUMPDEST PUSH2 0x377F JUMPI PUSH1 0x40 MLOAD PUSH3 0x461BCD PUSH1 0xE5 SHL DUP2 MSTORE PUSH1 0x20 PUSH1 0x4 DUP3 ADD MSTORE PUSH1 0x12 PUSH1 0x24 DUP3 ADD MSTORE PUSH18 0x10DBDB991A5D1A5BDB9CC81B9BDD081B595D PUSH1 0x72 SHL PUSH1 0x44 DUP3 ADD MSTORE PUSH1 0x64 ADD PUSH2 0x13CF JUMP JUMPDEST PUSH0 JUMPDEST DUP3 DUP2 LT ISZERO PUSH2 0x16AF JUMPI PUSH0 PUSH1 0x86 PUSH0 DUP7 DUP7 DUP6 DUP2 DUP2 LT PUSH2 0x379F JUMPI PUSH2 0x379F PUSH2 0x5175 JUMP JUMPDEST SWAP1 POP PUSH1 0x20 MUL ADD PUSH1 0x20 DUP2 ADD SWAP1 PUSH2 0x37B4 SWAP2 SWAP1 PUSH2 0x4B42 JUMP JUMPDEST PUSH1 0x1 PUSH1 0x1 PUSH1 0xA0 SHL SUB AND PUSH1 0x1 PUSH1 0x1 PUSH1 0xA0 SHL SUB AND DUP2 MSTORE PUSH1 0x20 ADD SWAP1 DUP2 MSTORE PUSH1 0x20 ADD PUSH0 KECCAK256 SLOAD SWAP1 POP PUSH0 DUP2 GT DUP1 ISZERO PUSH2 0x37E5 JUMPI POP DUP1 SELFBALANCE LT ISZERO JUMPDEST ISZERO PUSH2 0x38EE JUMPI PUSH0 PUSH1 0x86 PUSH0 DUP8 DUP8 DUP7 DUP2 DUP2 LT PUSH2 0x3800 JUMPI PUSH2 0x3800 PUSH2 0x5175 JUMP JUMPDEST SWAP1 POP PUSH1 0x20 MUL ADD PUSH1 0x20 DUP2 ADD SWAP1 PUSH2 0x3815 SWAP2 SWAP1 PUSH2 0x4B42 JUMP JUMPDEST PUSH1 0x1 PUSH1 0x1 PUSH1 0xA0 SHL SUB AND PUSH1 0x1 PUSH1 0x1 PUSH1 0xA0 SHL SUB AND DUP2 MSTORE PUSH1 0x20 ADD SWAP1 DUP2 MSTORE PUSH1 0x20 ADD PUSH0 KECCAK256 DUP2 SWAP1 SSTORE POP DUP1 PUSH1 0x80 PUSH0 DUP3 DUP3 SLOAD PUSH2 0x3849 SWAP2 SWAP1 PUSH2 0x50D9 JUMP JUMPDEST SWAP1 SWAP2 SSTORE POP PUSH2 0x387F SWAP1 POP DUP6 DUP6 DUP5 DUP2 DUP2 LT PUSH2 0x3864 JUMPI PUSH2 0x3864 PUSH2 0x5175 JUMP JUMPDEST SWAP1 POP PUSH1 0x20 MUL ADD PUSH1 0x20 DUP2 ADD SWAP1 PUSH2 0x3879 SWAP2 SWAP1 PUSH2 0x4B42 JUMP JUMPDEST DUP3 PUSH2 0x3F46 JUMP JUMPDEST ISZERO PUSH2 0x38EE JUMPI DUP5 DUP5 DUP4 DUP2 DUP2 LT PUSH2 0x3896 JUMPI PUSH2 0x3896 PUSH2 0x5175 JUMP JUMPDEST SWAP1 POP PUSH1 0x20 MUL ADD PUSH1 0x20 DUP2 ADD SWAP1 PUSH2 0x38AB SWAP2 SWAP1 PUSH2 0x4B42 JUMP JUMPDEST PUSH1 0x1 PUSH1 0x1 PUSH1 0xA0 SHL SUB AND PUSH32 0xBB28353E4598C3B9199101A66E0989549B659A59A54D2C27FBB183F1932C8E6D DUP3 PUSH1 0x40 MLOAD PUSH2 0x38E5 SWAP2 DUP2 MSTORE PUSH1 0x20 ADD SWAP1 JUMP JUMPDEST PUSH1 0x40 MLOAD DUP1 SWAP2 SUB SWAP1 LOG2 JUMPDEST POP PUSH1 0x1 ADD PUSH2 0x3781 JUMP JUMPDEST PUSH2 0x1980 DUP2 CALLER PUSH2 0x471A JUMP JUMPDEST PUSH0 PUSH0 MLOAD PUSH1 0x20 PUSH2 0x52B9 PUSH0 CODECOPY PUSH0 MLOAD SWAP1 PUSH0 MSTORE PUSH2 0x391A DUP5 DUP5 PUSH2 0x2934 JUMP JUMPDEST PUSH2 0x3999 JUMPI PUSH0 DUP5 DUP2 MSTORE PUSH1 0x20 DUP3 DUP2 MSTORE PUSH1 0x40 DUP1 DUP4 KECCAK256 PUSH1 0x1 PUSH1 0x1 PUSH1 0xA0 SHL SUB DUP8 AND DUP5 MSTORE SWAP1 SWAP2 MSTORE SWAP1 KECCAK256 DUP1 SLOAD PUSH1 0xFF NOT AND PUSH1 0x1 OR SWAP1 SSTORE PUSH2 0x394F CALLER SWAP1 JUMP JUMPDEST PUSH1 0x1 PUSH1 0x1 PUSH1 0xA0 SHL SUB AND DUP4 PUSH1 0x1 PUSH1 0x1 PUSH1 0xA0 SHL SUB AND DUP6 PUSH32 0x2F8788117E7EFF1D82E926EC794901D17C78024A50270940304540A733656F0D PUSH1 0x40 MLOAD PUSH1 0x40 MLOAD DUP1 SWAP2 SUB SWAP1 LOG4 PUSH1 0x1 SWAP2 POP POP PUSH2 0x136B JUMP JUMPDEST PUSH0 SWAP2 POP POP PUSH2 0x136B JUMP JUMPDEST PUSH0 SLOAD PUSH1 0xFF AND ISZERO PUSH2 0x1CF2 JUMPI PUSH1 0x40 MLOAD PUSH3 0x461BCD PUSH1 0xE5 SHL DUP2 MSTORE PUSH1 0x20 PUSH1 0x4 DUP3 ADD MSTORE PUSH1 0x10 PUSH1 0x24 DUP3 ADD MSTORE PUSH16 0x14185D5CD8589B194E881C185D5CD959 PUSH1 0x82 SHL PUSH1 0x44 DUP3 ADD MSTORE PUSH1 0x64 ADD PUSH2 0x13CF JUMP JUMPDEST PUSH1 0x2 PUSH1 0x32 SLOAD SUB PUSH2 0x3A39 JUMPI PUSH1 0x40 MLOAD PUSH3 0x461BCD PUSH1 0xE5 SHL DUP2 MSTORE PUSH1 0x20 PUSH1 0x4 DUP3 ADD MSTORE PUSH1 0x1F PUSH1 0x24 DUP3 ADD MSTORE PUSH32 0x5265656E7472616E637947756172643A207265656E7472616E742063616C6C00 PUSH1 0x44 DUP3 ADD MSTORE PUSH1 0x64 ADD PUSH2 0x13CF JUMP JUMPDEST PUSH1 0x2 PUSH1 0x32 SSTORE JUMP JUMPDEST PUSH0 DUP3 PUSH2 0x3A4C DUP6 DUP5 PUSH2 0x4753 JUMP JUMPDEST EQ SWAP1 POP JUMPDEST SWAP4 SWAP3 POP POP POP JUMP JUMPDEST PUSH1 0x40 MLOAD DUP1 PUSH1 0xE0 ADD PUSH1 0x40 MSTORE DUP1 DUP6 DUP2 MSTORE PUSH1 0x20 ADD PUSH0 DUP2 MSTORE PUSH1 0x20 ADD TIMESTAMP DUP2 MSTORE PUSH1 0x20 ADD DUP5 DUP2 MSTORE PUSH1 0x20 ADD DUP4 DUP2 MSTORE PUSH1 0x20 ADD DUP3 DUP2 MSTORE PUSH1 0x20 ADD PUSH1 0x1 ISZERO ISZERO DUP2 MSTORE POP PUSH1 0x8C PUSH0 DUP8 PUSH1 0x1 PUSH1 0x1 PUSH1 0xA0 SHL SUB AND PUSH1 0x1 PUSH1 0x1 PUSH1 0xA0 SHL SUB AND DUP2 MSTORE PUSH1 0x20 ADD SWAP1 DUP2 MSTORE PUSH1 0x20 ADD PUSH0 KECCAK256 PUSH0 DUP3 ADD MLOAD DUP2 PUSH0 ADD SSTORE PUSH1 0x20 DUP3 ADD MLOAD DUP2 PUSH1 0x1 ADD SSTORE PUSH1 0x40 DUP3 ADD MLOAD DUP2 PUSH1 0x2 ADD SSTORE PUSH1 0x60 DUP3 ADD MLOAD DUP2 PUSH1 0x3 ADD SSTORE PUSH1 0x80 DUP3 ADD MLOAD DUP2 PUSH1 0x4 ADD SSTORE PUSH1 0xA0 DUP3 ADD MLOAD DUP2 PUSH1 0x5 ADD SSTORE PUSH1 0xC0 DUP3 ADD MLOAD DUP2 PUSH1 0x6 ADD PUSH0 PUSH2 0x100 EXP DUP2 SLOAD DUP2 PUSH1 0xFF MUL NOT AND SWAP1 DUP4 ISZERO ISZERO MUL OR SWAP1 SSTORE POP SWAP1 POP POP DUP5 PUSH1 0x1 PUSH1 0x1 PUSH1 0xA0 SHL SUB AND PUSH32 0x2F5488C5B0350655053F3D00E1693B26A49ECD0242B2C0DF881CCDA054490D30 DUP6 PUSH1 0x40 MLOAD PUSH2 0x3B47 SWAP2 DUP2 MSTORE PUSH1 0x20 ADD SWAP1 JUMP JUMPDEST PUSH1 0x40 MLOAD DUP1 SWAP2 SUB SWAP1 LOG2 POP POP POP POP POP JUMP JUMPDEST PUSH1 0x1 PUSH1 0x32 SSTORE JUMP JUMPDEST PUSH0 PUSH0 MLOAD PUSH1 0x20 PUSH2 0x52B9 PUSH0 CODECOPY PUSH0 MLOAD SWAP1 PUSH0 MSTORE PUSH2 0x3B76 DUP5 DUP5 PUSH2 0x2934 JUMP JUMPDEST ISZERO PUSH2 0x3999 JUMPI PUSH0 DUP5 DUP2 MSTORE PUSH1 0x20 DUP3 DUP2 MSTORE PUSH1 0x40 DUP1 DUP4 KECCAK256 PUSH1 0x1 PUSH1 0x1 PUSH1 0xA0 SHL SUB DUP8 AND DUP1 DUP6 MSTORE SWAP3 MSTORE DUP1 DUP4 KECCAK256 DUP1 SLOAD PUSH1 0xFF NOT AND SWAP1 SSTORE MLOAD CALLER SWAP3 DUP8 SWAP2 PUSH32 0xF6391F5C32D9C69D2A47EA670B442974B53935D1EDC7FD64EB21E047A839171B SWAP2 SWAP1 LOG4 PUSH1 0x1 SWAP2 POP POP PUSH2 0x136B JUMP JUMPDEST PUSH2 0x3BDE PUSH2 0x4795 JUMP JUMPDEST PUSH0 DUP1 SLOAD PUSH1 0xFF NOT AND SWAP1 SSTORE PUSH32 0x5DB9EE0A495BF2E6FF9C91A7834C1BA4FDD244A5E8AA4E537BD38AEAE4B073AA CALLER JUMPDEST PUSH1 0x40 MLOAD PUSH1 0x1 PUSH1 0x1 PUSH1 0xA0 SHL SUB SWAP1 SWAP2 AND DUP2 MSTORE PUSH1 0x20 ADD PUSH1 0x40 MLOAD DUP1 SWAP2 SUB SWAP1 LOG1 JUMP JUMPDEST PUSH1 0x1 PUSH1 0x1 PUSH1 0xA0 SHL SUB DUP2 AND PUSH0 SWAP1 DUP2 MSTORE PUSH1 0x8C PUSH1 0x20 SWAP1 DUP2 MSTORE PUSH1 0x40 DUP1 DUP4 KECCAK256 DUP2 MLOAD PUSH1 0xE0 DUP2 ADD DUP4 MSTORE DUP2 SLOAD DUP2 MSTORE PUSH1 0x1 DUP3 ADD SLOAD SWAP4 DUP2 ADD SWAP4 SWAP1 SWAP4 MSTORE PUSH1 0x2 DUP2 ADD SLOAD SWAP2 DUP4 ADD SWAP2 SWAP1 SWAP2 MSTORE PUSH1 0x3 DUP2 ADD SLOAD PUSH1 0x60 DUP4 ADD MSTORE PUSH1 0x4 DUP2 ADD SLOAD PUSH1 0x80 DUP4 ADD MSTORE PUSH1 0x5 DUP2 ADD SLOAD PUSH1 0xA0 DUP4 ADD MSTORE PUSH1 0x6 ADD SLOAD PUSH1 0xFF AND ISZERO DUP1 ISZERO PUSH1 0xC0 DUP4 ADD MSTORE DUP1 PUSH2 0x3CAF JUMPI POP DUP1 PUSH1 0x80 ADD MLOAD DUP2 PUSH1 0x40 ADD MLOAD PUSH2 0x3CAC SWAP2 SWAP1 PUSH2 0x50D9 JUMP JUMPDEST TIMESTAMP LT JUMPDEST ISZERO PUSH2 0x3CBC JUMPI POP PUSH0 SWAP3 SWAP2 POP POP JUMP JUMPDEST PUSH0 DUP2 PUSH1 0x40 ADD MLOAD TIMESTAMP PUSH2 0x3CCD SWAP2 SWAP1 PUSH2 0x51E8 JUMP JUMPDEST SWAP1 POP DUP2 PUSH1 0x60 ADD MLOAD DUP2 LT PUSH2 0x3CF3 JUMPI PUSH1 0x20 DUP3 ADD MLOAD DUP3 MLOAD PUSH2 0x3CEB SWAP2 SWAP1 PUSH2 0x51E8 JUMP JUMPDEST SWAP5 SWAP4 POP POP POP POP JUMP JUMPDEST PUSH0 PUSH1 0x64 DUP4 PUSH1 0xA0 ADD MLOAD DUP5 PUSH0 ADD MLOAD PUSH2 0x3D09 SWAP2 SWAP1 PUSH2 0x5189 JUMP JUMPDEST PUSH2 0x3D13 SWAP2 SWAP1 PUSH2 0x51A0 JUMP JUMPDEST SWAP1 POP PUSH0 DUP2 DUP5 PUSH0 ADD MLOAD PUSH2 0x3D25 SWAP2 SWAP1 PUSH2 0x51E8 JUMP JUMPDEST SWAP1 POP PUSH0 DUP5 PUSH1 0x80 ADD MLOAD DUP6 PUSH1 0x60 ADD MLOAD PUSH2 0x3D3C SWAP2 SWAP1 PUSH2 0x51E8 JUMP JUMPDEST PUSH1 0x80 DUP7 ADD MLOAD PUSH2 0x3D4B SWAP1 DUP7 PUSH2 0x51E8 JUMP JUMPDEST PUSH2 0x3D55 SWAP1 DUP5 PUSH2 0x5189 JUMP JUMPDEST PUSH2 0x3D5F SWAP2 SWAP1 PUSH2 0x51A0 JUMP JUMPDEST PUSH1 0x20 DUP7 ADD MLOAD SWAP1 SWAP2 POP PUSH2 0x3D71 DUP3 DUP6 PUSH2 0x50D9 JUMP JUMPDEST PUSH2 0x3D7B SWAP2 SWAP1 PUSH2 0x51E8 JUMP JUMPDEST SWAP8 SWAP7 POP POP POP POP POP POP POP JUMP JUMPDEST ADDRESS PUSH1 0x1 PUSH1 0x1 PUSH1 0xA0 SHL SUB PUSH32 0x0 AND EQ DUP1 PUSH2 0x3E0C JUMPI POP PUSH32 0x0 PUSH1 0x1 PUSH1 0x1 PUSH1 0xA0 SHL SUB AND PUSH2 0x3E00 PUSH0 MLOAD PUSH1 0x20 PUSH2 0x5279 PUSH0 CODECOPY PUSH0 MLOAD SWAP1 PUSH0 MSTORE SLOAD PUSH1 0x1 PUSH1 0x1 PUSH1 0xA0 SHL SUB AND SWAP1 JUMP JUMPDEST PUSH1 0x1 PUSH1 0x1 PUSH1 0xA0 SHL SUB AND EQ ISZERO JUMPDEST ISZERO PUSH2 0x1CF2 JUMPI PUSH1 0x40 MLOAD PUSH4 0x703E46DD PUSH1 0xE1 SHL DUP2 MSTORE PUSH1 0x4 ADD PUSH1 0x40 MLOAD DUP1 SWAP2 SUB SWAP1 REVERT JUMPDEST PUSH0 MLOAD PUSH1 0x20 PUSH2 0x52D9 PUSH0 CODECOPY PUSH0 MLOAD SWAP1 PUSH0 MSTORE PUSH2 0x1D0F DUP2 PUSH2 0x38F7 JUMP JUMPDEST DUP2 PUSH1 0x1 PUSH1 0x1 PUSH1 0xA0 SHL SUB AND PUSH4 0x52D1902D PUSH1 0x40 MLOAD DUP2 PUSH4 0xFFFFFFFF AND PUSH1 0xE0 SHL DUP2 MSTORE PUSH1 0x4 ADD PUSH1 0x20 PUSH1 0x40 MLOAD DUP1 DUP4 SUB DUP2 DUP7 GAS STATICCALL SWAP3 POP POP POP DUP1 ISZERO PUSH2 0x3E9B JUMPI POP PUSH1 0x40 DUP1 MLOAD PUSH1 0x1F RETURNDATASIZE SWAP1 DUP2 ADD PUSH1 0x1F NOT AND DUP3 ADD SWAP1 SWAP3 MSTORE PUSH2 0x3E98 SWAP2 DUP2 ADD SWAP1 PUSH2 0x50EC JUMP JUMPDEST PUSH1 0x1 JUMPDEST PUSH2 0x3EC3 JUMPI PUSH1 0x40 MLOAD PUSH4 0x4C9C8CE3 PUSH1 0xE0 SHL DUP2 MSTORE PUSH1 0x1 PUSH1 0x1 PUSH1 0xA0 SHL SUB DUP4 AND PUSH1 0x4 DUP3 ADD MSTORE PUSH1 0x24 ADD PUSH2 0x13CF JUMP JUMPDEST PUSH0 MLOAD PUSH1 0x20 PUSH2 0x5279 PUSH0 CODECOPY PUSH0 MLOAD SWAP1 PUSH0 MSTORE DUP2 EQ PUSH2 0x3EF3 JUMPI PUSH1 0x40 MLOAD PUSH4 0x2A875269 PUSH1 0xE2 SHL DUP2 MSTORE PUSH1 0x4 DUP2 ADD DUP3 SWAP1 MSTORE PUSH1 0x24 ADD PUSH2 0x13CF JUMP JUMPDEST PUSH2 0x18C9 DUP4 DUP4 PUSH2 0x47DD JUMP JUMPDEST ADDRESS PUSH1 0x1 PUSH1 0x1 PUSH1 0xA0 SHL SUB PUSH32 0x0 AND EQ PUSH2 0x1CF2 JUMPI PUSH1 0x40 MLOAD PUSH4 0x703E46DD PUSH1 0xE1 SHL DUP2 MSTORE PUSH1 0x4 ADD PUSH1 0x40 MLOAD DUP1 SWAP2 SUB SWAP1 REVERT JUMPDEST PUSH0 PUSH0 DUP4 PUSH1 0x1 PUSH1 0x1 PUSH1 0xA0 SHL SUB AND DUP4 PUSH1 0x40 MLOAD PUSH0 PUSH1 0x40 MLOAD DUP1 DUP4 SUB DUP2 DUP6 DUP8 GAS CALL SWAP3 POP POP POP RETURNDATASIZE DUP1 PUSH0 DUP2 EQ PUSH2 0x3F90 JUMPI PUSH1 0x40 MLOAD SWAP2 POP PUSH1 0x1F NOT PUSH1 0x3F RETURNDATASIZE ADD AND DUP3 ADD PUSH1 0x40 MSTORE RETURNDATASIZE DUP3 MSTORE RETURNDATASIZE PUSH0 PUSH1 0x20 DUP5 ADD RETURNDATACOPY PUSH2 0x3F95 JUMP JUMPDEST PUSH1 0x60 SWAP2 POP JUMPDEST POP SWAP1 SWAP6 SWAP5 POP POP POP POP POP JUMP JUMPDEST PUSH1 0x82 SLOAD PUSH0 SWAP1 PUSH5 0x100000000 SWAP1 DIV PUSH1 0xFF AND ISZERO DUP1 PUSH2 0x136B JUMPI POP POP PUSH1 0x1 PUSH1 0x1 PUSH1 0xA0 SHL SUB AND PUSH0 SWAP1 DUP2 MSTORE PUSH1 0x85 PUSH1 0x20 MSTORE PUSH1 0x40 SWAP1 KECCAK256 SLOAD PUSH1 0x1 AND ISZERO ISZERO SWAP1 JUMP JUMPDEST PUSH1 0x82 SLOAD PUSH0 SWAP1 PUSH6 0x10000000000 SWAP1 DIV PUSH1 0xFF AND ISZERO DUP1 PUSH2 0x136B JUMPI POP POP PUSH1 0x1 PUSH1 0x1 PUSH1 0xA0 SHL SUB AND PUSH0 SWAP1 DUP2 MSTORE PUSH1 0x85 PUSH1 0x20 MSTORE PUSH1 0x40 SWAP1 KECCAK256 SLOAD PUSH1 0x2 AND ISZERO ISZERO SWAP1 JUMP JUMPDEST PUSH0 PUSH0 PUSH1 0x69 SLOAD GT PUSH2 0x4051 JUMPI PUSH1 0x40 MLOAD PUSH3 0x461BCD PUSH1 0xE5 SHL DUP2 MSTORE PUSH1 0x20 PUSH1 0x4 DUP3 ADD MSTORE PUSH1 0xD PUSH1 0x24 DUP3 ADD MSTORE PUSH13 0x141C9A58D9481B9BDD081CD95D PUSH1 0x9A SHL PUSH1 0x44 DUP3 ADD MSTORE PUSH1 0x64 ADD PUSH2 0x13CF JUMP JUMPDEST PUSH1 0x82 SLOAD PUSH0 SWAP1 PUSH1 0xFF AND DUP1 ISZERO PUSH2 0x406F JUMPI POP PUSH1 0x67 SLOAD PUSH1 0x1 PUSH1 0x1 PUSH1 0xA0 SHL SUB AND ISZERO ISZERO JUMPDEST ISZERO PUSH2 0x4131 JUMPI PUSH1 0x67 PUSH0 SWAP1 SLOAD SWAP1 PUSH2 0x100 EXP SWAP1 DIV PUSH1 0x1 PUSH1 0x1 PUSH1 0xA0 SHL SUB AND PUSH1 0x1 PUSH1 0x1 PUSH1 0xA0 SHL SUB AND PUSH4 0xFEAF968C PUSH1 0x40 MLOAD DUP2 PUSH4 0xFFFFFFFF AND PUSH1 0xE0 SHL DUP2 MSTORE PUSH1 0x4 ADD PUSH1 0xA0 PUSH1 0x40 MLOAD DUP1 DUP4 SUB DUP2 DUP7 GAS STATICCALL SWAP3 POP POP POP DUP1 ISZERO PUSH2 0x40E2 JUMPI POP PUSH1 0x40 DUP1 MLOAD PUSH1 0x1F RETURNDATASIZE SWAP1 DUP2 ADD PUSH1 0x1F NOT AND DUP3 ADD SWAP1 SWAP3 MSTORE PUSH2 0x40DF SWAP2 DUP2 ADD SWAP1 PUSH2 0x5214 JUMP JUMPDEST PUSH1 0x1 JUMPDEST ISZERO PUSH2 0x4131 JUMPI PUSH0 DUP5 SGT ISZERO PUSH2 0x412B JUMPI PUSH11 0x52B7D2DCC80CD2E4000000 PUSH2 0x4105 DUP6 DUP11 PUSH2 0x5189 JUMP JUMPDEST PUSH2 0x410F SWAP2 SWAP1 PUSH2 0x51A0 JUMP JUMPDEST SWAP6 POP PUSH1 0x69 SLOAD DUP7 PUSH2 0x411F SWAP2 SWAP1 PUSH2 0x5189 JUMP JUMPDEST SWAP9 SWAP8 POP POP POP POP POP POP POP POP JUMP JUMPDEST POP POP POP POP POP JUMPDEST PUSH1 0x82 SLOAD PUSH2 0x100 SWAP1 DIV PUSH1 0xFF AND DUP1 ISZERO PUSH2 0x4149 JUMPI POP PUSH0 PUSH1 0x6A SLOAD GT JUMPDEST ISZERO PUSH2 0x417F JUMPI PUSH8 0xDE0B6B3A7640000 PUSH1 0x6A SLOAD DUP5 PUSH2 0x4165 SWAP2 SWAP1 PUSH2 0x5189 JUMP JUMPDEST PUSH2 0x416F SWAP2 SWAP1 PUSH2 0x51A0 JUMP JUMPDEST SWAP1 POP PUSH1 0x69 SLOAD DUP2 PUSH2 0x3A50 SWAP2 SWAP1 PUSH2 0x5189 JUMP JUMPDEST PUSH1 0x40 MLOAD PUSH3 0x461BCD PUSH1 0xE5 SHL DUP2 MSTORE PUSH1 0x20 PUSH1 0x4 DUP3 ADD MSTORE PUSH1 0xF PUSH1 0x24 DUP3 ADD MSTORE PUSH15 0x4E6F20707269636520736F75726365 PUSH1 0x88 SHL PUSH1 0x44 DUP3 ADD MSTORE PUSH1 0x64 ADD PUSH2 0x13CF JUMP JUMPDEST PUSH2 0x41C1 PUSH2 0x39A2 JUMP JUMPDEST PUSH0 DUP1 SLOAD PUSH1 0xFF NOT AND PUSH1 0x1 OR SWAP1 SSTORE PUSH32 0x62E78CEA01BEE320CD4E420270B5EA74000D11B0C9F74754EBDBFC544B05A258 PUSH2 0x3C0A CALLER SWAP1 JUMP JUMPDEST PUSH0 DUP2 GT PUSH2 0x4232 JUMPI PUSH1 0x40 MLOAD PUSH3 0x461BCD PUSH1 0xE5 SHL DUP2 MSTORE PUSH1 0x20 PUSH1 0x4 DUP3 ADD MSTORE PUSH1 0xB PUSH1 0x24 DUP3 ADD MSTORE PUSH11 0x5A65726F20746F6B656E73 PUSH1 0xA8 SHL PUSH1 0x44 DUP3 ADD MSTORE PUSH1 0x64 ADD PUSH2 0x13CF JUMP JUMPDEST PUSH1 0x6D SLOAD ISZERO PUSH2 0x427D JUMPI PUSH1 0x6D SLOAD DUP2 GT ISZERO PUSH2 0x427D JUMPI PUSH1 0x40 MLOAD PUSH3 0x461BCD PUSH1 0xE5 SHL DUP2 MSTORE PUSH1 0x20 PUSH1 0x4 DUP3 ADD MSTORE PUSH1 0xE PUSH1 0x24 DUP3 ADD MSTORE PUSH14 0x8AF0C6CACAC8E640DAC2F040E8F PUSH1 0x93 SHL PUSH1 0x44 DUP3 ADD MSTORE PUSH1 0x64 ADD PUSH2 0x13CF JUMP JUMPDEST PUSH1 0x7B SLOAD ISZERO PUSH2 0x42CA JUMPI PUSH1 0x7B SLOAD DUP2 GT ISZERO PUSH2 0x42CA JUMPI PUSH1 0x40 MLOAD PUSH3 0x461BCD PUSH1 0xE5 SHL DUP2 MSTORE PUSH1 0x20 PUSH1 0x4 DUP3 ADD MSTORE PUSH1 0x10 PUSH1 0x24 DUP3 ADD MSTORE PUSH16 0x105B9D1A4B5DDA185B19481B1A5B5A5D PUSH1 0x82 SHL PUSH1 0x44 DUP3 ADD MSTORE PUSH1 0x64 ADD PUSH2 0x13CF JUMP JUMPDEST PUSH1 0x6E SLOAD ISZERO PUSH2 0x433B JUMPI PUSH1 0x6E SLOAD PUSH1 0x1 PUSH1 0x1 PUSH1 0xA0 SHL SUB DUP4 AND PUSH0 SWAP1 DUP2 MSTORE PUSH1 0x84 PUSH1 0x20 MSTORE PUSH1 0x40 SWAP1 KECCAK256 SLOAD PUSH2 0x42F8 SWAP1 DUP4 SWAP1 PUSH2 0x50D9 JUMP JUMPDEST GT ISZERO PUSH2 0x433B JUMPI PUSH1 0x40 MLOAD PUSH3 0x461BCD PUSH1 0xE5 SHL DUP2 MSTORE PUSH1 0x20 PUSH1 0x4 DUP3 ADD MSTORE PUSH1 0x12 PUSH1 0x24 DUP3 ADD MSTORE PUSH18 0x115E18D959591CC81B585E081DD85B1B195D PUSH1 0x72 SHL PUSH1 0x44 DUP3 ADD MSTORE PUSH1 0x64 ADD PUSH2 0x13CF JUMP JUMPDEST PUSH1 0x71 SLOAD DUP2 PUSH1 0x6F SLOAD PUSH2 0x434C SWAP2 SWAP1 PUSH2 0x50D9 JUMP JUMPDEST GT ISZERO PUSH2 0x438C JUMPI PUSH1 0x40 MLOAD PUSH3 0x461BCD PUSH1 0xE5 SHL DUP2 MSTORE PUSH1 0x20 PUSH1 0x4 DUP3 ADD MSTORE PUSH1 0xF PUSH1 0x24 DUP3 ADD MSTORE PUSH15 0x45786365656473206861726463617 PUSH1 0x8C SHL PUSH1 0x44 DUP3 ADD MSTORE PUSH1 0x64 ADD PUSH2 0x13CF JUMP JUMPDEST PUSH1 0x72 SLOAD DUP2 PUSH1 0x6F SLOAD PUSH2 0x439D SWAP2 SWAP1 PUSH2 0x50D9 JUMP JUMPDEST GT ISZERO PUSH2 0x1D0F JUMPI PUSH1 0x40 MLOAD PUSH3 0x461BCD PUSH1 0xE5 SHL DUP2 MSTORE PUSH1 0x20 PUSH1 0x4 DUP3 ADD MSTORE PUSH1 0xE PUSH1 0x24 DUP3 ADD MSTORE PUSH14 0x4578636565647320737570706C79 PUSH1 0x90 SHL PUSH1 0x44 DUP3 ADD MSTORE PUSH1 0x64 ADD PUSH2 0x13CF JUMP JUMPDEST PUSH1 0x1 PUSH1 0x1 PUSH1 0xA0 SHL SUB DUP3 AND PUSH0 SWAP1 DUP2 MSTORE PUSH1 0x8C PUSH1 0x20 MSTORE PUSH1 0x40 DUP2 KECCAK256 DUP1 SLOAD SWAP1 SWAP2 SUB PUSH2 0x440F JUMPI PUSH2 0x18C9 DUP4 DUP4 PUSH1 0x73 SLOAD PUSH1 0x74 SLOAD PUSH1 0x75 SLOAD PUSH2 0x3A57 JUMP JUMPDEST DUP2 DUP2 PUSH0 ADD PUSH0 DUP3 DUP3 SLOAD PUSH2 0x4421 SWAP2 SWAP1 PUSH2 0x50D9 JUMP JUMPDEST SWAP1 SWAP2 SSTORE POP POP DUP1 SLOAD PUSH1 0x40 MLOAD SWAP1 DUP2 MSTORE PUSH1 0x1 PUSH1 0x1 PUSH1 0xA0 SHL SUB DUP5 AND SWAP1 PUSH32 0xE85844CA2C3E2785BEA012532BCEB8435E58637D4430F1BD131A88A55DAD398E SWAP1 PUSH1 0x20 ADD PUSH1 0x40 MLOAD DUP1 SWAP2 SUB SWAP1 LOG2 POP POP POP JUMP JUMPDEST DUP3 PUSH2 0x448F DUP2 PUSH1 0x1 PUSH1 0x1 PUSH1 0xA0 SHL SUB AND PUSH0 SWAP1 DUP2 MSTORE PUSH1 0x85 PUSH1 0x20 MSTORE PUSH1 0x40 SWAP1 KECCAK256 SLOAD PUSH1 0x4 AND ISZERO ISZERO SWAP1 JUMP JUMPDEST ISZERO PUSH2 0x44AC JUMPI PUSH1 0x40 MLOAD PUSH3 0x461BCD PUSH1 0xE5 SHL DUP2 MSTORE PUSH1 0x4 ADD PUSH2 0x13CF SWAP1 PUSH2 0x50B4 JUMP JUMPDEST PUSH2 0x44B5 DUP2 PUSH2 0x3FA0 JUMP JUMPDEST PUSH2 0x44F3 JUMPI PUSH1 0x40 MLOAD PUSH3 0x461BCD PUSH1 0xE5 SHL DUP2 MSTORE PUSH1 0x20 PUSH1 0x4 DUP3 ADD MSTORE PUSH1 0xF PUSH1 0x24 DUP3 ADD MSTORE PUSH15 0x139BDD081DDA1A5D195B1A5CDD1959 PUSH1 0x8A SHL PUSH1 0x44 DUP3 ADD MSTORE PUSH1 0x64 ADD PUSH2 0x13CF JUMP JUMPDEST PUSH2 0x44FC DUP2 PUSH2 0x3FD7 JUMP JUMPDEST PUSH2 0x453B JUMPI PUSH1 0x40 MLOAD PUSH3 0x461BCD PUSH1 0xE5 SHL DUP2 MSTORE PUSH1 0x20 PUSH1 0x4 DUP3 ADD MSTORE PUSH1 0x10 PUSH1 0x24 DUP3 ADD MSTORE PUSH16 0x139BDD0812D650C81D995C9A599A5959 PUSH1 0x82 SHL PUSH1 0x44 DUP3 ADD MSTORE PUSH1 0x64 ADD PUSH2 0x13CF JUMP JUMPDEST PUSH0 DUP3 DUP2 MSTORE PUSH1 0x8D PUSH1 0x20 MSTORE PUSH1 0x40 SWAP1 KECCAK256 SLOAD PUSH1 0xFF AND ISZERO PUSH2 0x458D JUMPI PUSH1 0x40 MLOAD PUSH3 0x461BCD PUSH1 0xE5 SHL DUP2 MSTORE PUSH1 0x20 PUSH1 0x4 DUP3 ADD MSTORE PUSH1 0x11 PUSH1 0x24 DUP3 ADD MSTORE PUSH17 0x105B1C9958591E481C1C9BD8D95CDCD959 PUSH1 0x7A SHL PUSH1 0x44 DUP3 ADD MSTORE PUSH1 0x64 ADD PUSH2 0x13CF JUMP JUMPDEST PUSH0 DUP4 GT PUSH2 0x45CA JUMPI PUSH1 0x40 MLOAD PUSH3 0x461BCD PUSH1 0xE5 SHL DUP2 MSTORE PUSH1 0x20 PUSH1 0x4 DUP3 ADD MSTORE PUSH1 0xB PUSH1 0x24 DUP3 ADD MSTORE PUSH11 0x16995C9BC8185B5BDD5B9D PUSH1 0xAA SHL PUSH1 0x44 DUP3 ADD MSTORE PUSH1 0x64 ADD PUSH2 0x13CF JUMP JUMPDEST PUSH1 0x72 SLOAD DUP4 PUSH1 0x6F SLOAD PUSH2 0x45DB SWAP2 SWAP1 PUSH2 0x50D9 JUMP JUMPDEST GT ISZERO PUSH2 0x461A JUMPI PUSH1 0x40 MLOAD PUSH3 0x461BCD PUSH1 0xE5 SHL DUP2 MSTORE PUSH1 0x20 PUSH1 0x4 DUP3 ADD MSTORE PUSH1 0xE PUSH1 0x24 DUP3 ADD MSTORE PUSH14 0x4578636565647320737570706C79 PUSH1 0x90 SHL PUSH1 0x44 DUP3 ADD MSTORE PUSH1 0x64 ADD PUSH2 0x13CF JUMP JUMPDEST PUSH0 DUP3 DUP2 MSTORE PUSH1 0x8D PUSH1 0x20 SWAP1 DUP2 MSTORE PUSH1 0x40 DUP1 DUP4 KECCAK256 DUP1 SLOAD PUSH1 0xFF NOT AND PUSH1 0x1 OR SWAP1 SSTORE PUSH1 0x1 PUSH1 0x1 PUSH1 0xA0 SHL SUB DUP8 AND DUP4 MSTORE PUSH1 0x84 SWAP1 SWAP2 MSTORE DUP2 KECCAK256 DUP1 SLOAD DUP6 SWAP3 SWAP1 PUSH2 0x4658 SWAP1 DUP5 SWAP1 PUSH2 0x50D9 JUMP JUMPDEST SWAP3 POP POP DUP2 SWAP1 SSTORE POP DUP3 PUSH1 0x6F PUSH0 DUP3 DUP3 SLOAD PUSH2 0x4670 SWAP2 SWAP1 PUSH2 0x50D9 JUMP JUMPDEST SWAP1 SWAP2 SSTORE POP PUSH2 0x4680 SWAP1 POP DUP5 DUP5 PUSH2 0x43DC JUMP JUMPDEST PUSH1 0x40 DUP1 MLOAD DUP5 DUP2 MSTORE PUSH1 0x20 DUP2 ADD DUP5 SWAP1 MSTORE PUSH1 0x1 PUSH1 0x1 PUSH1 0xA0 SHL SUB DUP7 AND SWAP2 PUSH32 0x77A0AB7B0831AE91C89E45E4F7E8D20FB16BC32A261F11192906656A8ECEA655 SWAP2 ADD PUSH1 0x40 MLOAD DUP1 SWAP2 SUB SWAP1 LOG2 POP POP POP POP JUMP JUMPDEST PUSH0 DUP1 PUSH32 0xF0C57E16840DF040F15088DC2F81FE391C3923BEC73E23A9662EFC9C229C6A00 PUSH2 0x136B JUMP JUMPDEST PUSH2 0x1CF2 PUSH2 0x4832 JUMP JUMPDEST PUSH2 0x4702 PUSH2 0x4832 JUMP JUMPDEST PUSH2 0x1CF2 PUSH2 0x4857 JUMP JUMPDEST PUSH2 0x4712 PUSH2 0x4832 JUMP JUMPDEST PUSH2 0x1CF2 PUSH2 0x486A JUMP JUMPDEST PUSH2 0x4724 DUP3 DUP3 PUSH2 0x2934 JUMP JUMPDEST PUSH2 0x1D0F JUMPI PUSH1 0x40 MLOAD PUSH4 0xE2517D3F PUSH1 0xE0 SHL DUP2 MSTORE PUSH1 0x1 PUSH1 0x1 PUSH1 0xA0 SHL SUB DUP3 AND PUSH1 0x4 DUP3 ADD MSTORE PUSH1 0x24 DUP2 ADD DUP4 SWAP1 MSTORE PUSH1 0x44 ADD PUSH2 0x13CF JUMP JUMPDEST PUSH0 DUP2 DUP2 JUMPDEST DUP5 MLOAD DUP2 LT ISZERO PUSH2 0x478D JUMPI PUSH2 0x4783 DUP3 DUP7 DUP4 DUP2 MLOAD DUP2 LT PUSH2 0x4776 JUMPI PUSH2 0x4776 PUSH2 0x5175 JUMP JUMPDEST PUSH1 0x20 MUL PUSH1 0x20 ADD ADD MLOAD PUSH2 0x4872 JUMP JUMPDEST SWAP2 POP PUSH1 0x1 ADD PUSH2 0x4757 JUMP JUMPDEST POP SWAP4 SWAP3 POP POP POP JUMP JUMPDEST PUSH0 SLOAD PUSH1 0xFF AND PUSH2 0x1CF2 JUMPI PUSH1 0x40 MLOAD PUSH3 0x461BCD PUSH1 0xE5 SHL DUP2 MSTORE PUSH1 0x20 PUSH1 0x4 DUP3 ADD MSTORE PUSH1 0x14 PUSH1 0x24 DUP3 ADD MSTORE PUSH20 0x14185D5CD8589B194E881B9BDD081C185D5CD959 PUSH1 0x62 SHL PUSH1 0x44 DUP3 ADD MSTORE PUSH1 0x64 ADD PUSH2 0x13CF JUMP JUMPDEST PUSH2 0x47E6 DUP3 PUSH2 0x489B JUMP JUMPDEST PUSH1 0x40 MLOAD PUSH1 0x1 PUSH1 0x1 PUSH1 0xA0 SHL SUB DUP4 AND SWAP1 PUSH32 0xBC7CD75A20EE27FD9ADEBAB32041F755214DBC6BFFA90CC0225B39DA2E5C2D3B SWAP1 PUSH0 SWAP1 LOG2 DUP1 MLOAD ISZERO PUSH2 0x482A JUMPI PUSH2 0x18C9 DUP3 DUP3 PUSH2 0x48FE JUMP JUMPDEST PUSH2 0x1D0F PUSH2 0x4970 JUMP JUMPDEST PUSH2 0x483A PUSH2 0x498F JUMP JUMPDEST PUSH2 0x1CF2 JUMPI PUSH1 0x40 MLOAD PUSH4 0x1AFCD79F PUSH1 0xE3 SHL DUP2 MSTORE PUSH1 0x4 ADD PUSH1 0x40 MLOAD DUP1 SWAP2 SUB SWAP1 REVERT JUMPDEST PUSH2 0x485F PUSH2 0x4832 JUMP JUMPDEST PUSH0 DUP1 SLOAD PUSH1 0xFF NOT AND SWAP1 SSTORE JUMP JUMPDEST PUSH2 0x3B56 PUSH2 0x4832 JUMP JUMPDEST PUSH0 DUP2 DUP4 LT PUSH2 0x488C JUMPI PUSH0 DUP3 DUP2 MSTORE PUSH1 0x20 DUP5 SWAP1 MSTORE PUSH1 0x40 SWAP1 KECCAK256 PUSH2 0x3A50 JUMP JUMPDEST POP PUSH0 SWAP2 DUP3 MSTORE PUSH1 0x20 MSTORE PUSH1 0x40 SWAP1 KECCAK256 SWAP1 JUMP JUMPDEST DUP1 PUSH1 0x1 PUSH1 0x1 PUSH1 0xA0 SHL SUB AND EXTCODESIZE PUSH0 SUB PUSH2 0x48D0 JUMPI PUSH1 0x40 MLOAD PUSH4 0x4C9C8CE3 PUSH1 0xE0 SHL DUP2 MSTORE PUSH1 0x1 PUSH1 0x1 PUSH1 0xA0 SHL SUB DUP3 AND PUSH1 0x4 DUP3 ADD MSTORE PUSH1 0x24 ADD PUSH2 0x13CF JUMP JUMPDEST PUSH0 MLOAD PUSH1 0x20 PUSH2 0x5279 PUSH0 CODECOPY PUSH0 MLOAD SWAP1 PUSH0 MSTORE DUP1 SLOAD PUSH1 0x1 PUSH1 0x1 PUSH1 0xA0 SHL SUB NOT AND PUSH1 0x1 PUSH1 0x1 PUSH1 0xA0 SHL SUB SWAP3 SWAP1 SWAP3 AND SWAP2 SWAP1 SWAP2 OR SWAP1 SSTORE JUMP JUMPDEST PUSH1 0x60 PUSH0 PUSH0 DUP5 PUSH1 0x1 PUSH1 0x1 PUSH1 0xA0 SHL SUB AND DUP5 PUSH1 0x40 MLOAD PUSH2 0x491A SWAP2 SWAP1 PUSH2 0x5262 JUMP JUMPDEST PUSH0 PUSH1 0x40 MLOAD DUP1 DUP4 SUB DUP2 DUP6 GAS DELEGATECALL SWAP2 POP POP RETURNDATASIZE DUP1 PUSH0 DUP2 EQ PUSH2 0x4952 JUMPI PUSH1 0x40 MLOAD SWAP2 POP PUSH1 0x1F NOT PUSH1 0x3F RETURNDATASIZE ADD AND DUP3 ADD PUSH1 0x40 MSTORE RETURNDATASIZE DUP3 MSTORE RETURNDATASIZE PUSH0 PUSH1 0x20 DUP5 ADD RETURNDATACOPY PUSH2 0x4957 JUMP JUMPDEST PUSH1 0x60 SWAP2 POP JUMPDEST POP SWAP2 POP SWAP2 POP PUSH2 0x4967 DUP6 DUP4 DUP4 PUSH2 0x49A8 JUMP JUMPDEST SWAP6 SWAP5 POP POP POP POP POP JUMP JUMPDEST CALLVALUE ISZERO PUSH2 0x1CF2 JUMPI PUSH1 0x40 MLOAD PUSH4 0xB398979F PUSH1 0xE0 SHL DUP2 MSTORE PUSH1 0x4 ADD PUSH1 0x40 MLOAD DUP1 SWAP2 SUB SWAP1 REVERT JUMPDEST PUSH0 PUSH2 0x4998 PUSH2 0x46CA JUMP JUMPDEST SLOAD PUSH1 0x1 PUSH1 0x40 SHL SWAP1 DIV PUSH1 0xFF AND SWAP2 SWAP1 POP JUMP JUMPDEST PUSH1 0x60 DUP3 PUSH2 0x49BD JUMPI PUSH2 0x49B8 DUP3 PUSH2 0x4A04 JUMP JUMPDEST PUSH2 0x3A50 JUMP JUMPDEST DUP2 MLOAD ISZERO DUP1 ISZERO PUSH2 0x49D4 JUMPI POP PUSH1 0x1 PUSH1 0x1 PUSH1 0xA0 SHL SUB DUP5 AND EXTCODESIZE ISZERO JUMPDEST ISZERO PUSH2 0x49FD JUMPI PUSH1 0x40 MLOAD PUSH4 0x9996B315 PUSH1 0xE0 SHL DUP2 MSTORE PUSH1 0x1 PUSH1 0x1 PUSH1 0xA0 SHL SUB DUP6 AND PUSH1 0x4 DUP3 ADD MSTORE PUSH1 0x24 ADD PUSH2 0x13CF JUMP JUMPDEST POP DUP1 PUSH2 0x3A50 JUMP JUMPDEST DUP1 MLOAD ISZERO PUSH2 0x4A14 JUMPI DUP1 MLOAD DUP1 DUP3 PUSH1 0x20 ADD REVERT JUMPDEST PUSH1 0x40 MLOAD PUSH4 0xD6BDA275 PUSH1 0xE0 SHL DUP2 MSTORE PUSH1 0x4 ADD PUSH1 0x40 MLOAD DUP1 SWAP2 SUB SWAP1 REVERT JUMPDEST PUSH0 PUSH1 0x20 DUP3 DUP5 SUB SLT ISZERO PUSH2 0x4A3D JUMPI PUSH0 PUSH0 REVERT JUMPDEST DUP2 CALLDATALOAD PUSH1 0x1 PUSH1 0x1 PUSH1 0xE0 SHL SUB NOT DUP2 AND DUP2 EQ PUSH2 0x3A50 JUMPI PUSH0 PUSH0 REVERT JUMPDEST PUSH0 PUSH0 PUSH1 0x40 DUP4 DUP6 SUB SLT ISZERO PUSH2 0x4A65 JUMPI PUSH0 PUSH0 REVERT JUMPDEST POP POP DUP1 CALLDATALOAD SWAP3 PUSH1 0x20 SWAP1 SWAP2 ADD CALLDATALOAD SWAP2 POP JUMP JUMPDEST DUP1 CALLDATALOAD PUSH1 0x1 PUSH1 0x1 PUSH1 0xA0 SHL SUB DUP2 AND DUP2 EQ PUSH2 0x4A8A JUMPI PUSH0 PUSH0 REVERT JUMPDEST SWAP2 SWAP1 POP JUMP JUMPDEST DUP1 ISZERO ISZERO DUP2 EQ PUSH2 0x1980 JUMPI PUSH0 PUSH0 REVERT JUMPDEST PUSH0 PUSH0 PUSH1 0x40 DUP4 DUP6 SUB SLT ISZERO PUSH2 0x4AAD JUMPI PUSH0 PUSH0 REVERT JUMPDEST PUSH2 0x4AB6 DUP4 PUSH2 0x4A74 JUMP JUMPDEST SWAP2 POP PUSH1 0x20 DUP4 ADD CALLDATALOAD PUSH2 0x4AC6 DUP2 PUSH2 0x4A8F JUMP JUMPDEST DUP1 SWAP2 POP POP SWAP3 POP SWAP3 SWAP1 POP JUMP JUMPDEST PUSH0 PUSH0 PUSH0 PUSH0 PUSH0 PUSH1 0xA0 DUP7 DUP9 SUB SLT ISZERO PUSH2 0x4AE5 JUMPI PUSH0 PUSH0 REVERT JUMPDEST POP POP DUP4 CALLDATALOAD SWAP6 PUSH1 0x20 DUP6 ADD CALLDATALOAD SWAP6 POP PUSH1 0x40 DUP6 ADD CALLDATALOAD SWAP5 PUSH1 0x60 DUP2 ADD CALLDATALOAD SWAP5 POP PUSH1 0x80 ADD CALLDATALOAD SWAP3 POP SWAP1 POP JUMP JUMPDEST PUSH0 PUSH0 PUSH0 PUSH1 0x60 DUP5 DUP7 SUB SLT ISZERO PUSH2 0x4B1A JUMPI PUSH0 PUSH0 REVERT JUMPDEST PUSH2 0x4B23 DUP5 PUSH2 0x4A74 JUMP JUMPDEST SWAP3 POP PUSH2 0x4B31 PUSH1 0x20 DUP6 ADD PUSH2 0x4A74 JUMP JUMPDEST SWAP3 SWAP6 SWAP3 SWAP5 POP POP POP PUSH1 0x40 SWAP2 SWAP1 SWAP2 ADD CALLDATALOAD SWAP1 JUMP JUMPDEST PUSH0 PUSH1 0x20 DUP3 DUP5 SUB SLT ISZERO PUSH2 0x4B52 JUMPI PUSH0 PUSH0 REVERT JUMPDEST PUSH2 0x3A50 DUP3 PUSH2 0x4A74 JUMP JUMPDEST PUSH0 PUSH1 0x20 DUP3 DUP5 SUB SLT ISZERO PUSH2 0x4B6B JUMPI PUSH0 PUSH0 REVERT JUMPDEST POP CALLDATALOAD SWAP2 SWAP1 POP JUMP JUMPDEST PUSH0 PUSH0 PUSH1 0x40 DUP4 DUP6 SUB SLT ISZERO PUSH2 0x4B83 JUMPI PUSH0 PUSH0 REVERT JUMPDEST DUP3 CALLDATALOAD SWAP2 POP PUSH2 0x4B93 PUSH1 0x20 DUP5 ADD PUSH2 0x4A74 JUMP JUMPDEST SWAP1 POP SWAP3 POP SWAP3 SWAP1 POP JUMP JUMPDEST PUSH0 PUSH0 DUP4 PUSH1 0x1F DUP5 ADD SLT PUSH2 0x4BAC JUMPI PUSH0 PUSH0 REVERT JUMPDEST POP DUP2 CALLDATALOAD PUSH1 0x1 PUSH1 0x1 PUSH1 0x40 SHL SUB DUP2 GT ISZERO PUSH2 0x4BC2 JUMPI PUSH0 PUSH0 REVERT JUMPDEST PUSH1 0x20 DUP4 ADD SWAP2 POP DUP4 PUSH1 0x20 DUP3 PUSH1 0x5 SHL DUP6 ADD ADD GT ISZERO PUSH2 0x247F JUMPI PUSH0 PUSH0 REVERT JUMPDEST PUSH0 PUSH0 PUSH0 PUSH1 0x40 DUP5 DUP7 SUB SLT ISZERO PUSH2 0x4BEE JUMPI PUSH0 PUSH0 REVERT JUMPDEST DUP4 CALLDATALOAD PUSH1 0x1 PUSH1 0x1 PUSH1 0x40 SHL SUB DUP2 GT ISZERO PUSH2 0x4C03 JUMPI PUSH0 PUSH0 REVERT JUMPDEST PUSH2 0x4C0F DUP7 DUP3 DUP8 ADD PUSH2 0x4B9C JUMP JUMPDEST SWAP1 SWAP8 SWAP1 SWAP7 POP PUSH1 0x20 SWAP6 SWAP1 SWAP6 ADD CALLDATALOAD SWAP5 SWAP4 POP POP POP POP JUMP JUMPDEST PUSH0 PUSH0 PUSH1 0x40 DUP4 DUP6 SUB SLT ISZERO PUSH2 0x4C34 JUMPI PUSH0 PUSH0 REVERT JUMPDEST DUP3 CALLDATALOAD SWAP2 POP PUSH1 0x20 DUP4 ADD CALLDATALOAD PUSH2 0x4AC6 DUP2 PUSH2 0x4A8F JUMP JUMPDEST PUSH4 0x4E487B71 PUSH1 0xE0 SHL PUSH0 MSTORE PUSH1 0x41 PUSH1 0x4 MSTORE PUSH1 0x24 PUSH0 REVERT JUMPDEST PUSH0 PUSH0 PUSH1 0x40 DUP4 DUP6 SUB SLT ISZERO PUSH2 0x4C6B JUMPI PUSH0 PUSH0 REVERT JUMPDEST PUSH2 0x4C74 DUP4 PUSH2 0x4A74 JUMP JUMPDEST SWAP2 POP PUSH1 0x20 DUP4 ADD CALLDATALOAD PUSH1 0x1 PUSH1 0x1 PUSH1 0x40 SHL SUB DUP2 GT ISZERO PUSH2 0x4C8E JUMPI PUSH0 PUSH0 REVERT JUMPDEST DUP4 ADD PUSH1 0x1F DUP2 ADD DUP6 SGT PUSH2 0x4C9E JUMPI PUSH0 PUSH0 REVERT JUMPDEST DUP1 CALLDATALOAD PUSH1 0x1 PUSH1 0x1 PUSH1 0x40 SHL SUB DUP2 GT ISZERO PUSH2 0x4CB7 JUMPI PUSH2 0x4CB7 PUSH2 0x4C46 JUMP JUMPDEST PUSH1 0x40 MLOAD PUSH1 0x1F DUP3 ADD PUSH1 0x1F NOT SWAP1 DUP2 AND PUSH1 0x3F ADD AND DUP2 ADD PUSH1 0x1 PUSH1 0x1 PUSH1 0x40 SHL SUB DUP2 GT DUP3 DUP3 LT OR ISZERO PUSH2 0x4CE5 JUMPI PUSH2 0x4CE5 PUSH2 0x4C46 JUMP JUMPDEST PUSH1 0x40 MSTORE DUP2 DUP2 MSTORE DUP3 DUP3 ADD PUSH1 0x20 ADD DUP8 LT ISZERO PUSH2 0x4CFC JUMPI PUSH0 PUSH0 REVERT JUMPDEST DUP2 PUSH1 0x20 DUP5 ADD PUSH1 0x20 DUP4 ADD CALLDATACOPY PUSH0 PUSH1 0x20 DUP4 DUP4 ADD ADD MSTORE DUP1 SWAP4 POP POP POP POP SWAP3 POP SWAP3 SWAP1 POP JUMP JUMPDEST PUSH0 PUSH0 PUSH0 PUSH1 0x60 DUP5 DUP7 SUB SLT ISZERO PUSH2 0x4D2D JUMPI PUSH0 PUSH0 REVERT JUMPDEST PUSH2 0x4D36 DUP5 PUSH2 0x4A74 JUMP JUMPDEST SWAP3 POP PUSH1 0x20 DUP5 ADD CALLDATALOAD SWAP2 POP PUSH2 0x4D4B PUSH1 0x40 DUP6 ADD PUSH2 0x4A74 JUMP JUMPDEST SWAP1 POP SWAP3 POP SWAP3 POP SWAP3 JUMP JUMPDEST PUSH0 PUSH0 PUSH1 0x40 DUP4 DUP6 SUB SLT ISZERO PUSH2 0x4D65 JUMPI PUSH0 PUSH0 REVERT JUMPDEST PUSH2 0x4D6E DUP4 PUSH2 0x4A74 JUMP JUMPDEST SWAP5 PUSH1 0x20 SWAP4 SWAP1 SWAP4 ADD CALLDATALOAD SWAP4 POP POP POP JUMP JUMPDEST PUSH0 DUP2 MLOAD DUP1 DUP5 MSTORE DUP1 PUSH1 0x20 DUP5 ADD PUSH1 0x20 DUP7 ADD MCOPY PUSH0 PUSH1 0x20 DUP3 DUP7 ADD ADD MSTORE PUSH1 0x20 PUSH1 0x1F NOT PUSH1 0x1F DUP4 ADD AND DUP6 ADD ADD SWAP2 POP POP SWAP3 SWAP2 POP POP JUMP JUMPDEST DUP3 ISZERO ISZERO DUP2 MSTORE PUSH1 0x40 PUSH1 0x20 DUP3 ADD MSTORE PUSH0 PUSH2 0x3CEB PUSH1 0x40 DUP4 ADD DUP5 PUSH2 0x4D7C JUMP JUMPDEST PUSH0 PUSH0 PUSH0 PUSH0 PUSH1 0x40 DUP6 DUP8 SUB SLT ISZERO PUSH2 0x4DD7 JUMPI PUSH0 PUSH0 REVERT JUMPDEST DUP5 CALLDATALOAD PUSH1 0x1 PUSH1 0x1 PUSH1 0x40 SHL SUB DUP2 GT ISZERO PUSH2 0x4DEC JUMPI PUSH0 PUSH0 REVERT JUMPDEST PUSH2 0x4DF8 DUP8 DUP3 DUP9 ADD PUSH2 0x4B9C JUMP JUMPDEST SWAP1 SWAP6 POP SWAP4 POP POP PUSH1 0x20 DUP6 ADD CALLDATALOAD PUSH1 0x1 PUSH1 0x1 PUSH1 0x40 SHL SUB DUP2 GT ISZERO PUSH2 0x4E16 JUMPI PUSH0 PUSH0 REVERT JUMPDEST PUSH2 0x4E22 DUP8 DUP3 DUP9 ADD PUSH2 0x4B9C JUMP JUMPDEST SWAP6 SWAP9 SWAP5 SWAP8 POP SWAP6 POP POP POP POP JUMP JUMPDEST PUSH0 PUSH0 PUSH1 0x40 DUP4 DUP6 SUB SLT ISZERO PUSH2 0x4E3F JUMPI PUSH0 PUSH0 REVERT JUMPDEST DUP3 CALLDATALOAD PUSH2 0x4AB6 DUP2 PUSH2 0x4A8F JUMP JUMPDEST PUSH0 PUSH0 PUSH0 PUSH0 PUSH1 0x80 DUP6 DUP8 SUB SLT ISZERO PUSH2 0x4E5D JUMPI PUSH0 PUSH0 REVERT JUMPDEST POP POP DUP3 CALLDATALOAD SWAP5 PUSH1 0x20 DUP5 ADD CALLDATALOAD SWAP5 POP PUSH1 0x40 DUP5 ADD CALLDATALOAD SWAP4 PUSH1 0x60 ADD CALLDATALOAD SWAP3 POP SWAP1 POP JUMP JUMPDEST PUSH1 0x20 DUP2 MSTORE PUSH0 PUSH2 0x3A50 PUSH1 0x20 DUP4 ADD DUP5 PUSH2 0x4D7C JUMP JUMPDEST PUSH0 PUSH0 PUSH0 PUSH1 0x60 DUP5 DUP7 SUB SLT ISZERO PUSH2 0x4E9D JUMPI PUSH0 PUSH0 REVERT JUMPDEST POP POP DUP2 CALLDATALOAD SWAP4 PUSH1 0x20 DUP4 ADD CALLDATALOAD SWAP4 POP PUSH1 0x40 SWAP1 SWAP3 ADD CALLDATALOAD SWAP2 SWAP1 POP JUMP JUMPDEST PUSH0 PUSH0 PUSH0 PUSH1 0x60 DUP5 DUP7 SUB SLT ISZERO PUSH2 0x4EC6 JUMPI PUSH0 PUSH0 REVERT JUMPDEST PUSH2 0x4ECF DUP5 PUSH2 0x4A74 JUMP JUMPDEST SWAP6 PUSH1 0x20 DUP6 ADD CALLDATALOAD SWAP6 POP PUSH1 0x40 SWAP1 SWAP5 ADD CALLDATALOAD SWAP4 SWAP3 POP POP POP JUMP JUMPDEST PUSH0 PUSH0 PUSH0 PUSH0 PUSH0 PUSH0 PUSH1 0x60 DUP8 DUP10 SUB SLT ISZERO PUSH2 0x4EF9 JUMPI PUSH0 PUSH0 REVERT JUMPDEST DUP7 CALLDATALOAD PUSH1 0x1 PUSH1 0x1 PUSH1 0x40 SHL SUB DUP2 GT ISZERO PUSH2 0x4F0E JUMPI PUSH0 PUSH0 REVERT JUMPDEST PUSH2 0x4F1A DUP10 DUP3 DUP11 ADD PUSH2 0x4B9C JUMP JUMPDEST SWAP1 SWAP8 POP SWAP6 POP POP PUSH1 0x20 DUP8 ADD CALLDATALOAD PUSH1 0x1 PUSH1 0x1 PUSH1 0x40 SHL SUB DUP2 GT ISZERO PUSH2 0x4F38 JUMPI PUSH0 PUSH0 REVERT JUMPDEST PUSH2 0x4F44 DUP10 DUP3 DUP11 ADD PUSH2 0x4B9C JUMP JUMPDEST SWAP1 SWAP6 POP SWAP4 POP POP PUSH1 0x40 DUP8 ADD CALLDATALOAD PUSH1 0x1 PUSH1 0x1 PUSH1 0x40 SHL SUB DUP2 GT ISZERO PUSH2 0x4F62 JUMPI PUSH0 PUSH0 REVERT JUMPDEST PUSH2 0x4F6E DUP10 DUP3 DUP11 ADD PUSH2 0x4B9C JUMP JUMPDEST SWAP8 SWAP11 SWAP7 SWAP10 POP SWAP5 SWAP8 POP SWAP3 SWAP6 SWAP4 SWAP5 SWAP3 POP POP POP JUMP JUMPDEST PUSH0 PUSH0 PUSH0 PUSH0 PUSH1 0x80 DUP6 DUP8 SUB SLT ISZERO PUSH2 0x4F93 JUMPI PUSH0 PUSH0 REVERT JUMPDEST PUSH2 0x4F9C DUP6 PUSH2 0x4A74 JUMP JUMPDEST SWAP4 POP PUSH2 0x4FAA PUSH1 0x20 DUP7 ADD PUSH2 0x4A74 JUMP JUMPDEST SWAP3 POP PUSH2 0x4FB8 PUSH1 0x40 DUP7 ADD PUSH2 0x4A74 JUMP JUMPDEST SWAP2 POP PUSH2 0x4FC6 PUSH1 0x60 DUP7 ADD PUSH2 0x4A74 JUMP JUMPDEST SWAP1 POP SWAP3 SWAP6 SWAP2 SWAP5 POP SWAP3 POP JUMP JUMPDEST PUSH0 PUSH0 PUSH1 0x20 DUP4 DUP6 SUB SLT ISZERO PUSH2 0x4FE2 JUMPI PUSH0 PUSH0 REVERT JUMPDEST DUP3 CALLDATALOAD PUSH1 0x1 PUSH1 0x1 PUSH1 0x40 SHL SUB DUP2 GT ISZERO PUSH2 0x4FF7 JUMPI PUSH0 PUSH0 REVERT JUMPDEST PUSH2 0x5003 DUP6 DUP3 DUP7 ADD PUSH2 0x4B9C JUMP JUMPDEST SWAP1 SWAP7 SWAP1 SWAP6 POP SWAP4 POP POP POP POP JUMP JUMPDEST PUSH1 0x20 DUP1 DUP3 MSTORE PUSH1 0xC SWAP1 DUP3 ADD MSTORE PUSH12 0x4E6F74206D756C7469736967 PUSH1 0xA0 SHL PUSH1 0x40 DUP3 ADD MSTORE PUSH1 0x60 ADD SWAP1 JUMP JUMPDEST PUSH4 0x4E487B71 PUSH1 0xE0 SHL PUSH0 MSTORE PUSH1 0x11 PUSH1 0x4 MSTORE PUSH1 0x24 PUSH0 REVERT JUMPDEST PUSH0 PUSH1 0x1 DUP3 ADD PUSH2 0x505A JUMPI PUSH2 0x505A PUSH2 0x5035 JUMP JUMPDEST POP PUSH1 0x1 ADD SWAP1 JUMP JUMPDEST PUSH1 0x20 DUP1 DUP3 MSTORE PUSH1 0x13 SWAP1 DUP3 ADD MSTORE PUSH19 0x4E656564206D6F726520617070726F76616C73 PUSH1 0x68 SHL PUSH1 0x40 DUP3 ADD MSTORE PUSH1 0x60 ADD SWAP1 JUMP JUMPDEST PUSH1 0x20 DUP1 DUP3 MSTORE PUSH1 0xC SWAP1 DUP3 ADD MSTORE PUSH12 0x5A65726F2061646472657373 PUSH1 0xA0 SHL PUSH1 0x40 DUP3 ADD MSTORE PUSH1 0x60 ADD SWAP1 JUMP JUMPDEST PUSH1 0x20 DUP1 DUP3 MSTORE PUSH1 0xB SWAP1 DUP3 ADD MSTORE PUSH11 0x109B1858DADB1A5CDD1959 PUSH1 0xAA SHL PUSH1 0x40 DUP3 ADD MSTORE PUSH1 0x60 ADD SWAP1 JUMP JUMPDEST DUP1 DUP3 ADD DUP1 DUP3 GT ISZERO PUSH2 0x136B JUMPI PUSH2 0x136B PUSH2 0x5035 JUMP JUMPDEST PUSH0 PUSH1 0x20 DUP3 DUP5 SUB SLT ISZERO PUSH2 0x50FC JUMPI PUSH0 PUSH0 REVERT JUMPDEST POP MLOAD SWAP2 SWAP1 POP JUMP JUMPDEST PUSH1 0x20 DUP1 DUP3 MSTORE PUSH1 0x14 SWAP1 DUP3 ADD MSTORE PUSH20 0x496E73756666696369656E742062616C616E6365 PUSH1 0x60 SHL PUSH1 0x40 DUP3 ADD MSTORE PUSH1 0x60 ADD SWAP1 JUMP JUMPDEST PUSH0 PUSH1 0x20 DUP3 DUP5 SUB SLT ISZERO PUSH2 0x5141 JUMPI PUSH0 PUSH0 REVERT JUMPDEST DUP2 MLOAD PUSH2 0x3A50 DUP2 PUSH2 0x4A8F JUMP JUMPDEST PUSH1 0x20 DUP1 DUP3 MSTORE PUSH1 0xF SWAP1 DUP3 ADD MSTORE PUSH15 0x151C985B9CD9995C8819985A5B1959 PUSH1 0x8A SHL PUSH1 0x40 DUP3 ADD MSTORE PUSH1 0x60 ADD SWAP1 JUMP JUMPDEST PUSH4 0x4E487B71 PUSH1 0xE0 SHL PUSH0 MSTORE PUSH1 0x32 PUSH1 0x4 MSTORE PUSH1 0x24 PUSH0 REVERT JUMPDEST DUP1 DUP3 MUL DUP2 ISZERO DUP3 DUP3 DIV DUP5 EQ OR PUSH2 0x136B JUMPI PUSH2 0x136B PUSH2 0x5035 JUMP JUMPDEST PUSH0 DUP3 PUSH2 0x51BA JUMPI PUSH4 0x4E487B71 PUSH1 0xE0 SHL PUSH0 MSTORE PUSH1 0x12 PUSH1 0x4 MSTORE PUSH1 0x24 PUSH0 REVERT JUMPDEST POP DIV SWAP1 JUMP JUMPDEST PUSH1 0x20 DUP1 DUP3 MSTORE PUSH1 0xF SWAP1 DUP3 ADD MSTORE PUSH15 0x426174636820746F6F206C61726765 PUSH1 0x88 SHL PUSH1 0x40 DUP3 ADD MSTORE PUSH1 0x60 ADD SWAP1 JUMP JUMPDEST DUP2 DUP2 SUB DUP2 DUP2 GT ISZERO PUSH2 0x136B JUMPI PUSH2 0x136B PUSH2 0x5035 JUMP JUMPDEST DUP1 MLOAD PUSH10 0xFFFFFFFFFFFFFFFFFFFF DUP2 AND DUP2 EQ PUSH2 0x4A8A JUMPI PUSH0 PUSH0 REVERT JUMPDEST PUSH0 PUSH0 PUSH0 PUSH0 PUSH0 PUSH1 0xA0 DUP7 DUP9 SUB SLT ISZERO PUSH2 0x5228 JUMPI PUSH0 PUSH0 REVERT JUMPDEST PUSH2 0x5231 DUP7 PUSH2 0x51FB JUMP JUMPDEST PUSH1 0x20 DUP8 ADD MLOAD PUSH1 0x40 DUP9 ADD MLOAD PUSH1 0x60 DUP10 ADD MLOAD SWAP3 SWAP8 POP SWAP1 SWAP6 POP SWAP4 POP SWAP2 POP PUSH2 0x5256 PUSH1 0x80 DUP8 ADD PUSH2 0x51FB JUMP JUMPDEST SWAP1 POP SWAP3 SWAP6 POP SWAP3 SWAP6 SWAP1 SWAP4 POP JUMP JUMPDEST PUSH0 DUP3 MLOAD DUP1 PUSH1 0x20 DUP6 ADD DUP5 MCOPY PUSH0 SWAP3 ADD SWAP2 DUP3 MSTORE POP SWAP2 SWAP1 POP JUMP INVALID CALLDATASIZE ADDMOD SWAP5 LOG1 EXTCODESIZE LOG1 LOG3 0x21 MOD PUSH8 0xC828492DB98DCA3E KECCAK256 PUSH23 0xCC3735A920A3CA505D382BBC65D7A28E3265B37A647492 SWAP16 CALLER PUSH6 0x21B332C1681B SWAP4 EXTCODEHASH PUSH13 0xB9F3376673440D862A02DD7BC7 0xDE 0xC4 0xDC RETURNCONTRACT 0xDD 0xA7 PUSH22 0xE58DD541E08A116C6C53815C0BD028192F7B626800A4 SWAP9 SMOD KECCAK256 TLOAD RETF 0xD3 SSTORE MULMOD 0x2E CREATE2 0xA8 LOG1 DUP16 JUMP 0xE8 SWAP2 EXTCODECOPY DELEGATECALL LOG2 ADD EXTSTATICCALL 0xE2 DUP8 DUP3 JUMPDEST MULMOD JUMP SWAP4 0xC2 OR PUSH22 0xA26469706673582212205641CB00AF2BB44DAA931548 SWAP8 XOR CODECOPY PUSH29 0xC2FF1AA2C847424DF184E28DACC3857D64736F6C634300081D00330000 "
		},
		"gasEstimates": {
			"creation": {
				"codeDepositCost": "4258800",
				"executionCost": "infinite",
				"totalCost": "infinite"
			},
			"external": {
				"ADMIN_ROLE()": "infinite",
				"DEFAULT_ADMIN_ROLE()": "327",
				"MAX_BATCH()": "284",
				"MAX_FEE()": "284",
				"MIN_DELAY()": "262",
				"MULTISIG_ROLE()": "284",
				"PAUSER_ROLE()": "infinite",
				"UPGRADE_INTERFACE_VERSION()": "infinite",
				"airdropClaimed(address)": "2607",
				"airdropCliff()": "2385",
				"airdropCliffPercent()": "2449",
				"airdropDeadline()": "2473",
				"airdropDuration()": "2408",
				"antiWhaleLimit()": "2430",
				"approvals(bytes32)": "2547",
				"batchClaim(address[])": "infinite",
				"batchFiat(address[],uint256[],bytes32[])": "infinite",
				"batchRefund(address[])": "infinite",
				"batchStatus(address[],uint256[])": "infinite",
				"buy(uint256)": "infinite",
				"calculateTokens(uint256)": "infinite",
				"canPurchase(address,uint256)": "infinite",
				"cancelTimelock(bytes32)": "infinite",
				"claim()": "infinite",
				"claimAirdrop(bytes32[],uint256)": "infinite",
				"cooldown()": "2427",
				"deactivateVesting(address)": "infinite",
				"defaultCliff()": "2429",
				"defaultCliffPercent()": "2427",
				"defaultDuration()": "2429",
				"emergencyRefund()": "2407",
				"emergencyWithdraw(address,uint256,address)": "infinite",
				"enableEmergencyRefund()": "60455",
				"endTime()": "2429",
				"feePercent()": "2407",
				"feeWallet()": "2447",
				"fiat(address,uint256,bytes32)": "infinite",
				"finalize()": "61513",
				"finalized()": "2442",
				"fundWallet()": "2470",
				"getClaimable(address)": "infinite",
				"getCrowdsaleInfo()": "15268",
				"getRoleAdmin(bytes32)": "infinite",
				"getUserInfo(address)": "infinite",
				"grantRole(bytes32,address)": "infinite",
				"hardcap()": "2405",
				"hasRole(bytes32,address)": "infinite",
				"initialize(address,address,address,address)": "infinite",
				"isMultisig(address)": "2673",
				"lastBlock(address)": "2628",
				"lastBuy(address)": "2672",
				"lastClaim(address)": "2629",
				"manualEnabled()": "2378",
				"manualPrice()": "2450",
				"maxPerTx()": "2382",
				"maxPerWallet()": "2406",
				"merkleRoot()": "2385",
				"minPurchase()": "2385",
				"multisigThreshold()": "2385",
				"oracle()": "2405",
				"oracleEnabled()": "2432",
				"pause()": "infinite",
				"paused()": "2381",
				"processed(bytes32)": "2614",
				"proxiableUUID()": "infinite",
				"purchased(address)": "2629",
				"refund()": "infinite",
				"refundAmount(address)": "2628",
				"refundable()": "2443",
				"renounceRole(bytes32,address)": "29199",
				"requireKYC()": "2488",
				"requireWhitelist()": "2466",
				"revokeRole(bytes32,address)": "infinite",
				"scheduleTimelock(bytes32)": "infinite",
				"setAirdrop(bytes32,uint256,uint256,uint256,uint256)": "infinite",
				"setFeeConfig(address,address,uint256)": "infinite",
				"setLimits(uint256,uint256,uint256,uint256)": "infinite",
				"setManualPrice(uint256,bool)": "infinite",
				"setMultisig(address,bool)": "infinite",
				"setOracle(address,bool)": "infinite",
				"setPeriod(uint256,uint256)": "infinite",
				"setProtection(uint256,uint256,uint256)": "infinite",
				"setRequirements(bool,bool)": "infinite",
				"setSupply(uint256)": "infinite",
				"setThreshold(uint256)": "infinite",
				"setTimelockDelay(uint256)": "infinite",
				"setTokenPrice(uint256)": "infinite",
				"setUserStatus(address,uint256)": "infinite",
				"setVestingDefaults(uint256,uint256,uint256)": "infinite",
				"softcap()": "2405",
				"startTime()": "2449",
				"supportsInterface(bytes4)": "493",
				"timelock(bytes32)": "2569",
				"timelockDelay()": "2383",
				"token()": "2468",
				"tokenPerUsd()": "2406",
				"totalAirdropClaimed()": "2428",
				"totalFeeCollected()": "2362",
				"totalRefunded()": "2428",
				"totalSold()": "2407",
				"totalSupply_()": "2451",
				"unpause()": "infinite",
				"upgradeToAndCall(address,bytes)": "infinite",
				"userStatus(address)": "2607",
				"vestings(address)": "15452",
				"withdrawUnsold()": "infinite"
			},
			"internal": {
				"_authorizeUpgrade(address)": "infinite",
				"_calculateTokens(uint256)": "infinite",
				"_createVesting(address,uint256,uint256,uint256,uint256)": "infinite",
				"_getClaimable(address)": "infinite",
				"_isBlacklisted(address)": "infinite",
				"_isKYCed(address)": "4364",
				"_isWhitelisted(address)": "4364",
				"_processFiat(address,uint256,bytes32)": "infinite",
				"_transfer(address,uint256)": "infinite",
				"_updateVesting(address,uint256)": "infinite",
				"_validateLimits(address,uint256)": "infinite"
			}
		},
		"methodIdentifiers": {
			"ADMIN_ROLE()": "75b238fc",
			"DEFAULT_ADMIN_ROLE()": "a217fddf",
			"MAX_BATCH()": "950bff9f",
			"MAX_FEE()": "bc063e1a",
			"MIN_DELAY()": "9f81aed7",
			"MULTISIG_ROLE()": "e328400c",
			"PAUSER_ROLE()": "e63ab1e9",
			"UPGRADE_INTERFACE_VERSION()": "ad3cb1cc",
			"airdropClaimed(address)": "d1b6dd30",
			"airdropCliff()": "7ed1c990",
			"airdropCliffPercent()": "b6026881",
			"airdropDeadline()": "56448d4c",
			"airdropDuration()": "059d969d",
			"antiWhaleLimit()": "1234f868",
			"approvals(bytes32)": "bf7c2131",
			"batchClaim(address[])": "fb5f749f",
			"batchFiat(address[],uint256[],bytes32[])": "f7d13a1f",
			"batchRefund(address[])": "fff96005",
			"batchStatus(address[],uint256[])": "65d67339",
			"buy(uint256)": "d96a094a",
			"calculateTokens(uint256)": "71aa60fd",
			"canPurchase(address,uint256)": "5d54322d",
			"cancelTimelock(bytes32)": "63285436",
			"claim()": "4e71d92d",
			"claimAirdrop(bytes32[],uint256)": "3335252b",
			"cooldown()": "787a08a6",
			"deactivateVesting(address)": "758ee748",
			"defaultCliff()": "5c8e79e8",
			"defaultCliffPercent()": "ddbba775",
			"defaultDuration()": "2af7e2ea",
			"emergencyRefund()": "16bfe25c",
			"emergencyWithdraw(address,uint256,address)": "551512de",
			"enableEmergencyRefund()": "15aaec0b",
			"endTime()": "3197cbb6",
			"feePercent()": "7fd6f15c",
			"feeWallet()": "f25f4b56",
			"fiat(address,uint256,bytes32)": "ea2b95a3",
			"finalize()": "4bb278f3",
			"finalized()": "b3f05b97",
			"fundWallet()": "664a1ad6",
			"getClaimable(address)": "a583024b",
			"getCrowdsaleInfo()": "2d37e6dc",
			"getRoleAdmin(bytes32)": "248a9ca3",
			"getUserInfo(address)": "6386c1c7",
			"grantRole(bytes32,address)": "2f2ff15d",
			"hardcap()": "b071cbe6",
			"hasRole(bytes32,address)": "91d14854",
			"initialize(address,address,address,address)": "f8c8765e",
			"isMultisig(address)": "668f6ace",
			"lastBlock(address)": "952ca92c",
			"lastBuy(address)": "c1adf7bc",
			"lastClaim(address)": "5c16e15e",
			"manualEnabled()": "2e455a74",
			"manualPrice()": "a2c9d630",
			"maxPerTx()": "f968adbe",
			"maxPerWallet()": "453c2310",
			"merkleRoot()": "2eb4a7ab",
			"minPurchase()": "33b5b62e",
			"multisigThreshold()": "8c75ec80",
			"oracle()": "7dc0d1d0",
			"oracleEnabled()": "756a24e4",
			"pause()": "8456cb59",
			"paused()": "5c975abb",
			"processed(bytes32)": "c1f0808a",
			"proxiableUUID()": "52d1902d",
			"purchased(address)": "522fe98e",
			"refund()": "590e1ae3",
			"refundAmount(address)": "acde5d28",
			"refundable()": "bf89662d",
			"renounceRole(bytes32,address)": "36568abe",
			"requireKYC()": "8805aaa8",
			"requireWhitelist()": "856734c4",
			"revokeRole(bytes32,address)": "d547741f",
			"scheduleTimelock(bytes32)": "a3f2ad5b",
			"setAirdrop(bytes32,uint256,uint256,uint256,uint256)": "1936a383",
			"setFeeConfig(address,address,uint256)": "20a692a3",
			"setLimits(uint256,uint256,uint256,uint256)": "a075b7c7",
			"setManualPrice(uint256,bool)": "48dfcac7",
			"setMultisig(address,bool)": "14bc6ea3",
			"setOracle(address,bool)": "65360843",
			"setPeriod(uint256,uint256)": "03c5b1dc",
			"setProtection(uint256,uint256,uint256)": "de3c1b1b",
			"setRequirements(bool,bool)": "6623c5bc",
			"setSupply(uint256)": "3b4c4b25",
			"setThreshold(uint256)": "960bfe04",
			"setTimelockDelay(uint256)": "af267f8f",
			"setTokenPrice(uint256)": "6a61e5fc",
			"setUserStatus(address,uint256)": "f71cc3a5",
			"setVestingDefaults(uint256,uint256,uint256)": "f71ec2f5",
			"softcap()": "f89be593",
			"startTime()": "78e97925",
			"supportsInterface(bytes4)": "01ffc9a7",
			"timelock(bytes32)": "5da05f37",
			"timelockDelay()": "eef09bad",
			"token()": "fc0c546a",
			"tokenPerUsd()": "a1e98a6d",
			"totalAirdropClaimed()": "9605330b",
			"totalFeeCollected()": "b9b2b5cd",
			"totalRefunded()": "d9082962",
			"totalSold()": "9106d7ba",
			"totalSupply_()": "324536eb",
			"unpause()": "3f4ba83a",
			"upgradeToAndCall(address,bytes)": "4f1ef286",
			"userStatus(address)": "225d29a1",
			"vestings(address)": "daf49863",
			"withdrawUnsold()": "61d6d385"
		}
	},
	"abi": [
		{
			"inputs": [],
			"name": "AccessControlBadConfirmation",
			"type": "error"
		},
		{
			"inputs": [
				{
					"internalType": "address",
					"name": "account",
					"type": "address"
				},
				{
					"internalType": "bytes32",
					"name": "neededRole",
					"type": "bytes32"
				}
			],
			"name": "AccessControlUnauthorizedAccount",
			"type": "error"
		},
		{
			"inputs": [
				{
					"internalType": "address",
					"name": "target",
					"type": "address"
				}
			],
			"name": "AddressEmptyCode",
			"type": "error"
		},
		{
			"inputs": [],
			"name": "AlreadyProcessed",
			"type": "error"
		},
		{
			"inputs": [],
			"name": "BatchTooLarge",
			"type": "error"
		},
		{
			"inputs": [
				{
					"internalType": "address",
					"name": "implementation",
					"type": "address"
				}
			],
			"name": "ERC1967InvalidImplementation",
			"type": "error"
		},
		{
			"inputs": [],
			"name": "ERC1967NonPayable",
			"type": "error"
		},
		{
			"inputs": [],
			"name": "ExceedsLimit",
			"type": "error"
		},
		{
			"inputs": [],
			"name": "FailedCall",
			"type": "error"
		},
		{
			"inputs": [],
			"name": "InsufficientApprovals",
			"type": "error"
		},
		{
			"inputs": [],
			"name": "InsufficientBalance",
			"type": "error"
		},
		{
			"inputs": [],
			"name": "InvalidInitialization",
			"type": "error"
		},
		{
			"inputs": [],
			"name": "InvalidInput",
			"type": "error"
		},
		{
			"inputs": [],
			"name": "InvalidTimeframe",
			"type": "error"
		},
		{
			"inputs": [],
			"name": "InvalidUser",
			"type": "error"
		},
		{
			"inputs": [],
			"name": "NoFunds",
			"type": "error"
		},
		{
			"inputs": [],
			"name": "NotActive",
			"type": "error"
		},
		{
			"inputs": [],
			"name": "NotInitializing",
			"type": "error"
		},
		{
			"inputs": [],
			"name": "NotReady",
			"type": "error"
		},
		{
			"inputs": [],
			"name": "TransferFailed",
			"type": "error"
		},
		{
			"inputs": [],
			"name": "UUPSUnauthorizedCallContext",
			"type": "error"
		},
		{
			"inputs": [
				{
					"internalType": "bytes32",
					"name": "slot",
					"type": "bytes32"
				}
			],
			"name": "UUPSUnsupportedProxiableUUID",
			"type": "error"
		},
		{
			"anonymous": false,
			"inputs": [
				{
					"indexed": true,
					"internalType": "address",
					"name": "user",
					"type": "address"
				},
				{
					"indexed": false,
					"internalType": "uint256",
					"name": "amount",
					"type": "uint256"
				}
			],
			"name": "Airdrop",
			"type": "event"
		},
		{
			"anonymous": false,
			"inputs": [
				{
					"indexed": true,
					"internalType": "address",
					"name": "user",
					"type": "address"
				},
				{
					"indexed": false,
					"internalType": "uint256",
					"name": "amount",
					"type": "uint256"
				}
			],
			"name": "Claim",
			"type": "event"
		},
		{
			"anonymous": false,
			"inputs": [
				{
					"indexed": true,
					"internalType": "address",
					"name": "user",
					"type": "address"
				},
				{
					"indexed": false,
					"internalType": "uint256",
					"name": "amount",
					"type": "uint256"
				},
				{
					"indexed": false,
					"internalType": "bytes32",
					"name": "id",
					"type": "bytes32"
				}
			],
			"name": "FiatProcessed",
			"type": "event"
		},
		{
			"anonymous": false,
			"inputs": [
				{
					"indexed": false,
					"internalType": "uint256",
					"name": "raised",
					"type": "uint256"
				}
			],
			"name": "Finalized",
			"type": "event"
		},
		{
			"anonymous": false,
			"inputs": [
				{
					"indexed": false,
					"internalType": "uint64",
					"name": "version",
					"type": "uint64"
				}
			],
			"name": "Initialized",
			"type": "event"
		},
		{
			"anonymous": false,
			"inputs": [
				{
					"indexed": false,
					"internalType": "address",
					"name": "account",
					"type": "address"
				}
			],
			"name": "Paused",
			"type": "event"
		},
		{
			"anonymous": false,
			"inputs": [
				{
					"indexed": true,
					"internalType": "address",
					"name": "user",
					"type": "address"
				},
				{
					"indexed": false,
					"internalType": "uint256",
					"name": "amount",
					"type": "uint256"
				},
				{
					"indexed": false,
					"internalType": "uint256",
					"name": "paid",
					"type": "uint256"
				}
			],
			"name": "Purchase",
			"type": "event"
		},
		{
			"anonymous": false,
			"inputs": [
				{
					"indexed": true,
					"internalType": "address",
					"name": "user",
					"type": "address"
				},
				{
					"indexed": false,
					"internalType": "uint256",
					"name": "amount",
					"type": "uint256"
				}
			],
			"name": "Refund",
			"type": "event"
		},
		{
			"anonymous": false,
			"inputs": [
				{
					"indexed": true,
					"internalType": "bytes32",
					"name": "role",
					"type": "bytes32"
				},
				{
					"indexed": true,
					"internalType": "bytes32",
					"name": "previousAdminRole",
					"type": "bytes32"
				},
				{
					"indexed": true,
					"internalType": "bytes32",
					"name": "newAdminRole",
					"type": "bytes32"
				}
			],
			"name": "RoleAdminChanged",
			"type": "event"
		},
		{
			"anonymous": false,
			"inputs": [
				{
					"indexed": true,
					"internalType": "bytes32",
					"name": "role",
					"type": "bytes32"
				},
				{
					"indexed": true,
					"internalType": "address",
					"name": "account",
					"type": "address"
				},
				{
					"indexed": true,
					"internalType": "address",
					"name": "sender",
					"type": "address"
				}
			],
			"name": "RoleGranted",
			"type": "event"
		},
		{
			"anonymous": false,
			"inputs": [
				{
					"indexed": true,
					"internalType": "bytes32",
					"name": "role",
					"type": "bytes32"
				},
				{
					"indexed": true,
					"internalType": "address",
					"name": "account",
					"type": "address"
				},
				{
					"indexed": true,
					"internalType": "address",
					"name": "sender",
					"type": "address"
				}
			],
			"name": "RoleRevoked",
			"type": "event"
		},
		{
			"anonymous": false,
			"inputs": [
				{
					"indexed": false,
					"internalType": "address",
					"name": "account",
					"type": "address"
				}
			],
			"name": "Unpaused",
			"type": "event"
		},
		{
			"anonymous": false,
			"inputs": [
				{
					"indexed": true,
					"internalType": "address",
					"name": "implementation",
					"type": "address"
				}
			],
			"name": "Upgraded",
			"type": "event"
		},
		{
			"anonymous": false,
			"inputs": [
				{
					"indexed": true,
					"internalType": "address",
					"name": "user",
					"type": "address"
				},
				{
					"indexed": false,
					"internalType": "uint256",
					"name": "amount",
					"type": "uint256"
				}
			],
			"name": "VestingCreated",
			"type": "event"
		},
		{
			"anonymous": false,
			"inputs": [
				{
					"indexed": true,
					"internalType": "address",
					"name": "user",
					"type": "address"
				},
				{
					"indexed": false,
					"internalType": "uint256",
					"name": "amount",
					"type": "uint256"
				}
			],
			"name": "VestingUpdated",
			"type": "event"
		},
		{
			"inputs": [],
			"name": "ADMIN_ROLE",
			"outputs": [
				{
					"internalType": "bytes32",
					"name": "",
					"type": "bytes32"
				}
			],
			"stateMutability": "view",
			"type": "function"
		},
		{
			"inputs": [],
			"name": "DEFAULT_ADMIN_ROLE",
			"outputs": [
				{
					"internalType": "bytes32",
					"name": "",
					"type": "bytes32"
				}
			],
			"stateMutability": "view",
			"type": "function"
		},
		{
			"inputs": [],
			"name": "MAX_BATCH",
			"outputs": [
				{
					"internalType": "uint256",
					"name": "",
					"type": "uint256"
				}
			],
			"stateMutability": "view",
			"type": "function"
		},
		{
			"inputs": [],
			"name": "MAX_FEE",
			"outputs": [
				{
					"internalType": "uint256",
					"name": "",
					"type": "uint256"
				}
			],
			"stateMutability": "view",
			"type": "function"
		},
		{
			"inputs": [],
			"name": "MIN_DELAY",
			"outputs": [
				{
					"internalType": "uint256",
					"name": "",
					"type": "uint256"
				}
			],
			"stateMutability": "view",
			"type": "function"
		},
		{
			"inputs": [],
			"name": "MULTISIG_ROLE",
			"outputs": [
				{
					"internalType": "bytes32",
					"name": "",
					"type": "bytes32"
				}
			],
			"stateMutability": "view",
			"type": "function"
		},
		{
			"inputs": [],
			"name": "PAUSER_ROLE",
			"outputs": [
				{
					"internalType": "bytes32",
					"name": "",
					"type": "bytes32"
				}
			],
			"stateMutability": "view",
			"type": "function"
		},
		{
			"inputs": [],
			"name": "UPGRADE_INTERFACE_VERSION",
			"outputs": [
				{
					"internalType": "string",
					"name": "",
					"type": "string"
				}
			],
			"stateMutability": "view",
			"type": "function"
		},
		{
			"inputs": [
				{
					"internalType": "address",
					"name": "",
					"type": "address"
				}
			],
			"name": "airdropClaimed",
			"outputs": [
				{
					"internalType": "bool",
					"name": "",
					"type": "bool"
				}
			],
			"stateMutability": "view",
			"type": "function"
		},
		{
			"inputs": [],
			"name": "airdropCliff",
			"outputs": [
				{
					"internalType": "uint256",
					"name": "",
					"type": "uint256"
				}
			],
			"stateMutability": "view",
			"type": "function"
		},
		{
			"inputs": [],
			"name": "airdropCliffPercent",
			"outputs": [
				{
					"internalType": "uint256",
					"name": "",
					"type": "uint256"
				}
			],
			"stateMutability": "view",
			"type": "function"
		},
		{
			"inputs": [],
			"name": "airdropDeadline",
			"outputs": [
				{
					"internalType": "uint256",
					"name": "",
					"type": "uint256"
				}
			],
			"stateMutability": "view",
			"type": "function"
		},
		{
			"inputs": [],
			"name": "airdropDuration",
			"outputs": [
				{
					"internalType": "uint256",
					"name": "",
					"type": "uint256"
				}
			],
			"stateMutability": "view",
			"type": "function"
		},
		{
			"inputs": [],
			"name": "antiWhaleLimit",
			"outputs": [
				{
					"internalType": "uint256",
					"name": "",
					"type": "uint256"
				}
			],
			"stateMutability": "view",
			"type": "function"
		},
		{
			"inputs": [
				{
					"internalType": "bytes32",
					"name": "",
					"type": "bytes32"
				}
			],
			"name": "approvals",
			"outputs": [
				{
					"internalType": "uint256",
					"name": "",
					"type": "uint256"
				}
			],
			"stateMutability": "view",
			"type": "function"
		},
		{
			"inputs": [
				{
					"internalType": "address[]",
					"name": "users",
					"type": "address[]"
				}
			],
			"name": "batchClaim",
			"outputs": [],
			"stateMutability": "nonpayable",
			"type": "function"
		},
		{
			"inputs": [
				{
					"internalType": "address[]",
					"name": "users",
					"type": "address[]"
				},
				{
					"internalType": "uint256[]",
					"name": "amounts",
					"type": "uint256[]"
				},
				{
					"internalType": "bytes32[]",
					"name": "ids",
					"type": "bytes32[]"
				}
			],
			"name": "batchFiat",
			"outputs": [],
			"stateMutability": "nonpayable",
			"type": "function"
		},
		{
			"inputs": [
				{
					"internalType": "address[]",
					"name": "users",
					"type": "address[]"
				}
			],
			"name": "batchRefund",
			"outputs": [],
			"stateMutability": "nonpayable",
			"type": "function"
		},
		{
			"inputs": [
				{
					"internalType": "address[]",
					"name": "users",
					"type": "address[]"
				},
				{
					"internalType": "uint256[]",
					"name": "statuses",
					"type": "uint256[]"
				}
			],
			"name": "batchStatus",
			"outputs": [],
			"stateMutability": "nonpayable",
			"type": "function"
		},
		{
			"inputs": [
				{
					"internalType": "uint256",
					"name": "amount",
					"type": "uint256"
				}
			],
			"name": "buy",
			"outputs": [],
			"stateMutability": "payable",
			"type": "function"
		},
		{
			"inputs": [
				{
					"internalType": "uint256",
					"name": "bnbAmount",
					"type": "uint256"
				}
			],
			"name": "calculateTokens",
			"outputs": [
				{
					"internalType": "uint256",
					"name": "",
					"type": "uint256"
				}
			],
			"stateMutability": "view",
			"type": "function"
		},
		{
			"inputs": [
				{
					"internalType": "address",
					"name": "user",
					"type": "address"
				},
				{
					"internalType": "uint256",
					"name": "bnbAmount",
					"type": "uint256"
				}
			],
			"name": "canPurchase",
			"outputs": [
				{
					"internalType": "bool",
					"name": "can",
					"type": "bool"
				},
				{
					"internalType": "string",
					"name": "reason",
					"type": "string"
				}
			],
			"stateMutability": "view",
			"type": "function"
		},
		{
			"inputs": [
				{
					"internalType": "bytes32",
					"name": "op",
					"type": "bytes32"
				}
			],
			"name": "cancelTimelock",
			"outputs": [],
			"stateMutability": "nonpayable",
			"type": "function"
		},
		{
			"inputs": [],
			"name": "claim",
			"outputs": [],
			"stateMutability": "nonpayable",
			"type": "function"
		},
		{
			"inputs": [
				{
					"internalType": "bytes32[]",
					"name": "proof",
					"type": "bytes32[]"
				},
				{
					"internalType": "uint256",
					"name": "amount",
					"type": "uint256"
				}
			],
			"name": "claimAirdrop",
			"outputs": [],
			"stateMutability": "nonpayable",
			"type": "function"
		},
		{
			"inputs": [],
			"name": "cooldown",
			"outputs": [
				{
					"internalType": "uint256",
					"name": "",
					"type": "uint256"
				}
			],
			"stateMutability": "view",
			"type": "function"
		},
		{
			"inputs": [
				{
					"internalType": "address",
					"name": "user",
					"type": "address"
				}
			],
			"name": "deactivateVesting",
			"outputs": [],
			"stateMutability": "nonpayable",
			"type": "function"
		},
		{
			"inputs": [],
			"name": "defaultCliff",
			"outputs": [
				{
					"internalType": "uint256",
					"name": "",
					"type": "uint256"
				}
			],
			"stateMutability": "view",
			"type": "function"
		},
		{
			"inputs": [],
			"name": "defaultCliffPercent",
			"outputs": [
				{
					"internalType": "uint256",
					"name": "",
					"type": "uint256"
				}
			],
			"stateMutability": "view",
			"type": "function"
		},
		{
			"inputs": [],
			"name": "defaultDuration",
			"outputs": [
				{
					"internalType": "uint256",
					"name": "",
					"type": "uint256"
				}
			],
			"stateMutability": "view",
			"type": "function"
		},
		{
			"inputs": [],
			"name": "emergencyRefund",
			"outputs": [
				{
					"internalType": "bool",
					"name": "",
					"type": "bool"
				}
			],
			"stateMutability": "view",
			"type": "function"
		},
		{
			"inputs": [
				{
					"internalType": "address",
					"name": "_token",
					"type": "address"
				},
				{
					"internalType": "uint256",
					"name": "amount",
					"type": "uint256"
				},
				{
					"internalType": "address",
					"name": "to",
					"type": "address"
				}
			],
			"name": "emergencyWithdraw",
			"outputs": [],
			"stateMutability": "nonpayable",
			"type": "function"
		},
		{
			"inputs": [],
			"name": "enableEmergencyRefund",
			"outputs": [],
			"stateMutability": "nonpayable",
			"type": "function"
		},
		{
			"inputs": [],
			"name": "endTime",
			"outputs": [
				{
					"internalType": "uint256",
					"name": "",
					"type": "uint256"
				}
			],
			"stateMutability": "view",
			"type": "function"
		},
		{
			"inputs": [],
			"name": "feePercent",
			"outputs": [
				{
					"internalType": "uint256",
					"name": "",
					"type": "uint256"
				}
			],
			"stateMutability": "view",
			"type": "function"
		},
		{
			"inputs": [],
			"name": "feeWallet",
			"outputs": [
				{
					"internalType": "address",
					"name": "",
					"type": "address"
				}
			],
			"stateMutability": "view",
			"type": "function"
		},
		{
			"inputs": [
				{
					"internalType": "address",
					"name": "user",
					"type": "address"
				},
				{
					"internalType": "uint256",
					"name": "amount",
					"type": "uint256"
				},
				{
					"internalType": "bytes32",
					"name": "id",
					"type": "bytes32"
				}
			],
			"name": "fiat",
			"outputs": [],
			"stateMutability": "nonpayable",
			"type": "function"
		},
		{
			"inputs": [],
			"name": "finalize",
			"outputs": [],
			"stateMutability": "nonpayable",
			"type": "function"
		},
		{
			"inputs": [],
			"name": "finalized",
			"outputs": [
				{
					"internalType": "bool",
					"name": "",
					"type": "bool"
				}
			],
			"stateMutability": "view",
			"type": "function"
		},
		{
			"inputs": [],
			"name": "fundWallet",
			"outputs": [
				{
					"internalType": "address",
					"name": "",
					"type": "address"
				}
			],
			"stateMutability": "view",
			"type": "function"
		},
		{
			"inputs": [
				{
					"internalType": "address",
					"name": "user",
					"type": "address"
				}
			],
			"name": "getClaimable",
			"outputs": [
				{
					"internalType": "uint256",
					"name": "",
					"type": "uint256"
				}
			],
			"stateMutability": "view",
			"type": "function"
		},
		{
			"inputs": [],
			"name": "getCrowdsaleInfo",
			"outputs": [
				{
					"internalType": "uint256",
					"name": "start",
					"type": "uint256"
				},
				{
					"internalType": "uint256",
					"name": "end",
					"type": "uint256"
				},
				{
					"internalType": "bool",
					"name": "isFinalized",
					"type": "bool"
				},
				{
					"internalType": "bool",
					"name": "isRefundable",
					"type": "bool"
				},
				{
					"internalType": "uint256",
					"name": "sold",
					"type": "uint256"
				},
				{
					"internalType": "uint256",
					"name": "supply",
					"type": "uint256"
				},
				{
					"internalType": "uint256",
					"name": "soft",
					"type": "uint256"
				},
				{
					"internalType": "uint256",
					"name": "hard",
					"type": "uint256"
				}
			],
			"stateMutability": "view",
			"type": "function"
		},
		{
			"inputs": [
				{
					"internalType": "bytes32",
					"name": "role",
					"type": "bytes32"
				}
			],
			"name": "getRoleAdmin",
			"outputs": [
				{
					"internalType": "bytes32",
					"name": "",
					"type": "bytes32"
				}
			],
			"stateMutability": "view",
			"type": "function"
		},
		{
			"inputs": [
				{
					"internalType": "address",
					"name": "user",
					"type": "address"
				}
			],
			"name": "getUserInfo",
			"outputs": [
				{
					"internalType": "uint256",
					"name": "totalPurchased",
					"type": "uint256"
				},
				{
					"internalType": "uint256",
					"name": "claimable",
					"type": "uint256"
				},
				{
					"internalType": "uint256",
					"name": "claimed",
					"type": "uint256"
				},
				{
					"internalType": "uint256",
					"name": "refundable_",
					"type": "uint256"
				}
			],
			"stateMutability": "view",
			"type": "function"
		},
		{
			"inputs": [
				{
					"internalType": "bytes32",
					"name": "role",
					"type": "bytes32"
				},
				{
					"internalType": "address",
					"name": "account",
					"type": "address"
				}
			],
			"name": "grantRole",
			"outputs": [],
			"stateMutability": "nonpayable",
			"type": "function"
		},
		{
			"inputs": [],
			"name": "hardcap",
			"outputs": [
				{
					"internalType": "uint256",
					"name": "",
					"type": "uint256"
				}
			],
			"stateMutability": "view",
			"type": "function"
		},
		{
			"inputs": [
				{
					"internalType": "bytes32",
					"name": "role",
					"type": "bytes32"
				},
				{
					"internalType": "address",
					"name": "account",
					"type": "address"
				}
			],
			"name": "hasRole",
			"outputs": [
				{
					"internalType": "bool",
					"name": "",
					"type": "bool"
				}
			],
			"stateMutability": "view",
			"type": "function"
		},
		{
			"inputs": [
				{
					"internalType": "address",
					"name": "_token",
					"type": "address"
				},
				{
					"internalType": "address",
					"name": "_fund",
					"type": "address"
				},
				{
					"internalType": "address",
					"name": "_fee",
					"type": "address"
				},
				{
					"internalType": "address",
					"name": "_admin",
					"type": "address"
				}
			],
			"name": "initialize",
			"outputs": [],
			"stateMutability": "nonpayable",
			"type": "function"
		},
		{
			"inputs": [
				{
					"internalType": "address",
					"name": "",
					"type": "address"
				}
			],
			"name": "isMultisig",
			"outputs": [
				{
					"internalType": "bool",
					"name": "",
					"type": "bool"
				}
			],
			"stateMutability": "view",
			"type": "function"
		},
		{
			"inputs": [
				{
					"internalType": "address",
					"name": "",
					"type": "address"
				}
			],
			"name": "lastBlock",
			"outputs": [
				{
					"internalType": "uint256",
					"name": "",
					"type": "uint256"
				}
			],
			"stateMutability": "view",
			"type": "function"
		},
		{
			"inputs": [
				{
					"internalType": "address",
					"name": "",
					"type": "address"
				}
			],
			"name": "lastBuy",
			"outputs": [
				{
					"internalType": "uint256",
					"name": "",
					"type": "uint256"
				}
			],
			"stateMutability": "view",
			"type": "function"
		},
		{
			"inputs": [
				{
					"internalType": "address",
					"name": "",
					"type": "address"
				}
			],
			"name": "lastClaim",
			"outputs": [
				{
					"internalType": "uint256",
					"name": "",
					"type": "uint256"
				}
			],
			"stateMutability": "view",
			"type": "function"
		},
		{
			"inputs": [],
			"name": "manualEnabled",
			"outputs": [
				{
					"internalType": "bool",
					"name": "",
					"type": "bool"
				}
			],
			"stateMutability": "view",
			"type": "function"
		},
		{
			"inputs": [],
			"name": "manualPrice",
			"outputs": [
				{
					"internalType": "uint256",
					"name": "",
					"type": "uint256"
				}
			],
			"stateMutability": "view",
			"type": "function"
		},
		{
			"inputs": [],
			"name": "maxPerTx",
			"outputs": [
				{
					"internalType": "uint256",
					"name": "",
					"type": "uint256"
				}
			],
			"stateMutability": "view",
			"type": "function"
		},
		{
			"inputs": [],
			"name": "maxPerWallet",
			"outputs": [
				{
					"internalType": "uint256",
					"name": "",
					"type": "uint256"
				}
			],
			"stateMutability": "view",
			"type": "function"
		},
		{
			"inputs": [],
			"name": "merkleRoot",
			"outputs": [
				{
					"internalType": "bytes32",
					"name": "",
					"type": "bytes32"
				}
			],
			"stateMutability": "view",
			"type": "function"
		},
		{
			"inputs": [],
			"name": "minPurchase",
			"outputs": [
				{
					"internalType": "uint256",
					"name": "",
					"type": "uint256"
				}
			],
			"stateMutability": "view",
			"type": "function"
		},
		{
			"inputs": [],
			"name": "multisigThreshold",
			"outputs": [
				{
					"internalType": "uint256",
					"name": "",
					"type": "uint256"
				}
			],
			"stateMutability": "view",
			"type": "function"
		},
		{
			"inputs": [],
			"name": "oracle",
			"outputs": [
				{
					"internalType": "address",
					"name": "",
					"type": "address"
				}
			],
			"stateMutability": "view",
			"type": "function"
		},
		{
			"inputs": [],
			"name": "oracleEnabled",
			"outputs": [
				{
					"internalType": "bool",
					"name": "",
					"type": "bool"
				}
			],
			"stateMutability": "view",
			"type": "function"
		},
		{
			"inputs": [],
			"name": "pause",
			"outputs": [],
			"stateMutability": "nonpayable",
			"type": "function"
		},
		{
			"inputs": [],
			"name": "paused",
			"outputs": [
				{
					"internalType": "bool",
					"name": "",
					"type": "bool"
				}
			],
			"stateMutability": "view",
			"type": "function"
		},
		{
			"inputs": [
				{
					"internalType": "bytes32",
					"name": "",
					"type": "bytes32"
				}
			],
			"name": "processed",
			"outputs": [
				{
					"internalType": "bool",
					"name": "",
					"type": "bool"
				}
			],
			"stateMutability": "view",
			"type": "function"
		},
		{
			"inputs": [],
			"name": "proxiableUUID",
			"outputs": [
				{
					"internalType": "bytes32",
					"name": "",
					"type": "bytes32"
				}
			],
			"stateMutability": "view",
			"type": "function"
		},
		{
			"inputs": [
				{
					"internalType": "address",
					"name": "",
					"type": "address"
				}
			],
			"name": "purchased",
			"outputs": [
				{
					"internalType": "uint256",
					"name": "",
					"type": "uint256"
				}
			],
			"stateMutability": "view",
			"type": "function"
		},
		{
			"inputs": [],
			"name": "refund",
			"outputs": [],
			"stateMutability": "nonpayable",
			"type": "function"
		},
		{
			"inputs": [
				{
					"internalType": "address",
					"name": "",
					"type": "address"
				}
			],
			"name": "refundAmount",
			"outputs": [
				{
					"internalType": "uint256",
					"name": "",
					"type": "uint256"
				}
			],
			"stateMutability": "view",
			"type": "function"
		},
		{
			"inputs": [],
			"name": "refundable",
			"outputs": [
				{
					"internalType": "bool",
					"name": "",
					"type": "bool"
				}
			],
			"stateMutability": "view",
			"type": "function"
		},
		{
			"inputs": [
				{
					"internalType": "bytes32",
					"name": "role",
					"type": "bytes32"
				},
				{
					"internalType": "address",
					"name": "callerConfirmation",
					"type": "address"
				}
			],
			"name": "renounceRole",
			"outputs": [],
			"stateMutability": "nonpayable",
			"type": "function"
		},
		{
			"inputs": [],
			"name": "requireKYC",
			"outputs": [
				{
					"internalType": "bool",
					"name": "",
					"type": "bool"
				}
			],
			"stateMutability": "view",
			"type": "function"
		},
		{
			"inputs": [],
			"name": "requireWhitelist",
			"outputs": [
				{
					"internalType": "bool",
					"name": "",
					"type": "bool"
				}
			],
			"stateMutability": "view",
			"type": "function"
		},
		{
			"inputs": [
				{
					"internalType": "bytes32",
					"name": "role",
					"type": "bytes32"
				},
				{
					"internalType": "address",
					"name": "account",
					"type": "address"
				}
			],
			"name": "revokeRole",
			"outputs": [],
			"stateMutability": "nonpayable",
			"type": "function"
		},
		{
			"inputs": [
				{
					"internalType": "bytes32",
					"name": "op",
					"type": "bytes32"
				}
			],
			"name": "scheduleTimelock",
			"outputs": [],
			"stateMutability": "nonpayable",
			"type": "function"
		},
		{
			"inputs": [
				{
					"internalType": "bytes32",
					"name": "_root",
					"type": "bytes32"
				},
				{
					"internalType": "uint256",
					"name": "_deadline",
					"type": "uint256"
				},
				{
					"internalType": "uint256",
					"name": "_duration",
					"type": "uint256"
				},
				{
					"internalType": "uint256",
					"name": "_cliff",
					"type": "uint256"
				},
				{
					"internalType": "uint256",
					"name": "_percent",
					"type": "uint256"
				}
			],
			"name": "setAirdrop",
			"outputs": [],
			"stateMutability": "nonpayable",
			"type": "function"
		},
		{
			"inputs": [
				{
					"internalType": "address",
					"name": "_fund",
					"type": "address"
				},
				{
					"internalType": "address",
					"name": "_fee",
					"type": "address"
				},
				{
					"internalType": "uint256",
					"name": "_percent",
					"type": "uint256"
				}
			],
			"name": "setFeeConfig",
			"outputs": [],
			"stateMutability": "nonpayable",
			"type": "function"
		},
		{
			"inputs": [
				{
					"internalType": "uint256",
					"name": "_maxTx",
					"type": "uint256"
				},
				{
					"internalType": "uint256",
					"name": "_maxWallet",
					"type": "uint256"
				},
				{
					"internalType": "uint256",
					"name": "_soft",
					"type": "uint256"
				},
				{
					"internalType": "uint256",
					"name": "_hard",
					"type": "uint256"
				}
			],
			"name": "setLimits",
			"outputs": [],
			"stateMutability": "nonpayable",
			"type": "function"
		},
		{
			"inputs": [
				{
					"internalType": "uint256",
					"name": "_price",
					"type": "uint256"
				},
				{
					"internalType": "bool",
					"name": "_enabled",
					"type": "bool"
				}
			],
			"name": "setManualPrice",
			"outputs": [],
			"stateMutability": "nonpayable",
			"type": "function"
		},
		{
			"inputs": [
				{
					"internalType": "address",
					"name": "signer",
					"type": "address"
				},
				{
					"internalType": "bool",
					"name": "status",
					"type": "bool"
				}
			],
			"name": "setMultisig",
			"outputs": [],
			"stateMutability": "nonpayable",
			"type": "function"
		},
		{
			"inputs": [
				{
					"internalType": "address",
					"name": "_oracle",
					"type": "address"
				},
				{
					"internalType": "bool",
					"name": "_enabled",
					"type": "bool"
				}
			],
			"name": "setOracle",
			"outputs": [],
			"stateMutability": "nonpayable",
			"type": "function"
		},
		{
			"inputs": [
				{
					"internalType": "uint256",
					"name": "_start",
					"type": "uint256"
				},
				{
					"internalType": "uint256",
					"name": "_end",
					"type": "uint256"
				}
			],
			"name": "setPeriod",
			"outputs": [],
			"stateMutability": "nonpayable",
			"type": "function"
		},
		{
			"inputs": [
				{
					"internalType": "uint256",
					"name": "_cooldown",
					"type": "uint256"
				},
				{
					"internalType": "uint256",
					"name": "_antiWhale",
					"type": "uint256"
				},
				{
					"internalType": "uint256",
					"name": "_minPurchase",
					"type": "uint256"
				}
			],
			"name": "setProtection",
			"outputs": [],
			"stateMutability": "nonpayable",
			"type": "function"
		},
		{
			"inputs": [
				{
					"internalType": "bool",
					"name": "_whitelist",
					"type": "bool"
				},
				{
					"internalType": "bool",
					"name": "_kyc",
					"type": "bool"
				}
			],
			"name": "setRequirements",
			"outputs": [],
			"stateMutability": "nonpayable",
			"type": "function"
		},
		{
			"inputs": [
				{
					"internalType": "uint256",
					"name": "_supply",
					"type": "uint256"
				}
			],
			"name": "setSupply",
			"outputs": [],
			"stateMutability": "nonpayable",
			"type": "function"
		},
		{
			"inputs": [
				{
					"internalType": "uint256",
					"name": "_threshold",
					"type": "uint256"
				}
			],
			"name": "setThreshold",
			"outputs": [],
			"stateMutability": "nonpayable",
			"type": "function"
		},
		{
			"inputs": [
				{
					"internalType": "uint256",
					"name": "_delay",
					"type": "uint256"
				}
			],
			"name": "setTimelockDelay",
			"outputs": [],
			"stateMutability": "nonpayable",
			"type": "function"
		},
		{
			"inputs": [
				{
					"internalType": "uint256",
					"name": "_price",
					"type": "uint256"
				}
			],
			"name": "setTokenPrice",
			"outputs": [],
			"stateMutability": "nonpayable",
			"type": "function"
		},
		{
			"inputs": [
				{
					"internalType": "address",
					"name": "user",
					"type": "address"
				},
				{
					"internalType": "uint256",
					"name": "status",
					"type": "uint256"
				}
			],
			"name": "setUserStatus",
			"outputs": [],
			"stateMutability": "nonpayable",
			"type": "function"
		},
		{
			"inputs": [
				{
					"internalType": "uint256",
					"name": "_duration",
					"type": "uint256"
				},
				{
					"internalType": "uint256",
					"name": "_cliff",
					"type": "uint256"
				},
				{
					"internalType": "uint256",
					"name": "_percent",
					"type": "uint256"
				}
			],
			"name": "setVestingDefaults",
			"outputs": [],
			"stateMutability": "nonpayable",
			"type": "function"
		},
		{
			"inputs": [],
			"name": "softcap",
			"outputs": [
				{
					"internalType": "uint256",
					"name": "",
					"type": "uint256"
				}
			],
			"stateMutability": "view",
			"type": "function"
		},
		{
			"inputs": [],
			"name": "startTime",
			"outputs": [
				{
					"internalType": "uint256",
					"name": "",
					"type": "uint256"
				}
			],
			"stateMutability": "view",
			"type": "function"
		},
		{
			"inputs": [
				{
					"internalType": "bytes4",
					"name": "interfaceId",
					"type": "bytes4"
				}
			],
			"name": "supportsInterface",
			"outputs": [
				{
					"internalType": "bool",
					"name": "",
					"type": "bool"
				}
			],
			"stateMutability": "view",
			"type": "function"
		},
		{
			"inputs": [
				{
					"internalType": "bytes32",
					"name": "",
					"type": "bytes32"
				}
			],
			"name": "timelock",
			"outputs": [
				{
					"internalType": "uint256",
					"name": "",
					"type": "uint256"
				}
			],
			"stateMutability": "view",
			"type": "function"
		},
		{
			"inputs": [],
			"name": "timelockDelay",
			"outputs": [
				{
					"internalType": "uint256",
					"name": "",
					"type": "uint256"
				}
			],
			"stateMutability": "view",
			"type": "function"
		},
		{
			"inputs": [],
			"name": "token",
			"outputs": [
				{
					"internalType": "contract IERC20Upgradeable",
					"name": "",
					"type": "address"
				}
			],
			"stateMutability": "view",
			"type": "function"
		},
		{
			"inputs": [],
			"name": "tokenPerUsd",
			"outputs": [
				{
					"internalType": "uint256",
					"name": "",
					"type": "uint256"
				}
			],
			"stateMutability": "view",
			"type": "function"
		},
		{
			"inputs": [],
			"name": "totalAirdropClaimed",
			"outputs": [
				{
					"internalType": "uint256",
					"name": "",
					"type": "uint256"
				}
			],
			"stateMutability": "view",
			"type": "function"
		},
		{
			"inputs": [],
			"name": "totalFeeCollected",
			"outputs": [
				{
					"internalType": "uint256",
					"name": "",
					"type": "uint256"
				}
			],
			"stateMutability": "view",
			"type": "function"
		},
		{
			"inputs": [],
			"name": "totalRefunded",
			"outputs": [
				{
					"internalType": "uint256",
					"name": "",
					"type": "uint256"
				}
			],
			"stateMutability": "view",
			"type": "function"
		},
		{
			"inputs": [],
			"name": "totalSold",
			"outputs": [
				{
					"internalType": "uint256",
					"name": "",
					"type": "uint256"
				}
			],
			"stateMutability": "view",
			"type": "function"
		},
		{
			"inputs": [],
			"name": "totalSupply_",
			"outputs": [
				{
					"internalType": "uint256",
					"name": "",
					"type": "uint256"
				}
			],
			"stateMutability": "view",
			"type": "function"
		},
		{
			"inputs": [],
			"name": "unpause",
			"outputs": [],
			"stateMutability": "nonpayable",
			"type": "function"
		},
		{
			"inputs": [
				{
					"internalType": "address",
					"name": "newImplementation",
					"type": "address"
				},
				{
					"internalType": "bytes",
					"name": "data",
					"type": "bytes"
				}
			],
			"name": "upgradeToAndCall",
			"outputs": [],
			"stateMutability": "payable",
			"type": "function"
		},
		{
			"inputs": [
				{
					"internalType": "address",
					"name": "",
					"type": "address"
				}
			],
			"name": "userStatus",
			"outputs": [
				{
					"internalType": "uint256",
					"name": "",
					"type": "uint256"
				}
			],
			"stateMutability": "view",
			"type": "function"
		},
		{
			"inputs": [
				{
					"internalType": "address",
					"name": "",
					"type": "address"
				}
			],
			"name": "vestings",
			"outputs": [
				{
					"internalType": "uint256",
					"name": "total",
					"type": "uint256"
				},
				{
					"internalType": "uint256",
					"name": "claimed",
					"type": "uint256"
				},
				{
					"internalType": "uint256",
					"name": "start",
					"type": "uint256"
				},
				{
					"internalType": "uint256",
					"name": "duration",
					"type": "uint256"
				},
				{
					"internalType": "uint256",
					"name": "cliff",
					"type": "uint256"
				},
				{
					"internalType": "uint256",
					"name": "cliffPercent",
					"type": "uint256"
				},
				{
					"internalType": "bool",
					"name": "active",
					"type": "bool"
				}
			],
			"stateMutability": "view",
			"type": "function"
		},
		{
			"inputs": [],
			"name": "withdrawUnsold",
			"outputs": [],
			"stateMutability": "nonpayable",
			"type": "function"
		}
	]
}